{"contracts/TokemonERC721A.sol":{"TokemonERC721A":{"abi":[{"inputs":[{"internalType":"string","name":"_name","type":"string"},{"internalType":"string","name":"_symbol","type":"string"},{"internalType":"string","name":"_initBaseURI","type":"string"},{"internalType":"string","name":"_initNotRevealedUri","type":"string"}],"stateMutability":"nonpayable","type":"constructor"},{"inputs":[],"name":"ApprovalCallerNotOwnerNorApproved","type":"error"},{"inputs":[],"name":"ApprovalQueryForNonexistentToken","type":"error"},{"inputs":[],"name":"BalanceQueryForZeroAddress","type":"error"},{"inputs":[],"name":"InvalidQueryRange","type":"error"},{"inputs":[],"name":"MintERC2309QuantityExceedsLimit","type":"error"},{"inputs":[],"name":"MintToZeroAddress","type":"error"},{"inputs":[],"name":"MintZeroQuantity","type":"error"},{"inputs":[],"name":"OwnerQueryForNonexistentToken","type":"error"},{"inputs":[],"name":"OwnershipNotInitializedForExtraData","type":"error"},{"inputs":[],"name":"TransferCallerNotOwnerNorApproved","type":"error"},{"inputs":[],"name":"TransferFromIncorrectOwner","type":"error"},{"inputs":[],"name":"TransferToNonERC721ReceiverImplementer","type":"error"},{"inputs":[],"name":"TransferToZeroAddress","type":"error"},{"inputs":[],"name":"URIQueryForNonexistentToken","type":"error"},{"anonymous":false,"inputs":[{"indexed":true,"internalType":"address","name":"owner","type":"address"},{"indexed":true,"internalType":"address","name":"approved","type":"address"},{"indexed":true,"internalType":"uint256","name":"tokenId","type":"uint256"}],"name":"Approval","type":"event"},{"anonymous":false,"inputs":[{"indexed":true,"internalType":"address","name":"owner","type":"address"},{"indexed":true,"internalType":"address","name":"operator","type":"address"},{"indexed":false,"internalType":"bool","name":"approved","type":"bool"}],"name":"ApprovalForAll","type":"event"},{"anonymous":false,"inputs":[{"indexed":true,"internalType":"uint256","name":"fromTokenId","type":"uint256"},{"indexed":false,"internalType":"uint256","name":"toTokenId","type":"uint256"},{"indexed":true,"internalType":"address","name":"from","type":"address"},{"indexed":true,"internalType":"address","name":"to","type":"address"}],"name":"ConsecutiveTransfer","type":"event"},{"anonymous":false,"inputs":[{"indexed":true,"internalType":"address","name":"previousOwner","type":"address"},{"indexed":true,"internalType":"address","name":"newOwner","type":"address"}],"name":"OwnershipTransferred","type":"event"},{"anonymous":false,"inputs":[{"indexed":true,"internalType":"address","name":"from","type":"address"},{"indexed":true,"internalType":"address","name":"to","type":"address"},{"indexed":true,"internalType":"uint256","name":"tokenId","type":"uint256"}],"name":"Transfer","type":"event"},{"inputs":[{"internalType":"address","name":"","type":"address"}],"name":"addressMintedBalance","outputs":[{"internalType":"uint256","name":"","type":"uint256"}],"stateMutability":"view","type":"function"},{"inputs":[{"internalType":"address","name":"to","type":"address"},{"internalType":"uint256","name":"tokenId","type":"uint256"}],"name":"approve","outputs":[],"stateMutability":"payable","type":"function"},{"inputs":[{"internalType":"address","name":"owner","type":"address"}],"name":"balanceOf","outputs":[{"internalType":"uint256","name":"","type":"uint256"}],"stateMutability":"view","type":"function"},{"inputs":[],"name":"baseExtension","outputs":[{"internalType":"string","name":"","type":"string"}],"stateMutability":"view","type":"function"},{"inputs":[],"name":"baseURI","outputs":[{"internalType":"string","name":"","type":"string"}],"stateMutability":"view","type":"function"},{"inputs":[],"name":"cost","outputs":[{"internalType":"uint256","name":"","type":"uint256"}],"stateMutability":"view","type":"function"},{"inputs":[{"internalType":"uint256","name":"tokenId","type":"uint256"}],"name":"explicitOwnershipOf","outputs":[{"components":[{"internalType":"address","name":"addr","type":"address"},{"internalType":"uint64","name":"startTimestamp","type":"uint64"},{"internalType":"bool","name":"burned","type":"bool"},{"internalType":"uint24","name":"extraData","type":"uint24"}],"internalType":"struct IERC721A.TokenOwnership","name":"","type":"tuple"}],"stateMutability":"view","type":"function"},{"inputs":[{"internalType":"uint256[]","name":"tokenIds","type":"uint256[]"}],"name":"explicitOwnershipsOf","outputs":[{"components":[{"internalType":"address","name":"addr","type":"address"},{"internalType":"uint64","name":"startTimestamp","type":"uint64"},{"internalType":"bool","name":"burned","type":"bool"},{"internalType":"uint24","name":"extraData","type":"uint24"}],"internalType":"struct IERC721A.TokenOwnership[]","name":"","type":"tuple[]"}],"stateMutability":"view","type":"function"},{"inputs":[{"internalType":"uint256","name":"tokenId","type":"uint256"}],"name":"getApproved","outputs":[{"internalType":"address","name":"","type":"address"}],"stateMutability":"view","type":"function"},{"inputs":[{"internalType":"address","name":"owner","type":"address"},{"internalType":"address","name":"operator","type":"address"}],"name":"isApprovedForAll","outputs":[{"internalType":"bool","name":"","type":"bool"}],"stateMutability":"view","type":"function"},{"inputs":[{"internalType":"address","name":"_user","type":"address"}],"name":"isWhitelisted","outputs":[{"internalType":"bool","name":"","type":"bool"}],"stateMutability":"view","type":"function"},{"inputs":[],"name":"maxMintAmount","outputs":[{"internalType":"uint256","name":"","type":"uint256"}],"stateMutability":"view","type":"function"},{"inputs":[],"name":"maxSupply","outputs":[{"internalType":"uint256","name":"","type":"uint256"}],"stateMutability":"view","type":"function"},{"inputs":[{"internalType":"uint256","name":"_mintAmount","type":"uint256"}],"name":"mint","outputs":[],"stateMutability":"payable","type":"function"},{"inputs":[],"name":"name","outputs":[{"internalType":"string","name":"","type":"string"}],"stateMutability":"view","type":"function"},{"inputs":[],"name":"nftPerAddressLimit","outputs":[{"internalType":"uint256","name":"","type":"uint256"}],"stateMutability":"view","type":"function"},{"inputs":[],"name":"notRevealedUri","outputs":[{"internalType":"string","name":"","type":"string"}],"stateMutability":"view","type":"function"},{"inputs":[],"name":"onlyWhitelisted","outputs":[{"internalType":"bool","name":"","type":"bool"}],"stateMutability":"view","type":"function"},{"inputs":[],"name":"owner","outputs":[{"internalType":"address","name":"","type":"address"}],"stateMutability":"view","type":"function"},{"inputs":[{"internalType":"uint256","name":"tokenId","type":"uint256"}],"name":"ownerOf","outputs":[{"internalType":"address","name":"","type":"address"}],"stateMutability":"view","type":"function"},{"inputs":[{"internalType":"bool","name":"_state","type":"bool"}],"name":"pause","outputs":[],"stateMutability":"nonpayable","type":"function"},{"inputs":[],"name":"paused","outputs":[{"internalType":"bool","name":"","type":"bool"}],"stateMutability":"view","type":"function"},{"inputs":[],"name":"renounceOwnership","outputs":[],"stateMutability":"nonpayable","type":"function"},{"inputs":[],"name":"reveal","outputs":[],"stateMutability":"nonpayable","type":"function"},{"inputs":[],"name":"revealed","outputs":[{"internalType":"bool","name":"","type":"bool"}],"stateMutability":"view","type":"function"},{"inputs":[{"internalType":"address","name":"from","type":"address"},{"internalType":"address","name":"to","type":"address"},{"internalType":"uint256","name":"tokenId","type":"uint256"}],"name":"safeTransferFrom","outputs":[],"stateMutability":"payable","type":"function"},{"inputs":[{"internalType":"address","name":"from","type":"address"},{"internalType":"address","name":"to","type":"address"},{"internalType":"uint256","name":"tokenId","type":"uint256"},{"internalType":"bytes","name":"_data","type":"bytes"}],"name":"safeTransferFrom","outputs":[],"stateMutability":"payable","type":"function"},{"inputs":[{"internalType":"address","name":"operator","type":"address"},{"internalType":"bool","name":"approved","type":"bool"}],"name":"setApprovalForAll","outputs":[],"stateMutability":"nonpayable","type":"function"},{"inputs":[{"internalType":"string","name":"_newBaseExtension","type":"string"}],"name":"setBaseExtension","outputs":[],"stateMutability":"nonpayable","type":"function"},{"inputs":[{"internalType":"string","name":"_newBaseURI","type":"string"}],"name":"setBaseURI","outputs":[],"stateMutability":"nonpayable","type":"function"},{"inputs":[{"internalType":"uint256","name":"_newCost","type":"uint256"}],"name":"setCost","outputs":[],"stateMutability":"nonpayable","type":"function"},{"inputs":[{"internalType":"uint256","name":"_limit","type":"uint256"}],"name":"setNftPerAddressLimit","outputs":[],"stateMutability":"nonpayable","type":"function"},{"inputs":[{"internalType":"string","name":"_notRevealedURI","type":"string"}],"name":"setNotRevealedURI","outputs":[],"stateMutability":"nonpayable","type":"function"},{"inputs":[{"internalType":"bool","name":"_state","type":"bool"}],"name":"setOnlyWhitelisted","outputs":[],"stateMutability":"nonpayable","type":"function"},{"inputs":[{"internalType":"uint256","name":"_newmaxMintAmount","type":"uint256"}],"name":"setmaxMintAmount","outputs":[],"stateMutability":"nonpayable","type":"function"},{"inputs":[{"internalType":"bytes4","name":"interfaceId","type":"bytes4"}],"name":"supportsInterface","outputs":[{"internalType":"bool","name":"","type":"bool"}],"stateMutability":"view","type":"function"},{"inputs":[],"name":"symbol","outputs":[{"internalType":"string","name":"","type":"string"}],"stateMutability":"view","type":"function"},{"inputs":[{"internalType":"uint256","name":"tokenId","type":"uint256"}],"name":"tokenURI","outputs":[{"internalType":"string","name":"","type":"string"}],"stateMutability":"view","type":"function"},{"inputs":[{"internalType":"address","name":"owner","type":"address"}],"name":"tokensOfOwner","outputs":[{"internalType":"uint256[]","name":"","type":"uint256[]"}],"stateMutability":"view","type":"function"},{"inputs":[{"internalType":"address","name":"owner","type":"address"},{"internalType":"uint256","name":"start","type":"uint256"},{"internalType":"uint256","name":"stop","type":"uint256"}],"name":"tokensOfOwnerIn","outputs":[{"internalType":"uint256[]","name":"","type":"uint256[]"}],"stateMutability":"view","type":"function"},{"inputs":[],"name":"totalSupply","outputs":[{"internalType":"uint256","name":"","type":"uint256"}],"stateMutability":"view","type":"function"},{"inputs":[{"internalType":"address","name":"from","type":"address"},{"internalType":"address","name":"to","type":"address"},{"internalType":"uint256","name":"tokenId","type":"uint256"}],"name":"transferFrom","outputs":[],"stateMutability":"payable","type":"function"},{"inputs":[{"internalType":"address","name":"newOwner","type":"address"}],"name":"transferOwnership","outputs":[],"stateMutability":"nonpayable","type":"function"},{"inputs":[{"internalType":"address[]","name":"_users","type":"address[]"}],"name":"whitelistUsers","outputs":[],"stateMutability":"nonpayable","type":"function"},{"inputs":[{"internalType":"uint256","name":"","type":"uint256"}],"name":"whitelistedAddresses","outputs":[{"internalType":"address","name":"","type":"address"}],"stateMutability":"view","type":"function"},{"inputs":[],"name":"withdraw","outputs":[],"stateMutability":"payable","type":"function"}],"evm":{"bytecode":{"linkReferences":{},"object":"60806040526040518060400160405280600581526020017f2e6a736f6e000000000000000000000000000000000000000000000000000000815250600a90816200004a9190620005c5565b5066038d7ea4c68000600c556064600d556002600e556002600f556000601060006101000a81548160ff0219169083151502179055506001601060016101000a81548160ff0219169083151502179055506000601060026101000a81548160ff021916908315150217905550348015620000c357600080fd5b5060405162004ae838038062004ae88339818101604052810190620000e9919062000810565b83838160029081620000fc9190620005c5565b5080600390816200010e9190620005c5565b506200011f6200017360201b60201c565b6000819055505050620001476200013b6200017860201b60201c565b6200018060201b60201c565b62000158826200024660201b60201c565b62000169816200026b60201b60201c565b5050505062000981565b600090565b600033905090565b6000600860009054906101000a900473ffffffffffffffffffffffffffffffffffffffff16905081600860006101000a81548173ffffffffffffffffffffffffffffffffffffffff021916908373ffffffffffffffffffffffffffffffffffffffff1602179055508173ffffffffffffffffffffffffffffffffffffffff168173ffffffffffffffffffffffffffffffffffffffff167f8be0079c531659141344cd1fd0a4f28419497f9722a3daafe3b4186f6b6457e060405160405180910390a35050565b620002566200029060201b60201c565b8060099081620002679190620005c5565b5050565b6200027b6200029060201b60201c565b80600b90816200028c9190620005c5565b5050565b620002a06200017860201b60201c565b73ffffffffffffffffffffffffffffffffffffffff16620002c66200032160201b60201c565b73ffffffffffffffffffffffffffffffffffffffff16146200031f576040517f08c379a000000000000000000000000000000000000000000000000000000000815260040162000316906200095f565b60405180910390fd5b565b6000600860009054906101000a900473ffffffffffffffffffffffffffffffffffffffff16905090565b600081519050919050565b7f4e487b7100000000000000000000000000000000000000000000000000000000600052604160045260246000fd5b7f4e487b7100000000000000000000000000000000000000000000000000000000600052602260045260246000fd5b60006002820490506001821680620003cd57607f821691505b602082108103620003e357620003e262000385565b5b50919050565b60008190508160005260206000209050919050565b60006020601f8301049050919050565b600082821b905092915050565b6000600883026200044d7fffffffffffffffffffffffffffffffffffffffffffffffffffffffffffffffff826200040e565b6200045986836200040e565b95508019841693508086168417925050509392505050565b6000819050919050565b6000819050919050565b6000620004a6620004a06200049a8462000471565b6200047b565b62000471565b9050919050565b6000819050919050565b620004c28362000485565b620004da620004d182620004ad565b8484546200041b565b825550505050565b600090565b620004f1620004e2565b620004fe818484620004b7565b505050565b5b8181101562000526576200051a600082620004e7565b60018101905062000504565b5050565b601f82111562000575576200053f81620003e9565b6200054a84620003fe565b810160208510156200055a578190505b620005726200056985620003fe565b83018262000503565b50505b505050565b600082821c905092915050565b60006200059a600019846008026200057a565b1980831691505092915050565b6000620005b5838362000587565b9150826002028217905092915050565b620005d0826200034b565b67ffffffffffffffff811115620005ec57620005eb62000356565b5b620005f88254620003b4565b620006058282856200052a565b600060209050601f8311600181146200063d576000841562000628578287015190505b620006348582620005a7565b865550620006a4565b601f1984166200064d86620003e9565b60005b82811015620006775784890151825560018201915060208501945060208101905062000650565b8683101562000697578489015162000693601f89168262000587565b8355505b6001600288020188555050505b505050505050565b6000604051905090565b600080fd5b600080fd5b600080fd5b600080fd5b6000601f19601f8301169050919050565b620006e682620006ca565b810181811067ffffffffffffffff8211171562000708576200070762000356565b5b80604052505050565b60006200071d620006ac565b90506200072b8282620006db565b919050565b600067ffffffffffffffff8211156200074e576200074d62000356565b5b6200075982620006ca565b9050602081019050919050565b60005b838110156200078657808201518184015260208101905062000769565b60008484015250505050565b6000620007a9620007a38462000730565b62000711565b905082815260208101848484011115620007c857620007c7620006c5565b5b620007d584828562000766565b509392505050565b600082601f830112620007f557620007f4620006c0565b5b81516200080784826020860162000792565b91505092915050565b600080600080608085870312156200082d576200082c620006b6565b5b600085015167ffffffffffffffff8111156200084e576200084d620006bb565b5b6200085c87828801620007dd565b945050602085015167ffffffffffffffff81111562000880576200087f620006bb565b5b6200088e87828801620007dd565b935050604085015167ffffffffffffffff811115620008b257620008b1620006bb565b5b620008c087828801620007dd565b925050606085015167ffffffffffffffff811115620008e457620008e3620006bb565b5b620008f287828801620007dd565b91505092959194509250565b600082825260208201905092915050565b7f4f776e61626c653a2063616c6c6572206973206e6f7420746865206f776e6572600082015250565b600062000947602083620008fe565b915062000954826200090f565b602082019050919050565b600060208201905081810360008301526200097a8162000938565b9050919050565b61415780620009916000396000f3fe60806040526004361061027d5760003560e01c8063715018a61161014f578063ba4e5c49116100c1578063d5abeb011161007a578063d5abeb0114610970578063da3ef23f1461099b578063e985e9c5146109c4578063edec5f2714610a01578063f2c4ce1e14610a2a578063f2fde38b14610a535761027d565b8063ba4e5c491461083a578063ba7d2c7614610877578063c23dc68f146108a2578063c6682862146108df578063c87b56dd1461090a578063d0eb26b0146109475761027d565b806399a2557a1161011357806399a2557a1461075a5780639c70b51214610797578063a0712d68146107c2578063a22cb465146107de578063a475b5dd14610807578063b88d4fde1461081e5761027d565b8063715018a6146106875780637f00c7a61461069e5780638462151c146106c75780638da5cb5b1461070457806395d89b411461072f5761027d565b80633af32abf116101f357806355f804b3116101ac57806355f804b3146105515780635bbb21771461057a5780635c975abb146105b75780636352211e146105e25780636c0360eb1461061f57806370a082311461064a5761027d565b80633af32abf146104715780633c952764146104ae5780633ccfd60b146104d757806342842e0e146104e157806344a0d68a146104fd57806351830227146105265761027d565b8063095ea7b311610245578063095ea7b31461037b57806313faede61461039757806318160ddd146103c257806318cae269146103ed578063239c70ae1461042a57806323b872dd146104555761027d565b806301ffc9a71461028257806302329a29146102bf57806306fdde03146102e8578063081812fc14610313578063081c8c4414610350575b600080fd5b34801561028e57600080fd5b506102a960048036038101906102a49190612ca9565b610a7c565b6040516102b69190612cf1565b60405180910390f35b3480156102cb57600080fd5b506102e660048036038101906102e19190612d38565b610b0e565b005b3480156102f457600080fd5b506102fd610b33565b60405161030a9190612df5565b60405180910390f35b34801561031f57600080fd5b5061033a60048036038101906103359190612e4d565b610bc5565b6040516103479190612ebb565b60405180910390f35b34801561035c57600080fd5b50610365610c44565b6040516103729190612df5565b60405180910390f35b61039560048036038101906103909190612f02565b610cd2565b005b3480156103a357600080fd5b506103ac610e16565b6040516103b99190612f51565b60405180910390f35b3480156103ce57600080fd5b506103d7610e1c565b6040516103e49190612f51565b60405180910390f35b3480156103f957600080fd5b50610414600480360381019061040f9190612f6c565b610e33565b6040516104219190612f51565b60405180910390f35b34801561043657600080fd5b5061043f610e4b565b60405161044c9190612f51565b60405180910390f35b61046f600480360381019061046a9190612f99565b610e51565b005b34801561047d57600080fd5b5061049860048036038101906104939190612f6c565b611173565b6040516104a59190612cf1565b60405180910390f35b3480156104ba57600080fd5b506104d560048036038101906104d09190612d38565b611221565b005b6104df611246565b005b6104fb60048036038101906104f69190612f99565b6112ce565b005b34801561050957600080fd5b50610524600480360381019061051f9190612e4d565b6112ee565b005b34801561053257600080fd5b5061053b611300565b6040516105489190612cf1565b60405180910390f35b34801561055d57600080fd5b5061057860048036038101906105739190613121565b611313565b005b34801561058657600080fd5b506105a1600480360381019061059c91906131ca565b61132e565b6040516105ae919061337a565b60405180910390f35b3480156105c357600080fd5b506105cc6113f1565b6040516105d99190612cf1565b60405180910390f35b3480156105ee57600080fd5b5061060960048036038101906106049190612e4d565b611404565b6040516106169190612ebb565b60405180910390f35b34801561062b57600080fd5b50610634611416565b6040516106419190612df5565b60405180910390f35b34801561065657600080fd5b50610671600480360381019061066c9190612f6c565b6114a4565b60405161067e9190612f51565b60405180910390f35b34801561069357600080fd5b5061069c61155c565b005b3480156106aa57600080fd5b506106c560048036038101906106c09190612e4d565b611570565b005b3480156106d357600080fd5b506106ee60048036038101906106e99190612f6c565b611582565b6040516106fb919061345a565b60405180910390f35b34801561071057600080fd5b506107196116c5565b6040516107269190612ebb565b60405180910390f35b34801561073b57600080fd5b506107446116ef565b6040516107519190612df5565b60405180910390f35b34801561076657600080fd5b50610781600480360381019061077c919061347c565b611781565b60405161078e919061345a565b60405180910390f35b3480156107a357600080fd5b506107ac61198d565b6040516107b99190612cf1565b60405180910390f35b6107dc60048036038101906107d79190612e4d565b6119a0565b005b3480156107ea57600080fd5b50610805600480360381019061080091906134cf565b611ce8565b005b34801561081357600080fd5b5061081c611df3565b005b610838600480360381019061083391906135b0565b611e18565b005b34801561084657600080fd5b50610861600480360381019061085c9190612e4d565b611e8b565b60405161086e9190612ebb565b60405180910390f35b34801561088357600080fd5b5061088c611eca565b6040516108999190612f51565b60405180910390f35b3480156108ae57600080fd5b506108c960048036038101906108c49190612e4d565b611ed0565b6040516108d69190613688565b60405180910390f35b3480156108eb57600080fd5b506108f4611f3a565b6040516109019190612df5565b60405180910390f35b34801561091657600080fd5b50610931600480360381019061092c9190612e4d565b611fc8565b60405161093e9190612df5565b60405180910390f35b34801561095357600080fd5b5061096e60048036038101906109699190612e4d565b612066565b005b34801561097c57600080fd5b50610985612078565b6040516109929190612f51565b60405180910390f35b3480156109a757600080fd5b506109c260048036038101906109bd9190613121565b61207e565b005b3480156109d057600080fd5b506109eb60048036038101906109e691906136a3565b612099565b6040516109f89190612cf1565b60405180910390f35b348015610a0d57600080fd5b50610a286004803603810190610a239190613739565b61212d565b005b348015610a3657600080fd5b50610a516004803603810190610a4c9190613121565b612159565b005b348015610a5f57600080fd5b50610a7a6004803603810190610a759190612f6c565b612174565b005b60006301ffc9a760e01b827bffffffffffffffffffffffffffffffffffffffffffffffffffffffff19161480610ad757506380ac58cd60e01b827bffffffffffffffffffffffffffffffffffffffffffffffffffffffff1916145b80610b075750635b5e139f60e01b827bffffffffffffffffffffffffffffffffffffffffffffffffffffffff1916145b9050919050565b610b166121f7565b80601060006101000a81548160ff02191690831515021790555050565b606060028054610b42906137b5565b80601f0160208091040260200160405190810160405280929190818152602001828054610b6e906137b5565b8015610bbb5780601f10610b9057610100808354040283529160200191610bbb565b820191906000526020600020905b815481529060010190602001808311610b9e57829003601f168201915b5050505050905090565b6000610bd082612275565b610c06576040517fcf4700e400000000000000000000000000000000000000000000000000000000815260040160405180910390fd5b6006600083815260200190815260200160002060000160009054906101000a900473ffffffffffffffffffffffffffffffffffffffff169050919050565b600b8054610c51906137b5565b80601f0160208091040260200160405190810160405280929190818152602001828054610c7d906137b5565b8015610cca5780601f10610c9f57610100808354040283529160200191610cca565b820191906000526020600020905b815481529060010190602001808311610cad57829003601f168201915b505050505081565b6000610cdd82611404565b90508073ffffffffffffffffffffffffffffffffffffffff16610cfe6122d4565b73ffffffffffffffffffffffffffffffffffffffff1614610d6157610d2a81610d256122d4565b612099565b610d60576040517fcfb3b94200000000000000000000000000000000000000000000000000000000815260040160405180910390fd5b5b826006600084815260200190815260200160002060000160006101000a81548173ffffffffffffffffffffffffffffffffffffffff021916908373ffffffffffffffffffffffffffffffffffffffff160217905550818373ffffffffffffffffffffffffffffffffffffffff168273ffffffffffffffffffffffffffffffffffffffff167f8c5be1e5ebec7d5bd14f71427d1e84f3dd0314c0f7b2291e5b200ac8c7c3b92560405160405180910390a4505050565b600c5481565b6000610e266122dc565b6001546000540303905090565b60126020528060005260406000206000915090505481565b600e5481565b6000610e5c826122e1565b90508373ffffffffffffffffffffffffffffffffffffffff168173ffffffffffffffffffffffffffffffffffffffff1614610ec3576040517fa114810000000000000000000000000000000000000000000000000000000000815260040160405180910390fd5b600080610ecf846123ad565b91509150610ee58187610ee06122d4565b6123d4565b610f3157610efa86610ef56122d4565b612099565b610f30576040517f59c896be00000000000000000000000000000000000000000000000000000000815260040160405180910390fd5b5b600073ffffffffffffffffffffffffffffffffffffffff168573ffffffffffffffffffffffffffffffffffffffff1603610f97576040517fea553b3400000000000000000000000000000000000000000000000000000000815260040160405180910390fd5b610fa48686866001612418565b8015610faf57600082555b600560008773ffffffffffffffffffffffffffffffffffffffff1673ffffffffffffffffffffffffffffffffffffffff168152602001908152602001600020600081546001900391905081905550600560008673ffffffffffffffffffffffffffffffffffffffff1673ffffffffffffffffffffffffffffffffffffffff168152602001908152602001600020600081546001019190508190555061107d8561105988888761241e565b7c020000000000000000000000000000000000000000000000000000000017612446565b600460008681526020019081526020016000208190555060007c02000000000000000000000000000000000000000000000000000000008416036111035760006001850190506000600460008381526020019081526020016000205403611101576000548114611100578360046000838152602001908152602001600020819055505b5b505b838573ffffffffffffffffffffffffffffffffffffffff168773ffffffffffffffffffffffffffffffffffffffff167fddf252ad1be2c89b69c2b068fc378daa952ba7f163c4a11628f55a4df523b3ef60405160405180910390a461116b8686866001612471565b505050505050565b600080600090505b601180549050811015611216578273ffffffffffffffffffffffffffffffffffffffff16601182815481106111b3576111b26137e6565b5b9060005260206000200160009054906101000a900473ffffffffffffffffffffffffffffffffffffffff1673ffffffffffffffffffffffffffffffffffffffff160361120357600191505061121c565b808061120e90613844565b91505061117b565b50600090505b919050565b6112296121f7565b80601060026101000a81548160ff02191690831515021790555050565b61124e6121f7565b60006112586116c5565b73ffffffffffffffffffffffffffffffffffffffff164760405161127b906138bd565b60006040518083038185875af1925050503d80600081146112b8576040519150601f19603f3d011682016040523d82523d6000602084013e6112bd565b606091505b50509050806112cb57600080fd5b50565b6112e983838360405180602001604052806000815250611e18565b505050565b6112f66121f7565b80600c8190555050565b601060019054906101000a900460ff1681565b61131b6121f7565b806009908161132a9190613a7e565b5050565b6060600083839050905060008167ffffffffffffffff81111561135457611353612ff6565b5b60405190808252806020026020018201604052801561138d57816020015b61137a612b10565b8152602001906001900390816113725790505b50905060005b8281146113e5576113bc8686838181106113b0576113af6137e6565b5b90506020020135611ed0565b8282815181106113cf576113ce6137e6565b5b6020026020010181905250806001019050611393565b50809250505092915050565b601060009054906101000a900460ff1681565b600061140f826122e1565b9050919050565b60098054611423906137b5565b80601f016020809104026020016040519081016040528092919081815260200182805461144f906137b5565b801561149c5780601f106114715761010080835404028352916020019161149c565b820191906000526020600020905b81548152906001019060200180831161147f57829003601f168201915b505050505081565b60008073ffffffffffffffffffffffffffffffffffffffff168273ffffffffffffffffffffffffffffffffffffffff160361150b576040517f8f4eb60400000000000000000000000000000000000000000000000000000000815260040160405180910390fd5b67ffffffffffffffff600560008473ffffffffffffffffffffffffffffffffffffffff1673ffffffffffffffffffffffffffffffffffffffff16815260200190815260200160002054169050919050565b6115646121f7565b61156e6000612477565b565b6115786121f7565b80600e8190555050565b60606000806000611592856114a4565b905060008167ffffffffffffffff8111156115b0576115af612ff6565b5b6040519080825280602002602001820160405280156115de5781602001602082028036833780820191505090505b5090506115e9612b10565b60006115f36122dc565b90505b8386146116b7576116068161253d565b915081604001516116ac57600073ffffffffffffffffffffffffffffffffffffffff16826000015173ffffffffffffffffffffffffffffffffffffffff161461165157816000015194505b8773ffffffffffffffffffffffffffffffffffffffff168573ffffffffffffffffffffffffffffffffffffffff16036116ab578083878060010198508151811061169e5761169d6137e6565b5b6020026020010181815250505b5b8060010190506115f6565b508195505050505050919050565b6000600860009054906101000a900473ffffffffffffffffffffffffffffffffffffffff16905090565b6060600380546116fe906137b5565b80601f016020809104026020016040519081016040528092919081815260200182805461172a906137b5565b80156117775780601f1061174c57610100808354040283529160200191611777565b820191906000526020600020905b81548152906001019060200180831161175a57829003601f168201915b5050505050905090565b60608183106117bc576040517f32c1995a00000000000000000000000000000000000000000000000000000000815260040160405180910390fd5b6000806117c7612568565b90506117d16122dc565b8510156117e3576117e06122dc565b94505b808411156117ef578093505b60006117fa876114a4565b90508486101561181d576000868603905081811015611817578091505b50611822565b600090505b60008167ffffffffffffffff81111561183e5761183d612ff6565b5b60405190808252806020026020018201604052801561186c5781602001602082028036833780820191505090505b509050600082036118835780945050505050611986565b600061188e88611ed0565b9050600081604001516118a357816000015190505b60008990505b8881141580156118b95750848714155b15611978576118c78161253d565b9250826040015161196d57600073ffffffffffffffffffffffffffffffffffffffff16836000015173ffffffffffffffffffffffffffffffffffffffff161461191257826000015191505b8a73ffffffffffffffffffffffffffffffffffffffff168273ffffffffffffffffffffffffffffffffffffffff160361196c578084888060010199508151811061195f5761195e6137e6565b5b6020026020010181815250505b5b8060010190506118a9565b508583528296505050505050505b9392505050565b601060029054906101000a900460ff1681565b601060009054906101000a900460ff16156119f0576040517f08c379a00000000000000000000000000000000000000000000000000000000081526004016119e790613b9c565b60405180910390fd5b60006119fa610e1c565b905060008211611a3f576040517f08c379a0000000000000000000000000000000000000000000000000000000008152600401611a3690613c08565b60405180910390fd5b600e54821115611a84576040517f08c379a0000000000000000000000000000000000000000000000000000000008152600401611a7b90613c9a565b60405180910390fd5b600d548282611a939190613cba565b1115611ad4576040517f08c379a0000000000000000000000000000000000000000000000000000000008152600401611acb90613d3a565b60405180910390fd5b611adc6116c5565b73ffffffffffffffffffffffffffffffffffffffff163373ffffffffffffffffffffffffffffffffffffffff1614611c585760011515601060029054906101000a900460ff16151503611c0757611b3233611173565b611b71576040517f08c379a0000000000000000000000000000000000000000000000000000000008152600401611b6890613da6565b60405180910390fd5b6000601260003373ffffffffffffffffffffffffffffffffffffffff1673ffffffffffffffffffffffffffffffffffffffff168152602001908152602001600020549050600f548382611bc49190613cba565b1115611c05576040517f08c379a0000000000000000000000000000000000000000000000000000000008152600401611bfc90613e12565b60405180910390fd5b505b81600c54611c159190613e32565b341015611c57576040517f08c379a0000000000000000000000000000000000000000000000000000000008152600401611c4e90613ec0565b60405180910390fd5b5b6000600190505b828111611ce357601260003373ffffffffffffffffffffffffffffffffffffffff1673ffffffffffffffffffffffffffffffffffffffff1681526020019081526020016000206000815480929190611cb690613844565b9190505550611cd0338284611ccb9190613cba565b612571565b8080611cdb90613844565b915050611c5f565b505050565b8060076000611cf56122d4565b73ffffffffffffffffffffffffffffffffffffffff1673ffffffffffffffffffffffffffffffffffffffff16815260200190815260200160002060008473ffffffffffffffffffffffffffffffffffffffff1673ffffffffffffffffffffffffffffffffffffffff16815260200190815260200160002060006101000a81548160ff0219169083151502179055508173ffffffffffffffffffffffffffffffffffffffff16611da26122d4565b73ffffffffffffffffffffffffffffffffffffffff167f17307eab39ab6107e8899845ad3d59bd9653f200f220920489ca2b5937696c3183604051611de79190612cf1565b60405180910390a35050565b611dfb6121f7565b6001601060016101000a81548160ff021916908315150217905550565b611e23848484610e51565b60008373ffffffffffffffffffffffffffffffffffffffff163b14611e8557611e4e8484848461258f565b611e84576040517fd1a57ed600000000000000000000000000000000000000000000000000000000815260040160405180910390fd5b5b50505050565b60118181548110611e9b57600080fd5b906000526020600020016000915054906101000a900473ffffffffffffffffffffffffffffffffffffffff1681565b600f5481565b611ed8612b10565b611ee0612b10565b611ee86122dc565b831080611efc5750611ef8612568565b8310155b15611f0a5780915050611f35565b611f138361253d565b9050806040015115611f285780915050611f35565b611f31836126df565b9150505b919050565b600a8054611f47906137b5565b80601f0160208091040260200160405190810160405280929190818152602001828054611f73906137b5565b8015611fc05780601f10611f9557610100808354040283529160200191611fc0565b820191906000526020600020905b815481529060010190602001808311611fa357829003601f168201915b505050505081565b6060611fd382612275565b612009576040517fa14c4b5000000000000000000000000000000000000000000000000000000000815260040160405180910390fd5b60006120136126ff565b90506000815103612033576040518060200160405280600081525061205e565b8061203d84612791565b60405160200161204e929190613f1c565b6040516020818303038152906040525b915050919050565b61206e6121f7565b80600f8190555050565b600d5481565b6120866121f7565b80600a90816120959190613a7e565b5050565b6000600760008473ffffffffffffffffffffffffffffffffffffffff1673ffffffffffffffffffffffffffffffffffffffff16815260200190815260200160002060008373ffffffffffffffffffffffffffffffffffffffff1673ffffffffffffffffffffffffffffffffffffffff16815260200190815260200160002060009054906101000a900460ff16905092915050565b6121356121f7565b601160006121439190612b5f565b818160119190612154929190612b80565b505050565b6121616121f7565b80600b90816121709190613a7e565b5050565b61217c6121f7565b600073ffffffffffffffffffffffffffffffffffffffff168173ffffffffffffffffffffffffffffffffffffffff16036121eb576040517f08c379a00000000000000000000000000000000000000000000000000000000081526004016121e290613fb2565b60405180910390fd5b6121f481612477565b50565b6121ff6127e1565b73ffffffffffffffffffffffffffffffffffffffff1661221d6116c5565b73ffffffffffffffffffffffffffffffffffffffff1614612273576040517f08c379a000000000000000000000000000000000000000000000000000000000815260040161226a9061401e565b60405180910390fd5b565b6000816122806122dc565b1115801561228f575060005482105b80156122cd575060007c0100000000000000000000000000000000000000000000000000000000600460008581526020019081526020016000205416145b9050919050565b600033905090565b600090565b600080829050806122f06122dc565b11612376576000548110156123755760006004600083815260200190815260200160002054905060007c0100000000000000000000000000000000000000000000000000000000821603612373575b6000810361236957600460008360019003935083815260200190815260200160002054905061233f565b80925050506123a8565b505b5b6040517fdf2d9b4200000000000000000000000000000000000000000000000000000000815260040160405180910390fd5b919050565b60008060006006600085815260200190815260200160002090508092508254915050915091565b600073ffffffffffffffffffffffffffffffffffffffff8316925073ffffffffffffffffffffffffffffffffffffffff821691508382148383141790509392505050565b50505050565b60008060e883901c905060e86124358686846127e9565b62ffffff16901b9150509392505050565b600073ffffffffffffffffffffffffffffffffffffffff83169250814260a01b178317905092915050565b50505050565b6000600860009054906101000a900473ffffffffffffffffffffffffffffffffffffffff16905081600860006101000a81548173ffffffffffffffffffffffffffffffffffffffff021916908373ffffffffffffffffffffffffffffffffffffffff1602179055508173ffffffffffffffffffffffffffffffffffffffff168173ffffffffffffffffffffffffffffffffffffffff167f8be0079c531659141344cd1fd0a4f28419497f9722a3daafe3b4186f6b6457e060405160405180910390a35050565b612545612b10565b61256160046000848152602001908152602001600020546127f2565b9050919050565b60008054905090565b61258b8282604051806020016040528060008152506128a8565b5050565b60008373ffffffffffffffffffffffffffffffffffffffff1663150b7a026125b56122d4565b8786866040518563ffffffff1660e01b81526004016125d79493929190614093565b6020604051808303816000875af192505050801561261357506040513d601f19601f8201168201806040525081019061261091906140f4565b60015b61268c573d8060008114612643576040519150601f19603f3d011682016040523d82523d6000602084013e612648565b606091505b506000815103612684576040517fd1a57ed600000000000000000000000000000000000000000000000000000000815260040160405180910390fd5b805181602001fd5b63150b7a0260e01b7bffffffffffffffffffffffffffffffffffffffffffffffffffffffff1916817bffffffffffffffffffffffffffffffffffffffffffffffffffffffff191614915050949350505050565b6126e7612b10565b6126f86126f3836122e1565b6127f2565b9050919050565b60606009805461270e906137b5565b80601f016020809104026020016040519081016040528092919081815260200182805461273a906137b5565b80156127875780601f1061275c57610100808354040283529160200191612787565b820191906000526020600020905b81548152906001019060200180831161276a57829003601f168201915b5050505050905090565b606060a060405101806040526020810391506000825281835b6001156127cc57600184039350600a81066030018453600a81049050806127aa575b50828103602084039350808452505050919050565b600033905090565b60009392505050565b6127fa612b10565b81816000019073ffffffffffffffffffffffffffffffffffffffff16908173ffffffffffffffffffffffffffffffffffffffff168152505060a082901c816020019067ffffffffffffffff16908167ffffffffffffffff168152505060007c01000000000000000000000000000000000000000000000000000000008316141581604001901515908115158152505060e882901c816060019062ffffff16908162ffffff1681525050919050565b6128b28383612945565b60008373ffffffffffffffffffffffffffffffffffffffff163b1461294057600080549050600083820390505b6128f2600086838060010194508661258f565b612928576040517fd1a57ed600000000000000000000000000000000000000000000000000000000815260040160405180910390fd5b8181106128df57816000541461293d57600080fd5b50505b505050565b60008054905060008203612985576040517fb562e8dd00000000000000000000000000000000000000000000000000000000815260040160405180910390fd5b6129926000848385612418565b600160406001901b178202600560008573ffffffffffffffffffffffffffffffffffffffff1673ffffffffffffffffffffffffffffffffffffffff16815260200190815260200160002060008282540192505081905550612a09836129fa600086600061241e565b612a0385612b00565b17612446565b6004600083815260200190815260200160002081905550600080838301905073ffffffffffffffffffffffffffffffffffffffff85169150828260007fddf252ad1be2c89b69c2b068fc378daa952ba7f163c4a11628f55a4df523b3ef600080a4600183015b818114612aaa57808360007fddf252ad1be2c89b69c2b068fc378daa952ba7f163c4a11628f55a4df523b3ef600080a4600181019050612a6f565b5060008203612ae5576040517f2e07630000000000000000000000000000000000000000000000000000000000815260040160405180910390fd5b806000819055505050612afb6000848385612471565b505050565b60006001821460e11b9050919050565b6040518060800160405280600073ffffffffffffffffffffffffffffffffffffffff168152602001600067ffffffffffffffff168152602001600015158152602001600062ffffff1681525090565b5080546000825590600052602060002090810190612b7d9190612c20565b50565b828054828255906000526020600020908101928215612c0f579160200282015b82811115612c0e57823573ffffffffffffffffffffffffffffffffffffffff168260006101000a81548173ffffffffffffffffffffffffffffffffffffffff021916908373ffffffffffffffffffffffffffffffffffffffff16021790555091602001919060010190612ba0565b5b509050612c1c9190612c20565b5090565b5b80821115612c39576000816000905550600101612c21565b5090565b6000604051905090565b600080fd5b600080fd5b60007fffffffff0000000000000000000000000000000000000000000000000000000082169050919050565b612c8681612c51565b8114612c9157600080fd5b50565b600081359050612ca381612c7d565b92915050565b600060208284031215612cbf57612cbe612c47565b5b6000612ccd84828501612c94565b91505092915050565b60008115159050919050565b612ceb81612cd6565b82525050565b6000602082019050612d066000830184612ce2565b92915050565b612d1581612cd6565b8114612d2057600080fd5b50565b600081359050612d3281612d0c565b92915050565b600060208284031215612d4e57612d4d612c47565b5b6000612d5c84828501612d23565b91505092915050565b600081519050919050565b600082825260208201905092915050565b60005b83811015612d9f578082015181840152602081019050612d84565b60008484015250505050565b6000601f19601f8301169050919050565b6000612dc782612d65565b612dd18185612d70565b9350612de1818560208601612d81565b612dea81612dab565b840191505092915050565b60006020820190508181036000830152612e0f8184612dbc565b905092915050565b6000819050919050565b612e2a81612e17565b8114612e3557600080fd5b50565b600081359050612e4781612e21565b92915050565b600060208284031215612e6357612e62612c47565b5b6000612e7184828501612e38565b91505092915050565b600073ffffffffffffffffffffffffffffffffffffffff82169050919050565b6000612ea582612e7a565b9050919050565b612eb581612e9a565b82525050565b6000602082019050612ed06000830184612eac565b92915050565b612edf81612e9a565b8114612eea57600080fd5b50565b600081359050612efc81612ed6565b92915050565b60008060408385031215612f1957612f18612c47565b5b6000612f2785828601612eed565b9250506020612f3885828601612e38565b9150509250929050565b612f4b81612e17565b82525050565b6000602082019050612f666000830184612f42565b92915050565b600060208284031215612f8257612f81612c47565b5b6000612f9084828501612eed565b91505092915050565b600080600060608486031215612fb257612fb1612c47565b5b6000612fc086828701612eed565b9350506020612fd186828701612eed565b9250506040612fe286828701612e38565b9150509250925092565b600080fd5b600080fd5b7f4e487b7100000000000000000000000000000000000000000000000000000000600052604160045260246000fd5b61302e82612dab565b810181811067ffffffffffffffff8211171561304d5761304c612ff6565b5b80604052505050565b6000613060612c3d565b905061306c8282613025565b919050565b600067ffffffffffffffff82111561308c5761308b612ff6565b5b61309582612dab565b9050602081019050919050565b82818337600083830152505050565b60006130c46130bf84613071565b613056565b9050828152602081018484840111156130e0576130df612ff1565b5b6130eb8482856130a2565b509392505050565b600082601f83011261310857613107612fec565b5b81356131188482602086016130b1565b91505092915050565b60006020828403121561313757613136612c47565b5b600082013567ffffffffffffffff81111561315557613154612c4c565b5b613161848285016130f3565b91505092915050565b600080fd5b600080fd5b60008083601f84011261318a57613189612fec565b5b8235905067ffffffffffffffff8111156131a7576131a661316a565b5b6020830191508360208202830111156131c3576131c261316f565b5b9250929050565b600080602083850312156131e1576131e0612c47565b5b600083013567ffffffffffffffff8111156131ff576131fe612c4c565b5b61320b85828601613174565b92509250509250929050565b600081519050919050565b600082825260208201905092915050565b6000819050602082019050919050565b61324c81612e9a565b82525050565b600067ffffffffffffffff82169050919050565b61326f81613252565b82525050565b61327e81612cd6565b82525050565b600062ffffff82169050919050565b61329c81613284565b82525050565b6080820160008201516132b86000850182613243565b5060208201516132cb6020850182613266565b5060408201516132de6040850182613275565b5060608201516132f16060850182613293565b50505050565b600061330383836132a2565b60808301905092915050565b6000602082019050919050565b600061332782613217565b6133318185613222565b935061333c83613233565b8060005b8381101561336d57815161335488826132f7565b975061335f8361330f565b925050600181019050613340565b5085935050505092915050565b60006020820190508181036000830152613394818461331c565b905092915050565b600081519050919050565b600082825260208201905092915050565b6000819050602082019050919050565b6133d181612e17565b82525050565b60006133e383836133c8565b60208301905092915050565b6000602082019050919050565b60006134078261339c565b61341181856133a7565b935061341c836133b8565b8060005b8381101561344d57815161343488826133d7565b975061343f836133ef565b925050600181019050613420565b5085935050505092915050565b6000602082019050818103600083015261347481846133fc565b905092915050565b60008060006060848603121561349557613494612c47565b5b60006134a386828701612eed565b93505060206134b486828701612e38565b92505060406134c586828701612e38565b9150509250925092565b600080604083850312156134e6576134e5612c47565b5b60006134f485828601612eed565b925050602061350585828601612d23565b9150509250929050565b600067ffffffffffffffff82111561352a57613529612ff6565b5b61353382612dab565b9050602081019050919050565b600061355361354e8461350f565b613056565b90508281526020810184848401111561356f5761356e612ff1565b5b61357a8482856130a2565b509392505050565b600082601f83011261359757613596612fec565b5b81356135a7848260208601613540565b91505092915050565b600080600080608085870312156135ca576135c9612c47565b5b60006135d887828801612eed565b94505060206135e987828801612eed565b93505060406135fa87828801612e38565b925050606085013567ffffffffffffffff81111561361b5761361a612c4c565b5b61362787828801613582565b91505092959194509250565b6080820160008201516136496000850182613243565b50602082015161365c6020850182613266565b50604082015161366f6040850182613275565b5060608201516136826060850182613293565b50505050565b600060808201905061369d6000830184613633565b92915050565b600080604083850312156136ba576136b9612c47565b5b60006136c885828601612eed565b92505060206136d985828601612eed565b9150509250929050565b60008083601f8401126136f9576136f8612fec565b5b8235905067ffffffffffffffff8111156137165761371561316a565b5b6020830191508360208202830111156137325761373161316f565b5b9250929050565b600080602083850312156137505761374f612c47565b5b600083013567ffffffffffffffff81111561376e5761376d612c4c565b5b61377a858286016136e3565b92509250509250929050565b7f4e487b7100000000000000000000000000000000000000000000000000000000600052602260045260246000fd5b600060028204905060018216806137cd57607f821691505b6020821081036137e0576137df613786565b5b50919050565b7f4e487b7100000000000000000000000000000000000000000000000000000000600052603260045260246000fd5b7f4e487b7100000000000000000000000000000000000000000000000000000000600052601160045260246000fd5b600061384f82612e17565b91507fffffffffffffffffffffffffffffffffffffffffffffffffffffffffffffffff820361388157613880613815565b5b600182019050919050565b600081905092915050565b50565b60006138a760008361388c565b91506138b282613897565b600082019050919050565b60006138c88261389a565b9150819050919050565b60008190508160005260206000209050919050565b60006020601f8301049050919050565b600082821b905092915050565b6000600883026139347fffffffffffffffffffffffffffffffffffffffffffffffffffffffffffffffff826138f7565b61393e86836138f7565b95508019841693508086168417925050509392505050565b6000819050919050565b600061397b61397661397184612e17565b613956565b612e17565b9050919050565b6000819050919050565b61399583613960565b6139a96139a182613982565b848454613904565b825550505050565b600090565b6139be6139b1565b6139c981848461398c565b505050565b5b818110156139ed576139e26000826139b6565b6001810190506139cf565b5050565b601f821115613a3257613a03816138d2565b613a0c846138e7565b81016020851015613a1b578190505b613a2f613a27856138e7565b8301826139ce565b50505b505050565b600082821c905092915050565b6000613a5560001984600802613a37565b1980831691505092915050565b6000613a6e8383613a44565b9150826002028217905092915050565b613a8782612d65565b67ffffffffffffffff811115613aa057613a9f612ff6565b5b613aaa82546137b5565b613ab58282856139f1565b600060209050601f831160018114613ae85760008415613ad6578287015190505b613ae08582613a62565b865550613b48565b601f198416613af6866138d2565b60005b82811015613b1e57848901518255600182019150602085019450602081019050613af9565b86831015613b3b5784890151613b37601f891682613a44565b8355505b6001600288020188555050505b505050505050565b7f74686520636f6e74726163742069732070617573656400000000000000000000600082015250565b6000613b86601683612d70565b9150613b9182613b50565b602082019050919050565b60006020820190508181036000830152613bb581613b79565b9050919050565b7f6e65656420746f206d696e74206174206c656173742031204e46540000000000600082015250565b6000613bf2601b83612d70565b9150613bfd82613bbc565b602082019050919050565b60006020820190508181036000830152613c2181613be5565b9050919050565b7f6d6178206d696e7420616d6f756e74207065722073657373696f6e206578636560008201527f6564656400000000000000000000000000000000000000000000000000000000602082015250565b6000613c84602483612d70565b9150613c8f82613c28565b604082019050919050565b60006020820190508181036000830152613cb381613c77565b9050919050565b6000613cc582612e17565b9150613cd083612e17565b9250828201905080821115613ce857613ce7613815565b5b92915050565b7f6d6178204e4654206c696d697420657863656564656400000000000000000000600082015250565b6000613d24601683612d70565b9150613d2f82613cee565b602082019050919050565b60006020820190508181036000830152613d5381613d17565b9050919050565b7f75736572206973206e6f742077686974656c6973746564000000000000000000600082015250565b6000613d90601783612d70565b9150613d9b82613d5a565b602082019050919050565b60006020820190508181036000830152613dbf81613d83565b9050919050565b7f6d6178204e465420706572206164647265737320657863656564656400000000600082015250565b6000613dfc601c83612d70565b9150613e0782613dc6565b602082019050919050565b60006020820190508181036000830152613e2b81613def565b9050919050565b6000613e3d82612e17565b9150613e4883612e17565b9250828202613e5681612e17565b91508282048414831517613e6d57613e6c613815565b5b5092915050565b7f696e73756666696369656e742066756e64730000000000000000000000000000600082015250565b6000613eaa601283612d70565b9150613eb582613e74565b602082019050919050565b60006020820190508181036000830152613ed981613e9d565b9050919050565b600081905092915050565b6000613ef682612d65565b613f008185613ee0565b9350613f10818560208601612d81565b80840191505092915050565b6000613f288285613eeb565b9150613f348284613eeb565b91508190509392505050565b7f4f776e61626c653a206e6577206f776e657220697320746865207a65726f206160008201527f6464726573730000000000000000000000000000000000000000000000000000602082015250565b6000613f9c602683612d70565b9150613fa782613f40565b604082019050919050565b60006020820190508181036000830152613fcb81613f8f565b9050919050565b7f4f776e61626c653a2063616c6c6572206973206e6f7420746865206f776e6572600082015250565b6000614008602083612d70565b915061401382613fd2565b602082019050919050565b6000602082019050818103600083015261403781613ffb565b9050919050565b600081519050919050565b600082825260208201905092915050565b60006140658261403e565b61406f8185614049565b935061407f818560208601612d81565b61408881612dab565b840191505092915050565b60006080820190506140a86000830187612eac565b6140b56020830186612eac565b6140c26040830185612f42565b81810360608301526140d4818461405a565b905095945050505050565b6000815190506140ee81612c7d565b92915050565b60006020828403121561410a57614109612c47565b5b6000614118848285016140df565b9150509291505056fea2646970667358221220133ffc1a1fd98ce17742d139f0e4cc9ebd004396a197d264be8eb33479db395364736f6c63430008110033","opcodes":"PUSH1 0x80 PUSH1 0x40 MSTORE PUSH1 0x40 MLOAD DUP1 PUSH1 0x40 ADD PUSH1 0x40 MSTORE DUP1 PUSH1 0x5 DUP2 MSTORE PUSH1 0x20 ADD PUSH32 0x2E6A736F6E000000000000000000000000000000000000000000000000000000 DUP2 MSTORE POP PUSH1 0xA SWAP1 DUP2 PUSH3 0x4A SWAP2 SWAP1 PUSH3 0x5C5 JUMP JUMPDEST POP PUSH7 0x38D7EA4C68000 PUSH1 0xC SSTORE PUSH1 0x64 PUSH1 0xD SSTORE PUSH1 0x2 PUSH1 0xE SSTORE PUSH1 0x2 PUSH1 0xF SSTORE PUSH1 0x0 PUSH1 0x10 PUSH1 0x0 PUSH2 0x100 EXP DUP2 SLOAD DUP2 PUSH1 0xFF MUL NOT AND SWAP1 DUP4 ISZERO ISZERO MUL OR SWAP1 SSTORE POP PUSH1 0x1 PUSH1 0x10 PUSH1 0x1 PUSH2 0x100 EXP DUP2 SLOAD DUP2 PUSH1 0xFF MUL NOT AND SWAP1 DUP4 ISZERO ISZERO MUL OR SWAP1 SSTORE POP PUSH1 0x0 PUSH1 0x10 PUSH1 0x2 PUSH2 0x100 EXP DUP2 SLOAD DUP2 PUSH1 0xFF MUL NOT AND SWAP1 DUP4 ISZERO ISZERO MUL OR SWAP1 SSTORE POP CALLVALUE DUP1 ISZERO PUSH3 0xC3 JUMPI PUSH1 0x0 DUP1 REVERT JUMPDEST POP PUSH1 0x40 MLOAD PUSH3 0x4AE8 CODESIZE SUB DUP1 PUSH3 0x4AE8 DUP4 CODECOPY DUP2 DUP2 ADD PUSH1 0x40 MSTORE DUP2 ADD SWAP1 PUSH3 0xE9 SWAP2 SWAP1 PUSH3 0x810 JUMP JUMPDEST DUP4 DUP4 DUP2 PUSH1 0x2 SWAP1 DUP2 PUSH3 0xFC SWAP2 SWAP1 PUSH3 0x5C5 JUMP JUMPDEST POP DUP1 PUSH1 0x3 SWAP1 DUP2 PUSH3 0x10E SWAP2 SWAP1 PUSH3 0x5C5 JUMP JUMPDEST POP PUSH3 0x11F PUSH3 0x173 PUSH1 0x20 SHL PUSH1 0x20 SHR JUMP JUMPDEST PUSH1 0x0 DUP2 SWAP1 SSTORE POP POP POP PUSH3 0x147 PUSH3 0x13B PUSH3 0x178 PUSH1 0x20 SHL PUSH1 0x20 SHR JUMP JUMPDEST PUSH3 0x180 PUSH1 0x20 SHL PUSH1 0x20 SHR JUMP JUMPDEST PUSH3 0x158 DUP3 PUSH3 0x246 PUSH1 0x20 SHL PUSH1 0x20 SHR JUMP JUMPDEST PUSH3 0x169 DUP2 PUSH3 0x26B PUSH1 0x20 SHL PUSH1 0x20 SHR JUMP JUMPDEST POP POP POP POP PUSH3 0x981 JUMP JUMPDEST PUSH1 0x0 SWAP1 JUMP JUMPDEST PUSH1 0x0 CALLER SWAP1 POP SWAP1 JUMP JUMPDEST PUSH1 0x0 PUSH1 0x8 PUSH1 0x0 SWAP1 SLOAD SWAP1 PUSH2 0x100 EXP SWAP1 DIV PUSH20 0xFFFFFFFFFFFFFFFFFFFFFFFFFFFFFFFFFFFFFFFF AND SWAP1 POP DUP2 PUSH1 0x8 PUSH1 0x0 PUSH2 0x100 EXP DUP2 SLOAD DUP2 PUSH20 0xFFFFFFFFFFFFFFFFFFFFFFFFFFFFFFFFFFFFFFFF MUL NOT AND SWAP1 DUP4 PUSH20 0xFFFFFFFFFFFFFFFFFFFFFFFFFFFFFFFFFFFFFFFF AND MUL OR SWAP1 SSTORE POP DUP2 PUSH20 0xFFFFFFFFFFFFFFFFFFFFFFFFFFFFFFFFFFFFFFFF AND DUP2 PUSH20 0xFFFFFFFFFFFFFFFFFFFFFFFFFFFFFFFFFFFFFFFF AND PUSH32 0x8BE0079C531659141344CD1FD0A4F28419497F9722A3DAAFE3B4186F6B6457E0 PUSH1 0x40 MLOAD PUSH1 0x40 MLOAD DUP1 SWAP2 SUB SWAP1 LOG3 POP POP JUMP JUMPDEST PUSH3 0x256 PUSH3 0x290 PUSH1 0x20 SHL PUSH1 0x20 SHR JUMP JUMPDEST DUP1 PUSH1 0x9 SWAP1 DUP2 PUSH3 0x267 SWAP2 SWAP1 PUSH3 0x5C5 JUMP JUMPDEST POP POP JUMP JUMPDEST PUSH3 0x27B PUSH3 0x290 PUSH1 0x20 SHL PUSH1 0x20 SHR JUMP JUMPDEST DUP1 PUSH1 0xB SWAP1 DUP2 PUSH3 0x28C SWAP2 SWAP1 PUSH3 0x5C5 JUMP JUMPDEST POP POP JUMP JUMPDEST PUSH3 0x2A0 PUSH3 0x178 PUSH1 0x20 SHL PUSH1 0x20 SHR JUMP JUMPDEST PUSH20 0xFFFFFFFFFFFFFFFFFFFFFFFFFFFFFFFFFFFFFFFF AND PUSH3 0x2C6 PUSH3 0x321 PUSH1 0x20 SHL PUSH1 0x20 SHR JUMP JUMPDEST PUSH20 0xFFFFFFFFFFFFFFFFFFFFFFFFFFFFFFFFFFFFFFFF AND EQ PUSH3 0x31F JUMPI PUSH1 0x40 MLOAD PUSH32 0x8C379A000000000000000000000000000000000000000000000000000000000 DUP2 MSTORE PUSH1 0x4 ADD PUSH3 0x316 SWAP1 PUSH3 0x95F JUMP JUMPDEST PUSH1 0x40 MLOAD DUP1 SWAP2 SUB SWAP1 REVERT JUMPDEST JUMP JUMPDEST PUSH1 0x0 PUSH1 0x8 PUSH1 0x0 SWAP1 SLOAD SWAP1 PUSH2 0x100 EXP SWAP1 DIV PUSH20 0xFFFFFFFFFFFFFFFFFFFFFFFFFFFFFFFFFFFFFFFF AND SWAP1 POP SWAP1 JUMP JUMPDEST PUSH1 0x0 DUP2 MLOAD SWAP1 POP SWAP2 SWAP1 POP JUMP JUMPDEST PUSH32 0x4E487B7100000000000000000000000000000000000000000000000000000000 PUSH1 0x0 MSTORE PUSH1 0x41 PUSH1 0x4 MSTORE PUSH1 0x24 PUSH1 0x0 REVERT JUMPDEST PUSH32 0x4E487B7100000000000000000000000000000000000000000000000000000000 PUSH1 0x0 MSTORE PUSH1 0x22 PUSH1 0x4 MSTORE PUSH1 0x24 PUSH1 0x0 REVERT JUMPDEST PUSH1 0x0 PUSH1 0x2 DUP3 DIV SWAP1 POP PUSH1 0x1 DUP3 AND DUP1 PUSH3 0x3CD JUMPI PUSH1 0x7F DUP3 AND SWAP2 POP JUMPDEST PUSH1 0x20 DUP3 LT DUP2 SUB PUSH3 0x3E3 JUMPI PUSH3 0x3E2 PUSH3 0x385 JUMP JUMPDEST JUMPDEST POP SWAP2 SWAP1 POP JUMP JUMPDEST PUSH1 0x0 DUP2 SWAP1 POP DUP2 PUSH1 0x0 MSTORE PUSH1 0x20 PUSH1 0x0 KECCAK256 SWAP1 POP SWAP2 SWAP1 POP JUMP JUMPDEST PUSH1 0x0 PUSH1 0x20 PUSH1 0x1F DUP4 ADD DIV SWAP1 POP SWAP2 SWAP1 POP JUMP JUMPDEST PUSH1 0x0 DUP3 DUP3 SHL SWAP1 POP SWAP3 SWAP2 POP POP JUMP JUMPDEST PUSH1 0x0 PUSH1 0x8 DUP4 MUL PUSH3 0x44D PUSH32 0xFFFFFFFFFFFFFFFFFFFFFFFFFFFFFFFFFFFFFFFFFFFFFFFFFFFFFFFFFFFFFFFF DUP3 PUSH3 0x40E JUMP JUMPDEST PUSH3 0x459 DUP7 DUP4 PUSH3 0x40E JUMP JUMPDEST SWAP6 POP DUP1 NOT DUP5 AND SWAP4 POP DUP1 DUP7 AND DUP5 OR SWAP3 POP POP POP SWAP4 SWAP3 POP POP POP JUMP JUMPDEST PUSH1 0x0 DUP2 SWAP1 POP SWAP2 SWAP1 POP JUMP JUMPDEST PUSH1 0x0 DUP2 SWAP1 POP SWAP2 SWAP1 POP JUMP JUMPDEST PUSH1 0x0 PUSH3 0x4A6 PUSH3 0x4A0 PUSH3 0x49A DUP5 PUSH3 0x471 JUMP JUMPDEST PUSH3 0x47B JUMP JUMPDEST PUSH3 0x471 JUMP JUMPDEST SWAP1 POP SWAP2 SWAP1 POP JUMP JUMPDEST PUSH1 0x0 DUP2 SWAP1 POP SWAP2 SWAP1 POP JUMP JUMPDEST PUSH3 0x4C2 DUP4 PUSH3 0x485 JUMP JUMPDEST PUSH3 0x4DA PUSH3 0x4D1 DUP3 PUSH3 0x4AD JUMP JUMPDEST DUP5 DUP5 SLOAD PUSH3 0x41B JUMP JUMPDEST DUP3 SSTORE POP POP POP POP JUMP JUMPDEST PUSH1 0x0 SWAP1 JUMP JUMPDEST PUSH3 0x4F1 PUSH3 0x4E2 JUMP JUMPDEST PUSH3 0x4FE DUP2 DUP5 DUP5 PUSH3 0x4B7 JUMP JUMPDEST POP POP POP JUMP JUMPDEST JUMPDEST DUP2 DUP2 LT ISZERO PUSH3 0x526 JUMPI PUSH3 0x51A PUSH1 0x0 DUP3 PUSH3 0x4E7 JUMP JUMPDEST PUSH1 0x1 DUP2 ADD SWAP1 POP PUSH3 0x504 JUMP JUMPDEST POP POP JUMP JUMPDEST PUSH1 0x1F DUP3 GT ISZERO PUSH3 0x575 JUMPI PUSH3 0x53F DUP2 PUSH3 0x3E9 JUMP JUMPDEST PUSH3 0x54A DUP5 PUSH3 0x3FE JUMP JUMPDEST DUP2 ADD PUSH1 0x20 DUP6 LT ISZERO PUSH3 0x55A JUMPI DUP2 SWAP1 POP JUMPDEST PUSH3 0x572 PUSH3 0x569 DUP6 PUSH3 0x3FE JUMP JUMPDEST DUP4 ADD DUP3 PUSH3 0x503 JUMP JUMPDEST POP POP JUMPDEST POP POP POP JUMP JUMPDEST PUSH1 0x0 DUP3 DUP3 SHR SWAP1 POP SWAP3 SWAP2 POP POP JUMP JUMPDEST PUSH1 0x0 PUSH3 0x59A PUSH1 0x0 NOT DUP5 PUSH1 0x8 MUL PUSH3 0x57A JUMP JUMPDEST NOT DUP1 DUP4 AND SWAP2 POP POP SWAP3 SWAP2 POP POP JUMP JUMPDEST PUSH1 0x0 PUSH3 0x5B5 DUP4 DUP4 PUSH3 0x587 JUMP JUMPDEST SWAP2 POP DUP3 PUSH1 0x2 MUL DUP3 OR SWAP1 POP SWAP3 SWAP2 POP POP JUMP JUMPDEST PUSH3 0x5D0 DUP3 PUSH3 0x34B JUMP JUMPDEST PUSH8 0xFFFFFFFFFFFFFFFF DUP2 GT ISZERO PUSH3 0x5EC JUMPI PUSH3 0x5EB PUSH3 0x356 JUMP JUMPDEST JUMPDEST PUSH3 0x5F8 DUP3 SLOAD PUSH3 0x3B4 JUMP JUMPDEST PUSH3 0x605 DUP3 DUP3 DUP6 PUSH3 0x52A JUMP JUMPDEST PUSH1 0x0 PUSH1 0x20 SWAP1 POP PUSH1 0x1F DUP4 GT PUSH1 0x1 DUP2 EQ PUSH3 0x63D JUMPI PUSH1 0x0 DUP5 ISZERO PUSH3 0x628 JUMPI DUP3 DUP8 ADD MLOAD SWAP1 POP JUMPDEST PUSH3 0x634 DUP6 DUP3 PUSH3 0x5A7 JUMP JUMPDEST DUP7 SSTORE POP PUSH3 0x6A4 JUMP JUMPDEST PUSH1 0x1F NOT DUP5 AND PUSH3 0x64D DUP7 PUSH3 0x3E9 JUMP JUMPDEST PUSH1 0x0 JUMPDEST DUP3 DUP2 LT ISZERO PUSH3 0x677 JUMPI DUP5 DUP10 ADD MLOAD DUP3 SSTORE PUSH1 0x1 DUP3 ADD SWAP2 POP PUSH1 0x20 DUP6 ADD SWAP5 POP PUSH1 0x20 DUP2 ADD SWAP1 POP PUSH3 0x650 JUMP JUMPDEST DUP7 DUP4 LT ISZERO PUSH3 0x697 JUMPI DUP5 DUP10 ADD MLOAD PUSH3 0x693 PUSH1 0x1F DUP10 AND DUP3 PUSH3 0x587 JUMP JUMPDEST DUP4 SSTORE POP JUMPDEST PUSH1 0x1 PUSH1 0x2 DUP9 MUL ADD DUP9 SSTORE POP POP POP JUMPDEST POP POP POP POP POP POP JUMP JUMPDEST PUSH1 0x0 PUSH1 0x40 MLOAD SWAP1 POP SWAP1 JUMP JUMPDEST PUSH1 0x0 DUP1 REVERT JUMPDEST PUSH1 0x0 DUP1 REVERT JUMPDEST PUSH1 0x0 DUP1 REVERT JUMPDEST PUSH1 0x0 DUP1 REVERT JUMPDEST PUSH1 0x0 PUSH1 0x1F NOT PUSH1 0x1F DUP4 ADD AND SWAP1 POP SWAP2 SWAP1 POP JUMP JUMPDEST PUSH3 0x6E6 DUP3 PUSH3 0x6CA JUMP JUMPDEST DUP2 ADD DUP2 DUP2 LT PUSH8 0xFFFFFFFFFFFFFFFF DUP3 GT OR ISZERO PUSH3 0x708 JUMPI PUSH3 0x707 PUSH3 0x356 JUMP JUMPDEST JUMPDEST DUP1 PUSH1 0x40 MSTORE POP POP POP JUMP JUMPDEST PUSH1 0x0 PUSH3 0x71D PUSH3 0x6AC JUMP JUMPDEST SWAP1 POP PUSH3 0x72B DUP3 DUP3 PUSH3 0x6DB JUMP JUMPDEST SWAP2 SWAP1 POP JUMP JUMPDEST PUSH1 0x0 PUSH8 0xFFFFFFFFFFFFFFFF DUP3 GT ISZERO PUSH3 0x74E JUMPI PUSH3 0x74D PUSH3 0x356 JUMP JUMPDEST JUMPDEST PUSH3 0x759 DUP3 PUSH3 0x6CA JUMP JUMPDEST SWAP1 POP PUSH1 0x20 DUP2 ADD SWAP1 POP SWAP2 SWAP1 POP JUMP JUMPDEST PUSH1 0x0 JUMPDEST DUP4 DUP2 LT ISZERO PUSH3 0x786 JUMPI DUP1 DUP3 ADD MLOAD DUP2 DUP5 ADD MSTORE PUSH1 0x20 DUP2 ADD SWAP1 POP PUSH3 0x769 JUMP JUMPDEST PUSH1 0x0 DUP5 DUP5 ADD MSTORE POP POP POP POP JUMP JUMPDEST PUSH1 0x0 PUSH3 0x7A9 PUSH3 0x7A3 DUP5 PUSH3 0x730 JUMP JUMPDEST PUSH3 0x711 JUMP JUMPDEST SWAP1 POP DUP3 DUP2 MSTORE PUSH1 0x20 DUP2 ADD DUP5 DUP5 DUP5 ADD GT ISZERO PUSH3 0x7C8 JUMPI PUSH3 0x7C7 PUSH3 0x6C5 JUMP JUMPDEST JUMPDEST PUSH3 0x7D5 DUP5 DUP3 DUP6 PUSH3 0x766 JUMP JUMPDEST POP SWAP4 SWAP3 POP POP POP JUMP JUMPDEST PUSH1 0x0 DUP3 PUSH1 0x1F DUP4 ADD SLT PUSH3 0x7F5 JUMPI PUSH3 0x7F4 PUSH3 0x6C0 JUMP JUMPDEST JUMPDEST DUP2 MLOAD PUSH3 0x807 DUP5 DUP3 PUSH1 0x20 DUP7 ADD PUSH3 0x792 JUMP JUMPDEST SWAP2 POP POP SWAP3 SWAP2 POP POP JUMP JUMPDEST PUSH1 0x0 DUP1 PUSH1 0x0 DUP1 PUSH1 0x80 DUP6 DUP8 SUB SLT ISZERO PUSH3 0x82D JUMPI PUSH3 0x82C PUSH3 0x6B6 JUMP JUMPDEST JUMPDEST PUSH1 0x0 DUP6 ADD MLOAD PUSH8 0xFFFFFFFFFFFFFFFF DUP2 GT ISZERO PUSH3 0x84E JUMPI PUSH3 0x84D PUSH3 0x6BB JUMP JUMPDEST JUMPDEST PUSH3 0x85C DUP8 DUP3 DUP9 ADD PUSH3 0x7DD JUMP JUMPDEST SWAP5 POP POP PUSH1 0x20 DUP6 ADD MLOAD PUSH8 0xFFFFFFFFFFFFFFFF DUP2 GT ISZERO PUSH3 0x880 JUMPI PUSH3 0x87F PUSH3 0x6BB JUMP JUMPDEST JUMPDEST PUSH3 0x88E DUP8 DUP3 DUP9 ADD PUSH3 0x7DD JUMP JUMPDEST SWAP4 POP POP PUSH1 0x40 DUP6 ADD MLOAD PUSH8 0xFFFFFFFFFFFFFFFF DUP2 GT ISZERO PUSH3 0x8B2 JUMPI PUSH3 0x8B1 PUSH3 0x6BB JUMP JUMPDEST JUMPDEST PUSH3 0x8C0 DUP8 DUP3 DUP9 ADD PUSH3 0x7DD JUMP JUMPDEST SWAP3 POP POP PUSH1 0x60 DUP6 ADD MLOAD PUSH8 0xFFFFFFFFFFFFFFFF DUP2 GT ISZERO PUSH3 0x8E4 JUMPI PUSH3 0x8E3 PUSH3 0x6BB JUMP JUMPDEST JUMPDEST PUSH3 0x8F2 DUP8 DUP3 DUP9 ADD PUSH3 0x7DD JUMP JUMPDEST SWAP2 POP POP SWAP3 SWAP6 SWAP2 SWAP5 POP SWAP3 POP JUMP JUMPDEST PUSH1 0x0 DUP3 DUP3 MSTORE PUSH1 0x20 DUP3 ADD SWAP1 POP SWAP3 SWAP2 POP POP JUMP JUMPDEST PUSH32 0x4F776E61626C653A2063616C6C6572206973206E6F7420746865206F776E6572 PUSH1 0x0 DUP3 ADD MSTORE POP JUMP JUMPDEST PUSH1 0x0 PUSH3 0x947 PUSH1 0x20 DUP4 PUSH3 0x8FE JUMP JUMPDEST SWAP2 POP PUSH3 0x954 DUP3 PUSH3 0x90F JUMP JUMPDEST PUSH1 0x20 DUP3 ADD SWAP1 POP SWAP2 SWAP1 POP JUMP JUMPDEST PUSH1 0x0 PUSH1 0x20 DUP3 ADD SWAP1 POP DUP2 DUP2 SUB PUSH1 0x0 DUP4 ADD MSTORE PUSH3 0x97A DUP2 PUSH3 0x938 JUMP JUMPDEST SWAP1 POP SWAP2 SWAP1 POP JUMP JUMPDEST PUSH2 0x4157 DUP1 PUSH3 0x991 PUSH1 0x0 CODECOPY PUSH1 0x0 RETURN INVALID PUSH1 0x80 PUSH1 0x40 MSTORE PUSH1 0x4 CALLDATASIZE LT PUSH2 0x27D JUMPI PUSH1 0x0 CALLDATALOAD PUSH1 0xE0 SHR DUP1 PUSH4 0x715018A6 GT PUSH2 0x14F JUMPI DUP1 PUSH4 0xBA4E5C49 GT PUSH2 0xC1 JUMPI DUP1 PUSH4 0xD5ABEB01 GT PUSH2 0x7A JUMPI DUP1 PUSH4 0xD5ABEB01 EQ PUSH2 0x970 JUMPI DUP1 PUSH4 0xDA3EF23F EQ PUSH2 0x99B JUMPI DUP1 PUSH4 0xE985E9C5 EQ PUSH2 0x9C4 JUMPI DUP1 PUSH4 0xEDEC5F27 EQ PUSH2 0xA01 JUMPI DUP1 PUSH4 0xF2C4CE1E EQ PUSH2 0xA2A JUMPI DUP1 PUSH4 0xF2FDE38B EQ PUSH2 0xA53 JUMPI PUSH2 0x27D JUMP JUMPDEST DUP1 PUSH4 0xBA4E5C49 EQ PUSH2 0x83A JUMPI DUP1 PUSH4 0xBA7D2C76 EQ PUSH2 0x877 JUMPI DUP1 PUSH4 0xC23DC68F EQ PUSH2 0x8A2 JUMPI DUP1 PUSH4 0xC6682862 EQ PUSH2 0x8DF JUMPI DUP1 PUSH4 0xC87B56DD EQ PUSH2 0x90A JUMPI DUP1 PUSH4 0xD0EB26B0 EQ PUSH2 0x947 JUMPI PUSH2 0x27D JUMP JUMPDEST DUP1 PUSH4 0x99A2557A GT PUSH2 0x113 JUMPI DUP1 PUSH4 0x99A2557A EQ PUSH2 0x75A JUMPI DUP1 PUSH4 0x9C70B512 EQ PUSH2 0x797 JUMPI DUP1 PUSH4 0xA0712D68 EQ PUSH2 0x7C2 JUMPI DUP1 PUSH4 0xA22CB465 EQ PUSH2 0x7DE JUMPI DUP1 PUSH4 0xA475B5DD EQ PUSH2 0x807 JUMPI DUP1 PUSH4 0xB88D4FDE EQ PUSH2 0x81E JUMPI PUSH2 0x27D JUMP JUMPDEST DUP1 PUSH4 0x715018A6 EQ PUSH2 0x687 JUMPI DUP1 PUSH4 0x7F00C7A6 EQ PUSH2 0x69E JUMPI DUP1 PUSH4 0x8462151C EQ PUSH2 0x6C7 JUMPI DUP1 PUSH4 0x8DA5CB5B EQ PUSH2 0x704 JUMPI DUP1 PUSH4 0x95D89B41 EQ PUSH2 0x72F JUMPI PUSH2 0x27D JUMP JUMPDEST DUP1 PUSH4 0x3AF32ABF GT PUSH2 0x1F3 JUMPI DUP1 PUSH4 0x55F804B3 GT PUSH2 0x1AC JUMPI DUP1 PUSH4 0x55F804B3 EQ PUSH2 0x551 JUMPI DUP1 PUSH4 0x5BBB2177 EQ PUSH2 0x57A JUMPI DUP1 PUSH4 0x5C975ABB EQ PUSH2 0x5B7 JUMPI DUP1 PUSH4 0x6352211E EQ PUSH2 0x5E2 JUMPI DUP1 PUSH4 0x6C0360EB EQ PUSH2 0x61F JUMPI DUP1 PUSH4 0x70A08231 EQ PUSH2 0x64A JUMPI PUSH2 0x27D JUMP JUMPDEST DUP1 PUSH4 0x3AF32ABF EQ PUSH2 0x471 JUMPI DUP1 PUSH4 0x3C952764 EQ PUSH2 0x4AE JUMPI DUP1 PUSH4 0x3CCFD60B EQ PUSH2 0x4D7 JUMPI DUP1 PUSH4 0x42842E0E EQ PUSH2 0x4E1 JUMPI DUP1 PUSH4 0x44A0D68A EQ PUSH2 0x4FD JUMPI DUP1 PUSH4 0x51830227 EQ PUSH2 0x526 JUMPI PUSH2 0x27D JUMP JUMPDEST DUP1 PUSH4 0x95EA7B3 GT PUSH2 0x245 JUMPI DUP1 PUSH4 0x95EA7B3 EQ PUSH2 0x37B JUMPI DUP1 PUSH4 0x13FAEDE6 EQ PUSH2 0x397 JUMPI DUP1 PUSH4 0x18160DDD EQ PUSH2 0x3C2 JUMPI DUP1 PUSH4 0x18CAE269 EQ PUSH2 0x3ED JUMPI DUP1 PUSH4 0x239C70AE EQ PUSH2 0x42A JUMPI DUP1 PUSH4 0x23B872DD EQ PUSH2 0x455 JUMPI PUSH2 0x27D JUMP JUMPDEST DUP1 PUSH4 0x1FFC9A7 EQ PUSH2 0x282 JUMPI DUP1 PUSH4 0x2329A29 EQ PUSH2 0x2BF JUMPI DUP1 PUSH4 0x6FDDE03 EQ PUSH2 0x2E8 JUMPI DUP1 PUSH4 0x81812FC EQ PUSH2 0x313 JUMPI DUP1 PUSH4 0x81C8C44 EQ PUSH2 0x350 JUMPI JUMPDEST PUSH1 0x0 DUP1 REVERT JUMPDEST CALLVALUE DUP1 ISZERO PUSH2 0x28E JUMPI PUSH1 0x0 DUP1 REVERT JUMPDEST POP PUSH2 0x2A9 PUSH1 0x4 DUP1 CALLDATASIZE SUB DUP2 ADD SWAP1 PUSH2 0x2A4 SWAP2 SWAP1 PUSH2 0x2CA9 JUMP JUMPDEST PUSH2 0xA7C JUMP JUMPDEST PUSH1 0x40 MLOAD PUSH2 0x2B6 SWAP2 SWAP1 PUSH2 0x2CF1 JUMP JUMPDEST PUSH1 0x40 MLOAD DUP1 SWAP2 SUB SWAP1 RETURN JUMPDEST CALLVALUE DUP1 ISZERO PUSH2 0x2CB JUMPI PUSH1 0x0 DUP1 REVERT JUMPDEST POP PUSH2 0x2E6 PUSH1 0x4 DUP1 CALLDATASIZE SUB DUP2 ADD SWAP1 PUSH2 0x2E1 SWAP2 SWAP1 PUSH2 0x2D38 JUMP JUMPDEST PUSH2 0xB0E JUMP JUMPDEST STOP JUMPDEST CALLVALUE DUP1 ISZERO PUSH2 0x2F4 JUMPI PUSH1 0x0 DUP1 REVERT JUMPDEST POP PUSH2 0x2FD PUSH2 0xB33 JUMP JUMPDEST PUSH1 0x40 MLOAD PUSH2 0x30A SWAP2 SWAP1 PUSH2 0x2DF5 JUMP JUMPDEST PUSH1 0x40 MLOAD DUP1 SWAP2 SUB SWAP1 RETURN JUMPDEST CALLVALUE DUP1 ISZERO PUSH2 0x31F JUMPI PUSH1 0x0 DUP1 REVERT JUMPDEST POP PUSH2 0x33A PUSH1 0x4 DUP1 CALLDATASIZE SUB DUP2 ADD SWAP1 PUSH2 0x335 SWAP2 SWAP1 PUSH2 0x2E4D JUMP JUMPDEST PUSH2 0xBC5 JUMP JUMPDEST PUSH1 0x40 MLOAD PUSH2 0x347 SWAP2 SWAP1 PUSH2 0x2EBB JUMP JUMPDEST PUSH1 0x40 MLOAD DUP1 SWAP2 SUB SWAP1 RETURN JUMPDEST CALLVALUE DUP1 ISZERO PUSH2 0x35C JUMPI PUSH1 0x0 DUP1 REVERT JUMPDEST POP PUSH2 0x365 PUSH2 0xC44 JUMP JUMPDEST PUSH1 0x40 MLOAD PUSH2 0x372 SWAP2 SWAP1 PUSH2 0x2DF5 JUMP JUMPDEST PUSH1 0x40 MLOAD DUP1 SWAP2 SUB SWAP1 RETURN JUMPDEST PUSH2 0x395 PUSH1 0x4 DUP1 CALLDATASIZE SUB DUP2 ADD SWAP1 PUSH2 0x390 SWAP2 SWAP1 PUSH2 0x2F02 JUMP JUMPDEST PUSH2 0xCD2 JUMP JUMPDEST STOP JUMPDEST CALLVALUE DUP1 ISZERO PUSH2 0x3A3 JUMPI PUSH1 0x0 DUP1 REVERT JUMPDEST POP PUSH2 0x3AC PUSH2 0xE16 JUMP JUMPDEST PUSH1 0x40 MLOAD PUSH2 0x3B9 SWAP2 SWAP1 PUSH2 0x2F51 JUMP JUMPDEST PUSH1 0x40 MLOAD DUP1 SWAP2 SUB SWAP1 RETURN JUMPDEST CALLVALUE DUP1 ISZERO PUSH2 0x3CE JUMPI PUSH1 0x0 DUP1 REVERT JUMPDEST POP PUSH2 0x3D7 PUSH2 0xE1C JUMP JUMPDEST PUSH1 0x40 MLOAD PUSH2 0x3E4 SWAP2 SWAP1 PUSH2 0x2F51 JUMP JUMPDEST PUSH1 0x40 MLOAD DUP1 SWAP2 SUB SWAP1 RETURN JUMPDEST CALLVALUE DUP1 ISZERO PUSH2 0x3F9 JUMPI PUSH1 0x0 DUP1 REVERT JUMPDEST POP PUSH2 0x414 PUSH1 0x4 DUP1 CALLDATASIZE SUB DUP2 ADD SWAP1 PUSH2 0x40F SWAP2 SWAP1 PUSH2 0x2F6C JUMP JUMPDEST PUSH2 0xE33 JUMP JUMPDEST PUSH1 0x40 MLOAD PUSH2 0x421 SWAP2 SWAP1 PUSH2 0x2F51 JUMP JUMPDEST PUSH1 0x40 MLOAD DUP1 SWAP2 SUB SWAP1 RETURN JUMPDEST CALLVALUE DUP1 ISZERO PUSH2 0x436 JUMPI PUSH1 0x0 DUP1 REVERT JUMPDEST POP PUSH2 0x43F PUSH2 0xE4B JUMP JUMPDEST PUSH1 0x40 MLOAD PUSH2 0x44C SWAP2 SWAP1 PUSH2 0x2F51 JUMP JUMPDEST PUSH1 0x40 MLOAD DUP1 SWAP2 SUB SWAP1 RETURN JUMPDEST PUSH2 0x46F PUSH1 0x4 DUP1 CALLDATASIZE SUB DUP2 ADD SWAP1 PUSH2 0x46A SWAP2 SWAP1 PUSH2 0x2F99 JUMP JUMPDEST PUSH2 0xE51 JUMP JUMPDEST STOP JUMPDEST CALLVALUE DUP1 ISZERO PUSH2 0x47D JUMPI PUSH1 0x0 DUP1 REVERT JUMPDEST POP PUSH2 0x498 PUSH1 0x4 DUP1 CALLDATASIZE SUB DUP2 ADD SWAP1 PUSH2 0x493 SWAP2 SWAP1 PUSH2 0x2F6C JUMP JUMPDEST PUSH2 0x1173 JUMP JUMPDEST PUSH1 0x40 MLOAD PUSH2 0x4A5 SWAP2 SWAP1 PUSH2 0x2CF1 JUMP JUMPDEST PUSH1 0x40 MLOAD DUP1 SWAP2 SUB SWAP1 RETURN JUMPDEST CALLVALUE DUP1 ISZERO PUSH2 0x4BA JUMPI PUSH1 0x0 DUP1 REVERT JUMPDEST POP PUSH2 0x4D5 PUSH1 0x4 DUP1 CALLDATASIZE SUB DUP2 ADD SWAP1 PUSH2 0x4D0 SWAP2 SWAP1 PUSH2 0x2D38 JUMP JUMPDEST PUSH2 0x1221 JUMP JUMPDEST STOP JUMPDEST PUSH2 0x4DF PUSH2 0x1246 JUMP JUMPDEST STOP JUMPDEST PUSH2 0x4FB PUSH1 0x4 DUP1 CALLDATASIZE SUB DUP2 ADD SWAP1 PUSH2 0x4F6 SWAP2 SWAP1 PUSH2 0x2F99 JUMP JUMPDEST PUSH2 0x12CE JUMP JUMPDEST STOP JUMPDEST CALLVALUE DUP1 ISZERO PUSH2 0x509 JUMPI PUSH1 0x0 DUP1 REVERT JUMPDEST POP PUSH2 0x524 PUSH1 0x4 DUP1 CALLDATASIZE SUB DUP2 ADD SWAP1 PUSH2 0x51F SWAP2 SWAP1 PUSH2 0x2E4D JUMP JUMPDEST PUSH2 0x12EE JUMP JUMPDEST STOP JUMPDEST CALLVALUE DUP1 ISZERO PUSH2 0x532 JUMPI PUSH1 0x0 DUP1 REVERT JUMPDEST POP PUSH2 0x53B PUSH2 0x1300 JUMP JUMPDEST PUSH1 0x40 MLOAD PUSH2 0x548 SWAP2 SWAP1 PUSH2 0x2CF1 JUMP JUMPDEST PUSH1 0x40 MLOAD DUP1 SWAP2 SUB SWAP1 RETURN JUMPDEST CALLVALUE DUP1 ISZERO PUSH2 0x55D JUMPI PUSH1 0x0 DUP1 REVERT JUMPDEST POP PUSH2 0x578 PUSH1 0x4 DUP1 CALLDATASIZE SUB DUP2 ADD SWAP1 PUSH2 0x573 SWAP2 SWAP1 PUSH2 0x3121 JUMP JUMPDEST PUSH2 0x1313 JUMP JUMPDEST STOP JUMPDEST CALLVALUE DUP1 ISZERO PUSH2 0x586 JUMPI PUSH1 0x0 DUP1 REVERT JUMPDEST POP PUSH2 0x5A1 PUSH1 0x4 DUP1 CALLDATASIZE SUB DUP2 ADD SWAP1 PUSH2 0x59C SWAP2 SWAP1 PUSH2 0x31CA JUMP JUMPDEST PUSH2 0x132E JUMP JUMPDEST PUSH1 0x40 MLOAD PUSH2 0x5AE SWAP2 SWAP1 PUSH2 0x337A JUMP JUMPDEST PUSH1 0x40 MLOAD DUP1 SWAP2 SUB SWAP1 RETURN JUMPDEST CALLVALUE DUP1 ISZERO PUSH2 0x5C3 JUMPI PUSH1 0x0 DUP1 REVERT JUMPDEST POP PUSH2 0x5CC PUSH2 0x13F1 JUMP JUMPDEST PUSH1 0x40 MLOAD PUSH2 0x5D9 SWAP2 SWAP1 PUSH2 0x2CF1 JUMP JUMPDEST PUSH1 0x40 MLOAD DUP1 SWAP2 SUB SWAP1 RETURN JUMPDEST CALLVALUE DUP1 ISZERO PUSH2 0x5EE JUMPI PUSH1 0x0 DUP1 REVERT JUMPDEST POP PUSH2 0x609 PUSH1 0x4 DUP1 CALLDATASIZE SUB DUP2 ADD SWAP1 PUSH2 0x604 SWAP2 SWAP1 PUSH2 0x2E4D JUMP JUMPDEST PUSH2 0x1404 JUMP JUMPDEST PUSH1 0x40 MLOAD PUSH2 0x616 SWAP2 SWAP1 PUSH2 0x2EBB JUMP JUMPDEST PUSH1 0x40 MLOAD DUP1 SWAP2 SUB SWAP1 RETURN JUMPDEST CALLVALUE DUP1 ISZERO PUSH2 0x62B JUMPI PUSH1 0x0 DUP1 REVERT JUMPDEST POP PUSH2 0x634 PUSH2 0x1416 JUMP JUMPDEST PUSH1 0x40 MLOAD PUSH2 0x641 SWAP2 SWAP1 PUSH2 0x2DF5 JUMP JUMPDEST PUSH1 0x40 MLOAD DUP1 SWAP2 SUB SWAP1 RETURN JUMPDEST CALLVALUE DUP1 ISZERO PUSH2 0x656 JUMPI PUSH1 0x0 DUP1 REVERT JUMPDEST POP PUSH2 0x671 PUSH1 0x4 DUP1 CALLDATASIZE SUB DUP2 ADD SWAP1 PUSH2 0x66C SWAP2 SWAP1 PUSH2 0x2F6C JUMP JUMPDEST PUSH2 0x14A4 JUMP JUMPDEST PUSH1 0x40 MLOAD PUSH2 0x67E SWAP2 SWAP1 PUSH2 0x2F51 JUMP JUMPDEST PUSH1 0x40 MLOAD DUP1 SWAP2 SUB SWAP1 RETURN JUMPDEST CALLVALUE DUP1 ISZERO PUSH2 0x693 JUMPI PUSH1 0x0 DUP1 REVERT JUMPDEST POP PUSH2 0x69C PUSH2 0x155C JUMP JUMPDEST STOP JUMPDEST CALLVALUE DUP1 ISZERO PUSH2 0x6AA JUMPI PUSH1 0x0 DUP1 REVERT JUMPDEST POP PUSH2 0x6C5 PUSH1 0x4 DUP1 CALLDATASIZE SUB DUP2 ADD SWAP1 PUSH2 0x6C0 SWAP2 SWAP1 PUSH2 0x2E4D JUMP JUMPDEST PUSH2 0x1570 JUMP JUMPDEST STOP JUMPDEST CALLVALUE DUP1 ISZERO PUSH2 0x6D3 JUMPI PUSH1 0x0 DUP1 REVERT JUMPDEST POP PUSH2 0x6EE PUSH1 0x4 DUP1 CALLDATASIZE SUB DUP2 ADD SWAP1 PUSH2 0x6E9 SWAP2 SWAP1 PUSH2 0x2F6C JUMP JUMPDEST PUSH2 0x1582 JUMP JUMPDEST PUSH1 0x40 MLOAD PUSH2 0x6FB SWAP2 SWAP1 PUSH2 0x345A JUMP JUMPDEST PUSH1 0x40 MLOAD DUP1 SWAP2 SUB SWAP1 RETURN JUMPDEST CALLVALUE DUP1 ISZERO PUSH2 0x710 JUMPI PUSH1 0x0 DUP1 REVERT JUMPDEST POP PUSH2 0x719 PUSH2 0x16C5 JUMP JUMPDEST PUSH1 0x40 MLOAD PUSH2 0x726 SWAP2 SWAP1 PUSH2 0x2EBB JUMP JUMPDEST PUSH1 0x40 MLOAD DUP1 SWAP2 SUB SWAP1 RETURN JUMPDEST CALLVALUE DUP1 ISZERO PUSH2 0x73B JUMPI PUSH1 0x0 DUP1 REVERT JUMPDEST POP PUSH2 0x744 PUSH2 0x16EF JUMP JUMPDEST PUSH1 0x40 MLOAD PUSH2 0x751 SWAP2 SWAP1 PUSH2 0x2DF5 JUMP JUMPDEST PUSH1 0x40 MLOAD DUP1 SWAP2 SUB SWAP1 RETURN JUMPDEST CALLVALUE DUP1 ISZERO PUSH2 0x766 JUMPI PUSH1 0x0 DUP1 REVERT JUMPDEST POP PUSH2 0x781 PUSH1 0x4 DUP1 CALLDATASIZE SUB DUP2 ADD SWAP1 PUSH2 0x77C SWAP2 SWAP1 PUSH2 0x347C JUMP JUMPDEST PUSH2 0x1781 JUMP JUMPDEST PUSH1 0x40 MLOAD PUSH2 0x78E SWAP2 SWAP1 PUSH2 0x345A JUMP JUMPDEST PUSH1 0x40 MLOAD DUP1 SWAP2 SUB SWAP1 RETURN JUMPDEST CALLVALUE DUP1 ISZERO PUSH2 0x7A3 JUMPI PUSH1 0x0 DUP1 REVERT JUMPDEST POP PUSH2 0x7AC PUSH2 0x198D JUMP JUMPDEST PUSH1 0x40 MLOAD PUSH2 0x7B9 SWAP2 SWAP1 PUSH2 0x2CF1 JUMP JUMPDEST PUSH1 0x40 MLOAD DUP1 SWAP2 SUB SWAP1 RETURN JUMPDEST PUSH2 0x7DC PUSH1 0x4 DUP1 CALLDATASIZE SUB DUP2 ADD SWAP1 PUSH2 0x7D7 SWAP2 SWAP1 PUSH2 0x2E4D JUMP JUMPDEST PUSH2 0x19A0 JUMP JUMPDEST STOP JUMPDEST CALLVALUE DUP1 ISZERO PUSH2 0x7EA JUMPI PUSH1 0x0 DUP1 REVERT JUMPDEST POP PUSH2 0x805 PUSH1 0x4 DUP1 CALLDATASIZE SUB DUP2 ADD SWAP1 PUSH2 0x800 SWAP2 SWAP1 PUSH2 0x34CF JUMP JUMPDEST PUSH2 0x1CE8 JUMP JUMPDEST STOP JUMPDEST CALLVALUE DUP1 ISZERO PUSH2 0x813 JUMPI PUSH1 0x0 DUP1 REVERT JUMPDEST POP PUSH2 0x81C PUSH2 0x1DF3 JUMP JUMPDEST STOP JUMPDEST PUSH2 0x838 PUSH1 0x4 DUP1 CALLDATASIZE SUB DUP2 ADD SWAP1 PUSH2 0x833 SWAP2 SWAP1 PUSH2 0x35B0 JUMP JUMPDEST PUSH2 0x1E18 JUMP JUMPDEST STOP JUMPDEST CALLVALUE DUP1 ISZERO PUSH2 0x846 JUMPI PUSH1 0x0 DUP1 REVERT JUMPDEST POP PUSH2 0x861 PUSH1 0x4 DUP1 CALLDATASIZE SUB DUP2 ADD SWAP1 PUSH2 0x85C SWAP2 SWAP1 PUSH2 0x2E4D JUMP JUMPDEST PUSH2 0x1E8B JUMP JUMPDEST PUSH1 0x40 MLOAD PUSH2 0x86E SWAP2 SWAP1 PUSH2 0x2EBB JUMP JUMPDEST PUSH1 0x40 MLOAD DUP1 SWAP2 SUB SWAP1 RETURN JUMPDEST CALLVALUE DUP1 ISZERO PUSH2 0x883 JUMPI PUSH1 0x0 DUP1 REVERT JUMPDEST POP PUSH2 0x88C PUSH2 0x1ECA JUMP JUMPDEST PUSH1 0x40 MLOAD PUSH2 0x899 SWAP2 SWAP1 PUSH2 0x2F51 JUMP JUMPDEST PUSH1 0x40 MLOAD DUP1 SWAP2 SUB SWAP1 RETURN JUMPDEST CALLVALUE DUP1 ISZERO PUSH2 0x8AE JUMPI PUSH1 0x0 DUP1 REVERT JUMPDEST POP PUSH2 0x8C9 PUSH1 0x4 DUP1 CALLDATASIZE SUB DUP2 ADD SWAP1 PUSH2 0x8C4 SWAP2 SWAP1 PUSH2 0x2E4D JUMP JUMPDEST PUSH2 0x1ED0 JUMP JUMPDEST PUSH1 0x40 MLOAD PUSH2 0x8D6 SWAP2 SWAP1 PUSH2 0x3688 JUMP JUMPDEST PUSH1 0x40 MLOAD DUP1 SWAP2 SUB SWAP1 RETURN JUMPDEST CALLVALUE DUP1 ISZERO PUSH2 0x8EB JUMPI PUSH1 0x0 DUP1 REVERT JUMPDEST POP PUSH2 0x8F4 PUSH2 0x1F3A JUMP JUMPDEST PUSH1 0x40 MLOAD PUSH2 0x901 SWAP2 SWAP1 PUSH2 0x2DF5 JUMP JUMPDEST PUSH1 0x40 MLOAD DUP1 SWAP2 SUB SWAP1 RETURN JUMPDEST CALLVALUE DUP1 ISZERO PUSH2 0x916 JUMPI PUSH1 0x0 DUP1 REVERT JUMPDEST POP PUSH2 0x931 PUSH1 0x4 DUP1 CALLDATASIZE SUB DUP2 ADD SWAP1 PUSH2 0x92C SWAP2 SWAP1 PUSH2 0x2E4D JUMP JUMPDEST PUSH2 0x1FC8 JUMP JUMPDEST PUSH1 0x40 MLOAD PUSH2 0x93E SWAP2 SWAP1 PUSH2 0x2DF5 JUMP JUMPDEST PUSH1 0x40 MLOAD DUP1 SWAP2 SUB SWAP1 RETURN JUMPDEST CALLVALUE DUP1 ISZERO PUSH2 0x953 JUMPI PUSH1 0x0 DUP1 REVERT JUMPDEST POP PUSH2 0x96E PUSH1 0x4 DUP1 CALLDATASIZE SUB DUP2 ADD SWAP1 PUSH2 0x969 SWAP2 SWAP1 PUSH2 0x2E4D JUMP JUMPDEST PUSH2 0x2066 JUMP JUMPDEST STOP JUMPDEST CALLVALUE DUP1 ISZERO PUSH2 0x97C JUMPI PUSH1 0x0 DUP1 REVERT JUMPDEST POP PUSH2 0x985 PUSH2 0x2078 JUMP JUMPDEST PUSH1 0x40 MLOAD PUSH2 0x992 SWAP2 SWAP1 PUSH2 0x2F51 JUMP JUMPDEST PUSH1 0x40 MLOAD DUP1 SWAP2 SUB SWAP1 RETURN JUMPDEST CALLVALUE DUP1 ISZERO PUSH2 0x9A7 JUMPI PUSH1 0x0 DUP1 REVERT JUMPDEST POP PUSH2 0x9C2 PUSH1 0x4 DUP1 CALLDATASIZE SUB DUP2 ADD SWAP1 PUSH2 0x9BD SWAP2 SWAP1 PUSH2 0x3121 JUMP JUMPDEST PUSH2 0x207E JUMP JUMPDEST STOP JUMPDEST CALLVALUE DUP1 ISZERO PUSH2 0x9D0 JUMPI PUSH1 0x0 DUP1 REVERT JUMPDEST POP PUSH2 0x9EB PUSH1 0x4 DUP1 CALLDATASIZE SUB DUP2 ADD SWAP1 PUSH2 0x9E6 SWAP2 SWAP1 PUSH2 0x36A3 JUMP JUMPDEST PUSH2 0x2099 JUMP JUMPDEST PUSH1 0x40 MLOAD PUSH2 0x9F8 SWAP2 SWAP1 PUSH2 0x2CF1 JUMP JUMPDEST PUSH1 0x40 MLOAD DUP1 SWAP2 SUB SWAP1 RETURN JUMPDEST CALLVALUE DUP1 ISZERO PUSH2 0xA0D JUMPI PUSH1 0x0 DUP1 REVERT JUMPDEST POP PUSH2 0xA28 PUSH1 0x4 DUP1 CALLDATASIZE SUB DUP2 ADD SWAP1 PUSH2 0xA23 SWAP2 SWAP1 PUSH2 0x3739 JUMP JUMPDEST PUSH2 0x212D JUMP JUMPDEST STOP JUMPDEST CALLVALUE DUP1 ISZERO PUSH2 0xA36 JUMPI PUSH1 0x0 DUP1 REVERT JUMPDEST POP PUSH2 0xA51 PUSH1 0x4 DUP1 CALLDATASIZE SUB DUP2 ADD SWAP1 PUSH2 0xA4C SWAP2 SWAP1 PUSH2 0x3121 JUMP JUMPDEST PUSH2 0x2159 JUMP JUMPDEST STOP JUMPDEST CALLVALUE DUP1 ISZERO PUSH2 0xA5F JUMPI PUSH1 0x0 DUP1 REVERT JUMPDEST POP PUSH2 0xA7A PUSH1 0x4 DUP1 CALLDATASIZE SUB DUP2 ADD SWAP1 PUSH2 0xA75 SWAP2 SWAP1 PUSH2 0x2F6C JUMP JUMPDEST PUSH2 0x2174 JUMP JUMPDEST STOP JUMPDEST PUSH1 0x0 PUSH4 0x1FFC9A7 PUSH1 0xE0 SHL DUP3 PUSH28 0xFFFFFFFFFFFFFFFFFFFFFFFFFFFFFFFFFFFFFFFFFFFFFFFFFFFFFFFF NOT AND EQ DUP1 PUSH2 0xAD7 JUMPI POP PUSH4 0x80AC58CD PUSH1 0xE0 SHL DUP3 PUSH28 0xFFFFFFFFFFFFFFFFFFFFFFFFFFFFFFFFFFFFFFFFFFFFFFFFFFFFFFFF NOT AND EQ JUMPDEST DUP1 PUSH2 0xB07 JUMPI POP PUSH4 0x5B5E139F PUSH1 0xE0 SHL DUP3 PUSH28 0xFFFFFFFFFFFFFFFFFFFFFFFFFFFFFFFFFFFFFFFFFFFFFFFFFFFFFFFF NOT AND EQ JUMPDEST SWAP1 POP SWAP2 SWAP1 POP JUMP JUMPDEST PUSH2 0xB16 PUSH2 0x21F7 JUMP JUMPDEST DUP1 PUSH1 0x10 PUSH1 0x0 PUSH2 0x100 EXP DUP2 SLOAD DUP2 PUSH1 0xFF MUL NOT AND SWAP1 DUP4 ISZERO ISZERO MUL OR SWAP1 SSTORE POP POP JUMP JUMPDEST PUSH1 0x60 PUSH1 0x2 DUP1 SLOAD PUSH2 0xB42 SWAP1 PUSH2 0x37B5 JUMP JUMPDEST DUP1 PUSH1 0x1F ADD PUSH1 0x20 DUP1 SWAP2 DIV MUL PUSH1 0x20 ADD PUSH1 0x40 MLOAD SWAP1 DUP2 ADD PUSH1 0x40 MSTORE DUP1 SWAP3 SWAP2 SWAP1 DUP2 DUP2 MSTORE PUSH1 0x20 ADD DUP3 DUP1 SLOAD PUSH2 0xB6E SWAP1 PUSH2 0x37B5 JUMP JUMPDEST DUP1 ISZERO PUSH2 0xBBB JUMPI DUP1 PUSH1 0x1F LT PUSH2 0xB90 JUMPI PUSH2 0x100 DUP1 DUP4 SLOAD DIV MUL DUP4 MSTORE SWAP2 PUSH1 0x20 ADD SWAP2 PUSH2 0xBBB JUMP JUMPDEST DUP3 ADD SWAP2 SWAP1 PUSH1 0x0 MSTORE PUSH1 0x20 PUSH1 0x0 KECCAK256 SWAP1 JUMPDEST DUP2 SLOAD DUP2 MSTORE SWAP1 PUSH1 0x1 ADD SWAP1 PUSH1 0x20 ADD DUP1 DUP4 GT PUSH2 0xB9E JUMPI DUP3 SWAP1 SUB PUSH1 0x1F AND DUP3 ADD SWAP2 JUMPDEST POP POP POP POP POP SWAP1 POP SWAP1 JUMP JUMPDEST PUSH1 0x0 PUSH2 0xBD0 DUP3 PUSH2 0x2275 JUMP JUMPDEST PUSH2 0xC06 JUMPI PUSH1 0x40 MLOAD PUSH32 0xCF4700E400000000000000000000000000000000000000000000000000000000 DUP2 MSTORE PUSH1 0x4 ADD PUSH1 0x40 MLOAD DUP1 SWAP2 SUB SWAP1 REVERT JUMPDEST PUSH1 0x6 PUSH1 0x0 DUP4 DUP2 MSTORE PUSH1 0x20 ADD SWAP1 DUP2 MSTORE PUSH1 0x20 ADD PUSH1 0x0 KECCAK256 PUSH1 0x0 ADD PUSH1 0x0 SWAP1 SLOAD SWAP1 PUSH2 0x100 EXP SWAP1 DIV PUSH20 0xFFFFFFFFFFFFFFFFFFFFFFFFFFFFFFFFFFFFFFFF AND SWAP1 POP SWAP2 SWAP1 POP JUMP JUMPDEST PUSH1 0xB DUP1 SLOAD PUSH2 0xC51 SWAP1 PUSH2 0x37B5 JUMP JUMPDEST DUP1 PUSH1 0x1F ADD PUSH1 0x20 DUP1 SWAP2 DIV MUL PUSH1 0x20 ADD PUSH1 0x40 MLOAD SWAP1 DUP2 ADD PUSH1 0x40 MSTORE DUP1 SWAP3 SWAP2 SWAP1 DUP2 DUP2 MSTORE PUSH1 0x20 ADD DUP3 DUP1 SLOAD PUSH2 0xC7D SWAP1 PUSH2 0x37B5 JUMP JUMPDEST DUP1 ISZERO PUSH2 0xCCA JUMPI DUP1 PUSH1 0x1F LT PUSH2 0xC9F JUMPI PUSH2 0x100 DUP1 DUP4 SLOAD DIV MUL DUP4 MSTORE SWAP2 PUSH1 0x20 ADD SWAP2 PUSH2 0xCCA JUMP JUMPDEST DUP3 ADD SWAP2 SWAP1 PUSH1 0x0 MSTORE PUSH1 0x20 PUSH1 0x0 KECCAK256 SWAP1 JUMPDEST DUP2 SLOAD DUP2 MSTORE SWAP1 PUSH1 0x1 ADD SWAP1 PUSH1 0x20 ADD DUP1 DUP4 GT PUSH2 0xCAD JUMPI DUP3 SWAP1 SUB PUSH1 0x1F AND DUP3 ADD SWAP2 JUMPDEST POP POP POP POP POP DUP2 JUMP JUMPDEST PUSH1 0x0 PUSH2 0xCDD DUP3 PUSH2 0x1404 JUMP JUMPDEST SWAP1 POP DUP1 PUSH20 0xFFFFFFFFFFFFFFFFFFFFFFFFFFFFFFFFFFFFFFFF AND PUSH2 0xCFE PUSH2 0x22D4 JUMP JUMPDEST PUSH20 0xFFFFFFFFFFFFFFFFFFFFFFFFFFFFFFFFFFFFFFFF AND EQ PUSH2 0xD61 JUMPI PUSH2 0xD2A DUP2 PUSH2 0xD25 PUSH2 0x22D4 JUMP JUMPDEST PUSH2 0x2099 JUMP JUMPDEST PUSH2 0xD60 JUMPI PUSH1 0x40 MLOAD PUSH32 0xCFB3B94200000000000000000000000000000000000000000000000000000000 DUP2 MSTORE PUSH1 0x4 ADD PUSH1 0x40 MLOAD DUP1 SWAP2 SUB SWAP1 REVERT JUMPDEST JUMPDEST DUP3 PUSH1 0x6 PUSH1 0x0 DUP5 DUP2 MSTORE PUSH1 0x20 ADD SWAP1 DUP2 MSTORE PUSH1 0x20 ADD PUSH1 0x0 KECCAK256 PUSH1 0x0 ADD PUSH1 0x0 PUSH2 0x100 EXP DUP2 SLOAD DUP2 PUSH20 0xFFFFFFFFFFFFFFFFFFFFFFFFFFFFFFFFFFFFFFFF MUL NOT AND SWAP1 DUP4 PUSH20 0xFFFFFFFFFFFFFFFFFFFFFFFFFFFFFFFFFFFFFFFF AND MUL OR SWAP1 SSTORE POP DUP2 DUP4 PUSH20 0xFFFFFFFFFFFFFFFFFFFFFFFFFFFFFFFFFFFFFFFF AND DUP3 PUSH20 0xFFFFFFFFFFFFFFFFFFFFFFFFFFFFFFFFFFFFFFFF AND PUSH32 0x8C5BE1E5EBEC7D5BD14F71427D1E84F3DD0314C0F7B2291E5B200AC8C7C3B925 PUSH1 0x40 MLOAD PUSH1 0x40 MLOAD DUP1 SWAP2 SUB SWAP1 LOG4 POP POP POP JUMP JUMPDEST PUSH1 0xC SLOAD DUP2 JUMP JUMPDEST PUSH1 0x0 PUSH2 0xE26 PUSH2 0x22DC JUMP JUMPDEST PUSH1 0x1 SLOAD PUSH1 0x0 SLOAD SUB SUB SWAP1 POP SWAP1 JUMP JUMPDEST PUSH1 0x12 PUSH1 0x20 MSTORE DUP1 PUSH1 0x0 MSTORE PUSH1 0x40 PUSH1 0x0 KECCAK256 PUSH1 0x0 SWAP2 POP SWAP1 POP SLOAD DUP2 JUMP JUMPDEST PUSH1 0xE SLOAD DUP2 JUMP JUMPDEST PUSH1 0x0 PUSH2 0xE5C DUP3 PUSH2 0x22E1 JUMP JUMPDEST SWAP1 POP DUP4 PUSH20 0xFFFFFFFFFFFFFFFFFFFFFFFFFFFFFFFFFFFFFFFF AND DUP2 PUSH20 0xFFFFFFFFFFFFFFFFFFFFFFFFFFFFFFFFFFFFFFFF AND EQ PUSH2 0xEC3 JUMPI PUSH1 0x40 MLOAD PUSH32 0xA114810000000000000000000000000000000000000000000000000000000000 DUP2 MSTORE PUSH1 0x4 ADD PUSH1 0x40 MLOAD DUP1 SWAP2 SUB SWAP1 REVERT JUMPDEST PUSH1 0x0 DUP1 PUSH2 0xECF DUP5 PUSH2 0x23AD JUMP JUMPDEST SWAP2 POP SWAP2 POP PUSH2 0xEE5 DUP2 DUP8 PUSH2 0xEE0 PUSH2 0x22D4 JUMP JUMPDEST PUSH2 0x23D4 JUMP JUMPDEST PUSH2 0xF31 JUMPI PUSH2 0xEFA DUP7 PUSH2 0xEF5 PUSH2 0x22D4 JUMP JUMPDEST PUSH2 0x2099 JUMP JUMPDEST PUSH2 0xF30 JUMPI PUSH1 0x40 MLOAD PUSH32 0x59C896BE00000000000000000000000000000000000000000000000000000000 DUP2 MSTORE PUSH1 0x4 ADD PUSH1 0x40 MLOAD DUP1 SWAP2 SUB SWAP1 REVERT JUMPDEST JUMPDEST PUSH1 0x0 PUSH20 0xFFFFFFFFFFFFFFFFFFFFFFFFFFFFFFFFFFFFFFFF AND DUP6 PUSH20 0xFFFFFFFFFFFFFFFFFFFFFFFFFFFFFFFFFFFFFFFF AND SUB PUSH2 0xF97 JUMPI PUSH1 0x40 MLOAD PUSH32 0xEA553B3400000000000000000000000000000000000000000000000000000000 DUP2 MSTORE PUSH1 0x4 ADD PUSH1 0x40 MLOAD DUP1 SWAP2 SUB SWAP1 REVERT JUMPDEST PUSH2 0xFA4 DUP7 DUP7 DUP7 PUSH1 0x1 PUSH2 0x2418 JUMP JUMPDEST DUP1 ISZERO PUSH2 0xFAF JUMPI PUSH1 0x0 DUP3 SSTORE JUMPDEST PUSH1 0x5 PUSH1 0x0 DUP8 PUSH20 0xFFFFFFFFFFFFFFFFFFFFFFFFFFFFFFFFFFFFFFFF AND PUSH20 0xFFFFFFFFFFFFFFFFFFFFFFFFFFFFFFFFFFFFFFFF AND DUP2 MSTORE PUSH1 0x20 ADD SWAP1 DUP2 MSTORE PUSH1 0x20 ADD PUSH1 0x0 KECCAK256 PUSH1 0x0 DUP2 SLOAD PUSH1 0x1 SWAP1 SUB SWAP2 SWAP1 POP DUP2 SWAP1 SSTORE POP PUSH1 0x5 PUSH1 0x0 DUP7 PUSH20 0xFFFFFFFFFFFFFFFFFFFFFFFFFFFFFFFFFFFFFFFF AND PUSH20 0xFFFFFFFFFFFFFFFFFFFFFFFFFFFFFFFFFFFFFFFF AND DUP2 MSTORE PUSH1 0x20 ADD SWAP1 DUP2 MSTORE PUSH1 0x20 ADD PUSH1 0x0 KECCAK256 PUSH1 0x0 DUP2 SLOAD PUSH1 0x1 ADD SWAP2 SWAP1 POP DUP2 SWAP1 SSTORE POP PUSH2 0x107D DUP6 PUSH2 0x1059 DUP9 DUP9 DUP8 PUSH2 0x241E JUMP JUMPDEST PUSH29 0x200000000000000000000000000000000000000000000000000000000 OR PUSH2 0x2446 JUMP JUMPDEST PUSH1 0x4 PUSH1 0x0 DUP7 DUP2 MSTORE PUSH1 0x20 ADD SWAP1 DUP2 MSTORE PUSH1 0x20 ADD PUSH1 0x0 KECCAK256 DUP2 SWAP1 SSTORE POP PUSH1 0x0 PUSH29 0x200000000000000000000000000000000000000000000000000000000 DUP5 AND SUB PUSH2 0x1103 JUMPI PUSH1 0x0 PUSH1 0x1 DUP6 ADD SWAP1 POP PUSH1 0x0 PUSH1 0x4 PUSH1 0x0 DUP4 DUP2 MSTORE PUSH1 0x20 ADD SWAP1 DUP2 MSTORE PUSH1 0x20 ADD PUSH1 0x0 KECCAK256 SLOAD SUB PUSH2 0x1101 JUMPI PUSH1 0x0 SLOAD DUP2 EQ PUSH2 0x1100 JUMPI DUP4 PUSH1 0x4 PUSH1 0x0 DUP4 DUP2 MSTORE PUSH1 0x20 ADD SWAP1 DUP2 MSTORE PUSH1 0x20 ADD PUSH1 0x0 KECCAK256 DUP2 SWAP1 SSTORE POP JUMPDEST JUMPDEST POP JUMPDEST DUP4 DUP6 PUSH20 0xFFFFFFFFFFFFFFFFFFFFFFFFFFFFFFFFFFFFFFFF AND DUP8 PUSH20 0xFFFFFFFFFFFFFFFFFFFFFFFFFFFFFFFFFFFFFFFF AND PUSH32 0xDDF252AD1BE2C89B69C2B068FC378DAA952BA7F163C4A11628F55A4DF523B3EF PUSH1 0x40 MLOAD PUSH1 0x40 MLOAD DUP1 SWAP2 SUB SWAP1 LOG4 PUSH2 0x116B DUP7 DUP7 DUP7 PUSH1 0x1 PUSH2 0x2471 JUMP JUMPDEST POP POP POP POP POP POP JUMP JUMPDEST PUSH1 0x0 DUP1 PUSH1 0x0 SWAP1 POP JUMPDEST PUSH1 0x11 DUP1 SLOAD SWAP1 POP DUP2 LT ISZERO PUSH2 0x1216 JUMPI DUP3 PUSH20 0xFFFFFFFFFFFFFFFFFFFFFFFFFFFFFFFFFFFFFFFF AND PUSH1 0x11 DUP3 DUP2 SLOAD DUP2 LT PUSH2 0x11B3 JUMPI PUSH2 0x11B2 PUSH2 0x37E6 JUMP JUMPDEST JUMPDEST SWAP1 PUSH1 0x0 MSTORE PUSH1 0x20 PUSH1 0x0 KECCAK256 ADD PUSH1 0x0 SWAP1 SLOAD SWAP1 PUSH2 0x100 EXP SWAP1 DIV PUSH20 0xFFFFFFFFFFFFFFFFFFFFFFFFFFFFFFFFFFFFFFFF AND PUSH20 0xFFFFFFFFFFFFFFFFFFFFFFFFFFFFFFFFFFFFFFFF AND SUB PUSH2 0x1203 JUMPI PUSH1 0x1 SWAP2 POP POP PUSH2 0x121C JUMP JUMPDEST DUP1 DUP1 PUSH2 0x120E SWAP1 PUSH2 0x3844 JUMP JUMPDEST SWAP2 POP POP PUSH2 0x117B JUMP JUMPDEST POP PUSH1 0x0 SWAP1 POP JUMPDEST SWAP2 SWAP1 POP JUMP JUMPDEST PUSH2 0x1229 PUSH2 0x21F7 JUMP JUMPDEST DUP1 PUSH1 0x10 PUSH1 0x2 PUSH2 0x100 EXP DUP2 SLOAD DUP2 PUSH1 0xFF MUL NOT AND SWAP1 DUP4 ISZERO ISZERO MUL OR SWAP1 SSTORE POP POP JUMP JUMPDEST PUSH2 0x124E PUSH2 0x21F7 JUMP JUMPDEST PUSH1 0x0 PUSH2 0x1258 PUSH2 0x16C5 JUMP JUMPDEST PUSH20 0xFFFFFFFFFFFFFFFFFFFFFFFFFFFFFFFFFFFFFFFF AND SELFBALANCE PUSH1 0x40 MLOAD PUSH2 0x127B SWAP1 PUSH2 0x38BD JUMP JUMPDEST PUSH1 0x0 PUSH1 0x40 MLOAD DUP1 DUP4 SUB DUP2 DUP6 DUP8 GAS CALL SWAP3 POP POP POP RETURNDATASIZE DUP1 PUSH1 0x0 DUP2 EQ PUSH2 0x12B8 JUMPI PUSH1 0x40 MLOAD SWAP2 POP PUSH1 0x1F NOT PUSH1 0x3F RETURNDATASIZE ADD AND DUP3 ADD PUSH1 0x40 MSTORE RETURNDATASIZE DUP3 MSTORE RETURNDATASIZE PUSH1 0x0 PUSH1 0x20 DUP5 ADD RETURNDATACOPY PUSH2 0x12BD JUMP JUMPDEST PUSH1 0x60 SWAP2 POP JUMPDEST POP POP SWAP1 POP DUP1 PUSH2 0x12CB JUMPI PUSH1 0x0 DUP1 REVERT JUMPDEST POP JUMP JUMPDEST PUSH2 0x12E9 DUP4 DUP4 DUP4 PUSH1 0x40 MLOAD DUP1 PUSH1 0x20 ADD PUSH1 0x40 MSTORE DUP1 PUSH1 0x0 DUP2 MSTORE POP PUSH2 0x1E18 JUMP JUMPDEST POP POP POP JUMP JUMPDEST PUSH2 0x12F6 PUSH2 0x21F7 JUMP JUMPDEST DUP1 PUSH1 0xC DUP2 SWAP1 SSTORE POP POP JUMP JUMPDEST PUSH1 0x10 PUSH1 0x1 SWAP1 SLOAD SWAP1 PUSH2 0x100 EXP SWAP1 DIV PUSH1 0xFF AND DUP2 JUMP JUMPDEST PUSH2 0x131B PUSH2 0x21F7 JUMP JUMPDEST DUP1 PUSH1 0x9 SWAP1 DUP2 PUSH2 0x132A SWAP2 SWAP1 PUSH2 0x3A7E JUMP JUMPDEST POP POP JUMP JUMPDEST PUSH1 0x60 PUSH1 0x0 DUP4 DUP4 SWAP1 POP SWAP1 POP PUSH1 0x0 DUP2 PUSH8 0xFFFFFFFFFFFFFFFF DUP2 GT ISZERO PUSH2 0x1354 JUMPI PUSH2 0x1353 PUSH2 0x2FF6 JUMP JUMPDEST JUMPDEST PUSH1 0x40 MLOAD SWAP1 DUP1 DUP3 MSTORE DUP1 PUSH1 0x20 MUL PUSH1 0x20 ADD DUP3 ADD PUSH1 0x40 MSTORE DUP1 ISZERO PUSH2 0x138D JUMPI DUP2 PUSH1 0x20 ADD JUMPDEST PUSH2 0x137A PUSH2 0x2B10 JUMP JUMPDEST DUP2 MSTORE PUSH1 0x20 ADD SWAP1 PUSH1 0x1 SWAP1 SUB SWAP1 DUP2 PUSH2 0x1372 JUMPI SWAP1 POP JUMPDEST POP SWAP1 POP PUSH1 0x0 JUMPDEST DUP3 DUP2 EQ PUSH2 0x13E5 JUMPI PUSH2 0x13BC DUP7 DUP7 DUP4 DUP2 DUP2 LT PUSH2 0x13B0 JUMPI PUSH2 0x13AF PUSH2 0x37E6 JUMP JUMPDEST JUMPDEST SWAP1 POP PUSH1 0x20 MUL ADD CALLDATALOAD PUSH2 0x1ED0 JUMP JUMPDEST DUP3 DUP3 DUP2 MLOAD DUP2 LT PUSH2 0x13CF JUMPI PUSH2 0x13CE PUSH2 0x37E6 JUMP JUMPDEST JUMPDEST PUSH1 0x20 MUL PUSH1 0x20 ADD ADD DUP2 SWAP1 MSTORE POP DUP1 PUSH1 0x1 ADD SWAP1 POP PUSH2 0x1393 JUMP JUMPDEST POP DUP1 SWAP3 POP POP POP SWAP3 SWAP2 POP POP JUMP JUMPDEST PUSH1 0x10 PUSH1 0x0 SWAP1 SLOAD SWAP1 PUSH2 0x100 EXP SWAP1 DIV PUSH1 0xFF AND DUP2 JUMP JUMPDEST PUSH1 0x0 PUSH2 0x140F DUP3 PUSH2 0x22E1 JUMP JUMPDEST SWAP1 POP SWAP2 SWAP1 POP JUMP JUMPDEST PUSH1 0x9 DUP1 SLOAD PUSH2 0x1423 SWAP1 PUSH2 0x37B5 JUMP JUMPDEST DUP1 PUSH1 0x1F ADD PUSH1 0x20 DUP1 SWAP2 DIV MUL PUSH1 0x20 ADD PUSH1 0x40 MLOAD SWAP1 DUP2 ADD PUSH1 0x40 MSTORE DUP1 SWAP3 SWAP2 SWAP1 DUP2 DUP2 MSTORE PUSH1 0x20 ADD DUP3 DUP1 SLOAD PUSH2 0x144F SWAP1 PUSH2 0x37B5 JUMP JUMPDEST DUP1 ISZERO PUSH2 0x149C JUMPI DUP1 PUSH1 0x1F LT PUSH2 0x1471 JUMPI PUSH2 0x100 DUP1 DUP4 SLOAD DIV MUL DUP4 MSTORE SWAP2 PUSH1 0x20 ADD SWAP2 PUSH2 0x149C JUMP JUMPDEST DUP3 ADD SWAP2 SWAP1 PUSH1 0x0 MSTORE PUSH1 0x20 PUSH1 0x0 KECCAK256 SWAP1 JUMPDEST DUP2 SLOAD DUP2 MSTORE SWAP1 PUSH1 0x1 ADD SWAP1 PUSH1 0x20 ADD DUP1 DUP4 GT PUSH2 0x147F JUMPI DUP3 SWAP1 SUB PUSH1 0x1F AND DUP3 ADD SWAP2 JUMPDEST POP POP POP POP POP DUP2 JUMP JUMPDEST PUSH1 0x0 DUP1 PUSH20 0xFFFFFFFFFFFFFFFFFFFFFFFFFFFFFFFFFFFFFFFF AND DUP3 PUSH20 0xFFFFFFFFFFFFFFFFFFFFFFFFFFFFFFFFFFFFFFFF AND SUB PUSH2 0x150B JUMPI PUSH1 0x40 MLOAD PUSH32 0x8F4EB60400000000000000000000000000000000000000000000000000000000 DUP2 MSTORE PUSH1 0x4 ADD PUSH1 0x40 MLOAD DUP1 SWAP2 SUB SWAP1 REVERT JUMPDEST PUSH8 0xFFFFFFFFFFFFFFFF PUSH1 0x5 PUSH1 0x0 DUP5 PUSH20 0xFFFFFFFFFFFFFFFFFFFFFFFFFFFFFFFFFFFFFFFF AND PUSH20 0xFFFFFFFFFFFFFFFFFFFFFFFFFFFFFFFFFFFFFFFF AND DUP2 MSTORE PUSH1 0x20 ADD SWAP1 DUP2 MSTORE PUSH1 0x20 ADD PUSH1 0x0 KECCAK256 SLOAD AND SWAP1 POP SWAP2 SWAP1 POP JUMP JUMPDEST PUSH2 0x1564 PUSH2 0x21F7 JUMP JUMPDEST PUSH2 0x156E PUSH1 0x0 PUSH2 0x2477 JUMP JUMPDEST JUMP JUMPDEST PUSH2 0x1578 PUSH2 0x21F7 JUMP JUMPDEST DUP1 PUSH1 0xE DUP2 SWAP1 SSTORE POP POP JUMP JUMPDEST PUSH1 0x60 PUSH1 0x0 DUP1 PUSH1 0x0 PUSH2 0x1592 DUP6 PUSH2 0x14A4 JUMP JUMPDEST SWAP1 POP PUSH1 0x0 DUP2 PUSH8 0xFFFFFFFFFFFFFFFF DUP2 GT ISZERO PUSH2 0x15B0 JUMPI PUSH2 0x15AF PUSH2 0x2FF6 JUMP JUMPDEST JUMPDEST PUSH1 0x40 MLOAD SWAP1 DUP1 DUP3 MSTORE DUP1 PUSH1 0x20 MUL PUSH1 0x20 ADD DUP3 ADD PUSH1 0x40 MSTORE DUP1 ISZERO PUSH2 0x15DE JUMPI DUP2 PUSH1 0x20 ADD PUSH1 0x20 DUP3 MUL DUP1 CALLDATASIZE DUP4 CALLDATACOPY DUP1 DUP3 ADD SWAP2 POP POP SWAP1 POP JUMPDEST POP SWAP1 POP PUSH2 0x15E9 PUSH2 0x2B10 JUMP JUMPDEST PUSH1 0x0 PUSH2 0x15F3 PUSH2 0x22DC JUMP JUMPDEST SWAP1 POP JUMPDEST DUP4 DUP7 EQ PUSH2 0x16B7 JUMPI PUSH2 0x1606 DUP2 PUSH2 0x253D JUMP JUMPDEST SWAP2 POP DUP2 PUSH1 0x40 ADD MLOAD PUSH2 0x16AC JUMPI PUSH1 0x0 PUSH20 0xFFFFFFFFFFFFFFFFFFFFFFFFFFFFFFFFFFFFFFFF AND DUP3 PUSH1 0x0 ADD MLOAD PUSH20 0xFFFFFFFFFFFFFFFFFFFFFFFFFFFFFFFFFFFFFFFF AND EQ PUSH2 0x1651 JUMPI DUP2 PUSH1 0x0 ADD MLOAD SWAP5 POP JUMPDEST DUP8 PUSH20 0xFFFFFFFFFFFFFFFFFFFFFFFFFFFFFFFFFFFFFFFF AND DUP6 PUSH20 0xFFFFFFFFFFFFFFFFFFFFFFFFFFFFFFFFFFFFFFFF AND SUB PUSH2 0x16AB JUMPI DUP1 DUP4 DUP8 DUP1 PUSH1 0x1 ADD SWAP9 POP DUP2 MLOAD DUP2 LT PUSH2 0x169E JUMPI PUSH2 0x169D PUSH2 0x37E6 JUMP JUMPDEST JUMPDEST PUSH1 0x20 MUL PUSH1 0x20 ADD ADD DUP2 DUP2 MSTORE POP POP JUMPDEST JUMPDEST DUP1 PUSH1 0x1 ADD SWAP1 POP PUSH2 0x15F6 JUMP JUMPDEST POP DUP2 SWAP6 POP POP POP POP POP POP SWAP2 SWAP1 POP JUMP JUMPDEST PUSH1 0x0 PUSH1 0x8 PUSH1 0x0 SWAP1 SLOAD SWAP1 PUSH2 0x100 EXP SWAP1 DIV PUSH20 0xFFFFFFFFFFFFFFFFFFFFFFFFFFFFFFFFFFFFFFFF AND SWAP1 POP SWAP1 JUMP JUMPDEST PUSH1 0x60 PUSH1 0x3 DUP1 SLOAD PUSH2 0x16FE SWAP1 PUSH2 0x37B5 JUMP JUMPDEST DUP1 PUSH1 0x1F ADD PUSH1 0x20 DUP1 SWAP2 DIV MUL PUSH1 0x20 ADD PUSH1 0x40 MLOAD SWAP1 DUP2 ADD PUSH1 0x40 MSTORE DUP1 SWAP3 SWAP2 SWAP1 DUP2 DUP2 MSTORE PUSH1 0x20 ADD DUP3 DUP1 SLOAD PUSH2 0x172A SWAP1 PUSH2 0x37B5 JUMP JUMPDEST DUP1 ISZERO PUSH2 0x1777 JUMPI DUP1 PUSH1 0x1F LT PUSH2 0x174C JUMPI PUSH2 0x100 DUP1 DUP4 SLOAD DIV MUL DUP4 MSTORE SWAP2 PUSH1 0x20 ADD SWAP2 PUSH2 0x1777 JUMP JUMPDEST DUP3 ADD SWAP2 SWAP1 PUSH1 0x0 MSTORE PUSH1 0x20 PUSH1 0x0 KECCAK256 SWAP1 JUMPDEST DUP2 SLOAD DUP2 MSTORE SWAP1 PUSH1 0x1 ADD SWAP1 PUSH1 0x20 ADD DUP1 DUP4 GT PUSH2 0x175A JUMPI DUP3 SWAP1 SUB PUSH1 0x1F AND DUP3 ADD SWAP2 JUMPDEST POP POP POP POP POP SWAP1 POP SWAP1 JUMP JUMPDEST PUSH1 0x60 DUP2 DUP4 LT PUSH2 0x17BC JUMPI PUSH1 0x40 MLOAD PUSH32 0x32C1995A00000000000000000000000000000000000000000000000000000000 DUP2 MSTORE PUSH1 0x4 ADD PUSH1 0x40 MLOAD DUP1 SWAP2 SUB SWAP1 REVERT JUMPDEST PUSH1 0x0 DUP1 PUSH2 0x17C7 PUSH2 0x2568 JUMP JUMPDEST SWAP1 POP PUSH2 0x17D1 PUSH2 0x22DC JUMP JUMPDEST DUP6 LT ISZERO PUSH2 0x17E3 JUMPI PUSH2 0x17E0 PUSH2 0x22DC JUMP JUMPDEST SWAP5 POP JUMPDEST DUP1 DUP5 GT ISZERO PUSH2 0x17EF JUMPI DUP1 SWAP4 POP JUMPDEST PUSH1 0x0 PUSH2 0x17FA DUP8 PUSH2 0x14A4 JUMP JUMPDEST SWAP1 POP DUP5 DUP7 LT ISZERO PUSH2 0x181D JUMPI PUSH1 0x0 DUP7 DUP7 SUB SWAP1 POP DUP2 DUP2 LT ISZERO PUSH2 0x1817 JUMPI DUP1 SWAP2 POP JUMPDEST POP PUSH2 0x1822 JUMP JUMPDEST PUSH1 0x0 SWAP1 POP JUMPDEST PUSH1 0x0 DUP2 PUSH8 0xFFFFFFFFFFFFFFFF DUP2 GT ISZERO PUSH2 0x183E JUMPI PUSH2 0x183D PUSH2 0x2FF6 JUMP JUMPDEST JUMPDEST PUSH1 0x40 MLOAD SWAP1 DUP1 DUP3 MSTORE DUP1 PUSH1 0x20 MUL PUSH1 0x20 ADD DUP3 ADD PUSH1 0x40 MSTORE DUP1 ISZERO PUSH2 0x186C JUMPI DUP2 PUSH1 0x20 ADD PUSH1 0x20 DUP3 MUL DUP1 CALLDATASIZE DUP4 CALLDATACOPY DUP1 DUP3 ADD SWAP2 POP POP SWAP1 POP JUMPDEST POP SWAP1 POP PUSH1 0x0 DUP3 SUB PUSH2 0x1883 JUMPI DUP1 SWAP5 POP POP POP POP POP PUSH2 0x1986 JUMP JUMPDEST PUSH1 0x0 PUSH2 0x188E DUP9 PUSH2 0x1ED0 JUMP JUMPDEST SWAP1 POP PUSH1 0x0 DUP2 PUSH1 0x40 ADD MLOAD PUSH2 0x18A3 JUMPI DUP2 PUSH1 0x0 ADD MLOAD SWAP1 POP JUMPDEST PUSH1 0x0 DUP10 SWAP1 POP JUMPDEST DUP9 DUP2 EQ ISZERO DUP1 ISZERO PUSH2 0x18B9 JUMPI POP DUP5 DUP8 EQ ISZERO JUMPDEST ISZERO PUSH2 0x1978 JUMPI PUSH2 0x18C7 DUP2 PUSH2 0x253D JUMP JUMPDEST SWAP3 POP DUP3 PUSH1 0x40 ADD MLOAD PUSH2 0x196D JUMPI PUSH1 0x0 PUSH20 0xFFFFFFFFFFFFFFFFFFFFFFFFFFFFFFFFFFFFFFFF AND DUP4 PUSH1 0x0 ADD MLOAD PUSH20 0xFFFFFFFFFFFFFFFFFFFFFFFFFFFFFFFFFFFFFFFF AND EQ PUSH2 0x1912 JUMPI DUP3 PUSH1 0x0 ADD MLOAD SWAP2 POP JUMPDEST DUP11 PUSH20 0xFFFFFFFFFFFFFFFFFFFFFFFFFFFFFFFFFFFFFFFF AND DUP3 PUSH20 0xFFFFFFFFFFFFFFFFFFFFFFFFFFFFFFFFFFFFFFFF AND SUB PUSH2 0x196C JUMPI DUP1 DUP5 DUP9 DUP1 PUSH1 0x1 ADD SWAP10 POP DUP2 MLOAD DUP2 LT PUSH2 0x195F JUMPI PUSH2 0x195E PUSH2 0x37E6 JUMP JUMPDEST JUMPDEST PUSH1 0x20 MUL PUSH1 0x20 ADD ADD DUP2 DUP2 MSTORE POP POP JUMPDEST JUMPDEST DUP1 PUSH1 0x1 ADD SWAP1 POP PUSH2 0x18A9 JUMP JUMPDEST POP DUP6 DUP4 MSTORE DUP3 SWAP7 POP POP POP POP POP POP POP JUMPDEST SWAP4 SWAP3 POP POP POP JUMP JUMPDEST PUSH1 0x10 PUSH1 0x2 SWAP1 SLOAD SWAP1 PUSH2 0x100 EXP SWAP1 DIV PUSH1 0xFF AND DUP2 JUMP JUMPDEST PUSH1 0x10 PUSH1 0x0 SWAP1 SLOAD SWAP1 PUSH2 0x100 EXP SWAP1 DIV PUSH1 0xFF AND ISZERO PUSH2 0x19F0 JUMPI PUSH1 0x40 MLOAD PUSH32 0x8C379A000000000000000000000000000000000000000000000000000000000 DUP2 MSTORE PUSH1 0x4 ADD PUSH2 0x19E7 SWAP1 PUSH2 0x3B9C JUMP JUMPDEST PUSH1 0x40 MLOAD DUP1 SWAP2 SUB SWAP1 REVERT JUMPDEST PUSH1 0x0 PUSH2 0x19FA PUSH2 0xE1C JUMP JUMPDEST SWAP1 POP PUSH1 0x0 DUP3 GT PUSH2 0x1A3F JUMPI PUSH1 0x40 MLOAD PUSH32 0x8C379A000000000000000000000000000000000000000000000000000000000 DUP2 MSTORE PUSH1 0x4 ADD PUSH2 0x1A36 SWAP1 PUSH2 0x3C08 JUMP JUMPDEST PUSH1 0x40 MLOAD DUP1 SWAP2 SUB SWAP1 REVERT JUMPDEST PUSH1 0xE SLOAD DUP3 GT ISZERO PUSH2 0x1A84 JUMPI PUSH1 0x40 MLOAD PUSH32 0x8C379A000000000000000000000000000000000000000000000000000000000 DUP2 MSTORE PUSH1 0x4 ADD PUSH2 0x1A7B SWAP1 PUSH2 0x3C9A JUMP JUMPDEST PUSH1 0x40 MLOAD DUP1 SWAP2 SUB SWAP1 REVERT JUMPDEST PUSH1 0xD SLOAD DUP3 DUP3 PUSH2 0x1A93 SWAP2 SWAP1 PUSH2 0x3CBA JUMP JUMPDEST GT ISZERO PUSH2 0x1AD4 JUMPI PUSH1 0x40 MLOAD PUSH32 0x8C379A000000000000000000000000000000000000000000000000000000000 DUP2 MSTORE PUSH1 0x4 ADD PUSH2 0x1ACB SWAP1 PUSH2 0x3D3A JUMP JUMPDEST PUSH1 0x40 MLOAD DUP1 SWAP2 SUB SWAP1 REVERT JUMPDEST PUSH2 0x1ADC PUSH2 0x16C5 JUMP JUMPDEST PUSH20 0xFFFFFFFFFFFFFFFFFFFFFFFFFFFFFFFFFFFFFFFF AND CALLER PUSH20 0xFFFFFFFFFFFFFFFFFFFFFFFFFFFFFFFFFFFFFFFF AND EQ PUSH2 0x1C58 JUMPI PUSH1 0x1 ISZERO ISZERO PUSH1 0x10 PUSH1 0x2 SWAP1 SLOAD SWAP1 PUSH2 0x100 EXP SWAP1 DIV PUSH1 0xFF AND ISZERO ISZERO SUB PUSH2 0x1C07 JUMPI PUSH2 0x1B32 CALLER PUSH2 0x1173 JUMP JUMPDEST PUSH2 0x1B71 JUMPI PUSH1 0x40 MLOAD PUSH32 0x8C379A000000000000000000000000000000000000000000000000000000000 DUP2 MSTORE PUSH1 0x4 ADD PUSH2 0x1B68 SWAP1 PUSH2 0x3DA6 JUMP JUMPDEST PUSH1 0x40 MLOAD DUP1 SWAP2 SUB SWAP1 REVERT JUMPDEST PUSH1 0x0 PUSH1 0x12 PUSH1 0x0 CALLER PUSH20 0xFFFFFFFFFFFFFFFFFFFFFFFFFFFFFFFFFFFFFFFF AND PUSH20 0xFFFFFFFFFFFFFFFFFFFFFFFFFFFFFFFFFFFFFFFF AND DUP2 MSTORE PUSH1 0x20 ADD SWAP1 DUP2 MSTORE PUSH1 0x20 ADD PUSH1 0x0 KECCAK256 SLOAD SWAP1 POP PUSH1 0xF SLOAD DUP4 DUP3 PUSH2 0x1BC4 SWAP2 SWAP1 PUSH2 0x3CBA JUMP JUMPDEST GT ISZERO PUSH2 0x1C05 JUMPI PUSH1 0x40 MLOAD PUSH32 0x8C379A000000000000000000000000000000000000000000000000000000000 DUP2 MSTORE PUSH1 0x4 ADD PUSH2 0x1BFC SWAP1 PUSH2 0x3E12 JUMP JUMPDEST PUSH1 0x40 MLOAD DUP1 SWAP2 SUB SWAP1 REVERT JUMPDEST POP JUMPDEST DUP2 PUSH1 0xC SLOAD PUSH2 0x1C15 SWAP2 SWAP1 PUSH2 0x3E32 JUMP JUMPDEST CALLVALUE LT ISZERO PUSH2 0x1C57 JUMPI PUSH1 0x40 MLOAD PUSH32 0x8C379A000000000000000000000000000000000000000000000000000000000 DUP2 MSTORE PUSH1 0x4 ADD PUSH2 0x1C4E SWAP1 PUSH2 0x3EC0 JUMP JUMPDEST PUSH1 0x40 MLOAD DUP1 SWAP2 SUB SWAP1 REVERT JUMPDEST JUMPDEST PUSH1 0x0 PUSH1 0x1 SWAP1 POP JUMPDEST DUP3 DUP2 GT PUSH2 0x1CE3 JUMPI PUSH1 0x12 PUSH1 0x0 CALLER PUSH20 0xFFFFFFFFFFFFFFFFFFFFFFFFFFFFFFFFFFFFFFFF AND PUSH20 0xFFFFFFFFFFFFFFFFFFFFFFFFFFFFFFFFFFFFFFFF AND DUP2 MSTORE PUSH1 0x20 ADD SWAP1 DUP2 MSTORE PUSH1 0x20 ADD PUSH1 0x0 KECCAK256 PUSH1 0x0 DUP2 SLOAD DUP1 SWAP3 SWAP2 SWAP1 PUSH2 0x1CB6 SWAP1 PUSH2 0x3844 JUMP JUMPDEST SWAP2 SWAP1 POP SSTORE POP PUSH2 0x1CD0 CALLER DUP3 DUP5 PUSH2 0x1CCB SWAP2 SWAP1 PUSH2 0x3CBA JUMP JUMPDEST PUSH2 0x2571 JUMP JUMPDEST DUP1 DUP1 PUSH2 0x1CDB SWAP1 PUSH2 0x3844 JUMP JUMPDEST SWAP2 POP POP PUSH2 0x1C5F JUMP JUMPDEST POP POP POP JUMP JUMPDEST DUP1 PUSH1 0x7 PUSH1 0x0 PUSH2 0x1CF5 PUSH2 0x22D4 JUMP JUMPDEST PUSH20 0xFFFFFFFFFFFFFFFFFFFFFFFFFFFFFFFFFFFFFFFF AND PUSH20 0xFFFFFFFFFFFFFFFFFFFFFFFFFFFFFFFFFFFFFFFF AND DUP2 MSTORE PUSH1 0x20 ADD SWAP1 DUP2 MSTORE PUSH1 0x20 ADD PUSH1 0x0 KECCAK256 PUSH1 0x0 DUP5 PUSH20 0xFFFFFFFFFFFFFFFFFFFFFFFFFFFFFFFFFFFFFFFF AND PUSH20 0xFFFFFFFFFFFFFFFFFFFFFFFFFFFFFFFFFFFFFFFF AND DUP2 MSTORE PUSH1 0x20 ADD SWAP1 DUP2 MSTORE PUSH1 0x20 ADD PUSH1 0x0 KECCAK256 PUSH1 0x0 PUSH2 0x100 EXP DUP2 SLOAD DUP2 PUSH1 0xFF MUL NOT AND SWAP1 DUP4 ISZERO ISZERO MUL OR SWAP1 SSTORE POP DUP2 PUSH20 0xFFFFFFFFFFFFFFFFFFFFFFFFFFFFFFFFFFFFFFFF AND PUSH2 0x1DA2 PUSH2 0x22D4 JUMP JUMPDEST PUSH20 0xFFFFFFFFFFFFFFFFFFFFFFFFFFFFFFFFFFFFFFFF AND PUSH32 0x17307EAB39AB6107E8899845AD3D59BD9653F200F220920489CA2B5937696C31 DUP4 PUSH1 0x40 MLOAD PUSH2 0x1DE7 SWAP2 SWAP1 PUSH2 0x2CF1 JUMP JUMPDEST PUSH1 0x40 MLOAD DUP1 SWAP2 SUB SWAP1 LOG3 POP POP JUMP JUMPDEST PUSH2 0x1DFB PUSH2 0x21F7 JUMP JUMPDEST PUSH1 0x1 PUSH1 0x10 PUSH1 0x1 PUSH2 0x100 EXP DUP2 SLOAD DUP2 PUSH1 0xFF MUL NOT AND SWAP1 DUP4 ISZERO ISZERO MUL OR SWAP1 SSTORE POP JUMP JUMPDEST PUSH2 0x1E23 DUP5 DUP5 DUP5 PUSH2 0xE51 JUMP JUMPDEST PUSH1 0x0 DUP4 PUSH20 0xFFFFFFFFFFFFFFFFFFFFFFFFFFFFFFFFFFFFFFFF AND EXTCODESIZE EQ PUSH2 0x1E85 JUMPI PUSH2 0x1E4E DUP5 DUP5 DUP5 DUP5 PUSH2 0x258F JUMP JUMPDEST PUSH2 0x1E84 JUMPI PUSH1 0x40 MLOAD PUSH32 0xD1A57ED600000000000000000000000000000000000000000000000000000000 DUP2 MSTORE PUSH1 0x4 ADD PUSH1 0x40 MLOAD DUP1 SWAP2 SUB SWAP1 REVERT JUMPDEST JUMPDEST POP POP POP POP JUMP JUMPDEST PUSH1 0x11 DUP2 DUP2 SLOAD DUP2 LT PUSH2 0x1E9B JUMPI PUSH1 0x0 DUP1 REVERT JUMPDEST SWAP1 PUSH1 0x0 MSTORE PUSH1 0x20 PUSH1 0x0 KECCAK256 ADD PUSH1 0x0 SWAP2 POP SLOAD SWAP1 PUSH2 0x100 EXP SWAP1 DIV PUSH20 0xFFFFFFFFFFFFFFFFFFFFFFFFFFFFFFFFFFFFFFFF AND DUP2 JUMP JUMPDEST PUSH1 0xF SLOAD DUP2 JUMP JUMPDEST PUSH2 0x1ED8 PUSH2 0x2B10 JUMP JUMPDEST PUSH2 0x1EE0 PUSH2 0x2B10 JUMP JUMPDEST PUSH2 0x1EE8 PUSH2 0x22DC JUMP JUMPDEST DUP4 LT DUP1 PUSH2 0x1EFC JUMPI POP PUSH2 0x1EF8 PUSH2 0x2568 JUMP JUMPDEST DUP4 LT ISZERO JUMPDEST ISZERO PUSH2 0x1F0A JUMPI DUP1 SWAP2 POP POP PUSH2 0x1F35 JUMP JUMPDEST PUSH2 0x1F13 DUP4 PUSH2 0x253D JUMP JUMPDEST SWAP1 POP DUP1 PUSH1 0x40 ADD MLOAD ISZERO PUSH2 0x1F28 JUMPI DUP1 SWAP2 POP POP PUSH2 0x1F35 JUMP JUMPDEST PUSH2 0x1F31 DUP4 PUSH2 0x26DF JUMP JUMPDEST SWAP2 POP POP JUMPDEST SWAP2 SWAP1 POP JUMP JUMPDEST PUSH1 0xA DUP1 SLOAD PUSH2 0x1F47 SWAP1 PUSH2 0x37B5 JUMP JUMPDEST DUP1 PUSH1 0x1F ADD PUSH1 0x20 DUP1 SWAP2 DIV MUL PUSH1 0x20 ADD PUSH1 0x40 MLOAD SWAP1 DUP2 ADD PUSH1 0x40 MSTORE DUP1 SWAP3 SWAP2 SWAP1 DUP2 DUP2 MSTORE PUSH1 0x20 ADD DUP3 DUP1 SLOAD PUSH2 0x1F73 SWAP1 PUSH2 0x37B5 JUMP JUMPDEST DUP1 ISZERO PUSH2 0x1FC0 JUMPI DUP1 PUSH1 0x1F LT PUSH2 0x1F95 JUMPI PUSH2 0x100 DUP1 DUP4 SLOAD DIV MUL DUP4 MSTORE SWAP2 PUSH1 0x20 ADD SWAP2 PUSH2 0x1FC0 JUMP JUMPDEST DUP3 ADD SWAP2 SWAP1 PUSH1 0x0 MSTORE PUSH1 0x20 PUSH1 0x0 KECCAK256 SWAP1 JUMPDEST DUP2 SLOAD DUP2 MSTORE SWAP1 PUSH1 0x1 ADD SWAP1 PUSH1 0x20 ADD DUP1 DUP4 GT PUSH2 0x1FA3 JUMPI DUP3 SWAP1 SUB PUSH1 0x1F AND DUP3 ADD SWAP2 JUMPDEST POP POP POP POP POP DUP2 JUMP JUMPDEST PUSH1 0x60 PUSH2 0x1FD3 DUP3 PUSH2 0x2275 JUMP JUMPDEST PUSH2 0x2009 JUMPI PUSH1 0x40 MLOAD PUSH32 0xA14C4B5000000000000000000000000000000000000000000000000000000000 DUP2 MSTORE PUSH1 0x4 ADD PUSH1 0x40 MLOAD DUP1 SWAP2 SUB SWAP1 REVERT JUMPDEST PUSH1 0x0 PUSH2 0x2013 PUSH2 0x26FF JUMP JUMPDEST SWAP1 POP PUSH1 0x0 DUP2 MLOAD SUB PUSH2 0x2033 JUMPI PUSH1 0x40 MLOAD DUP1 PUSH1 0x20 ADD PUSH1 0x40 MSTORE DUP1 PUSH1 0x0 DUP2 MSTORE POP PUSH2 0x205E JUMP JUMPDEST DUP1 PUSH2 0x203D DUP5 PUSH2 0x2791 JUMP JUMPDEST PUSH1 0x40 MLOAD PUSH1 0x20 ADD PUSH2 0x204E SWAP3 SWAP2 SWAP1 PUSH2 0x3F1C JUMP JUMPDEST PUSH1 0x40 MLOAD PUSH1 0x20 DUP2 DUP4 SUB SUB DUP2 MSTORE SWAP1 PUSH1 0x40 MSTORE JUMPDEST SWAP2 POP POP SWAP2 SWAP1 POP JUMP JUMPDEST PUSH2 0x206E PUSH2 0x21F7 JUMP JUMPDEST DUP1 PUSH1 0xF DUP2 SWAP1 SSTORE POP POP JUMP JUMPDEST PUSH1 0xD SLOAD DUP2 JUMP JUMPDEST PUSH2 0x2086 PUSH2 0x21F7 JUMP JUMPDEST DUP1 PUSH1 0xA SWAP1 DUP2 PUSH2 0x2095 SWAP2 SWAP1 PUSH2 0x3A7E JUMP JUMPDEST POP POP JUMP JUMPDEST PUSH1 0x0 PUSH1 0x7 PUSH1 0x0 DUP5 PUSH20 0xFFFFFFFFFFFFFFFFFFFFFFFFFFFFFFFFFFFFFFFF AND PUSH20 0xFFFFFFFFFFFFFFFFFFFFFFFFFFFFFFFFFFFFFFFF AND DUP2 MSTORE PUSH1 0x20 ADD SWAP1 DUP2 MSTORE PUSH1 0x20 ADD PUSH1 0x0 KECCAK256 PUSH1 0x0 DUP4 PUSH20 0xFFFFFFFFFFFFFFFFFFFFFFFFFFFFFFFFFFFFFFFF AND PUSH20 0xFFFFFFFFFFFFFFFFFFFFFFFFFFFFFFFFFFFFFFFF AND DUP2 MSTORE PUSH1 0x20 ADD SWAP1 DUP2 MSTORE PUSH1 0x20 ADD PUSH1 0x0 KECCAK256 PUSH1 0x0 SWAP1 SLOAD SWAP1 PUSH2 0x100 EXP SWAP1 DIV PUSH1 0xFF AND SWAP1 POP SWAP3 SWAP2 POP POP JUMP JUMPDEST PUSH2 0x2135 PUSH2 0x21F7 JUMP JUMPDEST PUSH1 0x11 PUSH1 0x0 PUSH2 0x2143 SWAP2 SWAP1 PUSH2 0x2B5F JUMP JUMPDEST DUP2 DUP2 PUSH1 0x11 SWAP2 SWAP1 PUSH2 0x2154 SWAP3 SWAP2 SWAP1 PUSH2 0x2B80 JUMP JUMPDEST POP POP POP JUMP JUMPDEST PUSH2 0x2161 PUSH2 0x21F7 JUMP JUMPDEST DUP1 PUSH1 0xB SWAP1 DUP2 PUSH2 0x2170 SWAP2 SWAP1 PUSH2 0x3A7E JUMP JUMPDEST POP POP JUMP JUMPDEST PUSH2 0x217C PUSH2 0x21F7 JUMP JUMPDEST PUSH1 0x0 PUSH20 0xFFFFFFFFFFFFFFFFFFFFFFFFFFFFFFFFFFFFFFFF AND DUP2 PUSH20 0xFFFFFFFFFFFFFFFFFFFFFFFFFFFFFFFFFFFFFFFF AND SUB PUSH2 0x21EB JUMPI PUSH1 0x40 MLOAD PUSH32 0x8C379A000000000000000000000000000000000000000000000000000000000 DUP2 MSTORE PUSH1 0x4 ADD PUSH2 0x21E2 SWAP1 PUSH2 0x3FB2 JUMP JUMPDEST PUSH1 0x40 MLOAD DUP1 SWAP2 SUB SWAP1 REVERT JUMPDEST PUSH2 0x21F4 DUP2 PUSH2 0x2477 JUMP JUMPDEST POP JUMP JUMPDEST PUSH2 0x21FF PUSH2 0x27E1 JUMP JUMPDEST PUSH20 0xFFFFFFFFFFFFFFFFFFFFFFFFFFFFFFFFFFFFFFFF AND PUSH2 0x221D PUSH2 0x16C5 JUMP JUMPDEST PUSH20 0xFFFFFFFFFFFFFFFFFFFFFFFFFFFFFFFFFFFFFFFF AND EQ PUSH2 0x2273 JUMPI PUSH1 0x40 MLOAD PUSH32 0x8C379A000000000000000000000000000000000000000000000000000000000 DUP2 MSTORE PUSH1 0x4 ADD PUSH2 0x226A SWAP1 PUSH2 0x401E JUMP JUMPDEST PUSH1 0x40 MLOAD DUP1 SWAP2 SUB SWAP1 REVERT JUMPDEST JUMP JUMPDEST PUSH1 0x0 DUP2 PUSH2 0x2280 PUSH2 0x22DC JUMP JUMPDEST GT ISZERO DUP1 ISZERO PUSH2 0x228F JUMPI POP PUSH1 0x0 SLOAD DUP3 LT JUMPDEST DUP1 ISZERO PUSH2 0x22CD JUMPI POP PUSH1 0x0 PUSH29 0x100000000000000000000000000000000000000000000000000000000 PUSH1 0x4 PUSH1 0x0 DUP6 DUP2 MSTORE PUSH1 0x20 ADD SWAP1 DUP2 MSTORE PUSH1 0x20 ADD PUSH1 0x0 KECCAK256 SLOAD AND EQ JUMPDEST SWAP1 POP SWAP2 SWAP1 POP JUMP JUMPDEST PUSH1 0x0 CALLER SWAP1 POP SWAP1 JUMP JUMPDEST PUSH1 0x0 SWAP1 JUMP JUMPDEST PUSH1 0x0 DUP1 DUP3 SWAP1 POP DUP1 PUSH2 0x22F0 PUSH2 0x22DC JUMP JUMPDEST GT PUSH2 0x2376 JUMPI PUSH1 0x0 SLOAD DUP2 LT ISZERO PUSH2 0x2375 JUMPI PUSH1 0x0 PUSH1 0x4 PUSH1 0x0 DUP4 DUP2 MSTORE PUSH1 0x20 ADD SWAP1 DUP2 MSTORE PUSH1 0x20 ADD PUSH1 0x0 KECCAK256 SLOAD SWAP1 POP PUSH1 0x0 PUSH29 0x100000000000000000000000000000000000000000000000000000000 DUP3 AND SUB PUSH2 0x2373 JUMPI JUMPDEST PUSH1 0x0 DUP2 SUB PUSH2 0x2369 JUMPI PUSH1 0x4 PUSH1 0x0 DUP4 PUSH1 0x1 SWAP1 SUB SWAP4 POP DUP4 DUP2 MSTORE PUSH1 0x20 ADD SWAP1 DUP2 MSTORE PUSH1 0x20 ADD PUSH1 0x0 KECCAK256 SLOAD SWAP1 POP PUSH2 0x233F JUMP JUMPDEST DUP1 SWAP3 POP POP POP PUSH2 0x23A8 JUMP JUMPDEST POP JUMPDEST JUMPDEST PUSH1 0x40 MLOAD PUSH32 0xDF2D9B4200000000000000000000000000000000000000000000000000000000 DUP2 MSTORE PUSH1 0x4 ADD PUSH1 0x40 MLOAD DUP1 SWAP2 SUB SWAP1 REVERT JUMPDEST SWAP2 SWAP1 POP JUMP JUMPDEST PUSH1 0x0 DUP1 PUSH1 0x0 PUSH1 0x6 PUSH1 0x0 DUP6 DUP2 MSTORE PUSH1 0x20 ADD SWAP1 DUP2 MSTORE PUSH1 0x20 ADD PUSH1 0x0 KECCAK256 SWAP1 POP DUP1 SWAP3 POP DUP3 SLOAD SWAP2 POP POP SWAP2 POP SWAP2 JUMP JUMPDEST PUSH1 0x0 PUSH20 0xFFFFFFFFFFFFFFFFFFFFFFFFFFFFFFFFFFFFFFFF DUP4 AND SWAP3 POP PUSH20 0xFFFFFFFFFFFFFFFFFFFFFFFFFFFFFFFFFFFFFFFF DUP3 AND SWAP2 POP DUP4 DUP3 EQ DUP4 DUP4 EQ OR SWAP1 POP SWAP4 SWAP3 POP POP POP JUMP JUMPDEST POP POP POP POP JUMP JUMPDEST PUSH1 0x0 DUP1 PUSH1 0xE8 DUP4 SWAP1 SHR SWAP1 POP PUSH1 0xE8 PUSH2 0x2435 DUP7 DUP7 DUP5 PUSH2 0x27E9 JUMP JUMPDEST PUSH3 0xFFFFFF AND SWAP1 SHL SWAP2 POP POP SWAP4 SWAP3 POP POP POP JUMP JUMPDEST PUSH1 0x0 PUSH20 0xFFFFFFFFFFFFFFFFFFFFFFFFFFFFFFFFFFFFFFFF DUP4 AND SWAP3 POP DUP2 TIMESTAMP PUSH1 0xA0 SHL OR DUP4 OR SWAP1 POP SWAP3 SWAP2 POP POP JUMP JUMPDEST POP POP POP POP JUMP JUMPDEST PUSH1 0x0 PUSH1 0x8 PUSH1 0x0 SWAP1 SLOAD SWAP1 PUSH2 0x100 EXP SWAP1 DIV PUSH20 0xFFFFFFFFFFFFFFFFFFFFFFFFFFFFFFFFFFFFFFFF AND SWAP1 POP DUP2 PUSH1 0x8 PUSH1 0x0 PUSH2 0x100 EXP DUP2 SLOAD DUP2 PUSH20 0xFFFFFFFFFFFFFFFFFFFFFFFFFFFFFFFFFFFFFFFF MUL NOT AND SWAP1 DUP4 PUSH20 0xFFFFFFFFFFFFFFFFFFFFFFFFFFFFFFFFFFFFFFFF AND MUL OR SWAP1 SSTORE POP DUP2 PUSH20 0xFFFFFFFFFFFFFFFFFFFFFFFFFFFFFFFFFFFFFFFF AND DUP2 PUSH20 0xFFFFFFFFFFFFFFFFFFFFFFFFFFFFFFFFFFFFFFFF AND PUSH32 0x8BE0079C531659141344CD1FD0A4F28419497F9722A3DAAFE3B4186F6B6457E0 PUSH1 0x40 MLOAD PUSH1 0x40 MLOAD DUP1 SWAP2 SUB SWAP1 LOG3 POP POP JUMP JUMPDEST PUSH2 0x2545 PUSH2 0x2B10 JUMP JUMPDEST PUSH2 0x2561 PUSH1 0x4 PUSH1 0x0 DUP5 DUP2 MSTORE PUSH1 0x20 ADD SWAP1 DUP2 MSTORE PUSH1 0x20 ADD PUSH1 0x0 KECCAK256 SLOAD PUSH2 0x27F2 JUMP JUMPDEST SWAP1 POP SWAP2 SWAP1 POP JUMP JUMPDEST PUSH1 0x0 DUP1 SLOAD SWAP1 POP SWAP1 JUMP JUMPDEST PUSH2 0x258B DUP3 DUP3 PUSH1 0x40 MLOAD DUP1 PUSH1 0x20 ADD PUSH1 0x40 MSTORE DUP1 PUSH1 0x0 DUP2 MSTORE POP PUSH2 0x28A8 JUMP JUMPDEST POP POP JUMP JUMPDEST PUSH1 0x0 DUP4 PUSH20 0xFFFFFFFFFFFFFFFFFFFFFFFFFFFFFFFFFFFFFFFF AND PUSH4 0x150B7A02 PUSH2 0x25B5 PUSH2 0x22D4 JUMP JUMPDEST DUP8 DUP7 DUP7 PUSH1 0x40 MLOAD DUP6 PUSH4 0xFFFFFFFF AND PUSH1 0xE0 SHL DUP2 MSTORE PUSH1 0x4 ADD PUSH2 0x25D7 SWAP5 SWAP4 SWAP3 SWAP2 SWAP1 PUSH2 0x4093 JUMP JUMPDEST PUSH1 0x20 PUSH1 0x40 MLOAD DUP1 DUP4 SUB DUP2 PUSH1 0x0 DUP8 GAS CALL SWAP3 POP POP POP DUP1 ISZERO PUSH2 0x2613 JUMPI POP PUSH1 0x40 MLOAD RETURNDATASIZE PUSH1 0x1F NOT PUSH1 0x1F DUP3 ADD AND DUP3 ADD DUP1 PUSH1 0x40 MSTORE POP DUP2 ADD SWAP1 PUSH2 0x2610 SWAP2 SWAP1 PUSH2 0x40F4 JUMP JUMPDEST PUSH1 0x1 JUMPDEST PUSH2 0x268C JUMPI RETURNDATASIZE DUP1 PUSH1 0x0 DUP2 EQ PUSH2 0x2643 JUMPI PUSH1 0x40 MLOAD SWAP2 POP PUSH1 0x1F NOT PUSH1 0x3F RETURNDATASIZE ADD AND DUP3 ADD PUSH1 0x40 MSTORE RETURNDATASIZE DUP3 MSTORE RETURNDATASIZE PUSH1 0x0 PUSH1 0x20 DUP5 ADD RETURNDATACOPY PUSH2 0x2648 JUMP JUMPDEST PUSH1 0x60 SWAP2 POP JUMPDEST POP PUSH1 0x0 DUP2 MLOAD SUB PUSH2 0x2684 JUMPI PUSH1 0x40 MLOAD PUSH32 0xD1A57ED600000000000000000000000000000000000000000000000000000000 DUP2 MSTORE PUSH1 0x4 ADD PUSH1 0x40 MLOAD DUP1 SWAP2 SUB SWAP1 REVERT JUMPDEST DUP1 MLOAD DUP2 PUSH1 0x20 ADD REVERT JUMPDEST PUSH4 0x150B7A02 PUSH1 0xE0 SHL PUSH28 0xFFFFFFFFFFFFFFFFFFFFFFFFFFFFFFFFFFFFFFFFFFFFFFFFFFFFFFFF NOT AND DUP2 PUSH28 0xFFFFFFFFFFFFFFFFFFFFFFFFFFFFFFFFFFFFFFFFFFFFFFFFFFFFFFFF NOT AND EQ SWAP2 POP POP SWAP5 SWAP4 POP POP POP POP JUMP JUMPDEST PUSH2 0x26E7 PUSH2 0x2B10 JUMP JUMPDEST PUSH2 0x26F8 PUSH2 0x26F3 DUP4 PUSH2 0x22E1 JUMP JUMPDEST PUSH2 0x27F2 JUMP JUMPDEST SWAP1 POP SWAP2 SWAP1 POP JUMP JUMPDEST PUSH1 0x60 PUSH1 0x9 DUP1 SLOAD PUSH2 0x270E SWAP1 PUSH2 0x37B5 JUMP JUMPDEST DUP1 PUSH1 0x1F ADD PUSH1 0x20 DUP1 SWAP2 DIV MUL PUSH1 0x20 ADD PUSH1 0x40 MLOAD SWAP1 DUP2 ADD PUSH1 0x40 MSTORE DUP1 SWAP3 SWAP2 SWAP1 DUP2 DUP2 MSTORE PUSH1 0x20 ADD DUP3 DUP1 SLOAD PUSH2 0x273A SWAP1 PUSH2 0x37B5 JUMP JUMPDEST DUP1 ISZERO PUSH2 0x2787 JUMPI DUP1 PUSH1 0x1F LT PUSH2 0x275C JUMPI PUSH2 0x100 DUP1 DUP4 SLOAD DIV MUL DUP4 MSTORE SWAP2 PUSH1 0x20 ADD SWAP2 PUSH2 0x2787 JUMP JUMPDEST DUP3 ADD SWAP2 SWAP1 PUSH1 0x0 MSTORE PUSH1 0x20 PUSH1 0x0 KECCAK256 SWAP1 JUMPDEST DUP2 SLOAD DUP2 MSTORE SWAP1 PUSH1 0x1 ADD SWAP1 PUSH1 0x20 ADD DUP1 DUP4 GT PUSH2 0x276A JUMPI DUP3 SWAP1 SUB PUSH1 0x1F AND DUP3 ADD SWAP2 JUMPDEST POP POP POP POP POP SWAP1 POP SWAP1 JUMP JUMPDEST PUSH1 0x60 PUSH1 0xA0 PUSH1 0x40 MLOAD ADD DUP1 PUSH1 0x40 MSTORE PUSH1 0x20 DUP2 SUB SWAP2 POP PUSH1 0x0 DUP3 MSTORE DUP2 DUP4 JUMPDEST PUSH1 0x1 ISZERO PUSH2 0x27CC JUMPI PUSH1 0x1 DUP5 SUB SWAP4 POP PUSH1 0xA DUP2 MOD PUSH1 0x30 ADD DUP5 MSTORE8 PUSH1 0xA DUP2 DIV SWAP1 POP DUP1 PUSH2 0x27AA JUMPI JUMPDEST POP DUP3 DUP2 SUB PUSH1 0x20 DUP5 SUB SWAP4 POP DUP1 DUP5 MSTORE POP POP POP SWAP2 SWAP1 POP JUMP JUMPDEST PUSH1 0x0 CALLER SWAP1 POP SWAP1 JUMP JUMPDEST PUSH1 0x0 SWAP4 SWAP3 POP POP POP JUMP JUMPDEST PUSH2 0x27FA PUSH2 0x2B10 JUMP JUMPDEST DUP2 DUP2 PUSH1 0x0 ADD SWAP1 PUSH20 0xFFFFFFFFFFFFFFFFFFFFFFFFFFFFFFFFFFFFFFFF AND SWAP1 DUP2 PUSH20 0xFFFFFFFFFFFFFFFFFFFFFFFFFFFFFFFFFFFFFFFF AND DUP2 MSTORE POP POP PUSH1 0xA0 DUP3 SWAP1 SHR DUP2 PUSH1 0x20 ADD SWAP1 PUSH8 0xFFFFFFFFFFFFFFFF AND SWAP1 DUP2 PUSH8 0xFFFFFFFFFFFFFFFF AND DUP2 MSTORE POP POP PUSH1 0x0 PUSH29 0x100000000000000000000000000000000000000000000000000000000 DUP4 AND EQ ISZERO DUP2 PUSH1 0x40 ADD SWAP1 ISZERO ISZERO SWAP1 DUP2 ISZERO ISZERO DUP2 MSTORE POP POP PUSH1 0xE8 DUP3 SWAP1 SHR DUP2 PUSH1 0x60 ADD SWAP1 PUSH3 0xFFFFFF AND SWAP1 DUP2 PUSH3 0xFFFFFF AND DUP2 MSTORE POP POP SWAP2 SWAP1 POP JUMP JUMPDEST PUSH2 0x28B2 DUP4 DUP4 PUSH2 0x2945 JUMP JUMPDEST PUSH1 0x0 DUP4 PUSH20 0xFFFFFFFFFFFFFFFFFFFFFFFFFFFFFFFFFFFFFFFF AND EXTCODESIZE EQ PUSH2 0x2940 JUMPI PUSH1 0x0 DUP1 SLOAD SWAP1 POP PUSH1 0x0 DUP4 DUP3 SUB SWAP1 POP JUMPDEST PUSH2 0x28F2 PUSH1 0x0 DUP7 DUP4 DUP1 PUSH1 0x1 ADD SWAP5 POP DUP7 PUSH2 0x258F JUMP JUMPDEST PUSH2 0x2928 JUMPI PUSH1 0x40 MLOAD PUSH32 0xD1A57ED600000000000000000000000000000000000000000000000000000000 DUP2 MSTORE PUSH1 0x4 ADD PUSH1 0x40 MLOAD DUP1 SWAP2 SUB SWAP1 REVERT JUMPDEST DUP2 DUP2 LT PUSH2 0x28DF JUMPI DUP2 PUSH1 0x0 SLOAD EQ PUSH2 0x293D JUMPI PUSH1 0x0 DUP1 REVERT JUMPDEST POP POP JUMPDEST POP POP POP JUMP JUMPDEST PUSH1 0x0 DUP1 SLOAD SWAP1 POP PUSH1 0x0 DUP3 SUB PUSH2 0x2985 JUMPI PUSH1 0x40 MLOAD PUSH32 0xB562E8DD00000000000000000000000000000000000000000000000000000000 DUP2 MSTORE PUSH1 0x4 ADD PUSH1 0x40 MLOAD DUP1 SWAP2 SUB SWAP1 REVERT JUMPDEST PUSH2 0x2992 PUSH1 0x0 DUP5 DUP4 DUP6 PUSH2 0x2418 JUMP JUMPDEST PUSH1 0x1 PUSH1 0x40 PUSH1 0x1 SWAP1 SHL OR DUP3 MUL PUSH1 0x5 PUSH1 0x0 DUP6 PUSH20 0xFFFFFFFFFFFFFFFFFFFFFFFFFFFFFFFFFFFFFFFF AND PUSH20 0xFFFFFFFFFFFFFFFFFFFFFFFFFFFFFFFFFFFFFFFF AND DUP2 MSTORE PUSH1 0x20 ADD SWAP1 DUP2 MSTORE PUSH1 0x20 ADD PUSH1 0x0 KECCAK256 PUSH1 0x0 DUP3 DUP3 SLOAD ADD SWAP3 POP POP DUP2 SWAP1 SSTORE POP PUSH2 0x2A09 DUP4 PUSH2 0x29FA PUSH1 0x0 DUP7 PUSH1 0x0 PUSH2 0x241E JUMP JUMPDEST PUSH2 0x2A03 DUP6 PUSH2 0x2B00 JUMP JUMPDEST OR PUSH2 0x2446 JUMP JUMPDEST PUSH1 0x4 PUSH1 0x0 DUP4 DUP2 MSTORE PUSH1 0x20 ADD SWAP1 DUP2 MSTORE PUSH1 0x20 ADD PUSH1 0x0 KECCAK256 DUP2 SWAP1 SSTORE POP PUSH1 0x0 DUP1 DUP4 DUP4 ADD SWAP1 POP PUSH20 0xFFFFFFFFFFFFFFFFFFFFFFFFFFFFFFFFFFFFFFFF DUP6 AND SWAP2 POP DUP3 DUP3 PUSH1 0x0 PUSH32 0xDDF252AD1BE2C89B69C2B068FC378DAA952BA7F163C4A11628F55A4DF523B3EF PUSH1 0x0 DUP1 LOG4 PUSH1 0x1 DUP4 ADD JUMPDEST DUP2 DUP2 EQ PUSH2 0x2AAA JUMPI DUP1 DUP4 PUSH1 0x0 PUSH32 0xDDF252AD1BE2C89B69C2B068FC378DAA952BA7F163C4A11628F55A4DF523B3EF PUSH1 0x0 DUP1 LOG4 PUSH1 0x1 DUP2 ADD SWAP1 POP PUSH2 0x2A6F JUMP JUMPDEST POP PUSH1 0x0 DUP3 SUB PUSH2 0x2AE5 JUMPI PUSH1 0x40 MLOAD PUSH32 0x2E07630000000000000000000000000000000000000000000000000000000000 DUP2 MSTORE PUSH1 0x4 ADD PUSH1 0x40 MLOAD DUP1 SWAP2 SUB SWAP1 REVERT JUMPDEST DUP1 PUSH1 0x0 DUP2 SWAP1 SSTORE POP POP POP PUSH2 0x2AFB PUSH1 0x0 DUP5 DUP4 DUP6 PUSH2 0x2471 JUMP JUMPDEST POP POP POP JUMP JUMPDEST PUSH1 0x0 PUSH1 0x1 DUP3 EQ PUSH1 0xE1 SHL SWAP1 POP SWAP2 SWAP1 POP JUMP JUMPDEST PUSH1 0x40 MLOAD DUP1 PUSH1 0x80 ADD PUSH1 0x40 MSTORE DUP1 PUSH1 0x0 PUSH20 0xFFFFFFFFFFFFFFFFFFFFFFFFFFFFFFFFFFFFFFFF AND DUP2 MSTORE PUSH1 0x20 ADD PUSH1 0x0 PUSH8 0xFFFFFFFFFFFFFFFF AND DUP2 MSTORE PUSH1 0x20 ADD PUSH1 0x0 ISZERO ISZERO DUP2 MSTORE PUSH1 0x20 ADD PUSH1 0x0 PUSH3 0xFFFFFF AND DUP2 MSTORE POP SWAP1 JUMP JUMPDEST POP DUP1 SLOAD PUSH1 0x0 DUP3 SSTORE SWAP1 PUSH1 0x0 MSTORE PUSH1 0x20 PUSH1 0x0 KECCAK256 SWAP1 DUP2 ADD SWAP1 PUSH2 0x2B7D SWAP2 SWAP1 PUSH2 0x2C20 JUMP JUMPDEST POP JUMP JUMPDEST DUP3 DUP1 SLOAD DUP3 DUP3 SSTORE SWAP1 PUSH1 0x0 MSTORE PUSH1 0x20 PUSH1 0x0 KECCAK256 SWAP1 DUP2 ADD SWAP3 DUP3 ISZERO PUSH2 0x2C0F JUMPI SWAP2 PUSH1 0x20 MUL DUP3 ADD JUMPDEST DUP3 DUP2 GT ISZERO PUSH2 0x2C0E JUMPI DUP3 CALLDATALOAD PUSH20 0xFFFFFFFFFFFFFFFFFFFFFFFFFFFFFFFFFFFFFFFF AND DUP3 PUSH1 0x0 PUSH2 0x100 EXP DUP2 SLOAD DUP2 PUSH20 0xFFFFFFFFFFFFFFFFFFFFFFFFFFFFFFFFFFFFFFFF MUL NOT AND SWAP1 DUP4 PUSH20 0xFFFFFFFFFFFFFFFFFFFFFFFFFFFFFFFFFFFFFFFF AND MUL OR SWAP1 SSTORE POP SWAP2 PUSH1 0x20 ADD SWAP2 SWAP1 PUSH1 0x1 ADD SWAP1 PUSH2 0x2BA0 JUMP JUMPDEST JUMPDEST POP SWAP1 POP PUSH2 0x2C1C SWAP2 SWAP1 PUSH2 0x2C20 JUMP JUMPDEST POP SWAP1 JUMP JUMPDEST JUMPDEST DUP1 DUP3 GT ISZERO PUSH2 0x2C39 JUMPI PUSH1 0x0 DUP2 PUSH1 0x0 SWAP1 SSTORE POP PUSH1 0x1 ADD PUSH2 0x2C21 JUMP JUMPDEST POP SWAP1 JUMP JUMPDEST PUSH1 0x0 PUSH1 0x40 MLOAD SWAP1 POP SWAP1 JUMP JUMPDEST PUSH1 0x0 DUP1 REVERT JUMPDEST PUSH1 0x0 DUP1 REVERT JUMPDEST PUSH1 0x0 PUSH32 0xFFFFFFFF00000000000000000000000000000000000000000000000000000000 DUP3 AND SWAP1 POP SWAP2 SWAP1 POP JUMP JUMPDEST PUSH2 0x2C86 DUP2 PUSH2 0x2C51 JUMP JUMPDEST DUP2 EQ PUSH2 0x2C91 JUMPI PUSH1 0x0 DUP1 REVERT JUMPDEST POP JUMP JUMPDEST PUSH1 0x0 DUP2 CALLDATALOAD SWAP1 POP PUSH2 0x2CA3 DUP2 PUSH2 0x2C7D JUMP JUMPDEST SWAP3 SWAP2 POP POP JUMP JUMPDEST PUSH1 0x0 PUSH1 0x20 DUP3 DUP5 SUB SLT ISZERO PUSH2 0x2CBF JUMPI PUSH2 0x2CBE PUSH2 0x2C47 JUMP JUMPDEST JUMPDEST PUSH1 0x0 PUSH2 0x2CCD DUP5 DUP3 DUP6 ADD PUSH2 0x2C94 JUMP JUMPDEST SWAP2 POP POP SWAP3 SWAP2 POP POP JUMP JUMPDEST PUSH1 0x0 DUP2 ISZERO ISZERO SWAP1 POP SWAP2 SWAP1 POP JUMP JUMPDEST PUSH2 0x2CEB DUP2 PUSH2 0x2CD6 JUMP JUMPDEST DUP3 MSTORE POP POP JUMP JUMPDEST PUSH1 0x0 PUSH1 0x20 DUP3 ADD SWAP1 POP PUSH2 0x2D06 PUSH1 0x0 DUP4 ADD DUP5 PUSH2 0x2CE2 JUMP JUMPDEST SWAP3 SWAP2 POP POP JUMP JUMPDEST PUSH2 0x2D15 DUP2 PUSH2 0x2CD6 JUMP JUMPDEST DUP2 EQ PUSH2 0x2D20 JUMPI PUSH1 0x0 DUP1 REVERT JUMPDEST POP JUMP JUMPDEST PUSH1 0x0 DUP2 CALLDATALOAD SWAP1 POP PUSH2 0x2D32 DUP2 PUSH2 0x2D0C JUMP JUMPDEST SWAP3 SWAP2 POP POP JUMP JUMPDEST PUSH1 0x0 PUSH1 0x20 DUP3 DUP5 SUB SLT ISZERO PUSH2 0x2D4E JUMPI PUSH2 0x2D4D PUSH2 0x2C47 JUMP JUMPDEST JUMPDEST PUSH1 0x0 PUSH2 0x2D5C DUP5 DUP3 DUP6 ADD PUSH2 0x2D23 JUMP JUMPDEST SWAP2 POP POP SWAP3 SWAP2 POP POP JUMP JUMPDEST PUSH1 0x0 DUP2 MLOAD SWAP1 POP SWAP2 SWAP1 POP JUMP JUMPDEST PUSH1 0x0 DUP3 DUP3 MSTORE PUSH1 0x20 DUP3 ADD SWAP1 POP SWAP3 SWAP2 POP POP JUMP JUMPDEST PUSH1 0x0 JUMPDEST DUP4 DUP2 LT ISZERO PUSH2 0x2D9F JUMPI DUP1 DUP3 ADD MLOAD DUP2 DUP5 ADD MSTORE PUSH1 0x20 DUP2 ADD SWAP1 POP PUSH2 0x2D84 JUMP JUMPDEST PUSH1 0x0 DUP5 DUP5 ADD MSTORE POP POP POP POP JUMP JUMPDEST PUSH1 0x0 PUSH1 0x1F NOT PUSH1 0x1F DUP4 ADD AND SWAP1 POP SWAP2 SWAP1 POP JUMP JUMPDEST PUSH1 0x0 PUSH2 0x2DC7 DUP3 PUSH2 0x2D65 JUMP JUMPDEST PUSH2 0x2DD1 DUP2 DUP6 PUSH2 0x2D70 JUMP JUMPDEST SWAP4 POP PUSH2 0x2DE1 DUP2 DUP6 PUSH1 0x20 DUP7 ADD PUSH2 0x2D81 JUMP JUMPDEST PUSH2 0x2DEA DUP2 PUSH2 0x2DAB JUMP JUMPDEST DUP5 ADD SWAP2 POP POP SWAP3 SWAP2 POP POP JUMP JUMPDEST PUSH1 0x0 PUSH1 0x20 DUP3 ADD SWAP1 POP DUP2 DUP2 SUB PUSH1 0x0 DUP4 ADD MSTORE PUSH2 0x2E0F DUP2 DUP5 PUSH2 0x2DBC JUMP JUMPDEST SWAP1 POP SWAP3 SWAP2 POP POP JUMP JUMPDEST PUSH1 0x0 DUP2 SWAP1 POP SWAP2 SWAP1 POP JUMP JUMPDEST PUSH2 0x2E2A DUP2 PUSH2 0x2E17 JUMP JUMPDEST DUP2 EQ PUSH2 0x2E35 JUMPI PUSH1 0x0 DUP1 REVERT JUMPDEST POP JUMP JUMPDEST PUSH1 0x0 DUP2 CALLDATALOAD SWAP1 POP PUSH2 0x2E47 DUP2 PUSH2 0x2E21 JUMP JUMPDEST SWAP3 SWAP2 POP POP JUMP JUMPDEST PUSH1 0x0 PUSH1 0x20 DUP3 DUP5 SUB SLT ISZERO PUSH2 0x2E63 JUMPI PUSH2 0x2E62 PUSH2 0x2C47 JUMP JUMPDEST JUMPDEST PUSH1 0x0 PUSH2 0x2E71 DUP5 DUP3 DUP6 ADD PUSH2 0x2E38 JUMP JUMPDEST SWAP2 POP POP SWAP3 SWAP2 POP POP JUMP JUMPDEST PUSH1 0x0 PUSH20 0xFFFFFFFFFFFFFFFFFFFFFFFFFFFFFFFFFFFFFFFF DUP3 AND SWAP1 POP SWAP2 SWAP1 POP JUMP JUMPDEST PUSH1 0x0 PUSH2 0x2EA5 DUP3 PUSH2 0x2E7A JUMP JUMPDEST SWAP1 POP SWAP2 SWAP1 POP JUMP JUMPDEST PUSH2 0x2EB5 DUP2 PUSH2 0x2E9A JUMP JUMPDEST DUP3 MSTORE POP POP JUMP JUMPDEST PUSH1 0x0 PUSH1 0x20 DUP3 ADD SWAP1 POP PUSH2 0x2ED0 PUSH1 0x0 DUP4 ADD DUP5 PUSH2 0x2EAC JUMP JUMPDEST SWAP3 SWAP2 POP POP JUMP JUMPDEST PUSH2 0x2EDF DUP2 PUSH2 0x2E9A JUMP JUMPDEST DUP2 EQ PUSH2 0x2EEA JUMPI PUSH1 0x0 DUP1 REVERT JUMPDEST POP JUMP JUMPDEST PUSH1 0x0 DUP2 CALLDATALOAD SWAP1 POP PUSH2 0x2EFC DUP2 PUSH2 0x2ED6 JUMP JUMPDEST SWAP3 SWAP2 POP POP JUMP JUMPDEST PUSH1 0x0 DUP1 PUSH1 0x40 DUP4 DUP6 SUB SLT ISZERO PUSH2 0x2F19 JUMPI PUSH2 0x2F18 PUSH2 0x2C47 JUMP JUMPDEST JUMPDEST PUSH1 0x0 PUSH2 0x2F27 DUP6 DUP3 DUP7 ADD PUSH2 0x2EED JUMP JUMPDEST SWAP3 POP POP PUSH1 0x20 PUSH2 0x2F38 DUP6 DUP3 DUP7 ADD PUSH2 0x2E38 JUMP JUMPDEST SWAP2 POP POP SWAP3 POP SWAP3 SWAP1 POP JUMP JUMPDEST PUSH2 0x2F4B DUP2 PUSH2 0x2E17 JUMP JUMPDEST DUP3 MSTORE POP POP JUMP JUMPDEST PUSH1 0x0 PUSH1 0x20 DUP3 ADD SWAP1 POP PUSH2 0x2F66 PUSH1 0x0 DUP4 ADD DUP5 PUSH2 0x2F42 JUMP JUMPDEST SWAP3 SWAP2 POP POP JUMP JUMPDEST PUSH1 0x0 PUSH1 0x20 DUP3 DUP5 SUB SLT ISZERO PUSH2 0x2F82 JUMPI PUSH2 0x2F81 PUSH2 0x2C47 JUMP JUMPDEST JUMPDEST PUSH1 0x0 PUSH2 0x2F90 DUP5 DUP3 DUP6 ADD PUSH2 0x2EED JUMP JUMPDEST SWAP2 POP POP SWAP3 SWAP2 POP POP JUMP JUMPDEST PUSH1 0x0 DUP1 PUSH1 0x0 PUSH1 0x60 DUP5 DUP7 SUB SLT ISZERO PUSH2 0x2FB2 JUMPI PUSH2 0x2FB1 PUSH2 0x2C47 JUMP JUMPDEST JUMPDEST PUSH1 0x0 PUSH2 0x2FC0 DUP7 DUP3 DUP8 ADD PUSH2 0x2EED JUMP JUMPDEST SWAP4 POP POP PUSH1 0x20 PUSH2 0x2FD1 DUP7 DUP3 DUP8 ADD PUSH2 0x2EED JUMP JUMPDEST SWAP3 POP POP PUSH1 0x40 PUSH2 0x2FE2 DUP7 DUP3 DUP8 ADD PUSH2 0x2E38 JUMP JUMPDEST SWAP2 POP POP SWAP3 POP SWAP3 POP SWAP3 JUMP JUMPDEST PUSH1 0x0 DUP1 REVERT JUMPDEST PUSH1 0x0 DUP1 REVERT JUMPDEST PUSH32 0x4E487B7100000000000000000000000000000000000000000000000000000000 PUSH1 0x0 MSTORE PUSH1 0x41 PUSH1 0x4 MSTORE PUSH1 0x24 PUSH1 0x0 REVERT JUMPDEST PUSH2 0x302E DUP3 PUSH2 0x2DAB JUMP JUMPDEST DUP2 ADD DUP2 DUP2 LT PUSH8 0xFFFFFFFFFFFFFFFF DUP3 GT OR ISZERO PUSH2 0x304D JUMPI PUSH2 0x304C PUSH2 0x2FF6 JUMP JUMPDEST JUMPDEST DUP1 PUSH1 0x40 MSTORE POP POP POP JUMP JUMPDEST PUSH1 0x0 PUSH2 0x3060 PUSH2 0x2C3D JUMP JUMPDEST SWAP1 POP PUSH2 0x306C DUP3 DUP3 PUSH2 0x3025 JUMP JUMPDEST SWAP2 SWAP1 POP JUMP JUMPDEST PUSH1 0x0 PUSH8 0xFFFFFFFFFFFFFFFF DUP3 GT ISZERO PUSH2 0x308C JUMPI PUSH2 0x308B PUSH2 0x2FF6 JUMP JUMPDEST JUMPDEST PUSH2 0x3095 DUP3 PUSH2 0x2DAB JUMP JUMPDEST SWAP1 POP PUSH1 0x20 DUP2 ADD SWAP1 POP SWAP2 SWAP1 POP JUMP JUMPDEST DUP3 DUP2 DUP4 CALLDATACOPY PUSH1 0x0 DUP4 DUP4 ADD MSTORE POP POP POP JUMP JUMPDEST PUSH1 0x0 PUSH2 0x30C4 PUSH2 0x30BF DUP5 PUSH2 0x3071 JUMP JUMPDEST PUSH2 0x3056 JUMP JUMPDEST SWAP1 POP DUP3 DUP2 MSTORE PUSH1 0x20 DUP2 ADD DUP5 DUP5 DUP5 ADD GT ISZERO PUSH2 0x30E0 JUMPI PUSH2 0x30DF PUSH2 0x2FF1 JUMP JUMPDEST JUMPDEST PUSH2 0x30EB DUP5 DUP3 DUP6 PUSH2 0x30A2 JUMP JUMPDEST POP SWAP4 SWAP3 POP POP POP JUMP JUMPDEST PUSH1 0x0 DUP3 PUSH1 0x1F DUP4 ADD SLT PUSH2 0x3108 JUMPI PUSH2 0x3107 PUSH2 0x2FEC JUMP JUMPDEST JUMPDEST DUP2 CALLDATALOAD PUSH2 0x3118 DUP5 DUP3 PUSH1 0x20 DUP7 ADD PUSH2 0x30B1 JUMP JUMPDEST SWAP2 POP POP SWAP3 SWAP2 POP POP JUMP JUMPDEST PUSH1 0x0 PUSH1 0x20 DUP3 DUP5 SUB SLT ISZERO PUSH2 0x3137 JUMPI PUSH2 0x3136 PUSH2 0x2C47 JUMP JUMPDEST JUMPDEST PUSH1 0x0 DUP3 ADD CALLDATALOAD PUSH8 0xFFFFFFFFFFFFFFFF DUP2 GT ISZERO PUSH2 0x3155 JUMPI PUSH2 0x3154 PUSH2 0x2C4C JUMP JUMPDEST JUMPDEST PUSH2 0x3161 DUP5 DUP3 DUP6 ADD PUSH2 0x30F3 JUMP JUMPDEST SWAP2 POP POP SWAP3 SWAP2 POP POP JUMP JUMPDEST PUSH1 0x0 DUP1 REVERT JUMPDEST PUSH1 0x0 DUP1 REVERT JUMPDEST PUSH1 0x0 DUP1 DUP4 PUSH1 0x1F DUP5 ADD SLT PUSH2 0x318A JUMPI PUSH2 0x3189 PUSH2 0x2FEC JUMP JUMPDEST JUMPDEST DUP3 CALLDATALOAD SWAP1 POP PUSH8 0xFFFFFFFFFFFFFFFF DUP2 GT ISZERO PUSH2 0x31A7 JUMPI PUSH2 0x31A6 PUSH2 0x316A JUMP JUMPDEST JUMPDEST PUSH1 0x20 DUP4 ADD SWAP2 POP DUP4 PUSH1 0x20 DUP3 MUL DUP4 ADD GT ISZERO PUSH2 0x31C3 JUMPI PUSH2 0x31C2 PUSH2 0x316F JUMP JUMPDEST JUMPDEST SWAP3 POP SWAP3 SWAP1 POP JUMP JUMPDEST PUSH1 0x0 DUP1 PUSH1 0x20 DUP4 DUP6 SUB SLT ISZERO PUSH2 0x31E1 JUMPI PUSH2 0x31E0 PUSH2 0x2C47 JUMP JUMPDEST JUMPDEST PUSH1 0x0 DUP4 ADD CALLDATALOAD PUSH8 0xFFFFFFFFFFFFFFFF DUP2 GT ISZERO PUSH2 0x31FF JUMPI PUSH2 0x31FE PUSH2 0x2C4C JUMP JUMPDEST JUMPDEST PUSH2 0x320B DUP6 DUP3 DUP7 ADD PUSH2 0x3174 JUMP JUMPDEST SWAP3 POP SWAP3 POP POP SWAP3 POP SWAP3 SWAP1 POP JUMP JUMPDEST PUSH1 0x0 DUP2 MLOAD SWAP1 POP SWAP2 SWAP1 POP JUMP JUMPDEST PUSH1 0x0 DUP3 DUP3 MSTORE PUSH1 0x20 DUP3 ADD SWAP1 POP SWAP3 SWAP2 POP POP JUMP JUMPDEST PUSH1 0x0 DUP2 SWAP1 POP PUSH1 0x20 DUP3 ADD SWAP1 POP SWAP2 SWAP1 POP JUMP JUMPDEST PUSH2 0x324C DUP2 PUSH2 0x2E9A JUMP JUMPDEST DUP3 MSTORE POP POP JUMP JUMPDEST PUSH1 0x0 PUSH8 0xFFFFFFFFFFFFFFFF DUP3 AND SWAP1 POP SWAP2 SWAP1 POP JUMP JUMPDEST PUSH2 0x326F DUP2 PUSH2 0x3252 JUMP JUMPDEST DUP3 MSTORE POP POP JUMP JUMPDEST PUSH2 0x327E DUP2 PUSH2 0x2CD6 JUMP JUMPDEST DUP3 MSTORE POP POP JUMP JUMPDEST PUSH1 0x0 PUSH3 0xFFFFFF DUP3 AND SWAP1 POP SWAP2 SWAP1 POP JUMP JUMPDEST PUSH2 0x329C DUP2 PUSH2 0x3284 JUMP JUMPDEST DUP3 MSTORE POP POP JUMP JUMPDEST PUSH1 0x80 DUP3 ADD PUSH1 0x0 DUP3 ADD MLOAD PUSH2 0x32B8 PUSH1 0x0 DUP6 ADD DUP3 PUSH2 0x3243 JUMP JUMPDEST POP PUSH1 0x20 DUP3 ADD MLOAD PUSH2 0x32CB PUSH1 0x20 DUP6 ADD DUP3 PUSH2 0x3266 JUMP JUMPDEST POP PUSH1 0x40 DUP3 ADD MLOAD PUSH2 0x32DE PUSH1 0x40 DUP6 ADD DUP3 PUSH2 0x3275 JUMP JUMPDEST POP PUSH1 0x60 DUP3 ADD MLOAD PUSH2 0x32F1 PUSH1 0x60 DUP6 ADD DUP3 PUSH2 0x3293 JUMP JUMPDEST POP POP POP POP JUMP JUMPDEST PUSH1 0x0 PUSH2 0x3303 DUP4 DUP4 PUSH2 0x32A2 JUMP JUMPDEST PUSH1 0x80 DUP4 ADD SWAP1 POP SWAP3 SWAP2 POP POP JUMP JUMPDEST PUSH1 0x0 PUSH1 0x20 DUP3 ADD SWAP1 POP SWAP2 SWAP1 POP JUMP JUMPDEST PUSH1 0x0 PUSH2 0x3327 DUP3 PUSH2 0x3217 JUMP JUMPDEST PUSH2 0x3331 DUP2 DUP6 PUSH2 0x3222 JUMP JUMPDEST SWAP4 POP PUSH2 0x333C DUP4 PUSH2 0x3233 JUMP JUMPDEST DUP1 PUSH1 0x0 JUMPDEST DUP4 DUP2 LT ISZERO PUSH2 0x336D JUMPI DUP2 MLOAD PUSH2 0x3354 DUP9 DUP3 PUSH2 0x32F7 JUMP JUMPDEST SWAP8 POP PUSH2 0x335F DUP4 PUSH2 0x330F JUMP JUMPDEST SWAP3 POP POP PUSH1 0x1 DUP2 ADD SWAP1 POP PUSH2 0x3340 JUMP JUMPDEST POP DUP6 SWAP4 POP POP POP POP SWAP3 SWAP2 POP POP JUMP JUMPDEST PUSH1 0x0 PUSH1 0x20 DUP3 ADD SWAP1 POP DUP2 DUP2 SUB PUSH1 0x0 DUP4 ADD MSTORE PUSH2 0x3394 DUP2 DUP5 PUSH2 0x331C JUMP JUMPDEST SWAP1 POP SWAP3 SWAP2 POP POP JUMP JUMPDEST PUSH1 0x0 DUP2 MLOAD SWAP1 POP SWAP2 SWAP1 POP JUMP JUMPDEST PUSH1 0x0 DUP3 DUP3 MSTORE PUSH1 0x20 DUP3 ADD SWAP1 POP SWAP3 SWAP2 POP POP JUMP JUMPDEST PUSH1 0x0 DUP2 SWAP1 POP PUSH1 0x20 DUP3 ADD SWAP1 POP SWAP2 SWAP1 POP JUMP JUMPDEST PUSH2 0x33D1 DUP2 PUSH2 0x2E17 JUMP JUMPDEST DUP3 MSTORE POP POP JUMP JUMPDEST PUSH1 0x0 PUSH2 0x33E3 DUP4 DUP4 PUSH2 0x33C8 JUMP JUMPDEST PUSH1 0x20 DUP4 ADD SWAP1 POP SWAP3 SWAP2 POP POP JUMP JUMPDEST PUSH1 0x0 PUSH1 0x20 DUP3 ADD SWAP1 POP SWAP2 SWAP1 POP JUMP JUMPDEST PUSH1 0x0 PUSH2 0x3407 DUP3 PUSH2 0x339C JUMP JUMPDEST PUSH2 0x3411 DUP2 DUP6 PUSH2 0x33A7 JUMP JUMPDEST SWAP4 POP PUSH2 0x341C DUP4 PUSH2 0x33B8 JUMP JUMPDEST DUP1 PUSH1 0x0 JUMPDEST DUP4 DUP2 LT ISZERO PUSH2 0x344D JUMPI DUP2 MLOAD PUSH2 0x3434 DUP9 DUP3 PUSH2 0x33D7 JUMP JUMPDEST SWAP8 POP PUSH2 0x343F DUP4 PUSH2 0x33EF JUMP JUMPDEST SWAP3 POP POP PUSH1 0x1 DUP2 ADD SWAP1 POP PUSH2 0x3420 JUMP JUMPDEST POP DUP6 SWAP4 POP POP POP POP SWAP3 SWAP2 POP POP JUMP JUMPDEST PUSH1 0x0 PUSH1 0x20 DUP3 ADD SWAP1 POP DUP2 DUP2 SUB PUSH1 0x0 DUP4 ADD MSTORE PUSH2 0x3474 DUP2 DUP5 PUSH2 0x33FC JUMP JUMPDEST SWAP1 POP SWAP3 SWAP2 POP POP JUMP JUMPDEST PUSH1 0x0 DUP1 PUSH1 0x0 PUSH1 0x60 DUP5 DUP7 SUB SLT ISZERO PUSH2 0x3495 JUMPI PUSH2 0x3494 PUSH2 0x2C47 JUMP JUMPDEST JUMPDEST PUSH1 0x0 PUSH2 0x34A3 DUP7 DUP3 DUP8 ADD PUSH2 0x2EED JUMP JUMPDEST SWAP4 POP POP PUSH1 0x20 PUSH2 0x34B4 DUP7 DUP3 DUP8 ADD PUSH2 0x2E38 JUMP JUMPDEST SWAP3 POP POP PUSH1 0x40 PUSH2 0x34C5 DUP7 DUP3 DUP8 ADD PUSH2 0x2E38 JUMP JUMPDEST SWAP2 POP POP SWAP3 POP SWAP3 POP SWAP3 JUMP JUMPDEST PUSH1 0x0 DUP1 PUSH1 0x40 DUP4 DUP6 SUB SLT ISZERO PUSH2 0x34E6 JUMPI PUSH2 0x34E5 PUSH2 0x2C47 JUMP JUMPDEST JUMPDEST PUSH1 0x0 PUSH2 0x34F4 DUP6 DUP3 DUP7 ADD PUSH2 0x2EED JUMP JUMPDEST SWAP3 POP POP PUSH1 0x20 PUSH2 0x3505 DUP6 DUP3 DUP7 ADD PUSH2 0x2D23 JUMP JUMPDEST SWAP2 POP POP SWAP3 POP SWAP3 SWAP1 POP JUMP JUMPDEST PUSH1 0x0 PUSH8 0xFFFFFFFFFFFFFFFF DUP3 GT ISZERO PUSH2 0x352A JUMPI PUSH2 0x3529 PUSH2 0x2FF6 JUMP JUMPDEST JUMPDEST PUSH2 0x3533 DUP3 PUSH2 0x2DAB JUMP JUMPDEST SWAP1 POP PUSH1 0x20 DUP2 ADD SWAP1 POP SWAP2 SWAP1 POP JUMP JUMPDEST PUSH1 0x0 PUSH2 0x3553 PUSH2 0x354E DUP5 PUSH2 0x350F JUMP JUMPDEST PUSH2 0x3056 JUMP JUMPDEST SWAP1 POP DUP3 DUP2 MSTORE PUSH1 0x20 DUP2 ADD DUP5 DUP5 DUP5 ADD GT ISZERO PUSH2 0x356F JUMPI PUSH2 0x356E PUSH2 0x2FF1 JUMP JUMPDEST JUMPDEST PUSH2 0x357A DUP5 DUP3 DUP6 PUSH2 0x30A2 JUMP JUMPDEST POP SWAP4 SWAP3 POP POP POP JUMP JUMPDEST PUSH1 0x0 DUP3 PUSH1 0x1F DUP4 ADD SLT PUSH2 0x3597 JUMPI PUSH2 0x3596 PUSH2 0x2FEC JUMP JUMPDEST JUMPDEST DUP2 CALLDATALOAD PUSH2 0x35A7 DUP5 DUP3 PUSH1 0x20 DUP7 ADD PUSH2 0x3540 JUMP JUMPDEST SWAP2 POP POP SWAP3 SWAP2 POP POP JUMP JUMPDEST PUSH1 0x0 DUP1 PUSH1 0x0 DUP1 PUSH1 0x80 DUP6 DUP8 SUB SLT ISZERO PUSH2 0x35CA JUMPI PUSH2 0x35C9 PUSH2 0x2C47 JUMP JUMPDEST JUMPDEST PUSH1 0x0 PUSH2 0x35D8 DUP8 DUP3 DUP9 ADD PUSH2 0x2EED JUMP JUMPDEST SWAP5 POP POP PUSH1 0x20 PUSH2 0x35E9 DUP8 DUP3 DUP9 ADD PUSH2 0x2EED JUMP JUMPDEST SWAP4 POP POP PUSH1 0x40 PUSH2 0x35FA DUP8 DUP3 DUP9 ADD PUSH2 0x2E38 JUMP JUMPDEST SWAP3 POP POP PUSH1 0x60 DUP6 ADD CALLDATALOAD PUSH8 0xFFFFFFFFFFFFFFFF DUP2 GT ISZERO PUSH2 0x361B JUMPI PUSH2 0x361A PUSH2 0x2C4C JUMP JUMPDEST JUMPDEST PUSH2 0x3627 DUP8 DUP3 DUP9 ADD PUSH2 0x3582 JUMP JUMPDEST SWAP2 POP POP SWAP3 SWAP6 SWAP2 SWAP5 POP SWAP3 POP JUMP JUMPDEST PUSH1 0x80 DUP3 ADD PUSH1 0x0 DUP3 ADD MLOAD PUSH2 0x3649 PUSH1 0x0 DUP6 ADD DUP3 PUSH2 0x3243 JUMP JUMPDEST POP PUSH1 0x20 DUP3 ADD MLOAD PUSH2 0x365C PUSH1 0x20 DUP6 ADD DUP3 PUSH2 0x3266 JUMP JUMPDEST POP PUSH1 0x40 DUP3 ADD MLOAD PUSH2 0x366F PUSH1 0x40 DUP6 ADD DUP3 PUSH2 0x3275 JUMP JUMPDEST POP PUSH1 0x60 DUP3 ADD MLOAD PUSH2 0x3682 PUSH1 0x60 DUP6 ADD DUP3 PUSH2 0x3293 JUMP JUMPDEST POP POP POP POP JUMP JUMPDEST PUSH1 0x0 PUSH1 0x80 DUP3 ADD SWAP1 POP PUSH2 0x369D PUSH1 0x0 DUP4 ADD DUP5 PUSH2 0x3633 JUMP JUMPDEST SWAP3 SWAP2 POP POP JUMP JUMPDEST PUSH1 0x0 DUP1 PUSH1 0x40 DUP4 DUP6 SUB SLT ISZERO PUSH2 0x36BA JUMPI PUSH2 0x36B9 PUSH2 0x2C47 JUMP JUMPDEST JUMPDEST PUSH1 0x0 PUSH2 0x36C8 DUP6 DUP3 DUP7 ADD PUSH2 0x2EED JUMP JUMPDEST SWAP3 POP POP PUSH1 0x20 PUSH2 0x36D9 DUP6 DUP3 DUP7 ADD PUSH2 0x2EED JUMP JUMPDEST SWAP2 POP POP SWAP3 POP SWAP3 SWAP1 POP JUMP JUMPDEST PUSH1 0x0 DUP1 DUP4 PUSH1 0x1F DUP5 ADD SLT PUSH2 0x36F9 JUMPI PUSH2 0x36F8 PUSH2 0x2FEC JUMP JUMPDEST JUMPDEST DUP3 CALLDATALOAD SWAP1 POP PUSH8 0xFFFFFFFFFFFFFFFF DUP2 GT ISZERO PUSH2 0x3716 JUMPI PUSH2 0x3715 PUSH2 0x316A JUMP JUMPDEST JUMPDEST PUSH1 0x20 DUP4 ADD SWAP2 POP DUP4 PUSH1 0x20 DUP3 MUL DUP4 ADD GT ISZERO PUSH2 0x3732 JUMPI PUSH2 0x3731 PUSH2 0x316F JUMP JUMPDEST JUMPDEST SWAP3 POP SWAP3 SWAP1 POP JUMP JUMPDEST PUSH1 0x0 DUP1 PUSH1 0x20 DUP4 DUP6 SUB SLT ISZERO PUSH2 0x3750 JUMPI PUSH2 0x374F PUSH2 0x2C47 JUMP JUMPDEST JUMPDEST PUSH1 0x0 DUP4 ADD CALLDATALOAD PUSH8 0xFFFFFFFFFFFFFFFF DUP2 GT ISZERO PUSH2 0x376E JUMPI PUSH2 0x376D PUSH2 0x2C4C JUMP JUMPDEST JUMPDEST PUSH2 0x377A DUP6 DUP3 DUP7 ADD PUSH2 0x36E3 JUMP JUMPDEST SWAP3 POP SWAP3 POP POP SWAP3 POP SWAP3 SWAP1 POP JUMP JUMPDEST PUSH32 0x4E487B7100000000000000000000000000000000000000000000000000000000 PUSH1 0x0 MSTORE PUSH1 0x22 PUSH1 0x4 MSTORE PUSH1 0x24 PUSH1 0x0 REVERT JUMPDEST PUSH1 0x0 PUSH1 0x2 DUP3 DIV SWAP1 POP PUSH1 0x1 DUP3 AND DUP1 PUSH2 0x37CD JUMPI PUSH1 0x7F DUP3 AND SWAP2 POP JUMPDEST PUSH1 0x20 DUP3 LT DUP2 SUB PUSH2 0x37E0 JUMPI PUSH2 0x37DF PUSH2 0x3786 JUMP JUMPDEST JUMPDEST POP SWAP2 SWAP1 POP JUMP JUMPDEST PUSH32 0x4E487B7100000000000000000000000000000000000000000000000000000000 PUSH1 0x0 MSTORE PUSH1 0x32 PUSH1 0x4 MSTORE PUSH1 0x24 PUSH1 0x0 REVERT JUMPDEST PUSH32 0x4E487B7100000000000000000000000000000000000000000000000000000000 PUSH1 0x0 MSTORE PUSH1 0x11 PUSH1 0x4 MSTORE PUSH1 0x24 PUSH1 0x0 REVERT JUMPDEST PUSH1 0x0 PUSH2 0x384F DUP3 PUSH2 0x2E17 JUMP JUMPDEST SWAP2 POP PUSH32 0xFFFFFFFFFFFFFFFFFFFFFFFFFFFFFFFFFFFFFFFFFFFFFFFFFFFFFFFFFFFFFFFF DUP3 SUB PUSH2 0x3881 JUMPI PUSH2 0x3880 PUSH2 0x3815 JUMP JUMPDEST JUMPDEST PUSH1 0x1 DUP3 ADD SWAP1 POP SWAP2 SWAP1 POP JUMP JUMPDEST PUSH1 0x0 DUP2 SWAP1 POP SWAP3 SWAP2 POP POP JUMP JUMPDEST POP JUMP JUMPDEST PUSH1 0x0 PUSH2 0x38A7 PUSH1 0x0 DUP4 PUSH2 0x388C JUMP JUMPDEST SWAP2 POP PUSH2 0x38B2 DUP3 PUSH2 0x3897 JUMP JUMPDEST PUSH1 0x0 DUP3 ADD SWAP1 POP SWAP2 SWAP1 POP JUMP JUMPDEST PUSH1 0x0 PUSH2 0x38C8 DUP3 PUSH2 0x389A JUMP JUMPDEST SWAP2 POP DUP2 SWAP1 POP SWAP2 SWAP1 POP JUMP JUMPDEST PUSH1 0x0 DUP2 SWAP1 POP DUP2 PUSH1 0x0 MSTORE PUSH1 0x20 PUSH1 0x0 KECCAK256 SWAP1 POP SWAP2 SWAP1 POP JUMP JUMPDEST PUSH1 0x0 PUSH1 0x20 PUSH1 0x1F DUP4 ADD DIV SWAP1 POP SWAP2 SWAP1 POP JUMP JUMPDEST PUSH1 0x0 DUP3 DUP3 SHL SWAP1 POP SWAP3 SWAP2 POP POP JUMP JUMPDEST PUSH1 0x0 PUSH1 0x8 DUP4 MUL PUSH2 0x3934 PUSH32 0xFFFFFFFFFFFFFFFFFFFFFFFFFFFFFFFFFFFFFFFFFFFFFFFFFFFFFFFFFFFFFFFF DUP3 PUSH2 0x38F7 JUMP JUMPDEST PUSH2 0x393E DUP7 DUP4 PUSH2 0x38F7 JUMP JUMPDEST SWAP6 POP DUP1 NOT DUP5 AND SWAP4 POP DUP1 DUP7 AND DUP5 OR SWAP3 POP POP POP SWAP4 SWAP3 POP POP POP JUMP JUMPDEST PUSH1 0x0 DUP2 SWAP1 POP SWAP2 SWAP1 POP JUMP JUMPDEST PUSH1 0x0 PUSH2 0x397B PUSH2 0x3976 PUSH2 0x3971 DUP5 PUSH2 0x2E17 JUMP JUMPDEST PUSH2 0x3956 JUMP JUMPDEST PUSH2 0x2E17 JUMP JUMPDEST SWAP1 POP SWAP2 SWAP1 POP JUMP JUMPDEST PUSH1 0x0 DUP2 SWAP1 POP SWAP2 SWAP1 POP JUMP JUMPDEST PUSH2 0x3995 DUP4 PUSH2 0x3960 JUMP JUMPDEST PUSH2 0x39A9 PUSH2 0x39A1 DUP3 PUSH2 0x3982 JUMP JUMPDEST DUP5 DUP5 SLOAD PUSH2 0x3904 JUMP JUMPDEST DUP3 SSTORE POP POP POP POP JUMP JUMPDEST PUSH1 0x0 SWAP1 JUMP JUMPDEST PUSH2 0x39BE PUSH2 0x39B1 JUMP JUMPDEST PUSH2 0x39C9 DUP2 DUP5 DUP5 PUSH2 0x398C JUMP JUMPDEST POP POP POP JUMP JUMPDEST JUMPDEST DUP2 DUP2 LT ISZERO PUSH2 0x39ED JUMPI PUSH2 0x39E2 PUSH1 0x0 DUP3 PUSH2 0x39B6 JUMP JUMPDEST PUSH1 0x1 DUP2 ADD SWAP1 POP PUSH2 0x39CF JUMP JUMPDEST POP POP JUMP JUMPDEST PUSH1 0x1F DUP3 GT ISZERO PUSH2 0x3A32 JUMPI PUSH2 0x3A03 DUP2 PUSH2 0x38D2 JUMP JUMPDEST PUSH2 0x3A0C DUP5 PUSH2 0x38E7 JUMP JUMPDEST DUP2 ADD PUSH1 0x20 DUP6 LT ISZERO PUSH2 0x3A1B JUMPI DUP2 SWAP1 POP JUMPDEST PUSH2 0x3A2F PUSH2 0x3A27 DUP6 PUSH2 0x38E7 JUMP JUMPDEST DUP4 ADD DUP3 PUSH2 0x39CE JUMP JUMPDEST POP POP JUMPDEST POP POP POP JUMP JUMPDEST PUSH1 0x0 DUP3 DUP3 SHR SWAP1 POP SWAP3 SWAP2 POP POP JUMP JUMPDEST PUSH1 0x0 PUSH2 0x3A55 PUSH1 0x0 NOT DUP5 PUSH1 0x8 MUL PUSH2 0x3A37 JUMP JUMPDEST NOT DUP1 DUP4 AND SWAP2 POP POP SWAP3 SWAP2 POP POP JUMP JUMPDEST PUSH1 0x0 PUSH2 0x3A6E DUP4 DUP4 PUSH2 0x3A44 JUMP JUMPDEST SWAP2 POP DUP3 PUSH1 0x2 MUL DUP3 OR SWAP1 POP SWAP3 SWAP2 POP POP JUMP JUMPDEST PUSH2 0x3A87 DUP3 PUSH2 0x2D65 JUMP JUMPDEST PUSH8 0xFFFFFFFFFFFFFFFF DUP2 GT ISZERO PUSH2 0x3AA0 JUMPI PUSH2 0x3A9F PUSH2 0x2FF6 JUMP JUMPDEST JUMPDEST PUSH2 0x3AAA DUP3 SLOAD PUSH2 0x37B5 JUMP JUMPDEST PUSH2 0x3AB5 DUP3 DUP3 DUP6 PUSH2 0x39F1 JUMP JUMPDEST PUSH1 0x0 PUSH1 0x20 SWAP1 POP PUSH1 0x1F DUP4 GT PUSH1 0x1 DUP2 EQ PUSH2 0x3AE8 JUMPI PUSH1 0x0 DUP5 ISZERO PUSH2 0x3AD6 JUMPI DUP3 DUP8 ADD MLOAD SWAP1 POP JUMPDEST PUSH2 0x3AE0 DUP6 DUP3 PUSH2 0x3A62 JUMP JUMPDEST DUP7 SSTORE POP PUSH2 0x3B48 JUMP JUMPDEST PUSH1 0x1F NOT DUP5 AND PUSH2 0x3AF6 DUP7 PUSH2 0x38D2 JUMP JUMPDEST PUSH1 0x0 JUMPDEST DUP3 DUP2 LT ISZERO PUSH2 0x3B1E JUMPI DUP5 DUP10 ADD MLOAD DUP3 SSTORE PUSH1 0x1 DUP3 ADD SWAP2 POP PUSH1 0x20 DUP6 ADD SWAP5 POP PUSH1 0x20 DUP2 ADD SWAP1 POP PUSH2 0x3AF9 JUMP JUMPDEST DUP7 DUP4 LT ISZERO PUSH2 0x3B3B JUMPI DUP5 DUP10 ADD MLOAD PUSH2 0x3B37 PUSH1 0x1F DUP10 AND DUP3 PUSH2 0x3A44 JUMP JUMPDEST DUP4 SSTORE POP JUMPDEST PUSH1 0x1 PUSH1 0x2 DUP9 MUL ADD DUP9 SSTORE POP POP POP JUMPDEST POP POP POP POP POP POP JUMP JUMPDEST PUSH32 0x74686520636F6E74726163742069732070617573656400000000000000000000 PUSH1 0x0 DUP3 ADD MSTORE POP JUMP JUMPDEST PUSH1 0x0 PUSH2 0x3B86 PUSH1 0x16 DUP4 PUSH2 0x2D70 JUMP JUMPDEST SWAP2 POP PUSH2 0x3B91 DUP3 PUSH2 0x3B50 JUMP JUMPDEST PUSH1 0x20 DUP3 ADD SWAP1 POP SWAP2 SWAP1 POP JUMP JUMPDEST PUSH1 0x0 PUSH1 0x20 DUP3 ADD SWAP1 POP DUP2 DUP2 SUB PUSH1 0x0 DUP4 ADD MSTORE PUSH2 0x3BB5 DUP2 PUSH2 0x3B79 JUMP JUMPDEST SWAP1 POP SWAP2 SWAP1 POP JUMP JUMPDEST PUSH32 0x6E65656420746F206D696E74206174206C656173742031204E46540000000000 PUSH1 0x0 DUP3 ADD MSTORE POP JUMP JUMPDEST PUSH1 0x0 PUSH2 0x3BF2 PUSH1 0x1B DUP4 PUSH2 0x2D70 JUMP JUMPDEST SWAP2 POP PUSH2 0x3BFD DUP3 PUSH2 0x3BBC JUMP JUMPDEST PUSH1 0x20 DUP3 ADD SWAP1 POP SWAP2 SWAP1 POP JUMP JUMPDEST PUSH1 0x0 PUSH1 0x20 DUP3 ADD SWAP1 POP DUP2 DUP2 SUB PUSH1 0x0 DUP4 ADD MSTORE PUSH2 0x3C21 DUP2 PUSH2 0x3BE5 JUMP JUMPDEST SWAP1 POP SWAP2 SWAP1 POP JUMP JUMPDEST PUSH32 0x6D6178206D696E7420616D6F756E74207065722073657373696F6E2065786365 PUSH1 0x0 DUP3 ADD MSTORE PUSH32 0x6564656400000000000000000000000000000000000000000000000000000000 PUSH1 0x20 DUP3 ADD MSTORE POP JUMP JUMPDEST PUSH1 0x0 PUSH2 0x3C84 PUSH1 0x24 DUP4 PUSH2 0x2D70 JUMP JUMPDEST SWAP2 POP PUSH2 0x3C8F DUP3 PUSH2 0x3C28 JUMP JUMPDEST PUSH1 0x40 DUP3 ADD SWAP1 POP SWAP2 SWAP1 POP JUMP JUMPDEST PUSH1 0x0 PUSH1 0x20 DUP3 ADD SWAP1 POP DUP2 DUP2 SUB PUSH1 0x0 DUP4 ADD MSTORE PUSH2 0x3CB3 DUP2 PUSH2 0x3C77 JUMP JUMPDEST SWAP1 POP SWAP2 SWAP1 POP JUMP JUMPDEST PUSH1 0x0 PUSH2 0x3CC5 DUP3 PUSH2 0x2E17 JUMP JUMPDEST SWAP2 POP PUSH2 0x3CD0 DUP4 PUSH2 0x2E17 JUMP JUMPDEST SWAP3 POP DUP3 DUP3 ADD SWAP1 POP DUP1 DUP3 GT ISZERO PUSH2 0x3CE8 JUMPI PUSH2 0x3CE7 PUSH2 0x3815 JUMP JUMPDEST JUMPDEST SWAP3 SWAP2 POP POP JUMP JUMPDEST PUSH32 0x6D6178204E4654206C696D697420657863656564656400000000000000000000 PUSH1 0x0 DUP3 ADD MSTORE POP JUMP JUMPDEST PUSH1 0x0 PUSH2 0x3D24 PUSH1 0x16 DUP4 PUSH2 0x2D70 JUMP JUMPDEST SWAP2 POP PUSH2 0x3D2F DUP3 PUSH2 0x3CEE JUMP JUMPDEST PUSH1 0x20 DUP3 ADD SWAP1 POP SWAP2 SWAP1 POP JUMP JUMPDEST PUSH1 0x0 PUSH1 0x20 DUP3 ADD SWAP1 POP DUP2 DUP2 SUB PUSH1 0x0 DUP4 ADD MSTORE PUSH2 0x3D53 DUP2 PUSH2 0x3D17 JUMP JUMPDEST SWAP1 POP SWAP2 SWAP1 POP JUMP JUMPDEST PUSH32 0x75736572206973206E6F742077686974656C6973746564000000000000000000 PUSH1 0x0 DUP3 ADD MSTORE POP JUMP JUMPDEST PUSH1 0x0 PUSH2 0x3D90 PUSH1 0x17 DUP4 PUSH2 0x2D70 JUMP JUMPDEST SWAP2 POP PUSH2 0x3D9B DUP3 PUSH2 0x3D5A JUMP JUMPDEST PUSH1 0x20 DUP3 ADD SWAP1 POP SWAP2 SWAP1 POP JUMP JUMPDEST PUSH1 0x0 PUSH1 0x20 DUP3 ADD SWAP1 POP DUP2 DUP2 SUB PUSH1 0x0 DUP4 ADD MSTORE PUSH2 0x3DBF DUP2 PUSH2 0x3D83 JUMP JUMPDEST SWAP1 POP SWAP2 SWAP1 POP JUMP JUMPDEST PUSH32 0x6D6178204E465420706572206164647265737320657863656564656400000000 PUSH1 0x0 DUP3 ADD MSTORE POP JUMP JUMPDEST PUSH1 0x0 PUSH2 0x3DFC PUSH1 0x1C DUP4 PUSH2 0x2D70 JUMP JUMPDEST SWAP2 POP PUSH2 0x3E07 DUP3 PUSH2 0x3DC6 JUMP JUMPDEST PUSH1 0x20 DUP3 ADD SWAP1 POP SWAP2 SWAP1 POP JUMP JUMPDEST PUSH1 0x0 PUSH1 0x20 DUP3 ADD SWAP1 POP DUP2 DUP2 SUB PUSH1 0x0 DUP4 ADD MSTORE PUSH2 0x3E2B DUP2 PUSH2 0x3DEF JUMP JUMPDEST SWAP1 POP SWAP2 SWAP1 POP JUMP JUMPDEST PUSH1 0x0 PUSH2 0x3E3D DUP3 PUSH2 0x2E17 JUMP JUMPDEST SWAP2 POP PUSH2 0x3E48 DUP4 PUSH2 0x2E17 JUMP JUMPDEST SWAP3 POP DUP3 DUP3 MUL PUSH2 0x3E56 DUP2 PUSH2 0x2E17 JUMP JUMPDEST SWAP2 POP DUP3 DUP3 DIV DUP5 EQ DUP4 ISZERO OR PUSH2 0x3E6D JUMPI PUSH2 0x3E6C PUSH2 0x3815 JUMP JUMPDEST JUMPDEST POP SWAP3 SWAP2 POP POP JUMP JUMPDEST PUSH32 0x696E73756666696369656E742066756E64730000000000000000000000000000 PUSH1 0x0 DUP3 ADD MSTORE POP JUMP JUMPDEST PUSH1 0x0 PUSH2 0x3EAA PUSH1 0x12 DUP4 PUSH2 0x2D70 JUMP JUMPDEST SWAP2 POP PUSH2 0x3EB5 DUP3 PUSH2 0x3E74 JUMP JUMPDEST PUSH1 0x20 DUP3 ADD SWAP1 POP SWAP2 SWAP1 POP JUMP JUMPDEST PUSH1 0x0 PUSH1 0x20 DUP3 ADD SWAP1 POP DUP2 DUP2 SUB PUSH1 0x0 DUP4 ADD MSTORE PUSH2 0x3ED9 DUP2 PUSH2 0x3E9D JUMP JUMPDEST SWAP1 POP SWAP2 SWAP1 POP JUMP JUMPDEST PUSH1 0x0 DUP2 SWAP1 POP SWAP3 SWAP2 POP POP JUMP JUMPDEST PUSH1 0x0 PUSH2 0x3EF6 DUP3 PUSH2 0x2D65 JUMP JUMPDEST PUSH2 0x3F00 DUP2 DUP6 PUSH2 0x3EE0 JUMP JUMPDEST SWAP4 POP PUSH2 0x3F10 DUP2 DUP6 PUSH1 0x20 DUP7 ADD PUSH2 0x2D81 JUMP JUMPDEST DUP1 DUP5 ADD SWAP2 POP POP SWAP3 SWAP2 POP POP JUMP JUMPDEST PUSH1 0x0 PUSH2 0x3F28 DUP3 DUP6 PUSH2 0x3EEB JUMP JUMPDEST SWAP2 POP PUSH2 0x3F34 DUP3 DUP5 PUSH2 0x3EEB JUMP JUMPDEST SWAP2 POP DUP2 SWAP1 POP SWAP4 SWAP3 POP POP POP JUMP JUMPDEST PUSH32 0x4F776E61626C653A206E6577206F776E657220697320746865207A65726F2061 PUSH1 0x0 DUP3 ADD MSTORE PUSH32 0x6464726573730000000000000000000000000000000000000000000000000000 PUSH1 0x20 DUP3 ADD MSTORE POP JUMP JUMPDEST PUSH1 0x0 PUSH2 0x3F9C PUSH1 0x26 DUP4 PUSH2 0x2D70 JUMP JUMPDEST SWAP2 POP PUSH2 0x3FA7 DUP3 PUSH2 0x3F40 JUMP JUMPDEST PUSH1 0x40 DUP3 ADD SWAP1 POP SWAP2 SWAP1 POP JUMP JUMPDEST PUSH1 0x0 PUSH1 0x20 DUP3 ADD SWAP1 POP DUP2 DUP2 SUB PUSH1 0x0 DUP4 ADD MSTORE PUSH2 0x3FCB DUP2 PUSH2 0x3F8F JUMP JUMPDEST SWAP1 POP SWAP2 SWAP1 POP JUMP JUMPDEST PUSH32 0x4F776E61626C653A2063616C6C6572206973206E6F7420746865206F776E6572 PUSH1 0x0 DUP3 ADD MSTORE POP JUMP JUMPDEST PUSH1 0x0 PUSH2 0x4008 PUSH1 0x20 DUP4 PUSH2 0x2D70 JUMP JUMPDEST SWAP2 POP PUSH2 0x4013 DUP3 PUSH2 0x3FD2 JUMP JUMPDEST PUSH1 0x20 DUP3 ADD SWAP1 POP SWAP2 SWAP1 POP JUMP JUMPDEST PUSH1 0x0 PUSH1 0x20 DUP3 ADD SWAP1 POP DUP2 DUP2 SUB PUSH1 0x0 DUP4 ADD MSTORE PUSH2 0x4037 DUP2 PUSH2 0x3FFB JUMP JUMPDEST SWAP1 POP SWAP2 SWAP1 POP JUMP JUMPDEST PUSH1 0x0 DUP2 MLOAD SWAP1 POP SWAP2 SWAP1 POP JUMP JUMPDEST PUSH1 0x0 DUP3 DUP3 MSTORE PUSH1 0x20 DUP3 ADD SWAP1 POP SWAP3 SWAP2 POP POP JUMP JUMPDEST PUSH1 0x0 PUSH2 0x4065 DUP3 PUSH2 0x403E JUMP JUMPDEST PUSH2 0x406F DUP2 DUP6 PUSH2 0x4049 JUMP JUMPDEST SWAP4 POP PUSH2 0x407F DUP2 DUP6 PUSH1 0x20 DUP7 ADD PUSH2 0x2D81 JUMP JUMPDEST PUSH2 0x4088 DUP2 PUSH2 0x2DAB JUMP JUMPDEST DUP5 ADD SWAP2 POP POP SWAP3 SWAP2 POP POP JUMP JUMPDEST PUSH1 0x0 PUSH1 0x80 DUP3 ADD SWAP1 POP PUSH2 0x40A8 PUSH1 0x0 DUP4 ADD DUP8 PUSH2 0x2EAC JUMP JUMPDEST PUSH2 0x40B5 PUSH1 0x20 DUP4 ADD DUP7 PUSH2 0x2EAC JUMP JUMPDEST PUSH2 0x40C2 PUSH1 0x40 DUP4 ADD DUP6 PUSH2 0x2F42 JUMP JUMPDEST DUP2 DUP2 SUB PUSH1 0x60 DUP4 ADD MSTORE PUSH2 0x40D4 DUP2 DUP5 PUSH2 0x405A JUMP JUMPDEST SWAP1 POP SWAP6 SWAP5 POP POP POP POP POP JUMP JUMPDEST PUSH1 0x0 DUP2 MLOAD SWAP1 POP PUSH2 0x40EE DUP2 PUSH2 0x2C7D JUMP JUMPDEST SWAP3 SWAP2 POP POP JUMP JUMPDEST PUSH1 0x0 PUSH1 0x20 DUP3 DUP5 SUB SLT ISZERO PUSH2 0x410A JUMPI PUSH2 0x4109 PUSH2 0x2C47 JUMP JUMPDEST JUMPDEST PUSH1 0x0 PUSH2 0x4118 DUP5 DUP3 DUP6 ADD PUSH2 0x40DF JUMP JUMPDEST SWAP2 POP POP SWAP3 SWAP2 POP POP JUMP INVALID LOG2 PUSH5 0x6970667358 0x22 SLT KECCAK256 SGT EXTCODEHASH 0xFC BYTE 0x1F 0xD9 DUP13 0xE1 PUSH24 0x42D139F0E4CC9EBD004396A197D264BE8EB33479DB395364 PUSH20 0x6F6C634300081100330000000000000000000000 "},"methodIdentifiers":{"addressMintedBalance(address)":"18cae269","approve(address,uint256)":"095ea7b3","balanceOf(address)":"70a08231","baseExtension()":"c6682862","baseURI()":"6c0360eb","cost()":"13faede6","explicitOwnershipOf(uint256)":"c23dc68f","explicitOwnershipsOf(uint256[])":"5bbb2177","getApproved(uint256)":"081812fc","isApprovedForAll(address,address)":"e985e9c5","isWhitelisted(address)":"3af32abf","maxMintAmount()":"239c70ae","maxSupply()":"d5abeb01","mint(uint256)":"a0712d68","name()":"06fdde03","nftPerAddressLimit()":"ba7d2c76","notRevealedUri()":"081c8c44","onlyWhitelisted()":"9c70b512","owner()":"8da5cb5b","ownerOf(uint256)":"6352211e","pause(bool)":"02329a29","paused()":"5c975abb","renounceOwnership()":"715018a6","reveal()":"a475b5dd","revealed()":"51830227","safeTransferFrom(address,address,uint256)":"42842e0e","safeTransferFrom(address,address,uint256,bytes)":"b88d4fde","setApprovalForAll(address,bool)":"a22cb465","setBaseExtension(string)":"da3ef23f","setBaseURI(string)":"55f804b3","setCost(uint256)":"44a0d68a","setNftPerAddressLimit(uint256)":"d0eb26b0","setNotRevealedURI(string)":"f2c4ce1e","setOnlyWhitelisted(bool)":"3c952764","setmaxMintAmount(uint256)":"7f00c7a6","supportsInterface(bytes4)":"01ffc9a7","symbol()":"95d89b41","tokenURI(uint256)":"c87b56dd","tokensOfOwner(address)":"8462151c","tokensOfOwnerIn(address,uint256,uint256)":"99a2557a","totalSupply()":"18160ddd","transferFrom(address,address,uint256)":"23b872dd","transferOwnership(address)":"f2fde38b","whitelistUsers(address[])":"edec5f27","whitelistedAddresses(uint256)":"ba4e5c49","withdraw()":"3ccfd60b"}}}}}