{
  "_format": "hh-sol-artifact-1",
  "contractName": "Tokemon",
  "sourceName": "contracts/Tokemon.sol",
  "abi": [
    {
      "inputs": [
        {
          "internalType": "string",
          "name": "_name",
          "type": "string"
        },
        {
          "internalType": "string",
          "name": "_symbol",
          "type": "string"
        },
        {
          "internalType": "string",
          "name": "_initBaseURI",
          "type": "string"
        },
        {
          "internalType": "string",
          "name": "_initNotRevealedUri",
          "type": "string"
        }
      ],
      "stateMutability": "nonpayable",
      "type": "constructor"
    },
    {
      "anonymous": false,
      "inputs": [
        {
          "indexed": true,
          "internalType": "address",
          "name": "owner",
          "type": "address"
        },
        {
          "indexed": true,
          "internalType": "address",
          "name": "approved",
          "type": "address"
        },
        {
          "indexed": true,
          "internalType": "uint256",
          "name": "tokenId",
          "type": "uint256"
        }
      ],
      "name": "Approval",
      "type": "event"
    },
    {
      "anonymous": false,
      "inputs": [
        {
          "indexed": true,
          "internalType": "address",
          "name": "owner",
          "type": "address"
        },
        {
          "indexed": true,
          "internalType": "address",
          "name": "operator",
          "type": "address"
        },
        {
          "indexed": false,
          "internalType": "bool",
          "name": "approved",
          "type": "bool"
        }
      ],
      "name": "ApprovalForAll",
      "type": "event"
    },
    {
      "anonymous": false,
      "inputs": [
        {
          "indexed": true,
          "internalType": "address",
          "name": "previousOwner",
          "type": "address"
        },
        {
          "indexed": true,
          "internalType": "address",
          "name": "newOwner",
          "type": "address"
        }
      ],
      "name": "OwnershipTransferred",
      "type": "event"
    },
    {
      "anonymous": false,
      "inputs": [
        {
          "indexed": true,
          "internalType": "address",
          "name": "from",
          "type": "address"
        },
        {
          "indexed": true,
          "internalType": "address",
          "name": "to",
          "type": "address"
        },
        {
          "indexed": true,
          "internalType": "uint256",
          "name": "tokenId",
          "type": "uint256"
        }
      ],
      "name": "Transfer",
      "type": "event"
    },
    {
      "inputs": [
        {
          "internalType": "address",
          "name": "",
          "type": "address"
        }
      ],
      "name": "addressMintedBalance",
      "outputs": [
        {
          "internalType": "uint256",
          "name": "",
          "type": "uint256"
        }
      ],
      "stateMutability": "view",
      "type": "function"
    },
    {
      "inputs": [
        {
          "internalType": "address",
          "name": "to",
          "type": "address"
        },
        {
          "internalType": "uint256",
          "name": "tokenId",
          "type": "uint256"
        }
      ],
      "name": "approve",
      "outputs": [],
      "stateMutability": "nonpayable",
      "type": "function"
    },
    {
      "inputs": [
        {
          "internalType": "address",
          "name": "owner",
          "type": "address"
        }
      ],
      "name": "balanceOf",
      "outputs": [
        {
          "internalType": "uint256",
          "name": "",
          "type": "uint256"
        }
      ],
      "stateMutability": "view",
      "type": "function"
    },
    {
      "inputs": [],
      "name": "baseExtension",
      "outputs": [
        {
          "internalType": "string",
          "name": "",
          "type": "string"
        }
      ],
      "stateMutability": "view",
      "type": "function"
    },
    {
      "inputs": [],
      "name": "baseURI",
      "outputs": [
        {
          "internalType": "string",
          "name": "",
          "type": "string"
        }
      ],
      "stateMutability": "view",
      "type": "function"
    },
    {
      "inputs": [],
      "name": "cost",
      "outputs": [
        {
          "internalType": "uint256",
          "name": "",
          "type": "uint256"
        }
      ],
      "stateMutability": "view",
      "type": "function"
    },
    {
      "inputs": [
        {
          "internalType": "uint256",
          "name": "tokenId",
          "type": "uint256"
        }
      ],
      "name": "getApproved",
      "outputs": [
        {
          "internalType": "address",
          "name": "",
          "type": "address"
        }
      ],
      "stateMutability": "view",
      "type": "function"
    },
    {
      "inputs": [
        {
          "internalType": "address",
          "name": "owner",
          "type": "address"
        },
        {
          "internalType": "address",
          "name": "operator",
          "type": "address"
        }
      ],
      "name": "isApprovedForAll",
      "outputs": [
        {
          "internalType": "bool",
          "name": "",
          "type": "bool"
        }
      ],
      "stateMutability": "view",
      "type": "function"
    },
    {
      "inputs": [
        {
          "internalType": "address",
          "name": "_user",
          "type": "address"
        }
      ],
      "name": "isWhitelisted",
      "outputs": [
        {
          "internalType": "bool",
          "name": "",
          "type": "bool"
        }
      ],
      "stateMutability": "view",
      "type": "function"
    },
    {
      "inputs": [],
      "name": "maxMintAmount",
      "outputs": [
        {
          "internalType": "uint256",
          "name": "",
          "type": "uint256"
        }
      ],
      "stateMutability": "view",
      "type": "function"
    },
    {
      "inputs": [],
      "name": "maxSupply",
      "outputs": [
        {
          "internalType": "uint256",
          "name": "",
          "type": "uint256"
        }
      ],
      "stateMutability": "view",
      "type": "function"
    },
    {
      "inputs": [
        {
          "internalType": "uint256",
          "name": "_mintAmount",
          "type": "uint256"
        }
      ],
      "name": "mint",
      "outputs": [],
      "stateMutability": "payable",
      "type": "function"
    },
    {
      "inputs": [],
      "name": "name",
      "outputs": [
        {
          "internalType": "string",
          "name": "",
          "type": "string"
        }
      ],
      "stateMutability": "view",
      "type": "function"
    },
    {
      "inputs": [],
      "name": "nftPerAddressLimit",
      "outputs": [
        {
          "internalType": "uint256",
          "name": "",
          "type": "uint256"
        }
      ],
      "stateMutability": "view",
      "type": "function"
    },
    {
      "inputs": [],
      "name": "notRevealedUri",
      "outputs": [
        {
          "internalType": "string",
          "name": "",
          "type": "string"
        }
      ],
      "stateMutability": "view",
      "type": "function"
    },
    {
      "inputs": [],
      "name": "onlyWhitelisted",
      "outputs": [
        {
          "internalType": "bool",
          "name": "",
          "type": "bool"
        }
      ],
      "stateMutability": "view",
      "type": "function"
    },
    {
      "inputs": [],
      "name": "owner",
      "outputs": [
        {
          "internalType": "address",
          "name": "",
          "type": "address"
        }
      ],
      "stateMutability": "view",
      "type": "function"
    },
    {
      "inputs": [
        {
          "internalType": "uint256",
          "name": "tokenId",
          "type": "uint256"
        }
      ],
      "name": "ownerOf",
      "outputs": [
        {
          "internalType": "address",
          "name": "",
          "type": "address"
        }
      ],
      "stateMutability": "view",
      "type": "function"
    },
    {
      "inputs": [
        {
          "internalType": "bool",
          "name": "_state",
          "type": "bool"
        }
      ],
      "name": "pause",
      "outputs": [],
      "stateMutability": "nonpayable",
      "type": "function"
    },
    {
      "inputs": [],
      "name": "paused",
      "outputs": [
        {
          "internalType": "bool",
          "name": "",
          "type": "bool"
        }
      ],
      "stateMutability": "view",
      "type": "function"
    },
    {
      "inputs": [],
      "name": "renounceOwnership",
      "outputs": [],
      "stateMutability": "nonpayable",
      "type": "function"
    },
    {
      "inputs": [],
      "name": "reveal",
      "outputs": [],
      "stateMutability": "nonpayable",
      "type": "function"
    },
    {
      "inputs": [],
      "name": "revealed",
      "outputs": [
        {
          "internalType": "bool",
          "name": "",
          "type": "bool"
        }
      ],
      "stateMutability": "view",
      "type": "function"
    },
    {
      "inputs": [
        {
          "internalType": "address",
          "name": "from",
          "type": "address"
        },
        {
          "internalType": "address",
          "name": "to",
          "type": "address"
        },
        {
          "internalType": "uint256",
          "name": "tokenId",
          "type": "uint256"
        }
      ],
      "name": "safeTransferFrom",
      "outputs": [],
      "stateMutability": "nonpayable",
      "type": "function"
    },
    {
      "inputs": [
        {
          "internalType": "address",
          "name": "from",
          "type": "address"
        },
        {
          "internalType": "address",
          "name": "to",
          "type": "address"
        },
        {
          "internalType": "uint256",
          "name": "tokenId",
          "type": "uint256"
        },
        {
          "internalType": "bytes",
          "name": "data",
          "type": "bytes"
        }
      ],
      "name": "safeTransferFrom",
      "outputs": [],
      "stateMutability": "nonpayable",
      "type": "function"
    },
    {
      "inputs": [
        {
          "internalType": "address",
          "name": "operator",
          "type": "address"
        },
        {
          "internalType": "bool",
          "name": "approved",
          "type": "bool"
        }
      ],
      "name": "setApprovalForAll",
      "outputs": [],
      "stateMutability": "nonpayable",
      "type": "function"
    },
    {
      "inputs": [
        {
          "internalType": "string",
          "name": "_newBaseExtension",
          "type": "string"
        }
      ],
      "name": "setBaseExtension",
      "outputs": [],
      "stateMutability": "nonpayable",
      "type": "function"
    },
    {
      "inputs": [
        {
          "internalType": "string",
          "name": "_newBaseURI",
          "type": "string"
        }
      ],
      "name": "setBaseURI",
      "outputs": [],
      "stateMutability": "nonpayable",
      "type": "function"
    },
    {
      "inputs": [
        {
          "internalType": "uint256",
          "name": "_newCost",
          "type": "uint256"
        }
      ],
      "name": "setCost",
      "outputs": [],
      "stateMutability": "nonpayable",
      "type": "function"
    },
    {
      "inputs": [
        {
          "internalType": "uint256",
          "name": "_limit",
          "type": "uint256"
        }
      ],
      "name": "setNftPerAddressLimit",
      "outputs": [],
      "stateMutability": "nonpayable",
      "type": "function"
    },
    {
      "inputs": [
        {
          "internalType": "string",
          "name": "_notRevealedURI",
          "type": "string"
        }
      ],
      "name": "setNotRevealedURI",
      "outputs": [],
      "stateMutability": "nonpayable",
      "type": "function"
    },
    {
      "inputs": [
        {
          "internalType": "bool",
          "name": "_state",
          "type": "bool"
        }
      ],
      "name": "setOnlyWhitelisted",
      "outputs": [],
      "stateMutability": "nonpayable",
      "type": "function"
    },
    {
      "inputs": [
        {
          "internalType": "uint256",
          "name": "_newmaxMintAmount",
          "type": "uint256"
        }
      ],
      "name": "setmaxMintAmount",
      "outputs": [],
      "stateMutability": "nonpayable",
      "type": "function"
    },
    {
      "inputs": [
        {
          "internalType": "bytes4",
          "name": "interfaceId",
          "type": "bytes4"
        }
      ],
      "name": "supportsInterface",
      "outputs": [
        {
          "internalType": "bool",
          "name": "",
          "type": "bool"
        }
      ],
      "stateMutability": "view",
      "type": "function"
    },
    {
      "inputs": [],
      "name": "symbol",
      "outputs": [
        {
          "internalType": "string",
          "name": "",
          "type": "string"
        }
      ],
      "stateMutability": "view",
      "type": "function"
    },
    {
      "inputs": [
        {
          "internalType": "uint256",
          "name": "index",
          "type": "uint256"
        }
      ],
      "name": "tokenByIndex",
      "outputs": [
        {
          "internalType": "uint256",
          "name": "",
          "type": "uint256"
        }
      ],
      "stateMutability": "view",
      "type": "function"
    },
    {
      "inputs": [
        {
          "internalType": "address",
          "name": "owner",
          "type": "address"
        },
        {
          "internalType": "uint256",
          "name": "index",
          "type": "uint256"
        }
      ],
      "name": "tokenOfOwnerByIndex",
      "outputs": [
        {
          "internalType": "uint256",
          "name": "",
          "type": "uint256"
        }
      ],
      "stateMutability": "view",
      "type": "function"
    },
    {
      "inputs": [
        {
          "internalType": "uint256",
          "name": "tokenId",
          "type": "uint256"
        }
      ],
      "name": "tokenURI",
      "outputs": [
        {
          "internalType": "string",
          "name": "",
          "type": "string"
        }
      ],
      "stateMutability": "view",
      "type": "function"
    },
    {
      "inputs": [],
      "name": "totalSupply",
      "outputs": [
        {
          "internalType": "uint256",
          "name": "",
          "type": "uint256"
        }
      ],
      "stateMutability": "view",
      "type": "function"
    },
    {
      "inputs": [
        {
          "internalType": "address",
          "name": "from",
          "type": "address"
        },
        {
          "internalType": "address",
          "name": "to",
          "type": "address"
        },
        {
          "internalType": "uint256",
          "name": "tokenId",
          "type": "uint256"
        }
      ],
      "name": "transferFrom",
      "outputs": [],
      "stateMutability": "nonpayable",
      "type": "function"
    },
    {
      "inputs": [
        {
          "internalType": "address",
          "name": "newOwner",
          "type": "address"
        }
      ],
      "name": "transferOwnership",
      "outputs": [],
      "stateMutability": "nonpayable",
      "type": "function"
    },
    {
      "inputs": [
        {
          "internalType": "address",
          "name": "_owner",
          "type": "address"
        }
      ],
      "name": "walletOfOwner",
      "outputs": [
        {
          "internalType": "uint256[]",
          "name": "",
          "type": "uint256[]"
        }
      ],
      "stateMutability": "view",
      "type": "function"
    },
    {
      "inputs": [
        {
          "internalType": "address[]",
          "name": "_users",
          "type": "address[]"
        }
      ],
      "name": "whitelistUsers",
      "outputs": [],
      "stateMutability": "nonpayable",
      "type": "function"
    },
    {
      "inputs": [
        {
          "internalType": "uint256",
          "name": "",
          "type": "uint256"
        }
      ],
      "name": "whitelistedAddresses",
      "outputs": [
        {
          "internalType": "address",
          "name": "",
          "type": "address"
        }
      ],
      "stateMutability": "view",
      "type": "function"
    },
    {
      "inputs": [],
      "name": "withdraw",
      "outputs": [],
      "stateMutability": "payable",
      "type": "function"
    }
  ],
  "bytecode": "0x60806040526040518060400160405280600581526020017f2e6a736f6e000000000000000000000000000000000000000000000000000000815250600c90816200004a9190620005aa565b5066038d7ea4c68000600e556064600f55600160105560016011556000601260006101000a81548160ff0219169083151502179055506000601260016101000a81548160ff0219169083151502179055506000601260026101000a81548160ff021916908315150217905550348015620000c357600080fd5b5060405162005479380380620054798339818101604052810190620000e99190620007f5565b83838160009081620000fc9190620005aa565b5080600190816200010e9190620005aa565b50505062000131620001256200015d60201b60201c565b6200016560201b60201c565b62000142826200022b60201b60201c565b62000153816200025060201b60201c565b5050505062000966565b600033905090565b6000600a60009054906101000a900473ffffffffffffffffffffffffffffffffffffffff16905081600a60006101000a81548173ffffffffffffffffffffffffffffffffffffffff021916908373ffffffffffffffffffffffffffffffffffffffff1602179055508173ffffffffffffffffffffffffffffffffffffffff168173ffffffffffffffffffffffffffffffffffffffff167f8be0079c531659141344cd1fd0a4f28419497f9722a3daafe3b4186f6b6457e060405160405180910390a35050565b6200023b6200027560201b60201c565b80600b90816200024c9190620005aa565b5050565b620002606200027560201b60201c565b80600d9081620002719190620005aa565b5050565b620002856200015d60201b60201c565b73ffffffffffffffffffffffffffffffffffffffff16620002ab6200030660201b60201c565b73ffffffffffffffffffffffffffffffffffffffff161462000304576040517f08c379a0000000000000000000000000000000000000000000000000000000008152600401620002fb9062000944565b60405180910390fd5b565b6000600a60009054906101000a900473ffffffffffffffffffffffffffffffffffffffff16905090565b600081519050919050565b7f4e487b7100000000000000000000000000000000000000000000000000000000600052604160045260246000fd5b7f4e487b7100000000000000000000000000000000000000000000000000000000600052602260045260246000fd5b60006002820490506001821680620003b257607f821691505b602082108103620003c857620003c76200036a565b5b50919050565b60008190508160005260206000209050919050565b60006020601f8301049050919050565b600082821b905092915050565b600060088302620004327fffffffffffffffffffffffffffffffffffffffffffffffffffffffffffffffff82620003f3565b6200043e8683620003f3565b95508019841693508086168417925050509392505050565b6000819050919050565b6000819050919050565b60006200048b620004856200047f8462000456565b62000460565b62000456565b9050919050565b6000819050919050565b620004a7836200046a565b620004bf620004b68262000492565b84845462000400565b825550505050565b600090565b620004d6620004c7565b620004e38184846200049c565b505050565b5b818110156200050b57620004ff600082620004cc565b600181019050620004e9565b5050565b601f8211156200055a576200052481620003ce565b6200052f84620003e3565b810160208510156200053f578190505b620005576200054e85620003e3565b830182620004e8565b50505b505050565b600082821c905092915050565b60006200057f600019846008026200055f565b1980831691505092915050565b60006200059a83836200056c565b9150826002028217905092915050565b620005b58262000330565b67ffffffffffffffff811115620005d157620005d06200033b565b5b620005dd825462000399565b620005ea8282856200050f565b600060209050601f8311600181146200062257600084156200060d578287015190505b6200061985826200058c565b86555062000689565b601f1984166200063286620003ce565b60005b828110156200065c5784890151825560018201915060208501945060208101905062000635565b868310156200067c578489015162000678601f8916826200056c565b8355505b6001600288020188555050505b505050505050565b6000604051905090565b600080fd5b600080fd5b600080fd5b600080fd5b6000601f19601f8301169050919050565b620006cb82620006af565b810181811067ffffffffffffffff82111715620006ed57620006ec6200033b565b5b80604052505050565b60006200070262000691565b9050620007108282620006c0565b919050565b600067ffffffffffffffff8211156200073357620007326200033b565b5b6200073e82620006af565b9050602081019050919050565b60005b838110156200076b5780820151818401526020810190506200074e565b60008484015250505050565b60006200078e620007888462000715565b620006f6565b905082815260208101848484011115620007ad57620007ac620006aa565b5b620007ba8482856200074b565b509392505050565b600082601f830112620007da57620007d9620006a5565b5b8151620007ec84826020860162000777565b91505092915050565b600080600080608085870312156200081257620008116200069b565b5b600085015167ffffffffffffffff811115620008335762000832620006a0565b5b6200084187828801620007c2565b945050602085015167ffffffffffffffff811115620008655762000864620006a0565b5b6200087387828801620007c2565b935050604085015167ffffffffffffffff811115620008975762000896620006a0565b5b620008a587828801620007c2565b925050606085015167ffffffffffffffff811115620008c957620008c8620006a0565b5b620008d787828801620007c2565b91505092959194509250565b600082825260208201905092915050565b7f4f776e61626c653a2063616c6c6572206973206e6f7420746865206f776e6572600082015250565b60006200092c602083620008e3565b91506200093982620008f4565b602082019050919050565b600060208201905081810360008301526200095f816200091d565b9050919050565b614b0380620009766000396000f3fe6080604052600436106102725760003560e01c80636352211e1161014f578063b88d4fde116100c1578063d5abeb011161007a578063d5abeb011461095c578063da3ef23f14610987578063e985e9c5146109b0578063edec5f27146109ed578063f2c4ce1e14610a16578063f2fde38b14610a3f57610272565b8063b88d4fde1461083a578063ba4e5c4914610863578063ba7d2c76146108a0578063c6682862146108cb578063c87b56dd146108f6578063d0eb26b01461093357610272565b80638da5cb5b116101135780638da5cb5b1461075d57806395d89b41146107885780639c70b512146107b3578063a0712d68146107de578063a22cb465146107fa578063a475b5dd1461082357610272565b80636352211e146106785780636c0360eb146106b557806370a08231146106e0578063715018a61461071d5780637f00c7a61461073457610272565b80632f745c59116101e8578063438b6300116101ac578063438b63001461055657806344a0d68a146105935780634f6ccce7146105bc57806351830227146105f957806355f804b3146106245780635c975abb1461064d57610272565b80632f745c59146104805780633af32abf146104bd5780633c952764146104fa5780633ccfd60b1461052357806342842e0e1461052d57610272565b8063095ea7b31161023a578063095ea7b31461037057806313faede61461039957806318160ddd146103c457806318cae269146103ef578063239c70ae1461042c57806323b872dd1461045757610272565b806301ffc9a71461027757806302329a29146102b457806306fdde03146102dd578063081812fc14610308578063081c8c4414610345575b600080fd5b34801561028357600080fd5b5061029e60048036038101906102999190613058565b610a68565b6040516102ab91906130a0565b60405180910390f35b3480156102c057600080fd5b506102db60048036038101906102d691906130e7565b610ae2565b005b3480156102e957600080fd5b506102f2610b07565b6040516102ff91906131a4565b60405180910390f35b34801561031457600080fd5b5061032f600480360381019061032a91906131fc565b610b99565b60405161033c919061326a565b60405180910390f35b34801561035157600080fd5b5061035a610bdf565b60405161036791906131a4565b60405180910390f35b34801561037c57600080fd5b50610397600480360381019061039291906132b1565b610c6d565b005b3480156103a557600080fd5b506103ae610d84565b6040516103bb9190613300565b60405180910390f35b3480156103d057600080fd5b506103d9610d8a565b6040516103e69190613300565b60405180910390f35b3480156103fb57600080fd5b506104166004803603810190610411919061331b565b610d97565b6040516104239190613300565b60405180910390f35b34801561043857600080fd5b50610441610daf565b60405161044e9190613300565b60405180910390f35b34801561046357600080fd5b5061047e60048036038101906104799190613348565b610db5565b005b34801561048c57600080fd5b506104a760048036038101906104a291906132b1565b610e15565b6040516104b49190613300565b60405180910390f35b3480156104c957600080fd5b506104e460048036038101906104df919061331b565b610eba565b6040516104f191906130a0565b60405180910390f35b34801561050657600080fd5b50610521600480360381019061051c91906130e7565b610f68565b005b61052b610f8d565b005b34801561053957600080fd5b50610554600480360381019061054f9190613348565b611015565b005b34801561056257600080fd5b5061057d6004803603810190610578919061331b565b611035565b60405161058a9190613459565b60405180910390f35b34801561059f57600080fd5b506105ba60048036038101906105b591906131fc565b6110e3565b005b3480156105c857600080fd5b506105e360048036038101906105de91906131fc565b6110f5565b6040516105f09190613300565b60405180910390f35b34801561060557600080fd5b5061060e611166565b60405161061b91906130a0565b60405180910390f35b34801561063057600080fd5b5061064b600480360381019061064691906135b0565b611179565b005b34801561065957600080fd5b50610662611194565b60405161066f91906130a0565b60405180910390f35b34801561068457600080fd5b5061069f600480360381019061069a91906131fc565b6111a7565b6040516106ac919061326a565b60405180910390f35b3480156106c157600080fd5b506106ca611258565b6040516106d791906131a4565b60405180910390f35b3480156106ec57600080fd5b506107076004803603810190610702919061331b565b6112e6565b6040516107149190613300565b60405180910390f35b34801561072957600080fd5b5061073261139d565b005b34801561074057600080fd5b5061075b600480360381019061075691906131fc565b6113b1565b005b34801561076957600080fd5b506107726113c3565b60405161077f919061326a565b60405180910390f35b34801561079457600080fd5b5061079d6113ed565b6040516107aa91906131a4565b60405180910390f35b3480156107bf57600080fd5b506107c861147f565b6040516107d591906130a0565b60405180910390f35b6107f860048036038101906107f391906131fc565b611492565b005b34801561080657600080fd5b50610821600480360381019061081c91906135f9565b6117da565b005b34801561082f57600080fd5b506108386117f0565b005b34801561084657600080fd5b50610861600480360381019061085c91906136da565b611815565b005b34801561086f57600080fd5b5061088a600480360381019061088591906131fc565b611877565b604051610897919061326a565b60405180910390f35b3480156108ac57600080fd5b506108b56118b6565b6040516108c29190613300565b60405180910390f35b3480156108d757600080fd5b506108e06118bc565b6040516108ed91906131a4565b60405180910390f35b34801561090257600080fd5b5061091d600480360381019061091891906131fc565b61194a565b60405161092a91906131a4565b60405180910390f35b34801561093f57600080fd5b5061095a600480360381019061095591906131fc565b611aa2565b005b34801561096857600080fd5b50610971611ab4565b60405161097e9190613300565b60405180910390f35b34801561099357600080fd5b506109ae60048036038101906109a991906135b0565b611aba565b005b3480156109bc57600080fd5b506109d760048036038101906109d2919061375d565b611ad5565b6040516109e491906130a0565b60405180910390f35b3480156109f957600080fd5b50610a146004803603810190610a0f91906137fd565b611b69565b005b348015610a2257600080fd5b50610a3d6004803603810190610a3891906135b0565b611b95565b005b348015610a4b57600080fd5b50610a666004803603810190610a61919061331b565b611bb0565b005b60007f780e9d63000000000000000000000000000000000000000000000000000000007bffffffffffffffffffffffffffffffffffffffffffffffffffffffff1916827bffffffffffffffffffffffffffffffffffffffffffffffffffffffff19161480610adb5750610ada82611c33565b5b9050919050565b610aea611d15565b80601260006101000a81548160ff02191690831515021790555050565b606060008054610b1690613879565b80601f0160208091040260200160405190810160405280929190818152602001828054610b4290613879565b8015610b8f5780601f10610b6457610100808354040283529160200191610b8f565b820191906000526020600020905b815481529060010190602001808311610b7257829003601f168201915b5050505050905090565b6000610ba482611d93565b6004600083815260200190815260200160002060009054906101000a900473ffffffffffffffffffffffffffffffffffffffff169050919050565b600d8054610bec90613879565b80601f0160208091040260200160405190810160405280929190818152602001828054610c1890613879565b8015610c655780601f10610c3a57610100808354040283529160200191610c65565b820191906000526020600020905b815481529060010190602001808311610c4857829003601f168201915b505050505081565b6000610c78826111a7565b90508073ffffffffffffffffffffffffffffffffffffffff168373ffffffffffffffffffffffffffffffffffffffff1603610ce8576040517f08c379a0000000000000000000000000000000000000000000000000000000008152600401610cdf9061391c565b60405180910390fd5b8073ffffffffffffffffffffffffffffffffffffffff16610d07611dde565b73ffffffffffffffffffffffffffffffffffffffff161480610d365750610d3581610d30611dde565b611ad5565b5b610d75576040517f08c379a0000000000000000000000000000000000000000000000000000000008152600401610d6c906139ae565b60405180910390fd5b610d7f8383611de6565b505050565b600e5481565b6000600880549050905090565b60146020528060005260406000206000915090505481565b60105481565b610dc6610dc0611dde565b82611e9f565b610e05576040517f08c379a0000000000000000000000000000000000000000000000000000000008152600401610dfc90613a40565b60405180910390fd5b610e10838383611f34565b505050565b6000610e20836112e6565b8210610e61576040517f08c379a0000000000000000000000000000000000000000000000000000000008152600401610e5890613ad2565b60405180910390fd5b600660008473ffffffffffffffffffffffffffffffffffffffff1673ffffffffffffffffffffffffffffffffffffffff168152602001908152602001600020600083815260200190815260200160002054905092915050565b600080600090505b601380549050811015610f5d578273ffffffffffffffffffffffffffffffffffffffff1660138281548110610efa57610ef9613af2565b5b9060005260206000200160009054906101000a900473ffffffffffffffffffffffffffffffffffffffff1673ffffffffffffffffffffffffffffffffffffffff1603610f4a576001915050610f63565b8080610f5590613b50565b915050610ec2565b50600090505b919050565b610f70611d15565b80601260026101000a81548160ff02191690831515021790555050565b610f95611d15565b6000610f9f6113c3565b73ffffffffffffffffffffffffffffffffffffffff1647604051610fc290613bc9565b60006040518083038185875af1925050503d8060008114610fff576040519150601f19603f3d011682016040523d82523d6000602084013e611004565b606091505b505090508061101257600080fd5b50565b61103083838360405180602001604052806000815250611815565b505050565b60606000611042836112e6565b905060008167ffffffffffffffff8111156110605761105f613485565b5b60405190808252806020026020018201604052801561108e5781602001602082028036833780820191505090505b50905060005b828110156110d8576110a68582610e15565b8282815181106110b9576110b8613af2565b5b60200260200101818152505080806110d090613b50565b915050611094565b508092505050919050565b6110eb611d15565b80600e8190555050565b60006110ff610d8a565b8210611140576040517f08c379a000000000000000000000000000000000000000000000000000000000815260040161113790613c50565b60405180910390fd5b6008828154811061115457611153613af2565b5b90600052602060002001549050919050565b601260019054906101000a900460ff1681565b611181611d15565b80600b90816111909190613e1c565b5050565b601260009054906101000a900460ff1681565b6000806002600084815260200190815260200160002060009054906101000a900473ffffffffffffffffffffffffffffffffffffffff169050600073ffffffffffffffffffffffffffffffffffffffff168173ffffffffffffffffffffffffffffffffffffffff160361124f576040517f08c379a000000000000000000000000000000000000000000000000000000000815260040161124690613f3a565b60405180910390fd5b80915050919050565b600b805461126590613879565b80601f016020809104026020016040519081016040528092919081815260200182805461129190613879565b80156112de5780601f106112b3576101008083540402835291602001916112de565b820191906000526020600020905b8154815290600101906020018083116112c157829003601f168201915b505050505081565b60008073ffffffffffffffffffffffffffffffffffffffff168273ffffffffffffffffffffffffffffffffffffffff1603611356576040517f08c379a000000000000000000000000000000000000000000000000000000000815260040161134d90613fcc565b60405180910390fd5b600360008373ffffffffffffffffffffffffffffffffffffffff1673ffffffffffffffffffffffffffffffffffffffff168152602001908152602001600020549050919050565b6113a5611d15565b6113af600061219a565b565b6113b9611d15565b8060108190555050565b6000600a60009054906101000a900473ffffffffffffffffffffffffffffffffffffffff16905090565b6060600180546113fc90613879565b80601f016020809104026020016040519081016040528092919081815260200182805461142890613879565b80156114755780601f1061144a57610100808354040283529160200191611475565b820191906000526020600020905b81548152906001019060200180831161145857829003601f168201915b5050505050905090565b601260029054906101000a900460ff1681565b601260009054906101000a900460ff16156114e2576040517f08c379a00000000000000000000000000000000000000000000000000000000081526004016114d990614038565b60405180910390fd5b60006114ec610d8a565b905060008211611531576040517f08c379a0000000000000000000000000000000000000000000000000000000008152600401611528906140a4565b60405180910390fd5b601054821115611576576040517f08c379a000000000000000000000000000000000000000000000000000000000815260040161156d90614136565b60405180910390fd5b600f5482826115859190614156565b11156115c6576040517f08c379a00000000000000000000000000000000000000000000000000000000081526004016115bd906141d6565b60405180910390fd5b6115ce6113c3565b73ffffffffffffffffffffffffffffffffffffffff163373ffffffffffffffffffffffffffffffffffffffff161461174a5760011515601260029054906101000a900460ff161515036116f95761162433610eba565b611663576040517f08c379a000000000000000000000000000000000000000000000000000000000815260040161165a90614242565b60405180910390fd5b6000601460003373ffffffffffffffffffffffffffffffffffffffff1673ffffffffffffffffffffffffffffffffffffffff16815260200190815260200160002054905060115483826116b69190614156565b11156116f7576040517f08c379a00000000000000000000000000000000000000000000000000000000081526004016116ee906142ae565b60405180910390fd5b505b81600e5461170791906142ce565b341015611749576040517f08c379a00000000000000000000000000000000000000000000000000000000081526004016117409061435c565b60405180910390fd5b5b6000600190505b8281116117d557601460003373ffffffffffffffffffffffffffffffffffffffff1673ffffffffffffffffffffffffffffffffffffffff16815260200190815260200160002060008154809291906117a890613b50565b91905055506117c23382846117bd9190614156565b612260565b80806117cd90613b50565b915050611751565b505050565b6117ec6117e5611dde565b838361227e565b5050565b6117f8611d15565b6001601260016101000a81548160ff021916908315150217905550565b611826611820611dde565b83611e9f565b611865576040517f08c379a000000000000000000000000000000000000000000000000000000000815260040161185c90613a40565b60405180910390fd5b611871848484846123ea565b50505050565b6013818154811061188757600080fd5b906000526020600020016000915054906101000a900473ffffffffffffffffffffffffffffffffffffffff1681565b60115481565b600c80546118c990613879565b80601f01602080910402602001604051908101604052809291908181526020018280546118f590613879565b80156119425780601f1061191757610100808354040283529160200191611942565b820191906000526020600020905b81548152906001019060200180831161192557829003601f168201915b505050505081565b606061195582612446565b611994576040517f08c379a000000000000000000000000000000000000000000000000000000000815260040161198b906143ee565b60405180910390fd5b60001515601260019054906101000a900460ff16151503611a4157600d80546119bc90613879565b80601f01602080910402602001604051908101604052809291908181526020018280546119e890613879565b8015611a355780601f10611a0a57610100808354040283529160200191611a35565b820191906000526020600020905b815481529060010190602001808311611a1857829003601f168201915b50505050509050611a9d565b6000611a4b6124b2565b90506000815111611a6b5760405180602001604052806000815250611a99565b80611a7584612544565b600c604051602001611a89939291906144cd565b6040516020818303038152906040525b9150505b919050565b611aaa611d15565b8060118190555050565b600f5481565b611ac2611d15565b80600c9081611ad19190613e1c565b5050565b6000600560008473ffffffffffffffffffffffffffffffffffffffff1673ffffffffffffffffffffffffffffffffffffffff16815260200190815260200160002060008373ffffffffffffffffffffffffffffffffffffffff1673ffffffffffffffffffffffffffffffffffffffff16815260200190815260200160002060009054906101000a900460ff16905092915050565b611b71611d15565b60136000611b7f9190612f0e565b818160139190611b90929190612f2f565b505050565b611b9d611d15565b80600d9081611bac9190613e1c565b5050565b611bb8611d15565b600073ffffffffffffffffffffffffffffffffffffffff168173ffffffffffffffffffffffffffffffffffffffff1603611c27576040517f08c379a0000000000000000000000000000000000000000000000000000000008152600401611c1e90614570565b60405180910390fd5b611c308161219a565b50565b60007f80ac58cd000000000000000000000000000000000000000000000000000000007bffffffffffffffffffffffffffffffffffffffffffffffffffffffff1916827bffffffffffffffffffffffffffffffffffffffffffffffffffffffff19161480611cfe57507f5b5e139f000000000000000000000000000000000000000000000000000000007bffffffffffffffffffffffffffffffffffffffffffffffffffffffff1916827bffffffffffffffffffffffffffffffffffffffffffffffffffffffff1916145b80611d0e5750611d0d826126a4565b5b9050919050565b611d1d611dde565b73ffffffffffffffffffffffffffffffffffffffff16611d3b6113c3565b73ffffffffffffffffffffffffffffffffffffffff1614611d91576040517f08c379a0000000000000000000000000000000000000000000000000000000008152600401611d88906145dc565b60405180910390fd5b565b611d9c81612446565b611ddb576040517f08c379a0000000000000000000000000000000000000000000000000000000008152600401611dd290613f3a565b60405180910390fd5b50565b600033905090565b816004600083815260200190815260200160002060006101000a81548173ffffffffffffffffffffffffffffffffffffffff021916908373ffffffffffffffffffffffffffffffffffffffff160217905550808273ffffffffffffffffffffffffffffffffffffffff16611e59836111a7565b73ffffffffffffffffffffffffffffffffffffffff167f8c5be1e5ebec7d5bd14f71427d1e84f3dd0314c0f7b2291e5b200ac8c7c3b92560405160405180910390a45050565b600080611eab836111a7565b90508073ffffffffffffffffffffffffffffffffffffffff168473ffffffffffffffffffffffffffffffffffffffff161480611eed5750611eec8185611ad5565b5b80611f2b57508373ffffffffffffffffffffffffffffffffffffffff16611f1384610b99565b73ffffffffffffffffffffffffffffffffffffffff16145b91505092915050565b8273ffffffffffffffffffffffffffffffffffffffff16611f54826111a7565b73ffffffffffffffffffffffffffffffffffffffff1614611faa576040517f08c379a0000000000000000000000000000000000000000000000000000000008152600401611fa19061466e565b60405180910390fd5b600073ffffffffffffffffffffffffffffffffffffffff168273ffffffffffffffffffffffffffffffffffffffff1603612019576040517f08c379a000000000000000000000000000000000000000000000000000000000815260040161201090614700565b60405180910390fd5b61202483838361270e565b61202f600082611de6565b6001600360008573ffffffffffffffffffffffffffffffffffffffff1673ffffffffffffffffffffffffffffffffffffffff168152602001908152602001600020600082825461207f9190614720565b925050819055506001600360008473ffffffffffffffffffffffffffffffffffffffff1673ffffffffffffffffffffffffffffffffffffffff16815260200190815260200160002060008282546120d69190614156565b92505081905550816002600083815260200190815260200160002060006101000a81548173ffffffffffffffffffffffffffffffffffffffff021916908373ffffffffffffffffffffffffffffffffffffffff160217905550808273ffffffffffffffffffffffffffffffffffffffff168473ffffffffffffffffffffffffffffffffffffffff167fddf252ad1be2c89b69c2b068fc378daa952ba7f163c4a11628f55a4df523b3ef60405160405180910390a4612195838383612820565b505050565b6000600a60009054906101000a900473ffffffffffffffffffffffffffffffffffffffff16905081600a60006101000a81548173ffffffffffffffffffffffffffffffffffffffff021916908373ffffffffffffffffffffffffffffffffffffffff1602179055508173ffffffffffffffffffffffffffffffffffffffff168173ffffffffffffffffffffffffffffffffffffffff167f8be0079c531659141344cd1fd0a4f28419497f9722a3daafe3b4186f6b6457e060405160405180910390a35050565b61227a828260405180602001604052806000815250612825565b5050565b8173ffffffffffffffffffffffffffffffffffffffff168373ffffffffffffffffffffffffffffffffffffffff16036122ec576040517f08c379a00000000000000000000000000000000000000000000000000000000081526004016122e3906147a0565b60405180910390fd5b80600560008573ffffffffffffffffffffffffffffffffffffffff1673ffffffffffffffffffffffffffffffffffffffff16815260200190815260200160002060008473ffffffffffffffffffffffffffffffffffffffff1673ffffffffffffffffffffffffffffffffffffffff16815260200190815260200160002060006101000a81548160ff0219169083151502179055508173ffffffffffffffffffffffffffffffffffffffff168373ffffffffffffffffffffffffffffffffffffffff167f17307eab39ab6107e8899845ad3d59bd9653f200f220920489ca2b5937696c31836040516123dd91906130a0565b60405180910390a3505050565b6123f5848484611f34565b61240184848484612880565b612440576040517f08c379a000000000000000000000000000000000000000000000000000000000815260040161243790614832565b60405180910390fd5b50505050565b60008073ffffffffffffffffffffffffffffffffffffffff166002600084815260200190815260200160002060009054906101000a900473ffffffffffffffffffffffffffffffffffffffff1673ffffffffffffffffffffffffffffffffffffffff1614159050919050565b6060600b80546124c190613879565b80601f01602080910402602001604051908101604052809291908181526020018280546124ed90613879565b801561253a5780601f1061250f5761010080835404028352916020019161253a565b820191906000526020600020905b81548152906001019060200180831161251d57829003601f168201915b5050505050905090565b60606000820361258b576040518060400160405280600181526020017f3000000000000000000000000000000000000000000000000000000000000000815250905061269f565b600082905060005b600082146125bd5780806125a690613b50565b915050600a826125b69190614881565b9150612593565b60008167ffffffffffffffff8111156125d9576125d8613485565b5b6040519080825280601f01601f19166020018201604052801561260b5781602001600182028036833780820191505090505b5090505b60008514612698576001826126249190614720565b9150600a8561263391906148b2565b603061263f9190614156565b60f81b81838151811061265557612654613af2565b5b60200101907effffffffffffffffffffffffffffffffffffffffffffffffffffffffffffff1916908160001a905350600a856126919190614881565b945061260f565b8093505050505b919050565b60007f01ffc9a7000000000000000000000000000000000000000000000000000000007bffffffffffffffffffffffffffffffffffffffffffffffffffffffff1916827bffffffffffffffffffffffffffffffffffffffffffffffffffffffff1916149050919050565b612719838383612a07565b600073ffffffffffffffffffffffffffffffffffffffff168373ffffffffffffffffffffffffffffffffffffffff160361275b5761275681612a0c565b61279a565b8173ffffffffffffffffffffffffffffffffffffffff168373ffffffffffffffffffffffffffffffffffffffff1614612799576127988382612a55565b5b5b600073ffffffffffffffffffffffffffffffffffffffff168273ffffffffffffffffffffffffffffffffffffffff16036127dc576127d781612bc2565b61281b565b8273ffffffffffffffffffffffffffffffffffffffff168273ffffffffffffffffffffffffffffffffffffffff161461281a576128198282612c93565b5b5b505050565b505050565b61282f8383612d12565b61283c6000848484612880565b61287b576040517f08c379a000000000000000000000000000000000000000000000000000000000815260040161287290614832565b60405180910390fd5b505050565b60006128a18473ffffffffffffffffffffffffffffffffffffffff16612eeb565b156129fa578373ffffffffffffffffffffffffffffffffffffffff1663150b7a026128ca611dde565b8786866040518563ffffffff1660e01b81526004016128ec9493929190614938565b6020604051808303816000875af192505050801561292857506040513d601f19601f820116820180604052508101906129259190614999565b60015b6129aa573d8060008114612958576040519150601f19603f3d011682016040523d82523d6000602084013e61295d565b606091505b5060008151036129a2576040517f08c379a000000000000000000000000000000000000000000000000000000000815260040161299990614832565b60405180910390fd5b805181602001fd5b63150b7a0260e01b7bffffffffffffffffffffffffffffffffffffffffffffffffffffffff1916817bffffffffffffffffffffffffffffffffffffffffffffffffffffffff1916149150506129ff565b600190505b949350505050565b505050565b6008805490506009600083815260200190815260200160002081905550600881908060018154018082558091505060019003906000526020600020016000909190919091505550565b60006001612a62846112e6565b612a6c9190614720565b9050600060076000848152602001908152602001600020549050818114612b51576000600660008673ffffffffffffffffffffffffffffffffffffffff1673ffffffffffffffffffffffffffffffffffffffff168152602001908152602001600020600084815260200190815260200160002054905080600660008773ffffffffffffffffffffffffffffffffffffffff1673ffffffffffffffffffffffffffffffffffffffff168152602001908152602001600020600084815260200190815260200160002081905550816007600083815260200190815260200160002081905550505b6007600084815260200190815260200160002060009055600660008573ffffffffffffffffffffffffffffffffffffffff1673ffffffffffffffffffffffffffffffffffffffff16815260200190815260200160002060008381526020019081526020016000206000905550505050565b60006001600880549050612bd69190614720565b9050600060096000848152602001908152602001600020549050600060088381548110612c0657612c05613af2565b5b906000526020600020015490508060088381548110612c2857612c27613af2565b5b906000526020600020018190555081600960008381526020019081526020016000208190555060096000858152602001908152602001600020600090556008805480612c7757612c766149c6565b5b6001900381819060005260206000200160009055905550505050565b6000612c9e836112e6565b905081600660008573ffffffffffffffffffffffffffffffffffffffff1673ffffffffffffffffffffffffffffffffffffffff168152602001908152602001600020600083815260200190815260200160002081905550806007600084815260200190815260200160002081905550505050565b600073ffffffffffffffffffffffffffffffffffffffff168273ffffffffffffffffffffffffffffffffffffffff1603612d81576040517f08c379a0000000000000000000000000000000000000000000000000000000008152600401612d7890614a41565b60405180910390fd5b612d8a81612446565b15612dca576040517f08c379a0000000000000000000000000000000000000000000000000000000008152600401612dc190614aad565b60405180910390fd5b612dd66000838361270e565b6001600360008473ffffffffffffffffffffffffffffffffffffffff1673ffffffffffffffffffffffffffffffffffffffff1681526020019081526020016000206000828254612e269190614156565b92505081905550816002600083815260200190815260200160002060006101000a81548173ffffffffffffffffffffffffffffffffffffffff021916908373ffffffffffffffffffffffffffffffffffffffff160217905550808273ffffffffffffffffffffffffffffffffffffffff16600073ffffffffffffffffffffffffffffffffffffffff167fddf252ad1be2c89b69c2b068fc378daa952ba7f163c4a11628f55a4df523b3ef60405160405180910390a4612ee760008383612820565b5050565b6000808273ffffffffffffffffffffffffffffffffffffffff163b119050919050565b5080546000825590600052602060002090810190612f2c9190612fcf565b50565b828054828255906000526020600020908101928215612fbe579160200282015b82811115612fbd57823573ffffffffffffffffffffffffffffffffffffffff168260006101000a81548173ffffffffffffffffffffffffffffffffffffffff021916908373ffffffffffffffffffffffffffffffffffffffff16021790555091602001919060010190612f4f565b5b509050612fcb9190612fcf565b5090565b5b80821115612fe8576000816000905550600101612fd0565b5090565b6000604051905090565b600080fd5b600080fd5b60007fffffffff0000000000000000000000000000000000000000000000000000000082169050919050565b61303581613000565b811461304057600080fd5b50565b6000813590506130528161302c565b92915050565b60006020828403121561306e5761306d612ff6565b5b600061307c84828501613043565b91505092915050565b60008115159050919050565b61309a81613085565b82525050565b60006020820190506130b56000830184613091565b92915050565b6130c481613085565b81146130cf57600080fd5b50565b6000813590506130e1816130bb565b92915050565b6000602082840312156130fd576130fc612ff6565b5b600061310b848285016130d2565b91505092915050565b600081519050919050565b600082825260208201905092915050565b60005b8381101561314e578082015181840152602081019050613133565b60008484015250505050565b6000601f19601f8301169050919050565b600061317682613114565b613180818561311f565b9350613190818560208601613130565b6131998161315a565b840191505092915050565b600060208201905081810360008301526131be818461316b565b905092915050565b6000819050919050565b6131d9816131c6565b81146131e457600080fd5b50565b6000813590506131f6816131d0565b92915050565b60006020828403121561321257613211612ff6565b5b6000613220848285016131e7565b91505092915050565b600073ffffffffffffffffffffffffffffffffffffffff82169050919050565b600061325482613229565b9050919050565b61326481613249565b82525050565b600060208201905061327f600083018461325b565b92915050565b61328e81613249565b811461329957600080fd5b50565b6000813590506132ab81613285565b92915050565b600080604083850312156132c8576132c7612ff6565b5b60006132d68582860161329c565b92505060206132e7858286016131e7565b9150509250929050565b6132fa816131c6565b82525050565b600060208201905061331560008301846132f1565b92915050565b60006020828403121561333157613330612ff6565b5b600061333f8482850161329c565b91505092915050565b60008060006060848603121561336157613360612ff6565b5b600061336f8682870161329c565b93505060206133808682870161329c565b9250506040613391868287016131e7565b9150509250925092565b600081519050919050565b600082825260208201905092915050565b6000819050602082019050919050565b6133d0816131c6565b82525050565b60006133e283836133c7565b60208301905092915050565b6000602082019050919050565b60006134068261339b565b61341081856133a6565b935061341b836133b7565b8060005b8381101561344c57815161343388826133d6565b975061343e836133ee565b92505060018101905061341f565b5085935050505092915050565b6000602082019050818103600083015261347381846133fb565b905092915050565b600080fd5b600080fd5b7f4e487b7100000000000000000000000000000000000000000000000000000000600052604160045260246000fd5b6134bd8261315a565b810181811067ffffffffffffffff821117156134dc576134db613485565b5b80604052505050565b60006134ef612fec565b90506134fb82826134b4565b919050565b600067ffffffffffffffff82111561351b5761351a613485565b5b6135248261315a565b9050602081019050919050565b82818337600083830152505050565b600061355361354e84613500565b6134e5565b90508281526020810184848401111561356f5761356e613480565b5b61357a848285613531565b509392505050565b600082601f8301126135975761359661347b565b5b81356135a7848260208601613540565b91505092915050565b6000602082840312156135c6576135c5612ff6565b5b600082013567ffffffffffffffff8111156135e4576135e3612ffb565b5b6135f084828501613582565b91505092915050565b600080604083850312156136105761360f612ff6565b5b600061361e8582860161329c565b925050602061362f858286016130d2565b9150509250929050565b600067ffffffffffffffff82111561365457613653613485565b5b61365d8261315a565b9050602081019050919050565b600061367d61367884613639565b6134e5565b90508281526020810184848401111561369957613698613480565b5b6136a4848285613531565b509392505050565b600082601f8301126136c1576136c061347b565b5b81356136d184826020860161366a565b91505092915050565b600080600080608085870312156136f4576136f3612ff6565b5b60006137028782880161329c565b94505060206137138782880161329c565b9350506040613724878288016131e7565b925050606085013567ffffffffffffffff81111561374557613744612ffb565b5b613751878288016136ac565b91505092959194509250565b6000806040838503121561377457613773612ff6565b5b60006137828582860161329c565b92505060206137938582860161329c565b9150509250929050565b600080fd5b600080fd5b60008083601f8401126137bd576137bc61347b565b5b8235905067ffffffffffffffff8111156137da576137d961379d565b5b6020830191508360208202830111156137f6576137f56137a2565b5b9250929050565b6000806020838503121561381457613813612ff6565b5b600083013567ffffffffffffffff81111561383257613831612ffb565b5b61383e858286016137a7565b92509250509250929050565b7f4e487b7100000000000000000000000000000000000000000000000000000000600052602260045260246000fd5b6000600282049050600182168061389157607f821691505b6020821081036138a4576138a361384a565b5b50919050565b7f4552433732313a20617070726f76616c20746f2063757272656e74206f776e6560008201527f7200000000000000000000000000000000000000000000000000000000000000602082015250565b600061390660218361311f565b9150613911826138aa565b604082019050919050565b60006020820190508181036000830152613935816138f9565b9050919050565b7f4552433732313a20617070726f76652063616c6c6572206973206e6f7420746f60008201527f6b656e206f776e6572206e6f7220617070726f76656420666f7220616c6c0000602082015250565b6000613998603e8361311f565b91506139a38261393c565b604082019050919050565b600060208201905081810360008301526139c78161398b565b9050919050565b7f4552433732313a2063616c6c6572206973206e6f7420746f6b656e206f776e6560008201527f72206e6f7220617070726f766564000000000000000000000000000000000000602082015250565b6000613a2a602e8361311f565b9150613a35826139ce565b604082019050919050565b60006020820190508181036000830152613a5981613a1d565b9050919050565b7f455243373231456e756d657261626c653a206f776e657220696e646578206f7560008201527f74206f6620626f756e6473000000000000000000000000000000000000000000602082015250565b6000613abc602b8361311f565b9150613ac782613a60565b604082019050919050565b60006020820190508181036000830152613aeb81613aaf565b9050919050565b7f4e487b7100000000000000000000000000000000000000000000000000000000600052603260045260246000fd5b7f4e487b7100000000000000000000000000000000000000000000000000000000600052601160045260246000fd5b6000613b5b826131c6565b91507fffffffffffffffffffffffffffffffffffffffffffffffffffffffffffffffff8203613b8d57613b8c613b21565b5b600182019050919050565b600081905092915050565b50565b6000613bb3600083613b98565b9150613bbe82613ba3565b600082019050919050565b6000613bd482613ba6565b9150819050919050565b7f455243373231456e756d657261626c653a20676c6f62616c20696e646578206f60008201527f7574206f6620626f756e64730000000000000000000000000000000000000000602082015250565b6000613c3a602c8361311f565b9150613c4582613bde565b604082019050919050565b60006020820190508181036000830152613c6981613c2d565b9050919050565b60008190508160005260206000209050919050565b60006020601f8301049050919050565b600082821b905092915050565b600060088302613cd27fffffffffffffffffffffffffffffffffffffffffffffffffffffffffffffffff82613c95565b613cdc8683613c95565b95508019841693508086168417925050509392505050565b6000819050919050565b6000613d19613d14613d0f846131c6565b613cf4565b6131c6565b9050919050565b6000819050919050565b613d3383613cfe565b613d47613d3f82613d20565b848454613ca2565b825550505050565b600090565b613d5c613d4f565b613d67818484613d2a565b505050565b5b81811015613d8b57613d80600082613d54565b600181019050613d6d565b5050565b601f821115613dd057613da181613c70565b613daa84613c85565b81016020851015613db9578190505b613dcd613dc585613c85565b830182613d6c565b50505b505050565b600082821c905092915050565b6000613df360001984600802613dd5565b1980831691505092915050565b6000613e0c8383613de2565b9150826002028217905092915050565b613e2582613114565b67ffffffffffffffff811115613e3e57613e3d613485565b5b613e488254613879565b613e53828285613d8f565b600060209050601f831160018114613e865760008415613e74578287015190505b613e7e8582613e00565b865550613ee6565b601f198416613e9486613c70565b60005b82811015613ebc57848901518255600182019150602085019450602081019050613e97565b86831015613ed95784890151613ed5601f891682613de2565b8355505b6001600288020188555050505b505050505050565b7f4552433732313a20696e76616c696420746f6b656e2049440000000000000000600082015250565b6000613f2460188361311f565b9150613f2f82613eee565b602082019050919050565b60006020820190508181036000830152613f5381613f17565b9050919050565b7f4552433732313a2061646472657373207a65726f206973206e6f74206120766160008201527f6c6964206f776e65720000000000000000000000000000000000000000000000602082015250565b6000613fb660298361311f565b9150613fc182613f5a565b604082019050919050565b60006020820190508181036000830152613fe581613fa9565b9050919050565b7f74686520636f6e74726163742069732070617573656400000000000000000000600082015250565b600061402260168361311f565b915061402d82613fec565b602082019050919050565b6000602082019050818103600083015261405181614015565b9050919050565b7f6e65656420746f206d696e74206174206c656173742031204e46540000000000600082015250565b600061408e601b8361311f565b915061409982614058565b602082019050919050565b600060208201905081810360008301526140bd81614081565b9050919050565b7f6d6178206d696e7420616d6f756e74207065722073657373696f6e206578636560008201527f6564656400000000000000000000000000000000000000000000000000000000602082015250565b600061412060248361311f565b915061412b826140c4565b604082019050919050565b6000602082019050818103600083015261414f81614113565b9050919050565b6000614161826131c6565b915061416c836131c6565b925082820190508082111561418457614183613b21565b5b92915050565b7f6d6178204e4654206c696d697420657863656564656400000000000000000000600082015250565b60006141c060168361311f565b91506141cb8261418a565b602082019050919050565b600060208201905081810360008301526141ef816141b3565b9050919050565b7f75736572206973206e6f742077686974656c6973746564000000000000000000600082015250565b600061422c60178361311f565b9150614237826141f6565b602082019050919050565b6000602082019050818103600083015261425b8161421f565b9050919050565b7f6d6178204e465420706572206164647265737320657863656564656400000000600082015250565b6000614298601c8361311f565b91506142a382614262565b602082019050919050565b600060208201905081810360008301526142c78161428b565b9050919050565b60006142d9826131c6565b91506142e4836131c6565b92508282026142f2816131c6565b9150828204841483151761430957614308613b21565b5b5092915050565b7f696e73756666696369656e742066756e64730000000000000000000000000000600082015250565b600061434660128361311f565b915061435182614310565b602082019050919050565b6000602082019050818103600083015261437581614339565b9050919050565b7f4552433732314d657461646174613a2055524920717565727920666f72206e6f60008201527f6e6578697374656e7420746f6b656e0000000000000000000000000000000000602082015250565b60006143d8602f8361311f565b91506143e38261437c565b604082019050919050565b60006020820190508181036000830152614407816143cb565b9050919050565b600081905092915050565b600061442482613114565b61442e818561440e565b935061443e818560208601613130565b80840191505092915050565b6000815461445781613879565b614461818661440e565b9450600182166000811461447c5760018114614491576144c4565b60ff19831686528115158202860193506144c4565b61449a85613c70565b60005b838110156144bc5781548189015260018201915060208101905061449d565b838801955050505b50505092915050565b60006144d98286614419565b91506144e58285614419565b91506144f1828461444a565b9150819050949350505050565b7f4f776e61626c653a206e6577206f776e657220697320746865207a65726f206160008201527f6464726573730000000000000000000000000000000000000000000000000000602082015250565b600061455a60268361311f565b9150614565826144fe565b604082019050919050565b600060208201905081810360008301526145898161454d565b9050919050565b7f4f776e61626c653a2063616c6c6572206973206e6f7420746865206f776e6572600082015250565b60006145c660208361311f565b91506145d182614590565b602082019050919050565b600060208201905081810360008301526145f5816145b9565b9050919050565b7f4552433732313a207472616e736665722066726f6d20696e636f72726563742060008201527f6f776e6572000000000000000000000000000000000000000000000000000000602082015250565b600061465860258361311f565b9150614663826145fc565b604082019050919050565b600060208201905081810360008301526146878161464b565b9050919050565b7f4552433732313a207472616e7366657220746f20746865207a65726f2061646460008201527f7265737300000000000000000000000000000000000000000000000000000000602082015250565b60006146ea60248361311f565b91506146f58261468e565b604082019050919050565b60006020820190508181036000830152614719816146dd565b9050919050565b600061472b826131c6565b9150614736836131c6565b925082820390508181111561474e5761474d613b21565b5b92915050565b7f4552433732313a20617070726f766520746f2063616c6c657200000000000000600082015250565b600061478a60198361311f565b915061479582614754565b602082019050919050565b600060208201905081810360008301526147b98161477d565b9050919050565b7f4552433732313a207472616e7366657220746f206e6f6e20455243373231526560008201527f63656976657220696d706c656d656e7465720000000000000000000000000000602082015250565b600061481c60328361311f565b9150614827826147c0565b604082019050919050565b6000602082019050818103600083015261484b8161480f565b9050919050565b7f4e487b7100000000000000000000000000000000000000000000000000000000600052601260045260246000fd5b600061488c826131c6565b9150614897836131c6565b9250826148a7576148a6614852565b5b828204905092915050565b60006148bd826131c6565b91506148c8836131c6565b9250826148d8576148d7614852565b5b828206905092915050565b600081519050919050565b600082825260208201905092915050565b600061490a826148e3565b61491481856148ee565b9350614924818560208601613130565b61492d8161315a565b840191505092915050565b600060808201905061494d600083018761325b565b61495a602083018661325b565b61496760408301856132f1565b818103606083015261497981846148ff565b905095945050505050565b6000815190506149938161302c565b92915050565b6000602082840312156149af576149ae612ff6565b5b60006149bd84828501614984565b91505092915050565b7f4e487b7100000000000000000000000000000000000000000000000000000000600052603160045260246000fd5b7f4552433732313a206d696e7420746f20746865207a65726f2061646472657373600082015250565b6000614a2b60208361311f565b9150614a36826149f5565b602082019050919050565b60006020820190508181036000830152614a5a81614a1e565b9050919050565b7f4552433732313a20746f6b656e20616c7265616479206d696e74656400000000600082015250565b6000614a97601c8361311f565b9150614aa282614a61565b602082019050919050565b60006020820190508181036000830152614ac681614a8a565b905091905056fea2646970667358221220913e686245ae69c35e6ebd9e28151775c3d4afda26c910b8d7c3a0936f8de24d64736f6c63430008110033",
  "linkReferences": {},
  "deployedLinkReferences": {}
}