{
  "_format": "hh-sol-artifact-1",
  "contractName": "TokemonStaking",
  "sourceName": "contracts/TokemonStaking.sol",
  "abi": [
    {
      "inputs": [
        {
          "internalType": "contract TokemonIsERC20",
          "name": "_token",
          "type": "address"
        },
        {
          "internalType": "contract TokemonERC721A",
          "name": "_nft",
          "type": "address"
        }
      ],
      "stateMutability": "nonpayable",
      "type": "constructor"
    },
    {
      "anonymous": false,
      "inputs": [
        {
          "indexed": true,
          "internalType": "address",
          "name": "owner",
          "type": "address"
        },
        {
          "indexed": false,
          "internalType": "uint256",
          "name": "amount",
          "type": "uint256"
        }
      ],
      "name": "Claimed",
      "type": "event"
    },
    {
      "anonymous": false,
      "inputs": [
        {
          "indexed": true,
          "internalType": "address",
          "name": "owner",
          "type": "address"
        },
        {
          "indexed": false,
          "internalType": "uint256",
          "name": "tokenId",
          "type": "uint256"
        },
        {
          "indexed": false,
          "internalType": "uint256",
          "name": "timestamp",
          "type": "uint256"
        }
      ],
      "name": "Staked",
      "type": "event"
    },
    {
      "anonymous": false,
      "inputs": [
        {
          "indexed": true,
          "internalType": "address",
          "name": "owner",
          "type": "address"
        },
        {
          "indexed": false,
          "internalType": "uint256",
          "name": "tokenId",
          "type": "uint256"
        },
        {
          "indexed": false,
          "internalType": "uint256",
          "name": "timestamp",
          "type": "uint256"
        }
      ],
      "name": "Unstaked",
      "type": "event"
    },
    {
      "inputs": [
        {
          "internalType": "uint256[]",
          "name": "tokenIds",
          "type": "uint256[]"
        }
      ],
      "name": "Stake",
      "outputs": [],
      "stateMutability": "nonpayable",
      "type": "function"
    },
    {
      "inputs": [
        {
          "internalType": "uint256[]",
          "name": "tokenIds",
          "type": "uint256[]"
        }
      ],
      "name": "claim",
      "outputs": [],
      "stateMutability": "nonpayable",
      "type": "function"
    },
    {
      "inputs": [
        {
          "internalType": "address",
          "name": "owner",
          "type": "address"
        },
        {
          "internalType": "uint256[]",
          "name": "tokenIds",
          "type": "uint256[]"
        }
      ],
      "name": "getRewarsAmmount",
      "outputs": [
        {
          "internalType": "uint256",
          "name": "",
          "type": "uint256"
        }
      ],
      "stateMutability": "view",
      "type": "function"
    },
    {
      "inputs": [
        {
          "internalType": "address",
          "name": "owner",
          "type": "address"
        }
      ],
      "name": "tokenStakedByOwner",
      "outputs": [
        {
          "internalType": "uint256[]",
          "name": "",
          "type": "uint256[]"
        }
      ],
      "stateMutability": "view",
      "type": "function"
    },
    {
      "inputs": [],
      "name": "totalStaked",
      "outputs": [
        {
          "internalType": "uint256",
          "name": "",
          "type": "uint256"
        }
      ],
      "stateMutability": "view",
      "type": "function"
    },
    {
      "inputs": [
        {
          "internalType": "uint256[]",
          "name": "tokenIds",
          "type": "uint256[]"
        }
      ],
      "name": "unstake",
      "outputs": [],
      "stateMutability": "nonpayable",
      "type": "function"
    }
  ],
  "bytecode": "0x60806040526127106002553480156200001757600080fd5b50604051620019223803806200192283398181016040528101906200003d91906200018a565b81600360006101000a81548173ffffffffffffffffffffffffffffffffffffffff021916908373ffffffffffffffffffffffffffffffffffffffff16021790555080600460006101000a81548173ffffffffffffffffffffffffffffffffffffffff021916908373ffffffffffffffffffffffffffffffffffffffff1602179055505050620001d1565b600080fd5b600073ffffffffffffffffffffffffffffffffffffffff82169050919050565b6000620000f982620000cc565b9050919050565b60006200010d82620000ec565b9050919050565b6200011f8162000100565b81146200012b57600080fd5b50565b6000815190506200013f8162000114565b92915050565b60006200015282620000ec565b9050919050565b620001648162000145565b81146200017057600080fd5b50565b600081519050620001848162000159565b92915050565b60008060408385031215620001a457620001a3620000c7565b5b6000620001b4858286016200012e565b9250506020620001c78582860162000173565b9150509250929050565b61174180620001e16000396000f3fe608060405234801561001057600080fd5b50600436106100625760003560e01c80633bcd430d146100675780636ba4c1381461009757806370b68cf6146100b3578063817b1cd2146100cf578063ab5d2ce6146100ed578063e449f3411461011d575b600080fd5b610081600480360381019061007c9190610ffe565b610139565b60405161008e9190611077565b60405180910390f35b6100b160048036038101906100ac9190611092565b61030c565b005b6100cd60048036038101906100c89190611092565b61031d565b005b6100d76106c5565b6040516100e49190611077565b60405180910390f35b610107600480360381019061010291906110df565b6106cb565b60405161011491906111ca565b60405180910390f35b61013760048036038101906101329190611092565b610919565b005b60008060008060005b868690508110156102fe578686828181106101605761015f6111ec565b5b9050602002013593506000600160008681526020019081526020016000206040518060600160405290816000820160009054906101000a900462ffffff1662ffffff1662ffffff1681526020016000820160039054906101000a900465ffffffffffff1665ffffffffffff1665ffffffffffff1681526020016000820160099054906101000a900473ffffffffffffffffffffffffffffffffffffffff1673ffffffffffffffffffffffffffffffffffffffff1673ffffffffffffffffffffffffffffffffffffffff168152505090508873ffffffffffffffffffffffffffffffffffffffff16816040015173ffffffffffffffffffffffffffffffffffffffff16146102a2576040517f08c379a00000000000000000000000000000000000000000000000000000000081526004016102999061129e565b60405180910390fd5b6000816020015165ffffffffffff169050610e1060025482426102c591906112ed565b6102cf9190611321565b6102d99190611392565b945084846102e791906113c3565b9350505080806102f6906113f7565b915050610142565b508093505050509392505050565b610319338383600061092a565b5050565b60008282905060008082825461033391906113c3565b9250508190555060005b838390508110156106bf5783838281811061035b5761035a6111ec565b5b9050602002013591503373ffffffffffffffffffffffffffffffffffffffff16600460009054906101000a900473ffffffffffffffffffffffffffffffffffffffff1673ffffffffffffffffffffffffffffffffffffffff16636352211e846040518263ffffffff1660e01b81526004016103d69190611077565b602060405180830381865afa1580156103f3573d6000803e3d6000fd5b505050506040513d601f19601f820116820180604052508101906104179190611454565b73ffffffffffffffffffffffffffffffffffffffff161461046d576040517f08c379a0000000000000000000000000000000000000000000000000000000008152600401610464906114cd565b60405180910390fd5b60006001600084815260200190815260200160002060000160039054906101000a900465ffffffffffff1665ffffffffffff16146104e0576040517f08c379a00000000000000000000000000000000000000000000000000000000081526004016104d790611539565b60405180910390fd5b600460009054906101000a900473ffffffffffffffffffffffffffffffffffffffff1673ffffffffffffffffffffffffffffffffffffffff166323b872dd3330856040518463ffffffff1660e01b815260040161053f93929190611568565b600060405180830381600087803b15801561055957600080fd5b505af115801561056d573d6000803e3d6000fd5b505050503373ffffffffffffffffffffffffffffffffffffffff167f1449c6dd7851abc30abf37f57715f492010519147cc2652fbc38202c18a6ee9083426040516105b992919061159f565b60405180910390a260405180606001604052808362ffffff1681526020014265ffffffffffff1681526020013373ffffffffffffffffffffffffffffffffffffffff168152506001600084815260200190815260200160002060008201518160000160006101000a81548162ffffff021916908362ffffff16021790555060208201518160000160036101000a81548165ffffffffffff021916908365ffffffffffff16021790555060408201518160000160096101000a81548173ffffffffffffffffffffffffffffffffffffffff021916908373ffffffffffffffffffffffffffffffffffffffff16021790555090505080806106b7906113f7565b91505061033d565b50505050565b60005481565b60606000600460009054906101000a900473ffffffffffffffffffffffffffffffffffffffff1673ffffffffffffffffffffffffffffffffffffffff166318160ddd6040518163ffffffff1660e01b8152600401602060405180830381865afa15801561073c573d6000803e3d6000fd5b505050506040513d601f19601f8201168201806040525081019061076091906115f4565b905060008167ffffffffffffffff81111561077e5761077d611621565b5b6040519080825280602002602001820160405280156107ac5781602001602082028036833780820191505090505b5090506000805b83811015610866578573ffffffffffffffffffffffffffffffffffffffff166001600083815260200190815260200160002060000160099054906101000a900473ffffffffffffffffffffffffffffffffffffffff1673ffffffffffffffffffffffffffffffffffffffff16036108535780838381518110610838576108376111ec565b5b602002602001018181525050818061084f906113f7565b9250505b808061085e906113f7565b9150506107b3565b5060008167ffffffffffffffff81111561088357610882611621565b5b6040519080825280602002602001820160405280156108b15781602001602082028036833780820191505090505b50905060005b8281101561090c578381815181106108d2576108d16111ec565b5b60200260200101518282815181106108ed576108ec6111ec565b5b6020026020010181815250508080610904906113f7565b9150506108b7565b5080945050505050919050565b610926338383600161092a565b5050565b600080600080600090505b86869050811015610bdc57868682818110610953576109526111ec565b5b9050602002013593506000600160008681526020019081526020016000206040518060600160405290816000820160009054906101000a900462ffffff1662ffffff1662ffffff1681526020016000820160039054906101000a900465ffffffffffff1665ffffffffffff1665ffffffffffff1681526020016000820160099054906101000a900473ffffffffffffffffffffffffffffffffffffffff1673ffffffffffffffffffffffffffffffffffffffff1673ffffffffffffffffffffffffffffffffffffffff168152505090508873ffffffffffffffffffffffffffffffffffffffff16816040015173ffffffffffffffffffffffffffffffffffffffff1614610a95576040517f08c379a0000000000000000000000000000000000000000000000000000000008152600401610a8c906116c2565b60405180910390fd5b6000816020015165ffffffffffff169050610e106002548242610ab891906112ed565b610ac29190611321565b610acc9190611392565b94508484610ada91906113c3565b935060405180606001604052808762ffffff1681526020014265ffffffffffff1681526020018b73ffffffffffffffffffffffffffffffffffffffff168152506001600088815260200190815260200160002060008201518160000160006101000a81548162ffffff021916908362ffffff16021790555060208201518160000160036101000a81548165ffffffffffff021916908365ffffffffffff16021790555060408201518160000160096101000a81548173ffffffffffffffffffffffffffffffffffffffff021916908373ffffffffffffffffffffffffffffffffffffffff16021790555090505050508080610bd4906113f7565b915050610935565b506000811115610c7657600360009054906101000a900473ffffffffffffffffffffffffffffffffffffffff1673ffffffffffffffffffffffffffffffffffffffff166340c10f1988836040518363ffffffff1660e01b8152600401610c439291906116e2565b600060405180830381600087803b158015610c5d57600080fd5b505af1158015610c71573d6000803e3d6000fd5b505050505b8315610c8857610c87878787610cdf565b5b8673ffffffffffffffffffffffffffffffffffffffff167fd8138f8a3f377c5259ca548e70e4c2de94f129f5a11036a15b69513cba2b426a82604051610cce9190611077565b60405180910390a250505050505050565b600082829050600080828254610cf591906112ed565b9250508190555060005b83839050811015610f2a57838382818110610d1d57610d1c6111ec565b5b9050602002013591503373ffffffffffffffffffffffffffffffffffffffff166001600084815260200190815260200160002060000160099054906101000a900473ffffffffffffffffffffffffffffffffffffffff1673ffffffffffffffffffffffffffffffffffffffff1614610dca576040517f08c379a0000000000000000000000000000000000000000000000000000000008152600401610dc1906114cd565b60405180910390fd5b8473ffffffffffffffffffffffffffffffffffffffff167f7fc4727e062e336010f2c282598ef5f14facb3de68cf8195c2f23e1454b2b74e8342604051610e1292919061159f565b60405180910390a260016000838152602001908152602001600020600080820160006101000a81549062ffffff02191690556000820160036101000a81549065ffffffffffff02191690556000820160096101000a81549073ffffffffffffffffffffffffffffffffffffffff02191690555050600460009054906101000a900473ffffffffffffffffffffffffffffffffffffffff1673ffffffffffffffffffffffffffffffffffffffff166323b872dd3087856040518463ffffffff1660e01b8152600401610ee593929190611568565b600060405180830381600087803b158015610eff57600080fd5b505af1158015610f13573d6000803e3d6000fd5b505050508080610f22906113f7565b915050610cff565b5050505050565b600080fd5b600080fd5b600073ffffffffffffffffffffffffffffffffffffffff82169050919050565b6000610f6682610f3b565b9050919050565b610f7681610f5b565b8114610f8157600080fd5b50565b600081359050610f9381610f6d565b92915050565b600080fd5b600080fd5b600080fd5b60008083601f840112610fbe57610fbd610f99565b5b8235905067ffffffffffffffff811115610fdb57610fda610f9e565b5b602083019150836020820283011115610ff757610ff6610fa3565b5b9250929050565b60008060006040848603121561101757611016610f31565b5b600061102586828701610f84565b935050602084013567ffffffffffffffff81111561104657611045610f36565b5b61105286828701610fa8565b92509250509250925092565b6000819050919050565b6110718161105e565b82525050565b600060208201905061108c6000830184611068565b92915050565b600080602083850312156110a9576110a8610f31565b5b600083013567ffffffffffffffff8111156110c7576110c6610f36565b5b6110d385828601610fa8565b92509250509250929050565b6000602082840312156110f5576110f4610f31565b5b600061110384828501610f84565b91505092915050565b600081519050919050565b600082825260208201905092915050565b6000819050602082019050919050565b6111418161105e565b82525050565b60006111538383611138565b60208301905092915050565b6000602082019050919050565b60006111778261110c565b6111818185611117565b935061118c83611128565b8060005b838110156111bd5781516111a48882611147565b97506111af8361115f565b925050600181019050611190565b5085935050505092915050565b600060208201905081810360008301526111e4818461116c565b905092915050565b7f4e487b7100000000000000000000000000000000000000000000000000000000600052603260045260246000fd5b600082825260208201905092915050565b7f496d706f737369626c6520746f2073656520726577617264732c20796f75277260008201527f65206e6f7420746865206f776e65720000000000000000000000000000000000602082015250565b6000611288602f8361121b565b91506112938261122c565b604082019050919050565b600060208201905081810360008301526112b78161127b565b9050919050565b7f4e487b7100000000000000000000000000000000000000000000000000000000600052601160045260246000fd5b60006112f88261105e565b91506113038361105e565b925082820390508181111561131b5761131a6112be565b5b92915050565b600061132c8261105e565b91506113378361105e565b92508282026113458161105e565b9150828204841483151761135c5761135b6112be565b5b5092915050565b7f4e487b7100000000000000000000000000000000000000000000000000000000600052601260045260246000fd5b600061139d8261105e565b91506113a88361105e565b9250826113b8576113b7611363565b5b828204905092915050565b60006113ce8261105e565b91506113d98361105e565b92508282019050808211156113f1576113f06112be565b5b92915050565b60006114028261105e565b91507fffffffffffffffffffffffffffffffffffffffffffffffffffffffffffffffff8203611434576114336112be565b5b600182019050919050565b60008151905061144e81610f6d565b92915050565b60006020828403121561146a57611469610f31565b5b60006114788482850161143f565b91505092915050565b7f4e6f7420746865206f776e657200000000000000000000000000000000000000600082015250565b60006114b7600d8361121b565b91506114c282611481565b602082019050919050565b600060208201905081810360008301526114e6816114aa565b9050919050565b7f416c7265616479205374616b6564000000000000000000000000000000000000600082015250565b6000611523600e8361121b565b915061152e826114ed565b602082019050919050565b6000602082019050818103600083015261155281611516565b9050919050565b61156281610f5b565b82525050565b600060608201905061157d6000830186611559565b61158a6020830185611559565b6115976040830184611068565b949350505050565b60006040820190506115b46000830185611068565b6115c16020830184611068565b9392505050565b6115d18161105e565b81146115dc57600080fd5b50565b6000815190506115ee816115c8565b92915050565b60006020828403121561160a57611609610f31565b5b6000611618848285016115df565b91505092915050565b7f4e487b7100000000000000000000000000000000000000000000000000000000600052604160045260246000fd5b7f496d706f737369626c6520746f20636c61696d2c20796f75277265206e6f742060008201527f746865206f776e65720000000000000000000000000000000000000000000000602082015250565b60006116ac60298361121b565b91506116b782611650565b604082019050919050565b600060208201905081810360008301526116db8161169f565b9050919050565b60006040820190506116f76000830185611559565b6117046020830184611068565b939250505056fea26469706673582212209d8afb2518576f3de13fd4711050086739b13f5811c41cfabae7303e20891b6b64736f6c63430008110033",
  "linkReferences": {},
  "deployedLinkReferences": {}
}