{
  "_format": "hh-sol-artifact-1",
  "contractName": "TokemonERC721A",
  "sourceName": "contracts/TokemonERC721A.sol",
  "abi": [
    {
      "inputs": [
        {
          "internalType": "string",
          "name": "_name",
          "type": "string"
        },
        {
          "internalType": "string",
          "name": "_symbol",
          "type": "string"
        },
        {
          "internalType": "string",
          "name": "_initBaseURI",
          "type": "string"
        },
        {
          "internalType": "string",
          "name": "_initNotRevealedUri",
          "type": "string"
        }
      ],
      "stateMutability": "nonpayable",
      "type": "constructor"
    },
    {
      "inputs": [],
      "name": "ApprovalCallerNotOwnerNorApproved",
      "type": "error"
    },
    {
      "inputs": [],
      "name": "ApprovalQueryForNonexistentToken",
      "type": "error"
    },
    {
      "inputs": [],
      "name": "BalanceQueryForZeroAddress",
      "type": "error"
    },
    {
      "inputs": [],
      "name": "InvalidQueryRange",
      "type": "error"
    },
    {
      "inputs": [],
      "name": "MintERC2309QuantityExceedsLimit",
      "type": "error"
    },
    {
      "inputs": [],
      "name": "MintToZeroAddress",
      "type": "error"
    },
    {
      "inputs": [],
      "name": "MintZeroQuantity",
      "type": "error"
    },
    {
      "inputs": [],
      "name": "OwnerQueryForNonexistentToken",
      "type": "error"
    },
    {
      "inputs": [],
      "name": "OwnershipNotInitializedForExtraData",
      "type": "error"
    },
    {
      "inputs": [],
      "name": "TransferCallerNotOwnerNorApproved",
      "type": "error"
    },
    {
      "inputs": [],
      "name": "TransferFromIncorrectOwner",
      "type": "error"
    },
    {
      "inputs": [],
      "name": "TransferToNonERC721ReceiverImplementer",
      "type": "error"
    },
    {
      "inputs": [],
      "name": "TransferToZeroAddress",
      "type": "error"
    },
    {
      "inputs": [],
      "name": "URIQueryForNonexistentToken",
      "type": "error"
    },
    {
      "anonymous": false,
      "inputs": [
        {
          "indexed": true,
          "internalType": "address",
          "name": "owner",
          "type": "address"
        },
        {
          "indexed": true,
          "internalType": "address",
          "name": "approved",
          "type": "address"
        },
        {
          "indexed": true,
          "internalType": "uint256",
          "name": "tokenId",
          "type": "uint256"
        }
      ],
      "name": "Approval",
      "type": "event"
    },
    {
      "anonymous": false,
      "inputs": [
        {
          "indexed": true,
          "internalType": "address",
          "name": "owner",
          "type": "address"
        },
        {
          "indexed": true,
          "internalType": "address",
          "name": "operator",
          "type": "address"
        },
        {
          "indexed": false,
          "internalType": "bool",
          "name": "approved",
          "type": "bool"
        }
      ],
      "name": "ApprovalForAll",
      "type": "event"
    },
    {
      "anonymous": false,
      "inputs": [
        {
          "indexed": true,
          "internalType": "uint256",
          "name": "fromTokenId",
          "type": "uint256"
        },
        {
          "indexed": false,
          "internalType": "uint256",
          "name": "toTokenId",
          "type": "uint256"
        },
        {
          "indexed": true,
          "internalType": "address",
          "name": "from",
          "type": "address"
        },
        {
          "indexed": true,
          "internalType": "address",
          "name": "to",
          "type": "address"
        }
      ],
      "name": "ConsecutiveTransfer",
      "type": "event"
    },
    {
      "anonymous": false,
      "inputs": [
        {
          "indexed": true,
          "internalType": "address",
          "name": "previousOwner",
          "type": "address"
        },
        {
          "indexed": true,
          "internalType": "address",
          "name": "newOwner",
          "type": "address"
        }
      ],
      "name": "OwnershipTransferred",
      "type": "event"
    },
    {
      "anonymous": false,
      "inputs": [
        {
          "indexed": true,
          "internalType": "address",
          "name": "from",
          "type": "address"
        },
        {
          "indexed": true,
          "internalType": "address",
          "name": "to",
          "type": "address"
        },
        {
          "indexed": true,
          "internalType": "uint256",
          "name": "tokenId",
          "type": "uint256"
        }
      ],
      "name": "Transfer",
      "type": "event"
    },
    {
      "inputs": [
        {
          "internalType": "address",
          "name": "",
          "type": "address"
        }
      ],
      "name": "addressMintedBalance",
      "outputs": [
        {
          "internalType": "uint256",
          "name": "",
          "type": "uint256"
        }
      ],
      "stateMutability": "view",
      "type": "function"
    },
    {
      "inputs": [
        {
          "internalType": "address",
          "name": "to",
          "type": "address"
        },
        {
          "internalType": "uint256",
          "name": "tokenId",
          "type": "uint256"
        }
      ],
      "name": "approve",
      "outputs": [],
      "stateMutability": "payable",
      "type": "function"
    },
    {
      "inputs": [
        {
          "internalType": "address",
          "name": "owner",
          "type": "address"
        }
      ],
      "name": "balanceOf",
      "outputs": [
        {
          "internalType": "uint256",
          "name": "",
          "type": "uint256"
        }
      ],
      "stateMutability": "view",
      "type": "function"
    },
    {
      "inputs": [],
      "name": "baseExtension",
      "outputs": [
        {
          "internalType": "string",
          "name": "",
          "type": "string"
        }
      ],
      "stateMutability": "view",
      "type": "function"
    },
    {
      "inputs": [],
      "name": "baseURI",
      "outputs": [
        {
          "internalType": "string",
          "name": "",
          "type": "string"
        }
      ],
      "stateMutability": "view",
      "type": "function"
    },
    {
      "inputs": [],
      "name": "cost",
      "outputs": [
        {
          "internalType": "uint256",
          "name": "",
          "type": "uint256"
        }
      ],
      "stateMutability": "view",
      "type": "function"
    },
    {
      "inputs": [
        {
          "internalType": "uint256",
          "name": "tokenId",
          "type": "uint256"
        }
      ],
      "name": "explicitOwnershipOf",
      "outputs": [
        {
          "components": [
            {
              "internalType": "address",
              "name": "addr",
              "type": "address"
            },
            {
              "internalType": "uint64",
              "name": "startTimestamp",
              "type": "uint64"
            },
            {
              "internalType": "bool",
              "name": "burned",
              "type": "bool"
            },
            {
              "internalType": "uint24",
              "name": "extraData",
              "type": "uint24"
            }
          ],
          "internalType": "struct IERC721A.TokenOwnership",
          "name": "",
          "type": "tuple"
        }
      ],
      "stateMutability": "view",
      "type": "function"
    },
    {
      "inputs": [
        {
          "internalType": "uint256[]",
          "name": "tokenIds",
          "type": "uint256[]"
        }
      ],
      "name": "explicitOwnershipsOf",
      "outputs": [
        {
          "components": [
            {
              "internalType": "address",
              "name": "addr",
              "type": "address"
            },
            {
              "internalType": "uint64",
              "name": "startTimestamp",
              "type": "uint64"
            },
            {
              "internalType": "bool",
              "name": "burned",
              "type": "bool"
            },
            {
              "internalType": "uint24",
              "name": "extraData",
              "type": "uint24"
            }
          ],
          "internalType": "struct IERC721A.TokenOwnership[]",
          "name": "",
          "type": "tuple[]"
        }
      ],
      "stateMutability": "view",
      "type": "function"
    },
    {
      "inputs": [
        {
          "internalType": "uint256",
          "name": "tokenId",
          "type": "uint256"
        }
      ],
      "name": "getApproved",
      "outputs": [
        {
          "internalType": "address",
          "name": "",
          "type": "address"
        }
      ],
      "stateMutability": "view",
      "type": "function"
    },
    {
      "inputs": [
        {
          "internalType": "address",
          "name": "owner",
          "type": "address"
        },
        {
          "internalType": "address",
          "name": "operator",
          "type": "address"
        }
      ],
      "name": "isApprovedForAll",
      "outputs": [
        {
          "internalType": "bool",
          "name": "",
          "type": "bool"
        }
      ],
      "stateMutability": "view",
      "type": "function"
    },
    {
      "inputs": [
        {
          "internalType": "address",
          "name": "_user",
          "type": "address"
        }
      ],
      "name": "isWhitelisted",
      "outputs": [
        {
          "internalType": "bool",
          "name": "",
          "type": "bool"
        }
      ],
      "stateMutability": "view",
      "type": "function"
    },
    {
      "inputs": [],
      "name": "maxMintAmount",
      "outputs": [
        {
          "internalType": "uint256",
          "name": "",
          "type": "uint256"
        }
      ],
      "stateMutability": "view",
      "type": "function"
    },
    {
      "inputs": [],
      "name": "maxSupply",
      "outputs": [
        {
          "internalType": "uint256",
          "name": "",
          "type": "uint256"
        }
      ],
      "stateMutability": "view",
      "type": "function"
    },
    {
      "inputs": [
        {
          "internalType": "uint256",
          "name": "_mintAmount",
          "type": "uint256"
        }
      ],
      "name": "mint",
      "outputs": [],
      "stateMutability": "payable",
      "type": "function"
    },
    {
      "inputs": [],
      "name": "name",
      "outputs": [
        {
          "internalType": "string",
          "name": "",
          "type": "string"
        }
      ],
      "stateMutability": "view",
      "type": "function"
    },
    {
      "inputs": [],
      "name": "nftPerAddressLimit",
      "outputs": [
        {
          "internalType": "uint256",
          "name": "",
          "type": "uint256"
        }
      ],
      "stateMutability": "view",
      "type": "function"
    },
    {
      "inputs": [],
      "name": "notRevealedUri",
      "outputs": [
        {
          "internalType": "string",
          "name": "",
          "type": "string"
        }
      ],
      "stateMutability": "view",
      "type": "function"
    },
    {
      "inputs": [],
      "name": "onlyWhitelisted",
      "outputs": [
        {
          "internalType": "bool",
          "name": "",
          "type": "bool"
        }
      ],
      "stateMutability": "view",
      "type": "function"
    },
    {
      "inputs": [],
      "name": "owner",
      "outputs": [
        {
          "internalType": "address",
          "name": "",
          "type": "address"
        }
      ],
      "stateMutability": "view",
      "type": "function"
    },
    {
      "inputs": [
        {
          "internalType": "uint256",
          "name": "tokenId",
          "type": "uint256"
        }
      ],
      "name": "ownerOf",
      "outputs": [
        {
          "internalType": "address",
          "name": "",
          "type": "address"
        }
      ],
      "stateMutability": "view",
      "type": "function"
    },
    {
      "inputs": [
        {
          "internalType": "bool",
          "name": "_state",
          "type": "bool"
        }
      ],
      "name": "pause",
      "outputs": [],
      "stateMutability": "nonpayable",
      "type": "function"
    },
    {
      "inputs": [],
      "name": "paused",
      "outputs": [
        {
          "internalType": "bool",
          "name": "",
          "type": "bool"
        }
      ],
      "stateMutability": "view",
      "type": "function"
    },
    {
      "inputs": [],
      "name": "renounceOwnership",
      "outputs": [],
      "stateMutability": "nonpayable",
      "type": "function"
    },
    {
      "inputs": [],
      "name": "reveal",
      "outputs": [],
      "stateMutability": "nonpayable",
      "type": "function"
    },
    {
      "inputs": [],
      "name": "revealed",
      "outputs": [
        {
          "internalType": "bool",
          "name": "",
          "type": "bool"
        }
      ],
      "stateMutability": "view",
      "type": "function"
    },
    {
      "inputs": [
        {
          "internalType": "address",
          "name": "from",
          "type": "address"
        },
        {
          "internalType": "address",
          "name": "to",
          "type": "address"
        },
        {
          "internalType": "uint256",
          "name": "tokenId",
          "type": "uint256"
        }
      ],
      "name": "safeTransferFrom",
      "outputs": [],
      "stateMutability": "payable",
      "type": "function"
    },
    {
      "inputs": [
        {
          "internalType": "address",
          "name": "from",
          "type": "address"
        },
        {
          "internalType": "address",
          "name": "to",
          "type": "address"
        },
        {
          "internalType": "uint256",
          "name": "tokenId",
          "type": "uint256"
        },
        {
          "internalType": "bytes",
          "name": "_data",
          "type": "bytes"
        }
      ],
      "name": "safeTransferFrom",
      "outputs": [],
      "stateMutability": "payable",
      "type": "function"
    },
    {
      "inputs": [
        {
          "internalType": "address",
          "name": "operator",
          "type": "address"
        },
        {
          "internalType": "bool",
          "name": "approved",
          "type": "bool"
        }
      ],
      "name": "setApprovalForAll",
      "outputs": [],
      "stateMutability": "nonpayable",
      "type": "function"
    },
    {
      "inputs": [
        {
          "internalType": "string",
          "name": "_newBaseExtension",
          "type": "string"
        }
      ],
      "name": "setBaseExtension",
      "outputs": [],
      "stateMutability": "nonpayable",
      "type": "function"
    },
    {
      "inputs": [
        {
          "internalType": "string",
          "name": "_newBaseURI",
          "type": "string"
        }
      ],
      "name": "setBaseURI",
      "outputs": [],
      "stateMutability": "nonpayable",
      "type": "function"
    },
    {
      "inputs": [
        {
          "internalType": "uint256",
          "name": "_newCost",
          "type": "uint256"
        }
      ],
      "name": "setCost",
      "outputs": [],
      "stateMutability": "nonpayable",
      "type": "function"
    },
    {
      "inputs": [
        {
          "internalType": "uint256",
          "name": "_limit",
          "type": "uint256"
        }
      ],
      "name": "setNftPerAddressLimit",
      "outputs": [],
      "stateMutability": "nonpayable",
      "type": "function"
    },
    {
      "inputs": [
        {
          "internalType": "string",
          "name": "_notRevealedURI",
          "type": "string"
        }
      ],
      "name": "setNotRevealedURI",
      "outputs": [],
      "stateMutability": "nonpayable",
      "type": "function"
    },
    {
      "inputs": [
        {
          "internalType": "bool",
          "name": "_state",
          "type": "bool"
        }
      ],
      "name": "setOnlyWhitelisted",
      "outputs": [],
      "stateMutability": "nonpayable",
      "type": "function"
    },
    {
      "inputs": [
        {
          "internalType": "uint256",
          "name": "_newmaxMintAmount",
          "type": "uint256"
        }
      ],
      "name": "setmaxMintAmount",
      "outputs": [],
      "stateMutability": "nonpayable",
      "type": "function"
    },
    {
      "inputs": [
        {
          "internalType": "bytes4",
          "name": "interfaceId",
          "type": "bytes4"
        }
      ],
      "name": "supportsInterface",
      "outputs": [
        {
          "internalType": "bool",
          "name": "",
          "type": "bool"
        }
      ],
      "stateMutability": "view",
      "type": "function"
    },
    {
      "inputs": [],
      "name": "symbol",
      "outputs": [
        {
          "internalType": "string",
          "name": "",
          "type": "string"
        }
      ],
      "stateMutability": "view",
      "type": "function"
    },
    {
      "inputs": [
        {
          "internalType": "uint256",
          "name": "tokenId",
          "type": "uint256"
        }
      ],
      "name": "tokenURI",
      "outputs": [
        {
          "internalType": "string",
          "name": "",
          "type": "string"
        }
      ],
      "stateMutability": "view",
      "type": "function"
    },
    {
      "inputs": [
        {
          "internalType": "address",
          "name": "owner",
          "type": "address"
        }
      ],
      "name": "tokensOfOwner",
      "outputs": [
        {
          "internalType": "uint256[]",
          "name": "",
          "type": "uint256[]"
        }
      ],
      "stateMutability": "view",
      "type": "function"
    },
    {
      "inputs": [
        {
          "internalType": "address",
          "name": "owner",
          "type": "address"
        },
        {
          "internalType": "uint256",
          "name": "start",
          "type": "uint256"
        },
        {
          "internalType": "uint256",
          "name": "stop",
          "type": "uint256"
        }
      ],
      "name": "tokensOfOwnerIn",
      "outputs": [
        {
          "internalType": "uint256[]",
          "name": "",
          "type": "uint256[]"
        }
      ],
      "stateMutability": "view",
      "type": "function"
    },
    {
      "inputs": [],
      "name": "totalSupply",
      "outputs": [
        {
          "internalType": "uint256",
          "name": "",
          "type": "uint256"
        }
      ],
      "stateMutability": "view",
      "type": "function"
    },
    {
      "inputs": [
        {
          "internalType": "address",
          "name": "from",
          "type": "address"
        },
        {
          "internalType": "address",
          "name": "to",
          "type": "address"
        },
        {
          "internalType": "uint256",
          "name": "tokenId",
          "type": "uint256"
        }
      ],
      "name": "transferFrom",
      "outputs": [],
      "stateMutability": "payable",
      "type": "function"
    },
    {
      "inputs": [
        {
          "internalType": "address",
          "name": "newOwner",
          "type": "address"
        }
      ],
      "name": "transferOwnership",
      "outputs": [],
      "stateMutability": "nonpayable",
      "type": "function"
    },
    {
      "inputs": [
        {
          "internalType": "address[]",
          "name": "_users",
          "type": "address[]"
        }
      ],
      "name": "whitelistUsers",
      "outputs": [],
      "stateMutability": "nonpayable",
      "type": "function"
    },
    {
      "inputs": [
        {
          "internalType": "uint256",
          "name": "",
          "type": "uint256"
        }
      ],
      "name": "whitelistedAddresses",
      "outputs": [
        {
          "internalType": "address",
          "name": "",
          "type": "address"
        }
      ],
      "stateMutability": "view",
      "type": "function"
    },
    {
      "inputs": [],
      "name": "withdraw",
      "outputs": [],
      "stateMutability": "payable",
      "type": "function"
    }
  ],
  "bytecode": "0x60806040526040518060400160405280600581526020017f2e6a736f6e000000000000000000000000000000000000000000000000000000815250600a90816200004a9190620005c5565b5066038d7ea4c68000600c556064600d556002600e556002600f556000601060006101000a81548160ff0219169083151502179055506001601060016101000a81548160ff0219169083151502179055506000601060026101000a81548160ff021916908315150217905550348015620000c357600080fd5b5060405162004abc38038062004abc8339818101604052810190620000e9919062000810565b83838160029081620000fc9190620005c5565b5080600390816200010e9190620005c5565b506200011f6200017360201b60201c565b6000819055505050620001476200013b6200017860201b60201c565b6200018060201b60201c565b62000158826200024660201b60201c565b62000169816200026b60201b60201c565b5050505062000981565b600090565b600033905090565b6000600860009054906101000a900473ffffffffffffffffffffffffffffffffffffffff16905081600860006101000a81548173ffffffffffffffffffffffffffffffffffffffff021916908373ffffffffffffffffffffffffffffffffffffffff1602179055508173ffffffffffffffffffffffffffffffffffffffff168173ffffffffffffffffffffffffffffffffffffffff167f8be0079c531659141344cd1fd0a4f28419497f9722a3daafe3b4186f6b6457e060405160405180910390a35050565b620002566200029060201b60201c565b8060099081620002679190620005c5565b5050565b6200027b6200029060201b60201c565b80600b90816200028c9190620005c5565b5050565b620002a06200017860201b60201c565b73ffffffffffffffffffffffffffffffffffffffff16620002c66200032160201b60201c565b73ffffffffffffffffffffffffffffffffffffffff16146200031f576040517f08c379a000000000000000000000000000000000000000000000000000000000815260040162000316906200095f565b60405180910390fd5b565b6000600860009054906101000a900473ffffffffffffffffffffffffffffffffffffffff16905090565b600081519050919050565b7f4e487b7100000000000000000000000000000000000000000000000000000000600052604160045260246000fd5b7f4e487b7100000000000000000000000000000000000000000000000000000000600052602260045260246000fd5b60006002820490506001821680620003cd57607f821691505b602082108103620003e357620003e262000385565b5b50919050565b60008190508160005260206000209050919050565b60006020601f8301049050919050565b600082821b905092915050565b6000600883026200044d7fffffffffffffffffffffffffffffffffffffffffffffffffffffffffffffffff826200040e565b6200045986836200040e565b95508019841693508086168417925050509392505050565b6000819050919050565b6000819050919050565b6000620004a6620004a06200049a8462000471565b6200047b565b62000471565b9050919050565b6000819050919050565b620004c28362000485565b620004da620004d182620004ad565b8484546200041b565b825550505050565b600090565b620004f1620004e2565b620004fe818484620004b7565b505050565b5b8181101562000526576200051a600082620004e7565b60018101905062000504565b5050565b601f82111562000575576200053f81620003e9565b6200054a84620003fe565b810160208510156200055a578190505b620005726200056985620003fe565b83018262000503565b50505b505050565b600082821c905092915050565b60006200059a600019846008026200057a565b1980831691505092915050565b6000620005b5838362000587565b9150826002028217905092915050565b620005d0826200034b565b67ffffffffffffffff811115620005ec57620005eb62000356565b5b620005f88254620003b4565b620006058282856200052a565b600060209050601f8311600181146200063d576000841562000628578287015190505b620006348582620005a7565b865550620006a4565b601f1984166200064d86620003e9565b60005b82811015620006775784890151825560018201915060208501945060208101905062000650565b8683101562000697578489015162000693601f89168262000587565b8355505b6001600288020188555050505b505050505050565b6000604051905090565b600080fd5b600080fd5b600080fd5b600080fd5b6000601f19601f8301169050919050565b620006e682620006ca565b810181811067ffffffffffffffff8211171562000708576200070762000356565b5b80604052505050565b60006200071d620006ac565b90506200072b8282620006db565b919050565b600067ffffffffffffffff8211156200074e576200074d62000356565b5b6200075982620006ca565b9050602081019050919050565b60005b838110156200078657808201518184015260208101905062000769565b60008484015250505050565b6000620007a9620007a38462000730565b62000711565b905082815260208101848484011115620007c857620007c7620006c5565b5b620007d584828562000766565b509392505050565b600082601f830112620007f557620007f4620006c0565b5b81516200080784826020860162000792565b91505092915050565b600080600080608085870312156200082d576200082c620006b6565b5b600085015167ffffffffffffffff8111156200084e576200084d620006bb565b5b6200085c87828801620007dd565b945050602085015167ffffffffffffffff81111562000880576200087f620006bb565b5b6200088e87828801620007dd565b935050604085015167ffffffffffffffff811115620008b257620008b1620006bb565b5b620008c087828801620007dd565b925050606085015167ffffffffffffffff811115620008e457620008e3620006bb565b5b620008f287828801620007dd565b91505092959194509250565b600082825260208201905092915050565b7f4f776e61626c653a2063616c6c6572206973206e6f7420746865206f776e6572600082015250565b600062000947602083620008fe565b915062000954826200090f565b602082019050919050565b600060208201905081810360008301526200097a8162000938565b9050919050565b61412b80620009916000396000f3fe60806040526004361061027d5760003560e01c8063715018a61161014f578063ba4e5c49116100c1578063d5abeb011161007a578063d5abeb0114610970578063da3ef23f1461099b578063e985e9c5146109c4578063edec5f2714610a01578063f2c4ce1e14610a2a578063f2fde38b14610a535761027d565b8063ba4e5c491461083a578063ba7d2c7614610877578063c23dc68f146108a2578063c6682862146108df578063c87b56dd1461090a578063d0eb26b0146109475761027d565b806399a2557a1161011357806399a2557a1461075a5780639c70b51214610797578063a0712d68146107c2578063a22cb465146107de578063a475b5dd14610807578063b88d4fde1461081e5761027d565b8063715018a6146106875780637f00c7a61461069e5780638462151c146106c75780638da5cb5b1461070457806395d89b411461072f5761027d565b80633af32abf116101f357806355f804b3116101ac57806355f804b3146105515780635bbb21771461057a5780635c975abb146105b75780636352211e146105e25780636c0360eb1461061f57806370a082311461064a5761027d565b80633af32abf146104715780633c952764146104ae5780633ccfd60b146104d757806342842e0e146104e157806344a0d68a146104fd57806351830227146105265761027d565b8063095ea7b311610245578063095ea7b31461037b57806313faede61461039757806318160ddd146103c257806318cae269146103ed578063239c70ae1461042a57806323b872dd146104555761027d565b806301ffc9a71461028257806302329a29146102bf57806306fdde03146102e8578063081812fc14610313578063081c8c4414610350575b600080fd5b34801561028e57600080fd5b506102a960048036038101906102a49190612c7d565b610a7c565b6040516102b69190612cc5565b60405180910390f35b3480156102cb57600080fd5b506102e660048036038101906102e19190612d0c565b610b0e565b005b3480156102f457600080fd5b506102fd610b33565b60405161030a9190612dc9565b60405180910390f35b34801561031f57600080fd5b5061033a60048036038101906103359190612e21565b610bc5565b6040516103479190612e8f565b60405180910390f35b34801561035c57600080fd5b50610365610c44565b6040516103729190612dc9565b60405180910390f35b61039560048036038101906103909190612ed6565b610cd2565b005b3480156103a357600080fd5b506103ac610e16565b6040516103b99190612f25565b60405180910390f35b3480156103ce57600080fd5b506103d7610e1c565b6040516103e49190612f25565b60405180910390f35b3480156103f957600080fd5b50610414600480360381019061040f9190612f40565b610e33565b6040516104219190612f25565b60405180910390f35b34801561043657600080fd5b5061043f610e4b565b60405161044c9190612f25565b60405180910390f35b61046f600480360381019061046a9190612f6d565b610e51565b005b34801561047d57600080fd5b5061049860048036038101906104939190612f40565b611173565b6040516104a59190612cc5565b60405180910390f35b3480156104ba57600080fd5b506104d560048036038101906104d09190612d0c565b611221565b005b6104df611246565b005b6104fb60048036038101906104f69190612f6d565b6112ce565b005b34801561050957600080fd5b50610524600480360381019061051f9190612e21565b6112ee565b005b34801561053257600080fd5b5061053b611300565b6040516105489190612cc5565b60405180910390f35b34801561055d57600080fd5b50610578600480360381019061057391906130f5565b611313565b005b34801561058657600080fd5b506105a1600480360381019061059c919061319e565b61132e565b6040516105ae919061334e565b60405180910390f35b3480156105c357600080fd5b506105cc6113f1565b6040516105d99190612cc5565b60405180910390f35b3480156105ee57600080fd5b5061060960048036038101906106049190612e21565b611404565b6040516106169190612e8f565b60405180910390f35b34801561062b57600080fd5b50610634611416565b6040516106419190612dc9565b60405180910390f35b34801561065657600080fd5b50610671600480360381019061066c9190612f40565b6114a4565b60405161067e9190612f25565b60405180910390f35b34801561069357600080fd5b5061069c61155c565b005b3480156106aa57600080fd5b506106c560048036038101906106c09190612e21565b611570565b005b3480156106d357600080fd5b506106ee60048036038101906106e99190612f40565b611582565b6040516106fb919061342e565b60405180910390f35b34801561071057600080fd5b506107196116c5565b6040516107269190612e8f565b60405180910390f35b34801561073b57600080fd5b506107446116ef565b6040516107519190612dc9565b60405180910390f35b34801561076657600080fd5b50610781600480360381019061077c9190613450565b611781565b60405161078e919061342e565b60405180910390f35b3480156107a357600080fd5b506107ac61198d565b6040516107b99190612cc5565b60405180910390f35b6107dc60048036038101906107d79190612e21565b6119a0565b005b3480156107ea57600080fd5b50610805600480360381019061080091906134a3565b611cbc565b005b34801561081357600080fd5b5061081c611dc7565b005b61083860048036038101906108339190613584565b611dec565b005b34801561084657600080fd5b50610861600480360381019061085c9190612e21565b611e5f565b60405161086e9190612e8f565b60405180910390f35b34801561088357600080fd5b5061088c611e9e565b6040516108999190612f25565b60405180910390f35b3480156108ae57600080fd5b506108c960048036038101906108c49190612e21565b611ea4565b6040516108d6919061365c565b60405180910390f35b3480156108eb57600080fd5b506108f4611f0e565b6040516109019190612dc9565b60405180910390f35b34801561091657600080fd5b50610931600480360381019061092c9190612e21565b611f9c565b60405161093e9190612dc9565b60405180910390f35b34801561095357600080fd5b5061096e60048036038101906109699190612e21565b61203a565b005b34801561097c57600080fd5b5061098561204c565b6040516109929190612f25565b60405180910390f35b3480156109a757600080fd5b506109c260048036038101906109bd91906130f5565b612052565b005b3480156109d057600080fd5b506109eb60048036038101906109e69190613677565b61206d565b6040516109f89190612cc5565b60405180910390f35b348015610a0d57600080fd5b50610a286004803603810190610a23919061370d565b612101565b005b348015610a3657600080fd5b50610a516004803603810190610a4c91906130f5565b61212d565b005b348015610a5f57600080fd5b50610a7a6004803603810190610a759190612f40565b612148565b005b60006301ffc9a760e01b827bffffffffffffffffffffffffffffffffffffffffffffffffffffffff19161480610ad757506380ac58cd60e01b827bffffffffffffffffffffffffffffffffffffffffffffffffffffffff1916145b80610b075750635b5e139f60e01b827bffffffffffffffffffffffffffffffffffffffffffffffffffffffff1916145b9050919050565b610b166121cb565b80601060006101000a81548160ff02191690831515021790555050565b606060028054610b4290613789565b80601f0160208091040260200160405190810160405280929190818152602001828054610b6e90613789565b8015610bbb5780601f10610b9057610100808354040283529160200191610bbb565b820191906000526020600020905b815481529060010190602001808311610b9e57829003601f168201915b5050505050905090565b6000610bd082612249565b610c06576040517fcf4700e400000000000000000000000000000000000000000000000000000000815260040160405180910390fd5b6006600083815260200190815260200160002060000160009054906101000a900473ffffffffffffffffffffffffffffffffffffffff169050919050565b600b8054610c5190613789565b80601f0160208091040260200160405190810160405280929190818152602001828054610c7d90613789565b8015610cca5780601f10610c9f57610100808354040283529160200191610cca565b820191906000526020600020905b815481529060010190602001808311610cad57829003601f168201915b505050505081565b6000610cdd82611404565b90508073ffffffffffffffffffffffffffffffffffffffff16610cfe6122a8565b73ffffffffffffffffffffffffffffffffffffffff1614610d6157610d2a81610d256122a8565b61206d565b610d60576040517fcfb3b94200000000000000000000000000000000000000000000000000000000815260040160405180910390fd5b5b826006600084815260200190815260200160002060000160006101000a81548173ffffffffffffffffffffffffffffffffffffffff021916908373ffffffffffffffffffffffffffffffffffffffff160217905550818373ffffffffffffffffffffffffffffffffffffffff168273ffffffffffffffffffffffffffffffffffffffff167f8c5be1e5ebec7d5bd14f71427d1e84f3dd0314c0f7b2291e5b200ac8c7c3b92560405160405180910390a4505050565b600c5481565b6000610e266122b0565b6001546000540303905090565b60126020528060005260406000206000915090505481565b600e5481565b6000610e5c826122b5565b90508373ffffffffffffffffffffffffffffffffffffffff168173ffffffffffffffffffffffffffffffffffffffff1614610ec3576040517fa114810000000000000000000000000000000000000000000000000000000000815260040160405180910390fd5b600080610ecf84612381565b91509150610ee58187610ee06122a8565b6123a8565b610f3157610efa86610ef56122a8565b61206d565b610f30576040517f59c896be00000000000000000000000000000000000000000000000000000000815260040160405180910390fd5b5b600073ffffffffffffffffffffffffffffffffffffffff168573ffffffffffffffffffffffffffffffffffffffff1603610f97576040517fea553b3400000000000000000000000000000000000000000000000000000000815260040160405180910390fd5b610fa486868660016123ec565b8015610faf57600082555b600560008773ffffffffffffffffffffffffffffffffffffffff1673ffffffffffffffffffffffffffffffffffffffff168152602001908152602001600020600081546001900391905081905550600560008673ffffffffffffffffffffffffffffffffffffffff1673ffffffffffffffffffffffffffffffffffffffff168152602001908152602001600020600081546001019190508190555061107d856110598888876123f2565b7c02000000000000000000000000000000000000000000000000000000001761241a565b600460008681526020019081526020016000208190555060007c02000000000000000000000000000000000000000000000000000000008416036111035760006001850190506000600460008381526020019081526020016000205403611101576000548114611100578360046000838152602001908152602001600020819055505b5b505b838573ffffffffffffffffffffffffffffffffffffffff168773ffffffffffffffffffffffffffffffffffffffff167fddf252ad1be2c89b69c2b068fc378daa952ba7f163c4a11628f55a4df523b3ef60405160405180910390a461116b8686866001612445565b505050505050565b600080600090505b601180549050811015611216578273ffffffffffffffffffffffffffffffffffffffff16601182815481106111b3576111b26137ba565b5b9060005260206000200160009054906101000a900473ffffffffffffffffffffffffffffffffffffffff1673ffffffffffffffffffffffffffffffffffffffff160361120357600191505061121c565b808061120e90613818565b91505061117b565b50600090505b919050565b6112296121cb565b80601060026101000a81548160ff02191690831515021790555050565b61124e6121cb565b60006112586116c5565b73ffffffffffffffffffffffffffffffffffffffff164760405161127b90613891565b60006040518083038185875af1925050503d80600081146112b8576040519150601f19603f3d011682016040523d82523d6000602084013e6112bd565b606091505b50509050806112cb57600080fd5b50565b6112e983838360405180602001604052806000815250611dec565b505050565b6112f66121cb565b80600c8190555050565b601060019054906101000a900460ff1681565b61131b6121cb565b806009908161132a9190613a52565b5050565b6060600083839050905060008167ffffffffffffffff81111561135457611353612fca565b5b60405190808252806020026020018201604052801561138d57816020015b61137a612ae4565b8152602001906001900390816113725790505b50905060005b8281146113e5576113bc8686838181106113b0576113af6137ba565b5b90506020020135611ea4565b8282815181106113cf576113ce6137ba565b5b6020026020010181905250806001019050611393565b50809250505092915050565b601060009054906101000a900460ff1681565b600061140f826122b5565b9050919050565b6009805461142390613789565b80601f016020809104026020016040519081016040528092919081815260200182805461144f90613789565b801561149c5780601f106114715761010080835404028352916020019161149c565b820191906000526020600020905b81548152906001019060200180831161147f57829003601f168201915b505050505081565b60008073ffffffffffffffffffffffffffffffffffffffff168273ffffffffffffffffffffffffffffffffffffffff160361150b576040517f8f4eb60400000000000000000000000000000000000000000000000000000000815260040160405180910390fd5b67ffffffffffffffff600560008473ffffffffffffffffffffffffffffffffffffffff1673ffffffffffffffffffffffffffffffffffffffff16815260200190815260200160002054169050919050565b6115646121cb565b61156e600061244b565b565b6115786121cb565b80600e8190555050565b60606000806000611592856114a4565b905060008167ffffffffffffffff8111156115b0576115af612fca565b5b6040519080825280602002602001820160405280156115de5781602001602082028036833780820191505090505b5090506115e9612ae4565b60006115f36122b0565b90505b8386146116b75761160681612511565b915081604001516116ac57600073ffffffffffffffffffffffffffffffffffffffff16826000015173ffffffffffffffffffffffffffffffffffffffff161461165157816000015194505b8773ffffffffffffffffffffffffffffffffffffffff168573ffffffffffffffffffffffffffffffffffffffff16036116ab578083878060010198508151811061169e5761169d6137ba565b5b6020026020010181815250505b5b8060010190506115f6565b508195505050505050919050565b6000600860009054906101000a900473ffffffffffffffffffffffffffffffffffffffff16905090565b6060600380546116fe90613789565b80601f016020809104026020016040519081016040528092919081815260200182805461172a90613789565b80156117775780601f1061174c57610100808354040283529160200191611777565b820191906000526020600020905b81548152906001019060200180831161175a57829003601f168201915b5050505050905090565b60608183106117bc576040517f32c1995a00000000000000000000000000000000000000000000000000000000815260040160405180910390fd5b6000806117c761253c565b90506117d16122b0565b8510156117e3576117e06122b0565b94505b808411156117ef578093505b60006117fa876114a4565b90508486101561181d576000868603905081811015611817578091505b50611822565b600090505b60008167ffffffffffffffff81111561183e5761183d612fca565b5b60405190808252806020026020018201604052801561186c5781602001602082028036833780820191505090505b509050600082036118835780945050505050611986565b600061188e88611ea4565b9050600081604001516118a357816000015190505b60008990505b8881141580156118b95750848714155b15611978576118c781612511565b9250826040015161196d57600073ffffffffffffffffffffffffffffffffffffffff16836000015173ffffffffffffffffffffffffffffffffffffffff161461191257826000015191505b8a73ffffffffffffffffffffffffffffffffffffffff168273ffffffffffffffffffffffffffffffffffffffff160361196c578084888060010199508151811061195f5761195e6137ba565b5b6020026020010181815250505b5b8060010190506118a9565b508583528296505050505050505b9392505050565b601060029054906101000a900460ff1681565b601060009054906101000a900460ff16156119f0576040517f08c379a00000000000000000000000000000000000000000000000000000000081526004016119e790613b70565b60405180910390fd5b60006119fa610e1c565b905060008211611a3f576040517f08c379a0000000000000000000000000000000000000000000000000000000008152600401611a3690613bdc565b60405180910390fd5b600e54821115611a84576040517f08c379a0000000000000000000000000000000000000000000000000000000008152600401611a7b90613c6e565b60405180910390fd5b600d548282611a939190613c8e565b1115611ad4576040517f08c379a0000000000000000000000000000000000000000000000000000000008152600401611acb90613d0e565b60405180910390fd5b611adc6116c5565b73ffffffffffffffffffffffffffffffffffffffff163373ffffffffffffffffffffffffffffffffffffffff1614611c585760011515601060029054906101000a900460ff16151503611b7257611b3233611173565b611b71576040517f08c379a0000000000000000000000000000000000000000000000000000000008152600401611b6890613d7a565b60405180910390fd5b5b6000601260003373ffffffffffffffffffffffffffffffffffffffff1673ffffffffffffffffffffffffffffffffffffffff168152602001908152602001600020549050600f548382611bc59190613c8e565b1115611c06576040517f08c379a0000000000000000000000000000000000000000000000000000000008152600401611bfd90613de6565b60405180910390fd5b82600c54611c149190613e06565b341015611c56576040517f08c379a0000000000000000000000000000000000000000000000000000000008152600401611c4d90613e94565b60405180910390fd5b505b81601260003373ffffffffffffffffffffffffffffffffffffffff1673ffffffffffffffffffffffffffffffffffffffff1681526020019081526020016000206000828254611ca79190613c8e565b92505081905550611cb83383612545565b5050565b8060076000611cc96122a8565b73ffffffffffffffffffffffffffffffffffffffff1673ffffffffffffffffffffffffffffffffffffffff16815260200190815260200160002060008473ffffffffffffffffffffffffffffffffffffffff1673ffffffffffffffffffffffffffffffffffffffff16815260200190815260200160002060006101000a81548160ff0219169083151502179055508173ffffffffffffffffffffffffffffffffffffffff16611d766122a8565b73ffffffffffffffffffffffffffffffffffffffff167f17307eab39ab6107e8899845ad3d59bd9653f200f220920489ca2b5937696c3183604051611dbb9190612cc5565b60405180910390a35050565b611dcf6121cb565b6001601060016101000a81548160ff021916908315150217905550565b611df7848484610e51565b60008373ffffffffffffffffffffffffffffffffffffffff163b14611e5957611e2284848484612563565b611e58576040517fd1a57ed600000000000000000000000000000000000000000000000000000000815260040160405180910390fd5b5b50505050565b60118181548110611e6f57600080fd5b906000526020600020016000915054906101000a900473ffffffffffffffffffffffffffffffffffffffff1681565b600f5481565b611eac612ae4565b611eb4612ae4565b611ebc6122b0565b831080611ed05750611ecc61253c565b8310155b15611ede5780915050611f09565b611ee783612511565b9050806040015115611efc5780915050611f09565b611f05836126b3565b9150505b919050565b600a8054611f1b90613789565b80601f0160208091040260200160405190810160405280929190818152602001828054611f4790613789565b8015611f945780601f10611f6957610100808354040283529160200191611f94565b820191906000526020600020905b815481529060010190602001808311611f7757829003601f168201915b505050505081565b6060611fa782612249565b611fdd576040517fa14c4b5000000000000000000000000000000000000000000000000000000000815260040160405180910390fd5b6000611fe76126d3565b905060008151036120075760405180602001604052806000815250612032565b8061201184612765565b604051602001612022929190613ef0565b6040516020818303038152906040525b915050919050565b6120426121cb565b80600f8190555050565b600d5481565b61205a6121cb565b80600a90816120699190613a52565b5050565b6000600760008473ffffffffffffffffffffffffffffffffffffffff1673ffffffffffffffffffffffffffffffffffffffff16815260200190815260200160002060008373ffffffffffffffffffffffffffffffffffffffff1673ffffffffffffffffffffffffffffffffffffffff16815260200190815260200160002060009054906101000a900460ff16905092915050565b6121096121cb565b601160006121179190612b33565b818160119190612128929190612b54565b505050565b6121356121cb565b80600b90816121449190613a52565b5050565b6121506121cb565b600073ffffffffffffffffffffffffffffffffffffffff168173ffffffffffffffffffffffffffffffffffffffff16036121bf576040517f08c379a00000000000000000000000000000000000000000000000000000000081526004016121b690613f86565b60405180910390fd5b6121c88161244b565b50565b6121d36127b5565b73ffffffffffffffffffffffffffffffffffffffff166121f16116c5565b73ffffffffffffffffffffffffffffffffffffffff1614612247576040517f08c379a000000000000000000000000000000000000000000000000000000000815260040161223e90613ff2565b60405180910390fd5b565b6000816122546122b0565b11158015612263575060005482105b80156122a1575060007c0100000000000000000000000000000000000000000000000000000000600460008581526020019081526020016000205416145b9050919050565b600033905090565b600090565b600080829050806122c46122b0565b1161234a576000548110156123495760006004600083815260200190815260200160002054905060007c0100000000000000000000000000000000000000000000000000000000821603612347575b6000810361233d576004600083600190039350838152602001908152602001600020549050612313565b809250505061237c565b505b5b6040517fdf2d9b4200000000000000000000000000000000000000000000000000000000815260040160405180910390fd5b919050565b60008060006006600085815260200190815260200160002090508092508254915050915091565b600073ffffffffffffffffffffffffffffffffffffffff8316925073ffffffffffffffffffffffffffffffffffffffff821691508382148383141790509392505050565b50505050565b60008060e883901c905060e86124098686846127bd565b62ffffff16901b9150509392505050565b600073ffffffffffffffffffffffffffffffffffffffff83169250814260a01b178317905092915050565b50505050565b6000600860009054906101000a900473ffffffffffffffffffffffffffffffffffffffff16905081600860006101000a81548173ffffffffffffffffffffffffffffffffffffffff021916908373ffffffffffffffffffffffffffffffffffffffff1602179055508173ffffffffffffffffffffffffffffffffffffffff168173ffffffffffffffffffffffffffffffffffffffff167f8be0079c531659141344cd1fd0a4f28419497f9722a3daafe3b4186f6b6457e060405160405180910390a35050565b612519612ae4565b61253560046000848152602001908152602001600020546127c6565b9050919050565b60008054905090565b61255f82826040518060200160405280600081525061287c565b5050565b60008373ffffffffffffffffffffffffffffffffffffffff1663150b7a026125896122a8565b8786866040518563ffffffff1660e01b81526004016125ab9493929190614067565b6020604051808303816000875af19250505080156125e757506040513d601f19601f820116820180604052508101906125e491906140c8565b60015b612660573d8060008114612617576040519150601f19603f3d011682016040523d82523d6000602084013e61261c565b606091505b506000815103612658576040517fd1a57ed600000000000000000000000000000000000000000000000000000000815260040160405180910390fd5b805181602001fd5b63150b7a0260e01b7bffffffffffffffffffffffffffffffffffffffffffffffffffffffff1916817bffffffffffffffffffffffffffffffffffffffffffffffffffffffff191614915050949350505050565b6126bb612ae4565b6126cc6126c7836122b5565b6127c6565b9050919050565b6060600980546126e290613789565b80601f016020809104026020016040519081016040528092919081815260200182805461270e90613789565b801561275b5780601f106127305761010080835404028352916020019161275b565b820191906000526020600020905b81548152906001019060200180831161273e57829003601f168201915b5050505050905090565b606060a060405101806040526020810391506000825281835b6001156127a057600184039350600a81066030018453600a810490508061277e575b50828103602084039350808452505050919050565b600033905090565b60009392505050565b6127ce612ae4565b81816000019073ffffffffffffffffffffffffffffffffffffffff16908173ffffffffffffffffffffffffffffffffffffffff168152505060a082901c816020019067ffffffffffffffff16908167ffffffffffffffff168152505060007c01000000000000000000000000000000000000000000000000000000008316141581604001901515908115158152505060e882901c816060019062ffffff16908162ffffff1681525050919050565b6128868383612919565b60008373ffffffffffffffffffffffffffffffffffffffff163b1461291457600080549050600083820390505b6128c66000868380600101945086612563565b6128fc576040517fd1a57ed600000000000000000000000000000000000000000000000000000000815260040160405180910390fd5b8181106128b357816000541461291157600080fd5b50505b505050565b60008054905060008203612959576040517fb562e8dd00000000000000000000000000000000000000000000000000000000815260040160405180910390fd5b61296660008483856123ec565b600160406001901b178202600560008573ffffffffffffffffffffffffffffffffffffffff1673ffffffffffffffffffffffffffffffffffffffff168152602001908152602001600020600082825401925050819055506129dd836129ce60008660006123f2565b6129d785612ad4565b1761241a565b6004600083815260200190815260200160002081905550600080838301905073ffffffffffffffffffffffffffffffffffffffff85169150828260007fddf252ad1be2c89b69c2b068fc378daa952ba7f163c4a11628f55a4df523b3ef600080a4600183015b818114612a7e57808360007fddf252ad1be2c89b69c2b068fc378daa952ba7f163c4a11628f55a4df523b3ef600080a4600181019050612a43565b5060008203612ab9576040517f2e07630000000000000000000000000000000000000000000000000000000000815260040160405180910390fd5b806000819055505050612acf6000848385612445565b505050565b60006001821460e11b9050919050565b6040518060800160405280600073ffffffffffffffffffffffffffffffffffffffff168152602001600067ffffffffffffffff168152602001600015158152602001600062ffffff1681525090565b5080546000825590600052602060002090810190612b519190612bf4565b50565b828054828255906000526020600020908101928215612be3579160200282015b82811115612be257823573ffffffffffffffffffffffffffffffffffffffff168260006101000a81548173ffffffffffffffffffffffffffffffffffffffff021916908373ffffffffffffffffffffffffffffffffffffffff16021790555091602001919060010190612b74565b5b509050612bf09190612bf4565b5090565b5b80821115612c0d576000816000905550600101612bf5565b5090565b6000604051905090565b600080fd5b600080fd5b60007fffffffff0000000000000000000000000000000000000000000000000000000082169050919050565b612c5a81612c25565b8114612c6557600080fd5b50565b600081359050612c7781612c51565b92915050565b600060208284031215612c9357612c92612c1b565b5b6000612ca184828501612c68565b91505092915050565b60008115159050919050565b612cbf81612caa565b82525050565b6000602082019050612cda6000830184612cb6565b92915050565b612ce981612caa565b8114612cf457600080fd5b50565b600081359050612d0681612ce0565b92915050565b600060208284031215612d2257612d21612c1b565b5b6000612d3084828501612cf7565b91505092915050565b600081519050919050565b600082825260208201905092915050565b60005b83811015612d73578082015181840152602081019050612d58565b60008484015250505050565b6000601f19601f8301169050919050565b6000612d9b82612d39565b612da58185612d44565b9350612db5818560208601612d55565b612dbe81612d7f565b840191505092915050565b60006020820190508181036000830152612de38184612d90565b905092915050565b6000819050919050565b612dfe81612deb565b8114612e0957600080fd5b50565b600081359050612e1b81612df5565b92915050565b600060208284031215612e3757612e36612c1b565b5b6000612e4584828501612e0c565b91505092915050565b600073ffffffffffffffffffffffffffffffffffffffff82169050919050565b6000612e7982612e4e565b9050919050565b612e8981612e6e565b82525050565b6000602082019050612ea46000830184612e80565b92915050565b612eb381612e6e565b8114612ebe57600080fd5b50565b600081359050612ed081612eaa565b92915050565b60008060408385031215612eed57612eec612c1b565b5b6000612efb85828601612ec1565b9250506020612f0c85828601612e0c565b9150509250929050565b612f1f81612deb565b82525050565b6000602082019050612f3a6000830184612f16565b92915050565b600060208284031215612f5657612f55612c1b565b5b6000612f6484828501612ec1565b91505092915050565b600080600060608486031215612f8657612f85612c1b565b5b6000612f9486828701612ec1565b9350506020612fa586828701612ec1565b9250506040612fb686828701612e0c565b9150509250925092565b600080fd5b600080fd5b7f4e487b7100000000000000000000000000000000000000000000000000000000600052604160045260246000fd5b61300282612d7f565b810181811067ffffffffffffffff8211171561302157613020612fca565b5b80604052505050565b6000613034612c11565b90506130408282612ff9565b919050565b600067ffffffffffffffff8211156130605761305f612fca565b5b61306982612d7f565b9050602081019050919050565b82818337600083830152505050565b600061309861309384613045565b61302a565b9050828152602081018484840111156130b4576130b3612fc5565b5b6130bf848285613076565b509392505050565b600082601f8301126130dc576130db612fc0565b5b81356130ec848260208601613085565b91505092915050565b60006020828403121561310b5761310a612c1b565b5b600082013567ffffffffffffffff81111561312957613128612c20565b5b613135848285016130c7565b91505092915050565b600080fd5b600080fd5b60008083601f84011261315e5761315d612fc0565b5b8235905067ffffffffffffffff81111561317b5761317a61313e565b5b60208301915083602082028301111561319757613196613143565b5b9250929050565b600080602083850312156131b5576131b4612c1b565b5b600083013567ffffffffffffffff8111156131d3576131d2612c20565b5b6131df85828601613148565b92509250509250929050565b600081519050919050565b600082825260208201905092915050565b6000819050602082019050919050565b61322081612e6e565b82525050565b600067ffffffffffffffff82169050919050565b61324381613226565b82525050565b61325281612caa565b82525050565b600062ffffff82169050919050565b61327081613258565b82525050565b60808201600082015161328c6000850182613217565b50602082015161329f602085018261323a565b5060408201516132b26040850182613249565b5060608201516132c56060850182613267565b50505050565b60006132d78383613276565b60808301905092915050565b6000602082019050919050565b60006132fb826131eb565b61330581856131f6565b935061331083613207565b8060005b8381101561334157815161332888826132cb565b9750613333836132e3565b925050600181019050613314565b5085935050505092915050565b6000602082019050818103600083015261336881846132f0565b905092915050565b600081519050919050565b600082825260208201905092915050565b6000819050602082019050919050565b6133a581612deb565b82525050565b60006133b7838361339c565b60208301905092915050565b6000602082019050919050565b60006133db82613370565b6133e5818561337b565b93506133f08361338c565b8060005b8381101561342157815161340888826133ab565b9750613413836133c3565b9250506001810190506133f4565b5085935050505092915050565b6000602082019050818103600083015261344881846133d0565b905092915050565b60008060006060848603121561346957613468612c1b565b5b600061347786828701612ec1565b935050602061348886828701612e0c565b925050604061349986828701612e0c565b9150509250925092565b600080604083850312156134ba576134b9612c1b565b5b60006134c885828601612ec1565b92505060206134d985828601612cf7565b9150509250929050565b600067ffffffffffffffff8211156134fe576134fd612fca565b5b61350782612d7f565b9050602081019050919050565b6000613527613522846134e3565b61302a565b90508281526020810184848401111561354357613542612fc5565b5b61354e848285613076565b509392505050565b600082601f83011261356b5761356a612fc0565b5b813561357b848260208601613514565b91505092915050565b6000806000806080858703121561359e5761359d612c1b565b5b60006135ac87828801612ec1565b94505060206135bd87828801612ec1565b93505060406135ce87828801612e0c565b925050606085013567ffffffffffffffff8111156135ef576135ee612c20565b5b6135fb87828801613556565b91505092959194509250565b60808201600082015161361d6000850182613217565b506020820151613630602085018261323a565b5060408201516136436040850182613249565b5060608201516136566060850182613267565b50505050565b60006080820190506136716000830184613607565b92915050565b6000806040838503121561368e5761368d612c1b565b5b600061369c85828601612ec1565b92505060206136ad85828601612ec1565b9150509250929050565b60008083601f8401126136cd576136cc612fc0565b5b8235905067ffffffffffffffff8111156136ea576136e961313e565b5b60208301915083602082028301111561370657613705613143565b5b9250929050565b6000806020838503121561372457613723612c1b565b5b600083013567ffffffffffffffff81111561374257613741612c20565b5b61374e858286016136b7565b92509250509250929050565b7f4e487b7100000000000000000000000000000000000000000000000000000000600052602260045260246000fd5b600060028204905060018216806137a157607f821691505b6020821081036137b4576137b361375a565b5b50919050565b7f4e487b7100000000000000000000000000000000000000000000000000000000600052603260045260246000fd5b7f4e487b7100000000000000000000000000000000000000000000000000000000600052601160045260246000fd5b600061382382612deb565b91507fffffffffffffffffffffffffffffffffffffffffffffffffffffffffffffffff8203613855576138546137e9565b5b600182019050919050565b600081905092915050565b50565b600061387b600083613860565b91506138868261386b565b600082019050919050565b600061389c8261386e565b9150819050919050565b60008190508160005260206000209050919050565b60006020601f8301049050919050565b600082821b905092915050565b6000600883026139087fffffffffffffffffffffffffffffffffffffffffffffffffffffffffffffffff826138cb565b61391286836138cb565b95508019841693508086168417925050509392505050565b6000819050919050565b600061394f61394a61394584612deb565b61392a565b612deb565b9050919050565b6000819050919050565b61396983613934565b61397d61397582613956565b8484546138d8565b825550505050565b600090565b613992613985565b61399d818484613960565b505050565b5b818110156139c1576139b660008261398a565b6001810190506139a3565b5050565b601f821115613a06576139d7816138a6565b6139e0846138bb565b810160208510156139ef578190505b613a036139fb856138bb565b8301826139a2565b50505b505050565b600082821c905092915050565b6000613a2960001984600802613a0b565b1980831691505092915050565b6000613a428383613a18565b9150826002028217905092915050565b613a5b82612d39565b67ffffffffffffffff811115613a7457613a73612fca565b5b613a7e8254613789565b613a898282856139c5565b600060209050601f831160018114613abc5760008415613aaa578287015190505b613ab48582613a36565b865550613b1c565b601f198416613aca866138a6565b60005b82811015613af257848901518255600182019150602085019450602081019050613acd565b86831015613b0f5784890151613b0b601f891682613a18565b8355505b6001600288020188555050505b505050505050565b7f74686520636f6e74726163742069732070617573656400000000000000000000600082015250565b6000613b5a601683612d44565b9150613b6582613b24565b602082019050919050565b60006020820190508181036000830152613b8981613b4d565b9050919050565b7f6e65656420746f206d696e74206174206c656173742031204e46540000000000600082015250565b6000613bc6601b83612d44565b9150613bd182613b90565b602082019050919050565b60006020820190508181036000830152613bf581613bb9565b9050919050565b7f6d6178206d696e7420616d6f756e74207065722073657373696f6e206578636560008201527f6564656400000000000000000000000000000000000000000000000000000000602082015250565b6000613c58602483612d44565b9150613c6382613bfc565b604082019050919050565b60006020820190508181036000830152613c8781613c4b565b9050919050565b6000613c9982612deb565b9150613ca483612deb565b9250828201905080821115613cbc57613cbb6137e9565b5b92915050565b7f6d6178204e4654206c696d697420657863656564656400000000000000000000600082015250565b6000613cf8601683612d44565b9150613d0382613cc2565b602082019050919050565b60006020820190508181036000830152613d2781613ceb565b9050919050565b7f75736572206973206e6f742077686974656c6973746564000000000000000000600082015250565b6000613d64601783612d44565b9150613d6f82613d2e565b602082019050919050565b60006020820190508181036000830152613d9381613d57565b9050919050565b7f6d6178204e465420706572206164647265737320657863656564656400000000600082015250565b6000613dd0601c83612d44565b9150613ddb82613d9a565b602082019050919050565b60006020820190508181036000830152613dff81613dc3565b9050919050565b6000613e1182612deb565b9150613e1c83612deb565b9250828202613e2a81612deb565b91508282048414831517613e4157613e406137e9565b5b5092915050565b7f696e73756666696369656e742066756e64730000000000000000000000000000600082015250565b6000613e7e601283612d44565b9150613e8982613e48565b602082019050919050565b60006020820190508181036000830152613ead81613e71565b9050919050565b600081905092915050565b6000613eca82612d39565b613ed48185613eb4565b9350613ee4818560208601612d55565b80840191505092915050565b6000613efc8285613ebf565b9150613f088284613ebf565b91508190509392505050565b7f4f776e61626c653a206e6577206f776e657220697320746865207a65726f206160008201527f6464726573730000000000000000000000000000000000000000000000000000602082015250565b6000613f70602683612d44565b9150613f7b82613f14565b604082019050919050565b60006020820190508181036000830152613f9f81613f63565b9050919050565b7f4f776e61626c653a2063616c6c6572206973206e6f7420746865206f776e6572600082015250565b6000613fdc602083612d44565b9150613fe782613fa6565b602082019050919050565b6000602082019050818103600083015261400b81613fcf565b9050919050565b600081519050919050565b600082825260208201905092915050565b600061403982614012565b614043818561401d565b9350614053818560208601612d55565b61405c81612d7f565b840191505092915050565b600060808201905061407c6000830187612e80565b6140896020830186612e80565b6140966040830185612f16565b81810360608301526140a8818461402e565b905095945050505050565b6000815190506140c281612c51565b92915050565b6000602082840312156140de576140dd612c1b565b5b60006140ec848285016140b3565b9150509291505056fea264697066735822122028d504ad0bd6a33eb0cad28d468c7347187821d8b53967111844274de7493a7564736f6c63430008110033",
  "linkReferences": {},
  "deployedLinkReferences": {}
}