{
  "_format": "hh-sol-artifact-1",
  "contractName": "TokemonERC721A",
  "sourceName": "contracts/TokemonERC721A.sol",
  "abi": [
    {
      "inputs": [
        {
          "internalType": "string",
          "name": "_name",
          "type": "string"
        },
        {
          "internalType": "string",
          "name": "_symbol",
          "type": "string"
        },
        {
          "internalType": "string",
          "name": "_initBaseURI",
          "type": "string"
        },
        {
          "internalType": "string",
          "name": "_initNotRevealedUri",
          "type": "string"
        }
      ],
      "stateMutability": "nonpayable",
      "type": "constructor"
    },
    {
      "inputs": [],
      "name": "ApprovalCallerNotOwnerNorApproved",
      "type": "error"
    },
    {
      "inputs": [],
      "name": "ApprovalQueryForNonexistentToken",
      "type": "error"
    },
    {
      "inputs": [],
      "name": "BalanceQueryForZeroAddress",
      "type": "error"
    },
    {
      "inputs": [],
      "name": "InvalidQueryRange",
      "type": "error"
    },
    {
      "inputs": [],
      "name": "MintERC2309QuantityExceedsLimit",
      "type": "error"
    },
    {
      "inputs": [],
      "name": "MintToZeroAddress",
      "type": "error"
    },
    {
      "inputs": [],
      "name": "MintZeroQuantity",
      "type": "error"
    },
    {
      "inputs": [],
      "name": "OwnerQueryForNonexistentToken",
      "type": "error"
    },
    {
      "inputs": [],
      "name": "OwnershipNotInitializedForExtraData",
      "type": "error"
    },
    {
      "inputs": [],
      "name": "TransferCallerNotOwnerNorApproved",
      "type": "error"
    },
    {
      "inputs": [],
      "name": "TransferFromIncorrectOwner",
      "type": "error"
    },
    {
      "inputs": [],
      "name": "TransferToNonERC721ReceiverImplementer",
      "type": "error"
    },
    {
      "inputs": [],
      "name": "TransferToZeroAddress",
      "type": "error"
    },
    {
      "inputs": [],
      "name": "URIQueryForNonexistentToken",
      "type": "error"
    },
    {
      "anonymous": false,
      "inputs": [
        {
          "indexed": true,
          "internalType": "address",
          "name": "owner",
          "type": "address"
        },
        {
          "indexed": true,
          "internalType": "address",
          "name": "approved",
          "type": "address"
        },
        {
          "indexed": true,
          "internalType": "uint256",
          "name": "tokenId",
          "type": "uint256"
        }
      ],
      "name": "Approval",
      "type": "event"
    },
    {
      "anonymous": false,
      "inputs": [
        {
          "indexed": true,
          "internalType": "address",
          "name": "owner",
          "type": "address"
        },
        {
          "indexed": true,
          "internalType": "address",
          "name": "operator",
          "type": "address"
        },
        {
          "indexed": false,
          "internalType": "bool",
          "name": "approved",
          "type": "bool"
        }
      ],
      "name": "ApprovalForAll",
      "type": "event"
    },
    {
      "anonymous": false,
      "inputs": [
        {
          "indexed": true,
          "internalType": "uint256",
          "name": "fromTokenId",
          "type": "uint256"
        },
        {
          "indexed": false,
          "internalType": "uint256",
          "name": "toTokenId",
          "type": "uint256"
        },
        {
          "indexed": true,
          "internalType": "address",
          "name": "from",
          "type": "address"
        },
        {
          "indexed": true,
          "internalType": "address",
          "name": "to",
          "type": "address"
        }
      ],
      "name": "ConsecutiveTransfer",
      "type": "event"
    },
    {
      "anonymous": false,
      "inputs": [
        {
          "indexed": true,
          "internalType": "address",
          "name": "previousOwner",
          "type": "address"
        },
        {
          "indexed": true,
          "internalType": "address",
          "name": "newOwner",
          "type": "address"
        }
      ],
      "name": "OwnershipTransferred",
      "type": "event"
    },
    {
      "anonymous": false,
      "inputs": [
        {
          "indexed": true,
          "internalType": "address",
          "name": "from",
          "type": "address"
        },
        {
          "indexed": true,
          "internalType": "address",
          "name": "to",
          "type": "address"
        },
        {
          "indexed": true,
          "internalType": "uint256",
          "name": "tokenId",
          "type": "uint256"
        }
      ],
      "name": "Transfer",
      "type": "event"
    },
    {
      "inputs": [
        {
          "internalType": "address",
          "name": "",
          "type": "address"
        }
      ],
      "name": "addressMintedBalance",
      "outputs": [
        {
          "internalType": "uint256",
          "name": "",
          "type": "uint256"
        }
      ],
      "stateMutability": "view",
      "type": "function"
    },
    {
      "inputs": [
        {
          "internalType": "address",
          "name": "to",
          "type": "address"
        },
        {
          "internalType": "uint256",
          "name": "tokenId",
          "type": "uint256"
        }
      ],
      "name": "approve",
      "outputs": [],
      "stateMutability": "payable",
      "type": "function"
    },
    {
      "inputs": [
        {
          "internalType": "address",
          "name": "owner",
          "type": "address"
        }
      ],
      "name": "balanceOf",
      "outputs": [
        {
          "internalType": "uint256",
          "name": "",
          "type": "uint256"
        }
      ],
      "stateMutability": "view",
      "type": "function"
    },
    {
      "inputs": [],
      "name": "baseExtension",
      "outputs": [
        {
          "internalType": "string",
          "name": "",
          "type": "string"
        }
      ],
      "stateMutability": "view",
      "type": "function"
    },
    {
      "inputs": [],
      "name": "baseURI",
      "outputs": [
        {
          "internalType": "string",
          "name": "",
          "type": "string"
        }
      ],
      "stateMutability": "view",
      "type": "function"
    },
    {
      "inputs": [],
      "name": "cost",
      "outputs": [
        {
          "internalType": "uint256",
          "name": "",
          "type": "uint256"
        }
      ],
      "stateMutability": "view",
      "type": "function"
    },
    {
      "inputs": [
        {
          "internalType": "uint256",
          "name": "tokenId",
          "type": "uint256"
        }
      ],
      "name": "explicitOwnershipOf",
      "outputs": [
        {
          "components": [
            {
              "internalType": "address",
              "name": "addr",
              "type": "address"
            },
            {
              "internalType": "uint64",
              "name": "startTimestamp",
              "type": "uint64"
            },
            {
              "internalType": "bool",
              "name": "burned",
              "type": "bool"
            },
            {
              "internalType": "uint24",
              "name": "extraData",
              "type": "uint24"
            }
          ],
          "internalType": "struct IERC721A.TokenOwnership",
          "name": "",
          "type": "tuple"
        }
      ],
      "stateMutability": "view",
      "type": "function"
    },
    {
      "inputs": [
        {
          "internalType": "uint256[]",
          "name": "tokenIds",
          "type": "uint256[]"
        }
      ],
      "name": "explicitOwnershipsOf",
      "outputs": [
        {
          "components": [
            {
              "internalType": "address",
              "name": "addr",
              "type": "address"
            },
            {
              "internalType": "uint64",
              "name": "startTimestamp",
              "type": "uint64"
            },
            {
              "internalType": "bool",
              "name": "burned",
              "type": "bool"
            },
            {
              "internalType": "uint24",
              "name": "extraData",
              "type": "uint24"
            }
          ],
          "internalType": "struct IERC721A.TokenOwnership[]",
          "name": "",
          "type": "tuple[]"
        }
      ],
      "stateMutability": "view",
      "type": "function"
    },
    {
      "inputs": [
        {
          "internalType": "uint256",
          "name": "tokenId",
          "type": "uint256"
        }
      ],
      "name": "getApproved",
      "outputs": [
        {
          "internalType": "address",
          "name": "",
          "type": "address"
        }
      ],
      "stateMutability": "view",
      "type": "function"
    },
    {
      "inputs": [
        {
          "internalType": "address",
          "name": "owner",
          "type": "address"
        },
        {
          "internalType": "address",
          "name": "operator",
          "type": "address"
        }
      ],
      "name": "isApprovedForAll",
      "outputs": [
        {
          "internalType": "bool",
          "name": "",
          "type": "bool"
        }
      ],
      "stateMutability": "view",
      "type": "function"
    },
    {
      "inputs": [
        {
          "internalType": "address",
          "name": "_user",
          "type": "address"
        }
      ],
      "name": "isWhitelisted",
      "outputs": [
        {
          "internalType": "bool",
          "name": "",
          "type": "bool"
        }
      ],
      "stateMutability": "view",
      "type": "function"
    },
    {
      "inputs": [],
      "name": "maxMintAmount",
      "outputs": [
        {
          "internalType": "uint256",
          "name": "",
          "type": "uint256"
        }
      ],
      "stateMutability": "view",
      "type": "function"
    },
    {
      "inputs": [],
      "name": "maxSupply",
      "outputs": [
        {
          "internalType": "uint256",
          "name": "",
          "type": "uint256"
        }
      ],
      "stateMutability": "view",
      "type": "function"
    },
    {
      "inputs": [
        {
          "internalType": "uint256",
          "name": "_mintAmount",
          "type": "uint256"
        }
      ],
      "name": "mint",
      "outputs": [],
      "stateMutability": "payable",
      "type": "function"
    },
    {
      "inputs": [],
      "name": "name",
      "outputs": [
        {
          "internalType": "string",
          "name": "",
          "type": "string"
        }
      ],
      "stateMutability": "view",
      "type": "function"
    },
    {
      "inputs": [],
      "name": "nftPerAddressLimit",
      "outputs": [
        {
          "internalType": "uint256",
          "name": "",
          "type": "uint256"
        }
      ],
      "stateMutability": "view",
      "type": "function"
    },
    {
      "inputs": [],
      "name": "notRevealedUri",
      "outputs": [
        {
          "internalType": "string",
          "name": "",
          "type": "string"
        }
      ],
      "stateMutability": "view",
      "type": "function"
    },
    {
      "inputs": [],
      "name": "onlyWhitelisted",
      "outputs": [
        {
          "internalType": "bool",
          "name": "",
          "type": "bool"
        }
      ],
      "stateMutability": "view",
      "type": "function"
    },
    {
      "inputs": [],
      "name": "owner",
      "outputs": [
        {
          "internalType": "address",
          "name": "",
          "type": "address"
        }
      ],
      "stateMutability": "view",
      "type": "function"
    },
    {
      "inputs": [
        {
          "internalType": "uint256",
          "name": "tokenId",
          "type": "uint256"
        }
      ],
      "name": "ownerOf",
      "outputs": [
        {
          "internalType": "address",
          "name": "",
          "type": "address"
        }
      ],
      "stateMutability": "view",
      "type": "function"
    },
    {
      "inputs": [
        {
          "internalType": "bool",
          "name": "_state",
          "type": "bool"
        }
      ],
      "name": "pause",
      "outputs": [],
      "stateMutability": "nonpayable",
      "type": "function"
    },
    {
      "inputs": [],
      "name": "paused",
      "outputs": [
        {
          "internalType": "bool",
          "name": "",
          "type": "bool"
        }
      ],
      "stateMutability": "view",
      "type": "function"
    },
    {
      "inputs": [],
      "name": "renounceOwnership",
      "outputs": [],
      "stateMutability": "nonpayable",
      "type": "function"
    },
    {
      "inputs": [],
      "name": "reveal",
      "outputs": [],
      "stateMutability": "nonpayable",
      "type": "function"
    },
    {
      "inputs": [],
      "name": "revealed",
      "outputs": [
        {
          "internalType": "bool",
          "name": "",
          "type": "bool"
        }
      ],
      "stateMutability": "view",
      "type": "function"
    },
    {
      "inputs": [
        {
          "internalType": "address",
          "name": "from",
          "type": "address"
        },
        {
          "internalType": "address",
          "name": "to",
          "type": "address"
        },
        {
          "internalType": "uint256",
          "name": "tokenId",
          "type": "uint256"
        }
      ],
      "name": "safeTransferFrom",
      "outputs": [],
      "stateMutability": "payable",
      "type": "function"
    },
    {
      "inputs": [
        {
          "internalType": "address",
          "name": "from",
          "type": "address"
        },
        {
          "internalType": "address",
          "name": "to",
          "type": "address"
        },
        {
          "internalType": "uint256",
          "name": "tokenId",
          "type": "uint256"
        },
        {
          "internalType": "bytes",
          "name": "_data",
          "type": "bytes"
        }
      ],
      "name": "safeTransferFrom",
      "outputs": [],
      "stateMutability": "payable",
      "type": "function"
    },
    {
      "inputs": [
        {
          "internalType": "address",
          "name": "operator",
          "type": "address"
        },
        {
          "internalType": "bool",
          "name": "approved",
          "type": "bool"
        }
      ],
      "name": "setApprovalForAll",
      "outputs": [],
      "stateMutability": "nonpayable",
      "type": "function"
    },
    {
      "inputs": [
        {
          "internalType": "string",
          "name": "_newBaseExtension",
          "type": "string"
        }
      ],
      "name": "setBaseExtension",
      "outputs": [],
      "stateMutability": "nonpayable",
      "type": "function"
    },
    {
      "inputs": [
        {
          "internalType": "string",
          "name": "_newBaseURI",
          "type": "string"
        }
      ],
      "name": "setBaseURI",
      "outputs": [],
      "stateMutability": "nonpayable",
      "type": "function"
    },
    {
      "inputs": [
        {
          "internalType": "uint256",
          "name": "_newCost",
          "type": "uint256"
        }
      ],
      "name": "setCost",
      "outputs": [],
      "stateMutability": "nonpayable",
      "type": "function"
    },
    {
      "inputs": [
        {
          "internalType": "uint256",
          "name": "_limit",
          "type": "uint256"
        }
      ],
      "name": "setNftPerAddressLimit",
      "outputs": [],
      "stateMutability": "nonpayable",
      "type": "function"
    },
    {
      "inputs": [
        {
          "internalType": "string",
          "name": "_notRevealedURI",
          "type": "string"
        }
      ],
      "name": "setNotRevealedURI",
      "outputs": [],
      "stateMutability": "nonpayable",
      "type": "function"
    },
    {
      "inputs": [
        {
          "internalType": "bool",
          "name": "_state",
          "type": "bool"
        }
      ],
      "name": "setOnlyWhitelisted",
      "outputs": [],
      "stateMutability": "nonpayable",
      "type": "function"
    },
    {
      "inputs": [
        {
          "internalType": "uint256",
          "name": "_newmaxMintAmount",
          "type": "uint256"
        }
      ],
      "name": "setmaxMintAmount",
      "outputs": [],
      "stateMutability": "nonpayable",
      "type": "function"
    },
    {
      "inputs": [
        {
          "internalType": "bytes4",
          "name": "interfaceId",
          "type": "bytes4"
        }
      ],
      "name": "supportsInterface",
      "outputs": [
        {
          "internalType": "bool",
          "name": "",
          "type": "bool"
        }
      ],
      "stateMutability": "view",
      "type": "function"
    },
    {
      "inputs": [],
      "name": "symbol",
      "outputs": [
        {
          "internalType": "string",
          "name": "",
          "type": "string"
        }
      ],
      "stateMutability": "view",
      "type": "function"
    },
    {
      "inputs": [
        {
          "internalType": "uint256",
          "name": "tokenId",
          "type": "uint256"
        }
      ],
      "name": "tokenURI",
      "outputs": [
        {
          "internalType": "string",
          "name": "",
          "type": "string"
        }
      ],
      "stateMutability": "view",
      "type": "function"
    },
    {
      "inputs": [
        {
          "internalType": "address",
          "name": "owner",
          "type": "address"
        }
      ],
      "name": "tokensOfOwner",
      "outputs": [
        {
          "internalType": "uint256[]",
          "name": "",
          "type": "uint256[]"
        }
      ],
      "stateMutability": "view",
      "type": "function"
    },
    {
      "inputs": [
        {
          "internalType": "address",
          "name": "owner",
          "type": "address"
        },
        {
          "internalType": "uint256",
          "name": "start",
          "type": "uint256"
        },
        {
          "internalType": "uint256",
          "name": "stop",
          "type": "uint256"
        }
      ],
      "name": "tokensOfOwnerIn",
      "outputs": [
        {
          "internalType": "uint256[]",
          "name": "",
          "type": "uint256[]"
        }
      ],
      "stateMutability": "view",
      "type": "function"
    },
    {
      "inputs": [],
      "name": "totalSupply",
      "outputs": [
        {
          "internalType": "uint256",
          "name": "",
          "type": "uint256"
        }
      ],
      "stateMutability": "view",
      "type": "function"
    },
    {
      "inputs": [
        {
          "internalType": "address",
          "name": "from",
          "type": "address"
        },
        {
          "internalType": "address",
          "name": "to",
          "type": "address"
        },
        {
          "internalType": "uint256",
          "name": "tokenId",
          "type": "uint256"
        }
      ],
      "name": "transferFrom",
      "outputs": [],
      "stateMutability": "payable",
      "type": "function"
    },
    {
      "inputs": [
        {
          "internalType": "address",
          "name": "newOwner",
          "type": "address"
        }
      ],
      "name": "transferOwnership",
      "outputs": [],
      "stateMutability": "nonpayable",
      "type": "function"
    },
    {
      "inputs": [
        {
          "internalType": "address[]",
          "name": "_users",
          "type": "address[]"
        }
      ],
      "name": "whitelistUsers",
      "outputs": [],
      "stateMutability": "nonpayable",
      "type": "function"
    },
    {
      "inputs": [
        {
          "internalType": "uint256",
          "name": "",
          "type": "uint256"
        }
      ],
      "name": "whitelistedAddresses",
      "outputs": [
        {
          "internalType": "address",
          "name": "",
          "type": "address"
        }
      ],
      "stateMutability": "view",
      "type": "function"
    },
    {
      "inputs": [],
      "name": "withdraw",
      "outputs": [],
      "stateMutability": "payable",
      "type": "function"
    }
  ],
  "bytecode": "0x60806040526040518060400160405280600581526020017f2e6a736f6e000000000000000000000000000000000000000000000000000000815250600a90816200004a9190620005c5565b5066038d7ea4c68000600c556064600d556002600e556002600f556000601060006101000a81548160ff0219169083151502179055506001601060016101000a81548160ff0219169083151502179055506000601060026101000a81548160ff021916908315150217905550348015620000c357600080fd5b5060405162004ae838038062004ae88339818101604052810190620000e9919062000810565b83838160029081620000fc9190620005c5565b5080600390816200010e9190620005c5565b506200011f6200017360201b60201c565b6000819055505050620001476200013b6200017860201b60201c565b6200018060201b60201c565b62000158826200024660201b60201c565b62000169816200026b60201b60201c565b5050505062000981565b600090565b600033905090565b6000600860009054906101000a900473ffffffffffffffffffffffffffffffffffffffff16905081600860006101000a81548173ffffffffffffffffffffffffffffffffffffffff021916908373ffffffffffffffffffffffffffffffffffffffff1602179055508173ffffffffffffffffffffffffffffffffffffffff168173ffffffffffffffffffffffffffffffffffffffff167f8be0079c531659141344cd1fd0a4f28419497f9722a3daafe3b4186f6b6457e060405160405180910390a35050565b620002566200029060201b60201c565b8060099081620002679190620005c5565b5050565b6200027b6200029060201b60201c565b80600b90816200028c9190620005c5565b5050565b620002a06200017860201b60201c565b73ffffffffffffffffffffffffffffffffffffffff16620002c66200032160201b60201c565b73ffffffffffffffffffffffffffffffffffffffff16146200031f576040517f08c379a000000000000000000000000000000000000000000000000000000000815260040162000316906200095f565b60405180910390fd5b565b6000600860009054906101000a900473ffffffffffffffffffffffffffffffffffffffff16905090565b600081519050919050565b7f4e487b7100000000000000000000000000000000000000000000000000000000600052604160045260246000fd5b7f4e487b7100000000000000000000000000000000000000000000000000000000600052602260045260246000fd5b60006002820490506001821680620003cd57607f821691505b602082108103620003e357620003e262000385565b5b50919050565b60008190508160005260206000209050919050565b60006020601f8301049050919050565b600082821b905092915050565b6000600883026200044d7fffffffffffffffffffffffffffffffffffffffffffffffffffffffffffffffff826200040e565b6200045986836200040e565b95508019841693508086168417925050509392505050565b6000819050919050565b6000819050919050565b6000620004a6620004a06200049a8462000471565b6200047b565b62000471565b9050919050565b6000819050919050565b620004c28362000485565b620004da620004d182620004ad565b8484546200041b565b825550505050565b600090565b620004f1620004e2565b620004fe818484620004b7565b505050565b5b8181101562000526576200051a600082620004e7565b60018101905062000504565b5050565b601f82111562000575576200053f81620003e9565b6200054a84620003fe565b810160208510156200055a578190505b620005726200056985620003fe565b83018262000503565b50505b505050565b600082821c905092915050565b60006200059a600019846008026200057a565b1980831691505092915050565b6000620005b5838362000587565b9150826002028217905092915050565b620005d0826200034b565b67ffffffffffffffff811115620005ec57620005eb62000356565b5b620005f88254620003b4565b620006058282856200052a565b600060209050601f8311600181146200063d576000841562000628578287015190505b620006348582620005a7565b865550620006a4565b601f1984166200064d86620003e9565b60005b82811015620006775784890151825560018201915060208501945060208101905062000650565b8683101562000697578489015162000693601f89168262000587565b8355505b6001600288020188555050505b505050505050565b6000604051905090565b600080fd5b600080fd5b600080fd5b600080fd5b6000601f19601f8301169050919050565b620006e682620006ca565b810181811067ffffffffffffffff8211171562000708576200070762000356565b5b80604052505050565b60006200071d620006ac565b90506200072b8282620006db565b919050565b600067ffffffffffffffff8211156200074e576200074d62000356565b5b6200075982620006ca565b9050602081019050919050565b60005b838110156200078657808201518184015260208101905062000769565b60008484015250505050565b6000620007a9620007a38462000730565b62000711565b905082815260208101848484011115620007c857620007c7620006c5565b5b620007d584828562000766565b509392505050565b600082601f830112620007f557620007f4620006c0565b5b81516200080784826020860162000792565b91505092915050565b600080600080608085870312156200082d576200082c620006b6565b5b600085015167ffffffffffffffff8111156200084e576200084d620006bb565b5b6200085c87828801620007dd565b945050602085015167ffffffffffffffff81111562000880576200087f620006bb565b5b6200088e87828801620007dd565b935050604085015167ffffffffffffffff811115620008b257620008b1620006bb565b5b620008c087828801620007dd565b925050606085015167ffffffffffffffff811115620008e457620008e3620006bb565b5b620008f287828801620007dd565b91505092959194509250565b600082825260208201905092915050565b7f4f776e61626c653a2063616c6c6572206973206e6f7420746865206f776e6572600082015250565b600062000947602083620008fe565b915062000954826200090f565b602082019050919050565b600060208201905081810360008301526200097a8162000938565b9050919050565b61415780620009916000396000f3fe60806040526004361061027d5760003560e01c8063715018a61161014f578063ba4e5c49116100c1578063d5abeb011161007a578063d5abeb0114610970578063da3ef23f1461099b578063e985e9c5146109c4578063edec5f2714610a01578063f2c4ce1e14610a2a578063f2fde38b14610a535761027d565b8063ba4e5c491461083a578063ba7d2c7614610877578063c23dc68f146108a2578063c6682862146108df578063c87b56dd1461090a578063d0eb26b0146109475761027d565b806399a2557a1161011357806399a2557a1461075a5780639c70b51214610797578063a0712d68146107c2578063a22cb465146107de578063a475b5dd14610807578063b88d4fde1461081e5761027d565b8063715018a6146106875780637f00c7a61461069e5780638462151c146106c75780638da5cb5b1461070457806395d89b411461072f5761027d565b80633af32abf116101f357806355f804b3116101ac57806355f804b3146105515780635bbb21771461057a5780635c975abb146105b75780636352211e146105e25780636c0360eb1461061f57806370a082311461064a5761027d565b80633af32abf146104715780633c952764146104ae5780633ccfd60b146104d757806342842e0e146104e157806344a0d68a146104fd57806351830227146105265761027d565b8063095ea7b311610245578063095ea7b31461037b57806313faede61461039757806318160ddd146103c257806318cae269146103ed578063239c70ae1461042a57806323b872dd146104555761027d565b806301ffc9a71461028257806302329a29146102bf57806306fdde03146102e8578063081812fc14610313578063081c8c4414610350575b600080fd5b34801561028e57600080fd5b506102a960048036038101906102a49190612ca9565b610a7c565b6040516102b69190612cf1565b60405180910390f35b3480156102cb57600080fd5b506102e660048036038101906102e19190612d38565b610b0e565b005b3480156102f457600080fd5b506102fd610b33565b60405161030a9190612df5565b60405180910390f35b34801561031f57600080fd5b5061033a60048036038101906103359190612e4d565b610bc5565b6040516103479190612ebb565b60405180910390f35b34801561035c57600080fd5b50610365610c44565b6040516103729190612df5565b60405180910390f35b61039560048036038101906103909190612f02565b610cd2565b005b3480156103a357600080fd5b506103ac610e16565b6040516103b99190612f51565b60405180910390f35b3480156103ce57600080fd5b506103d7610e1c565b6040516103e49190612f51565b60405180910390f35b3480156103f957600080fd5b50610414600480360381019061040f9190612f6c565b610e33565b6040516104219190612f51565b60405180910390f35b34801561043657600080fd5b5061043f610e4b565b60405161044c9190612f51565b60405180910390f35b61046f600480360381019061046a9190612f99565b610e51565b005b34801561047d57600080fd5b5061049860048036038101906104939190612f6c565b611173565b6040516104a59190612cf1565b60405180910390f35b3480156104ba57600080fd5b506104d560048036038101906104d09190612d38565b611221565b005b6104df611246565b005b6104fb60048036038101906104f69190612f99565b6112ce565b005b34801561050957600080fd5b50610524600480360381019061051f9190612e4d565b6112ee565b005b34801561053257600080fd5b5061053b611300565b6040516105489190612cf1565b60405180910390f35b34801561055d57600080fd5b5061057860048036038101906105739190613121565b611313565b005b34801561058657600080fd5b506105a1600480360381019061059c91906131ca565b61132e565b6040516105ae919061337a565b60405180910390f35b3480156105c357600080fd5b506105cc6113f1565b6040516105d99190612cf1565b60405180910390f35b3480156105ee57600080fd5b5061060960048036038101906106049190612e4d565b611404565b6040516106169190612ebb565b60405180910390f35b34801561062b57600080fd5b50610634611416565b6040516106419190612df5565b60405180910390f35b34801561065657600080fd5b50610671600480360381019061066c9190612f6c565b6114a4565b60405161067e9190612f51565b60405180910390f35b34801561069357600080fd5b5061069c61155c565b005b3480156106aa57600080fd5b506106c560048036038101906106c09190612e4d565b611570565b005b3480156106d357600080fd5b506106ee60048036038101906106e99190612f6c565b611582565b6040516106fb919061345a565b60405180910390f35b34801561071057600080fd5b506107196116c5565b6040516107269190612ebb565b60405180910390f35b34801561073b57600080fd5b506107446116ef565b6040516107519190612df5565b60405180910390f35b34801561076657600080fd5b50610781600480360381019061077c919061347c565b611781565b60405161078e919061345a565b60405180910390f35b3480156107a357600080fd5b506107ac61198d565b6040516107b99190612cf1565b60405180910390f35b6107dc60048036038101906107d79190612e4d565b6119a0565b005b3480156107ea57600080fd5b50610805600480360381019061080091906134cf565b611ce8565b005b34801561081357600080fd5b5061081c611df3565b005b610838600480360381019061083391906135b0565b611e18565b005b34801561084657600080fd5b50610861600480360381019061085c9190612e4d565b611e8b565b60405161086e9190612ebb565b60405180910390f35b34801561088357600080fd5b5061088c611eca565b6040516108999190612f51565b60405180910390f35b3480156108ae57600080fd5b506108c960048036038101906108c49190612e4d565b611ed0565b6040516108d69190613688565b60405180910390f35b3480156108eb57600080fd5b506108f4611f3a565b6040516109019190612df5565b60405180910390f35b34801561091657600080fd5b50610931600480360381019061092c9190612e4d565b611fc8565b60405161093e9190612df5565b60405180910390f35b34801561095357600080fd5b5061096e60048036038101906109699190612e4d565b612066565b005b34801561097c57600080fd5b50610985612078565b6040516109929190612f51565b60405180910390f35b3480156109a757600080fd5b506109c260048036038101906109bd9190613121565b61207e565b005b3480156109d057600080fd5b506109eb60048036038101906109e691906136a3565b612099565b6040516109f89190612cf1565b60405180910390f35b348015610a0d57600080fd5b50610a286004803603810190610a239190613739565b61212d565b005b348015610a3657600080fd5b50610a516004803603810190610a4c9190613121565b612159565b005b348015610a5f57600080fd5b50610a7a6004803603810190610a759190612f6c565b612174565b005b60006301ffc9a760e01b827bffffffffffffffffffffffffffffffffffffffffffffffffffffffff19161480610ad757506380ac58cd60e01b827bffffffffffffffffffffffffffffffffffffffffffffffffffffffff1916145b80610b075750635b5e139f60e01b827bffffffffffffffffffffffffffffffffffffffffffffffffffffffff1916145b9050919050565b610b166121f7565b80601060006101000a81548160ff02191690831515021790555050565b606060028054610b42906137b5565b80601f0160208091040260200160405190810160405280929190818152602001828054610b6e906137b5565b8015610bbb5780601f10610b9057610100808354040283529160200191610bbb565b820191906000526020600020905b815481529060010190602001808311610b9e57829003601f168201915b5050505050905090565b6000610bd082612275565b610c06576040517fcf4700e400000000000000000000000000000000000000000000000000000000815260040160405180910390fd5b6006600083815260200190815260200160002060000160009054906101000a900473ffffffffffffffffffffffffffffffffffffffff169050919050565b600b8054610c51906137b5565b80601f0160208091040260200160405190810160405280929190818152602001828054610c7d906137b5565b8015610cca5780601f10610c9f57610100808354040283529160200191610cca565b820191906000526020600020905b815481529060010190602001808311610cad57829003601f168201915b505050505081565b6000610cdd82611404565b90508073ffffffffffffffffffffffffffffffffffffffff16610cfe6122d4565b73ffffffffffffffffffffffffffffffffffffffff1614610d6157610d2a81610d256122d4565b612099565b610d60576040517fcfb3b94200000000000000000000000000000000000000000000000000000000815260040160405180910390fd5b5b826006600084815260200190815260200160002060000160006101000a81548173ffffffffffffffffffffffffffffffffffffffff021916908373ffffffffffffffffffffffffffffffffffffffff160217905550818373ffffffffffffffffffffffffffffffffffffffff168273ffffffffffffffffffffffffffffffffffffffff167f8c5be1e5ebec7d5bd14f71427d1e84f3dd0314c0f7b2291e5b200ac8c7c3b92560405160405180910390a4505050565b600c5481565b6000610e266122dc565b6001546000540303905090565b60126020528060005260406000206000915090505481565b600e5481565b6000610e5c826122e1565b90508373ffffffffffffffffffffffffffffffffffffffff168173ffffffffffffffffffffffffffffffffffffffff1614610ec3576040517fa114810000000000000000000000000000000000000000000000000000000000815260040160405180910390fd5b600080610ecf846123ad565b91509150610ee58187610ee06122d4565b6123d4565b610f3157610efa86610ef56122d4565b612099565b610f30576040517f59c896be00000000000000000000000000000000000000000000000000000000815260040160405180910390fd5b5b600073ffffffffffffffffffffffffffffffffffffffff168573ffffffffffffffffffffffffffffffffffffffff1603610f97576040517fea553b3400000000000000000000000000000000000000000000000000000000815260040160405180910390fd5b610fa48686866001612418565b8015610faf57600082555b600560008773ffffffffffffffffffffffffffffffffffffffff1673ffffffffffffffffffffffffffffffffffffffff168152602001908152602001600020600081546001900391905081905550600560008673ffffffffffffffffffffffffffffffffffffffff1673ffffffffffffffffffffffffffffffffffffffff168152602001908152602001600020600081546001019190508190555061107d8561105988888761241e565b7c020000000000000000000000000000000000000000000000000000000017612446565b600460008681526020019081526020016000208190555060007c02000000000000000000000000000000000000000000000000000000008416036111035760006001850190506000600460008381526020019081526020016000205403611101576000548114611100578360046000838152602001908152602001600020819055505b5b505b838573ffffffffffffffffffffffffffffffffffffffff168773ffffffffffffffffffffffffffffffffffffffff167fddf252ad1be2c89b69c2b068fc378daa952ba7f163c4a11628f55a4df523b3ef60405160405180910390a461116b8686866001612471565b505050505050565b600080600090505b601180549050811015611216578273ffffffffffffffffffffffffffffffffffffffff16601182815481106111b3576111b26137e6565b5b9060005260206000200160009054906101000a900473ffffffffffffffffffffffffffffffffffffffff1673ffffffffffffffffffffffffffffffffffffffff160361120357600191505061121c565b808061120e90613844565b91505061117b565b50600090505b919050565b6112296121f7565b80601060026101000a81548160ff02191690831515021790555050565b61124e6121f7565b60006112586116c5565b73ffffffffffffffffffffffffffffffffffffffff164760405161127b906138bd565b60006040518083038185875af1925050503d80600081146112b8576040519150601f19603f3d011682016040523d82523d6000602084013e6112bd565b606091505b50509050806112cb57600080fd5b50565b6112e983838360405180602001604052806000815250611e18565b505050565b6112f66121f7565b80600c8190555050565b601060019054906101000a900460ff1681565b61131b6121f7565b806009908161132a9190613a7e565b5050565b6060600083839050905060008167ffffffffffffffff81111561135457611353612ff6565b5b60405190808252806020026020018201604052801561138d57816020015b61137a612b10565b8152602001906001900390816113725790505b50905060005b8281146113e5576113bc8686838181106113b0576113af6137e6565b5b90506020020135611ed0565b8282815181106113cf576113ce6137e6565b5b6020026020010181905250806001019050611393565b50809250505092915050565b601060009054906101000a900460ff1681565b600061140f826122e1565b9050919050565b60098054611423906137b5565b80601f016020809104026020016040519081016040528092919081815260200182805461144f906137b5565b801561149c5780601f106114715761010080835404028352916020019161149c565b820191906000526020600020905b81548152906001019060200180831161147f57829003601f168201915b505050505081565b60008073ffffffffffffffffffffffffffffffffffffffff168273ffffffffffffffffffffffffffffffffffffffff160361150b576040517f8f4eb60400000000000000000000000000000000000000000000000000000000815260040160405180910390fd5b67ffffffffffffffff600560008473ffffffffffffffffffffffffffffffffffffffff1673ffffffffffffffffffffffffffffffffffffffff16815260200190815260200160002054169050919050565b6115646121f7565b61156e6000612477565b565b6115786121f7565b80600e8190555050565b60606000806000611592856114a4565b905060008167ffffffffffffffff8111156115b0576115af612ff6565b5b6040519080825280602002602001820160405280156115de5781602001602082028036833780820191505090505b5090506115e9612b10565b60006115f36122dc565b90505b8386146116b7576116068161253d565b915081604001516116ac57600073ffffffffffffffffffffffffffffffffffffffff16826000015173ffffffffffffffffffffffffffffffffffffffff161461165157816000015194505b8773ffffffffffffffffffffffffffffffffffffffff168573ffffffffffffffffffffffffffffffffffffffff16036116ab578083878060010198508151811061169e5761169d6137e6565b5b6020026020010181815250505b5b8060010190506115f6565b508195505050505050919050565b6000600860009054906101000a900473ffffffffffffffffffffffffffffffffffffffff16905090565b6060600380546116fe906137b5565b80601f016020809104026020016040519081016040528092919081815260200182805461172a906137b5565b80156117775780601f1061174c57610100808354040283529160200191611777565b820191906000526020600020905b81548152906001019060200180831161175a57829003601f168201915b5050505050905090565b60608183106117bc576040517f32c1995a00000000000000000000000000000000000000000000000000000000815260040160405180910390fd5b6000806117c7612568565b90506117d16122dc565b8510156117e3576117e06122dc565b94505b808411156117ef578093505b60006117fa876114a4565b90508486101561181d576000868603905081811015611817578091505b50611822565b600090505b60008167ffffffffffffffff81111561183e5761183d612ff6565b5b60405190808252806020026020018201604052801561186c5781602001602082028036833780820191505090505b509050600082036118835780945050505050611986565b600061188e88611ed0565b9050600081604001516118a357816000015190505b60008990505b8881141580156118b95750848714155b15611978576118c78161253d565b9250826040015161196d57600073ffffffffffffffffffffffffffffffffffffffff16836000015173ffffffffffffffffffffffffffffffffffffffff161461191257826000015191505b8a73ffffffffffffffffffffffffffffffffffffffff168273ffffffffffffffffffffffffffffffffffffffff160361196c578084888060010199508151811061195f5761195e6137e6565b5b6020026020010181815250505b5b8060010190506118a9565b508583528296505050505050505b9392505050565b601060029054906101000a900460ff1681565b601060009054906101000a900460ff16156119f0576040517f08c379a00000000000000000000000000000000000000000000000000000000081526004016119e790613b9c565b60405180910390fd5b60006119fa610e1c565b905060008211611a3f576040517f08c379a0000000000000000000000000000000000000000000000000000000008152600401611a3690613c08565b60405180910390fd5b600e54821115611a84576040517f08c379a0000000000000000000000000000000000000000000000000000000008152600401611a7b90613c9a565b60405180910390fd5b600d548282611a939190613cba565b1115611ad4576040517f08c379a0000000000000000000000000000000000000000000000000000000008152600401611acb90613d3a565b60405180910390fd5b611adc6116c5565b73ffffffffffffffffffffffffffffffffffffffff163373ffffffffffffffffffffffffffffffffffffffff1614611c585760011515601060029054906101000a900460ff16151503611c0757611b3233611173565b611b71576040517f08c379a0000000000000000000000000000000000000000000000000000000008152600401611b6890613da6565b60405180910390fd5b6000601260003373ffffffffffffffffffffffffffffffffffffffff1673ffffffffffffffffffffffffffffffffffffffff168152602001908152602001600020549050600f548382611bc49190613cba565b1115611c05576040517f08c379a0000000000000000000000000000000000000000000000000000000008152600401611bfc90613e12565b60405180910390fd5b505b81600c54611c159190613e32565b341015611c57576040517f08c379a0000000000000000000000000000000000000000000000000000000008152600401611c4e90613ec0565b60405180910390fd5b5b6000600190505b828111611ce357601260003373ffffffffffffffffffffffffffffffffffffffff1673ffffffffffffffffffffffffffffffffffffffff1681526020019081526020016000206000815480929190611cb690613844565b9190505550611cd0338284611ccb9190613cba565b612571565b8080611cdb90613844565b915050611c5f565b505050565b8060076000611cf56122d4565b73ffffffffffffffffffffffffffffffffffffffff1673ffffffffffffffffffffffffffffffffffffffff16815260200190815260200160002060008473ffffffffffffffffffffffffffffffffffffffff1673ffffffffffffffffffffffffffffffffffffffff16815260200190815260200160002060006101000a81548160ff0219169083151502179055508173ffffffffffffffffffffffffffffffffffffffff16611da26122d4565b73ffffffffffffffffffffffffffffffffffffffff167f17307eab39ab6107e8899845ad3d59bd9653f200f220920489ca2b5937696c3183604051611de79190612cf1565b60405180910390a35050565b611dfb6121f7565b6001601060016101000a81548160ff021916908315150217905550565b611e23848484610e51565b60008373ffffffffffffffffffffffffffffffffffffffff163b14611e8557611e4e8484848461258f565b611e84576040517fd1a57ed600000000000000000000000000000000000000000000000000000000815260040160405180910390fd5b5b50505050565b60118181548110611e9b57600080fd5b906000526020600020016000915054906101000a900473ffffffffffffffffffffffffffffffffffffffff1681565b600f5481565b611ed8612b10565b611ee0612b10565b611ee86122dc565b831080611efc5750611ef8612568565b8310155b15611f0a5780915050611f35565b611f138361253d565b9050806040015115611f285780915050611f35565b611f31836126df565b9150505b919050565b600a8054611f47906137b5565b80601f0160208091040260200160405190810160405280929190818152602001828054611f73906137b5565b8015611fc05780601f10611f9557610100808354040283529160200191611fc0565b820191906000526020600020905b815481529060010190602001808311611fa357829003601f168201915b505050505081565b6060611fd382612275565b612009576040517fa14c4b5000000000000000000000000000000000000000000000000000000000815260040160405180910390fd5b60006120136126ff565b90506000815103612033576040518060200160405280600081525061205e565b8061203d84612791565b60405160200161204e929190613f1c565b6040516020818303038152906040525b915050919050565b61206e6121f7565b80600f8190555050565b600d5481565b6120866121f7565b80600a90816120959190613a7e565b5050565b6000600760008473ffffffffffffffffffffffffffffffffffffffff1673ffffffffffffffffffffffffffffffffffffffff16815260200190815260200160002060008373ffffffffffffffffffffffffffffffffffffffff1673ffffffffffffffffffffffffffffffffffffffff16815260200190815260200160002060009054906101000a900460ff16905092915050565b6121356121f7565b601160006121439190612b5f565b818160119190612154929190612b80565b505050565b6121616121f7565b80600b90816121709190613a7e565b5050565b61217c6121f7565b600073ffffffffffffffffffffffffffffffffffffffff168173ffffffffffffffffffffffffffffffffffffffff16036121eb576040517f08c379a00000000000000000000000000000000000000000000000000000000081526004016121e290613fb2565b60405180910390fd5b6121f481612477565b50565b6121ff6127e1565b73ffffffffffffffffffffffffffffffffffffffff1661221d6116c5565b73ffffffffffffffffffffffffffffffffffffffff1614612273576040517f08c379a000000000000000000000000000000000000000000000000000000000815260040161226a9061401e565b60405180910390fd5b565b6000816122806122dc565b1115801561228f575060005482105b80156122cd575060007c0100000000000000000000000000000000000000000000000000000000600460008581526020019081526020016000205416145b9050919050565b600033905090565b600090565b600080829050806122f06122dc565b11612376576000548110156123755760006004600083815260200190815260200160002054905060007c0100000000000000000000000000000000000000000000000000000000821603612373575b6000810361236957600460008360019003935083815260200190815260200160002054905061233f565b80925050506123a8565b505b5b6040517fdf2d9b4200000000000000000000000000000000000000000000000000000000815260040160405180910390fd5b919050565b60008060006006600085815260200190815260200160002090508092508254915050915091565b600073ffffffffffffffffffffffffffffffffffffffff8316925073ffffffffffffffffffffffffffffffffffffffff821691508382148383141790509392505050565b50505050565b60008060e883901c905060e86124358686846127e9565b62ffffff16901b9150509392505050565b600073ffffffffffffffffffffffffffffffffffffffff83169250814260a01b178317905092915050565b50505050565b6000600860009054906101000a900473ffffffffffffffffffffffffffffffffffffffff16905081600860006101000a81548173ffffffffffffffffffffffffffffffffffffffff021916908373ffffffffffffffffffffffffffffffffffffffff1602179055508173ffffffffffffffffffffffffffffffffffffffff168173ffffffffffffffffffffffffffffffffffffffff167f8be0079c531659141344cd1fd0a4f28419497f9722a3daafe3b4186f6b6457e060405160405180910390a35050565b612545612b10565b61256160046000848152602001908152602001600020546127f2565b9050919050565b60008054905090565b61258b8282604051806020016040528060008152506128a8565b5050565b60008373ffffffffffffffffffffffffffffffffffffffff1663150b7a026125b56122d4565b8786866040518563ffffffff1660e01b81526004016125d79493929190614093565b6020604051808303816000875af192505050801561261357506040513d601f19601f8201168201806040525081019061261091906140f4565b60015b61268c573d8060008114612643576040519150601f19603f3d011682016040523d82523d6000602084013e612648565b606091505b506000815103612684576040517fd1a57ed600000000000000000000000000000000000000000000000000000000815260040160405180910390fd5b805181602001fd5b63150b7a0260e01b7bffffffffffffffffffffffffffffffffffffffffffffffffffffffff1916817bffffffffffffffffffffffffffffffffffffffffffffffffffffffff191614915050949350505050565b6126e7612b10565b6126f86126f3836122e1565b6127f2565b9050919050565b60606009805461270e906137b5565b80601f016020809104026020016040519081016040528092919081815260200182805461273a906137b5565b80156127875780601f1061275c57610100808354040283529160200191612787565b820191906000526020600020905b81548152906001019060200180831161276a57829003601f168201915b5050505050905090565b606060a060405101806040526020810391506000825281835b6001156127cc57600184039350600a81066030018453600a81049050806127aa575b50828103602084039350808452505050919050565b600033905090565b60009392505050565b6127fa612b10565b81816000019073ffffffffffffffffffffffffffffffffffffffff16908173ffffffffffffffffffffffffffffffffffffffff168152505060a082901c816020019067ffffffffffffffff16908167ffffffffffffffff168152505060007c01000000000000000000000000000000000000000000000000000000008316141581604001901515908115158152505060e882901c816060019062ffffff16908162ffffff1681525050919050565b6128b28383612945565b60008373ffffffffffffffffffffffffffffffffffffffff163b1461294057600080549050600083820390505b6128f2600086838060010194508661258f565b612928576040517fd1a57ed600000000000000000000000000000000000000000000000000000000815260040160405180910390fd5b8181106128df57816000541461293d57600080fd5b50505b505050565b60008054905060008203612985576040517fb562e8dd00000000000000000000000000000000000000000000000000000000815260040160405180910390fd5b6129926000848385612418565b600160406001901b178202600560008573ffffffffffffffffffffffffffffffffffffffff1673ffffffffffffffffffffffffffffffffffffffff16815260200190815260200160002060008282540192505081905550612a09836129fa600086600061241e565b612a0385612b00565b17612446565b6004600083815260200190815260200160002081905550600080838301905073ffffffffffffffffffffffffffffffffffffffff85169150828260007fddf252ad1be2c89b69c2b068fc378daa952ba7f163c4a11628f55a4df523b3ef600080a4600183015b818114612aaa57808360007fddf252ad1be2c89b69c2b068fc378daa952ba7f163c4a11628f55a4df523b3ef600080a4600181019050612a6f565b5060008203612ae5576040517f2e07630000000000000000000000000000000000000000000000000000000000815260040160405180910390fd5b806000819055505050612afb6000848385612471565b505050565b60006001821460e11b9050919050565b6040518060800160405280600073ffffffffffffffffffffffffffffffffffffffff168152602001600067ffffffffffffffff168152602001600015158152602001600062ffffff1681525090565b5080546000825590600052602060002090810190612b7d9190612c20565b50565b828054828255906000526020600020908101928215612c0f579160200282015b82811115612c0e57823573ffffffffffffffffffffffffffffffffffffffff168260006101000a81548173ffffffffffffffffffffffffffffffffffffffff021916908373ffffffffffffffffffffffffffffffffffffffff16021790555091602001919060010190612ba0565b5b509050612c1c9190612c20565b5090565b5b80821115612c39576000816000905550600101612c21565b5090565b6000604051905090565b600080fd5b600080fd5b60007fffffffff0000000000000000000000000000000000000000000000000000000082169050919050565b612c8681612c51565b8114612c9157600080fd5b50565b600081359050612ca381612c7d565b92915050565b600060208284031215612cbf57612cbe612c47565b5b6000612ccd84828501612c94565b91505092915050565b60008115159050919050565b612ceb81612cd6565b82525050565b6000602082019050612d066000830184612ce2565b92915050565b612d1581612cd6565b8114612d2057600080fd5b50565b600081359050612d3281612d0c565b92915050565b600060208284031215612d4e57612d4d612c47565b5b6000612d5c84828501612d23565b91505092915050565b600081519050919050565b600082825260208201905092915050565b60005b83811015612d9f578082015181840152602081019050612d84565b60008484015250505050565b6000601f19601f8301169050919050565b6000612dc782612d65565b612dd18185612d70565b9350612de1818560208601612d81565b612dea81612dab565b840191505092915050565b60006020820190508181036000830152612e0f8184612dbc565b905092915050565b6000819050919050565b612e2a81612e17565b8114612e3557600080fd5b50565b600081359050612e4781612e21565b92915050565b600060208284031215612e6357612e62612c47565b5b6000612e7184828501612e38565b91505092915050565b600073ffffffffffffffffffffffffffffffffffffffff82169050919050565b6000612ea582612e7a565b9050919050565b612eb581612e9a565b82525050565b6000602082019050612ed06000830184612eac565b92915050565b612edf81612e9a565b8114612eea57600080fd5b50565b600081359050612efc81612ed6565b92915050565b60008060408385031215612f1957612f18612c47565b5b6000612f2785828601612eed565b9250506020612f3885828601612e38565b9150509250929050565b612f4b81612e17565b82525050565b6000602082019050612f666000830184612f42565b92915050565b600060208284031215612f8257612f81612c47565b5b6000612f9084828501612eed565b91505092915050565b600080600060608486031215612fb257612fb1612c47565b5b6000612fc086828701612eed565b9350506020612fd186828701612eed565b9250506040612fe286828701612e38565b9150509250925092565b600080fd5b600080fd5b7f4e487b7100000000000000000000000000000000000000000000000000000000600052604160045260246000fd5b61302e82612dab565b810181811067ffffffffffffffff8211171561304d5761304c612ff6565b5b80604052505050565b6000613060612c3d565b905061306c8282613025565b919050565b600067ffffffffffffffff82111561308c5761308b612ff6565b5b61309582612dab565b9050602081019050919050565b82818337600083830152505050565b60006130c46130bf84613071565b613056565b9050828152602081018484840111156130e0576130df612ff1565b5b6130eb8482856130a2565b509392505050565b600082601f83011261310857613107612fec565b5b81356131188482602086016130b1565b91505092915050565b60006020828403121561313757613136612c47565b5b600082013567ffffffffffffffff81111561315557613154612c4c565b5b613161848285016130f3565b91505092915050565b600080fd5b600080fd5b60008083601f84011261318a57613189612fec565b5b8235905067ffffffffffffffff8111156131a7576131a661316a565b5b6020830191508360208202830111156131c3576131c261316f565b5b9250929050565b600080602083850312156131e1576131e0612c47565b5b600083013567ffffffffffffffff8111156131ff576131fe612c4c565b5b61320b85828601613174565b92509250509250929050565b600081519050919050565b600082825260208201905092915050565b6000819050602082019050919050565b61324c81612e9a565b82525050565b600067ffffffffffffffff82169050919050565b61326f81613252565b82525050565b61327e81612cd6565b82525050565b600062ffffff82169050919050565b61329c81613284565b82525050565b6080820160008201516132b86000850182613243565b5060208201516132cb6020850182613266565b5060408201516132de6040850182613275565b5060608201516132f16060850182613293565b50505050565b600061330383836132a2565b60808301905092915050565b6000602082019050919050565b600061332782613217565b6133318185613222565b935061333c83613233565b8060005b8381101561336d57815161335488826132f7565b975061335f8361330f565b925050600181019050613340565b5085935050505092915050565b60006020820190508181036000830152613394818461331c565b905092915050565b600081519050919050565b600082825260208201905092915050565b6000819050602082019050919050565b6133d181612e17565b82525050565b60006133e383836133c8565b60208301905092915050565b6000602082019050919050565b60006134078261339c565b61341181856133a7565b935061341c836133b8565b8060005b8381101561344d57815161343488826133d7565b975061343f836133ef565b925050600181019050613420565b5085935050505092915050565b6000602082019050818103600083015261347481846133fc565b905092915050565b60008060006060848603121561349557613494612c47565b5b60006134a386828701612eed565b93505060206134b486828701612e38565b92505060406134c586828701612e38565b9150509250925092565b600080604083850312156134e6576134e5612c47565b5b60006134f485828601612eed565b925050602061350585828601612d23565b9150509250929050565b600067ffffffffffffffff82111561352a57613529612ff6565b5b61353382612dab565b9050602081019050919050565b600061355361354e8461350f565b613056565b90508281526020810184848401111561356f5761356e612ff1565b5b61357a8482856130a2565b509392505050565b600082601f83011261359757613596612fec565b5b81356135a7848260208601613540565b91505092915050565b600080600080608085870312156135ca576135c9612c47565b5b60006135d887828801612eed565b94505060206135e987828801612eed565b93505060406135fa87828801612e38565b925050606085013567ffffffffffffffff81111561361b5761361a612c4c565b5b61362787828801613582565b91505092959194509250565b6080820160008201516136496000850182613243565b50602082015161365c6020850182613266565b50604082015161366f6040850182613275565b5060608201516136826060850182613293565b50505050565b600060808201905061369d6000830184613633565b92915050565b600080604083850312156136ba576136b9612c47565b5b60006136c885828601612eed565b92505060206136d985828601612eed565b9150509250929050565b60008083601f8401126136f9576136f8612fec565b5b8235905067ffffffffffffffff8111156137165761371561316a565b5b6020830191508360208202830111156137325761373161316f565b5b9250929050565b600080602083850312156137505761374f612c47565b5b600083013567ffffffffffffffff81111561376e5761376d612c4c565b5b61377a858286016136e3565b92509250509250929050565b7f4e487b7100000000000000000000000000000000000000000000000000000000600052602260045260246000fd5b600060028204905060018216806137cd57607f821691505b6020821081036137e0576137df613786565b5b50919050565b7f4e487b7100000000000000000000000000000000000000000000000000000000600052603260045260246000fd5b7f4e487b7100000000000000000000000000000000000000000000000000000000600052601160045260246000fd5b600061384f82612e17565b91507fffffffffffffffffffffffffffffffffffffffffffffffffffffffffffffffff820361388157613880613815565b5b600182019050919050565b600081905092915050565b50565b60006138a760008361388c565b91506138b282613897565b600082019050919050565b60006138c88261389a565b9150819050919050565b60008190508160005260206000209050919050565b60006020601f8301049050919050565b600082821b905092915050565b6000600883026139347fffffffffffffffffffffffffffffffffffffffffffffffffffffffffffffffff826138f7565b61393e86836138f7565b95508019841693508086168417925050509392505050565b6000819050919050565b600061397b61397661397184612e17565b613956565b612e17565b9050919050565b6000819050919050565b61399583613960565b6139a96139a182613982565b848454613904565b825550505050565b600090565b6139be6139b1565b6139c981848461398c565b505050565b5b818110156139ed576139e26000826139b6565b6001810190506139cf565b5050565b601f821115613a3257613a03816138d2565b613a0c846138e7565b81016020851015613a1b578190505b613a2f613a27856138e7565b8301826139ce565b50505b505050565b600082821c905092915050565b6000613a5560001984600802613a37565b1980831691505092915050565b6000613a6e8383613a44565b9150826002028217905092915050565b613a8782612d65565b67ffffffffffffffff811115613aa057613a9f612ff6565b5b613aaa82546137b5565b613ab58282856139f1565b600060209050601f831160018114613ae85760008415613ad6578287015190505b613ae08582613a62565b865550613b48565b601f198416613af6866138d2565b60005b82811015613b1e57848901518255600182019150602085019450602081019050613af9565b86831015613b3b5784890151613b37601f891682613a44565b8355505b6001600288020188555050505b505050505050565b7f74686520636f6e74726163742069732070617573656400000000000000000000600082015250565b6000613b86601683612d70565b9150613b9182613b50565b602082019050919050565b60006020820190508181036000830152613bb581613b79565b9050919050565b7f6e65656420746f206d696e74206174206c656173742031204e46540000000000600082015250565b6000613bf2601b83612d70565b9150613bfd82613bbc565b602082019050919050565b60006020820190508181036000830152613c2181613be5565b9050919050565b7f6d6178206d696e7420616d6f756e74207065722073657373696f6e206578636560008201527f6564656400000000000000000000000000000000000000000000000000000000602082015250565b6000613c84602483612d70565b9150613c8f82613c28565b604082019050919050565b60006020820190508181036000830152613cb381613c77565b9050919050565b6000613cc582612e17565b9150613cd083612e17565b9250828201905080821115613ce857613ce7613815565b5b92915050565b7f6d6178204e4654206c696d697420657863656564656400000000000000000000600082015250565b6000613d24601683612d70565b9150613d2f82613cee565b602082019050919050565b60006020820190508181036000830152613d5381613d17565b9050919050565b7f75736572206973206e6f742077686974656c6973746564000000000000000000600082015250565b6000613d90601783612d70565b9150613d9b82613d5a565b602082019050919050565b60006020820190508181036000830152613dbf81613d83565b9050919050565b7f6d6178204e465420706572206164647265737320657863656564656400000000600082015250565b6000613dfc601c83612d70565b9150613e0782613dc6565b602082019050919050565b60006020820190508181036000830152613e2b81613def565b9050919050565b6000613e3d82612e17565b9150613e4883612e17565b9250828202613e5681612e17565b91508282048414831517613e6d57613e6c613815565b5b5092915050565b7f696e73756666696369656e742066756e64730000000000000000000000000000600082015250565b6000613eaa601283612d70565b9150613eb582613e74565b602082019050919050565b60006020820190508181036000830152613ed981613e9d565b9050919050565b600081905092915050565b6000613ef682612d65565b613f008185613ee0565b9350613f10818560208601612d81565b80840191505092915050565b6000613f288285613eeb565b9150613f348284613eeb565b91508190509392505050565b7f4f776e61626c653a206e6577206f776e657220697320746865207a65726f206160008201527f6464726573730000000000000000000000000000000000000000000000000000602082015250565b6000613f9c602683612d70565b9150613fa782613f40565b604082019050919050565b60006020820190508181036000830152613fcb81613f8f565b9050919050565b7f4f776e61626c653a2063616c6c6572206973206e6f7420746865206f776e6572600082015250565b6000614008602083612d70565b915061401382613fd2565b602082019050919050565b6000602082019050818103600083015261403781613ffb565b9050919050565b600081519050919050565b600082825260208201905092915050565b60006140658261403e565b61406f8185614049565b935061407f818560208601612d81565b61408881612dab565b840191505092915050565b60006080820190506140a86000830187612eac565b6140b56020830186612eac565b6140c26040830185612f42565b81810360608301526140d4818461405a565b905095945050505050565b6000815190506140ee81612c7d565b92915050565b60006020828403121561410a57614109612c47565b5b6000614118848285016140df565b9150509291505056fea2646970667358221220133ffc1a1fd98ce17742d139f0e4cc9ebd004396a197d264be8eb33479db395364736f6c63430008110033",
  "linkReferences": {},
  "deployedLinkReferences": {}
}